{
  "contractName": "ERC20Tokens",
  "abi": [
    {
      "anonymous": false,
      "inputs": [
        {
          "indexed": false,
          "internalType": "string",
          "name": "ticker",
          "type": "string"
        },
        {
          "indexed": false,
          "internalType": "address",
          "name": "from",
          "type": "address"
        },
        {
          "indexed": false,
          "internalType": "uint256",
          "name": "id",
          "type": "uint256"
        },
        {
          "indexed": false,
          "internalType": "uint256",
          "name": "amount",
          "type": "uint256"
        },
        {
          "indexed": false,
          "internalType": "uint256",
          "name": "timeStamp",
          "type": "uint256"
        }
      ],
      "name": "fundsDeposited",
      "type": "event"
    },
    {
      "anonymous": false,
      "inputs": [
        {
          "indexed": false,
          "internalType": "string",
          "name": "ticker",
          "type": "string"
        },
        {
          "indexed": false,
          "internalType": "address",
          "name": "from",
          "type": "address"
        },
        {
          "indexed": false,
          "internalType": "uint256",
          "name": "id",
          "type": "uint256"
        },
        {
          "indexed": false,
          "internalType": "uint256",
          "name": "amount",
          "type": "uint256"
        },
        {
          "indexed": false,
          "internalType": "uint256",
          "name": "timeStamp",
          "type": "uint256"
        }
      ],
      "name": "fundsWithdrawed",
      "type": "event"
    },
    {
      "inputs": [
        {
          "internalType": "address",
          "name": "",
          "type": "address"
        },
        {
          "internalType": "string",
          "name": "",
          "type": "string"
        }
      ],
      "name": "balances",
      "outputs": [
        {
          "internalType": "uint256",
          "name": "",
          "type": "uint256"
        }
      ],
      "stateMutability": "view",
      "type": "function"
    },
    {
      "inputs": [],
      "name": "depositId",
      "outputs": [
        {
          "internalType": "uint256",
          "name": "",
          "type": "uint256"
        }
      ],
      "stateMutability": "view",
      "type": "function"
    },
    {
      "inputs": [
        {
          "internalType": "uint256",
          "name": "",
          "type": "uint256"
        }
      ],
      "name": "tokenList",
      "outputs": [
        {
          "internalType": "string",
          "name": "",
          "type": "string"
        }
      ],
      "stateMutability": "view",
      "type": "function"
    },
    {
      "inputs": [
        {
          "internalType": "string",
          "name": "",
          "type": "string"
        }
      ],
      "name": "tokenMapping",
      "outputs": [
        {
          "internalType": "string",
          "name": "ticker",
          "type": "string"
        },
        {
          "internalType": "address",
          "name": "tokenAddress",
          "type": "address"
        }
      ],
      "stateMutability": "view",
      "type": "function"
    },
    {
      "inputs": [],
      "name": "withdrawalId",
      "outputs": [
        {
          "internalType": "uint256",
          "name": "",
          "type": "uint256"
        }
      ],
      "stateMutability": "view",
      "type": "function"
    },
    {
      "inputs": [
        {
          "internalType": "string",
          "name": "ticker",
          "type": "string"
        },
        {
          "internalType": "address",
          "name": "tokenAddress",
          "type": "address"
        }
      ],
      "name": "addToken",
      "outputs": [],
      "stateMutability": "nonpayable",
      "type": "function"
    },
    {
      "inputs": [
        {
          "internalType": "uint256",
          "name": "amount",
          "type": "uint256"
        },
        {
          "internalType": "string",
          "name": "ticker",
          "type": "string"
        }
      ],
      "name": "depositERC20Token",
      "outputs": [
        {
          "internalType": "bool",
          "name": "_success",
          "type": "bool"
        }
      ],
      "stateMutability": "nonpayable",
      "type": "function"
    },
    {
      "inputs": [
        {
          "internalType": "uint256",
          "name": "amount",
          "type": "uint256"
        },
        {
          "internalType": "string",
          "name": "ticker",
          "type": "string"
        }
      ],
      "name": "withdrawERC20Token",
      "outputs": [],
      "stateMutability": "nonpayable",
      "type": "function"
    },
    {
      "inputs": [],
      "name": "getTokenList",
      "outputs": [
        {
          "internalType": "string[]",
          "name": "",
          "type": "string[]"
        }
      ],
      "stateMutability": "view",
      "type": "function"
    },
    {
      "inputs": [
        {
          "internalType": "address",
          "name": "tokenAddress",
          "type": "address"
        }
      ],
      "name": "getTicker",
      "outputs": [
        {
          "internalType": "string",
          "name": "",
          "type": "string"
        }
      ],
      "stateMutability": "view",
      "type": "function"
    }
  ],
  "bytecode": "0x60806040526000600255600060035534801561001a57600080fd5b50611c7b8061002a6000396000f3fe608060405234801561001057600080fd5b506004361061009e5760003560e01c80639852099c116100665780639852099c1461015b5780639ead722214610179578063ab17fdc7146101a9578063b0b22c2c146101d9578063e88ad953146101f55761009e565b806305d01f50146100a3578063273cbaa0146100d357806352cda148146100f1578063622a995c1461010f578063808953e11461012b575b600080fd5b6100bd60048036038101906100b891906112e7565b610226565b6040516100ca91906118c6565b60405180910390f35b6100db610261565b6040516100e8919061179d565b60405180910390f35b6100f961033a565b60405161010691906118c6565b60405180910390f35b61012960048036038101906101249190611463565b610340565b005b610145600480360381019061014091906112be565b610793565b60405161015291906117da565b60405180910390f35b610163610859565b60405161017091906118c6565b60405180910390f35b610193600480360381019061018e919061143a565b61085f565b6040516101a091906117da565b60405180910390f35b6101c360048036038101906101be9190611463565b61090b565b6040516101d091906117bf565b60405180910390f35b6101f360048036038101906101ee91906113e6565b610d04565b005b61020f600480360381019061020a9190611364565b61102a565b60405161021d9291906117fc565b60405180910390f35b600460205281600052604060002081805160208101820180518482526020830160208501208183528095505050505050600091509150505481565b60606001805480602002602001604051908101604052809291908181526020016000905b828210156103315783829060005260206000200180546102a490611ae7565b80601f01602080910402602001604051908101604052809291908181526020018280546102d090611ae7565b801561031d5780601f106102f25761010080835404028352916020019161031d565b820191906000526020600020905b81548152906001019060200180831161030057829003601f168201915b505050505081526020019060010190610285565b50505050905090565b60035481565b806040518060400160405280600381526020017f45544800000000000000000000000000000000000000000000000000000000008152508051906020012081805190602001201461043d57600073ffffffffffffffffffffffffffffffffffffffff166005826040516103b39190611726565b908152602001604051809103902060010160009054906101000a900473ffffffffffffffffffffffffffffffffffffffff1673ffffffffffffffffffffffffffffffffffffffff16141561043c576040517f08c379a000000000000000000000000000000000000000000000000000000000815260040161043390611886565b60405180910390fd5b5b6000805b6000805490508110156104fe573373ffffffffffffffffffffffffffffffffffffffff166000828154811061049f577f4e487b7100000000000000000000000000000000000000000000000000000000600052603260045260246000fd5b9060005260206000200160009054906101000a900473ffffffffffffffffffffffffffffffffffffffff1673ffffffffffffffffffffffffffffffffffffffff1614156104eb57600191505b80806104f690611b19565b915050610441565b50600115158115151461051057600080fd5b600073ffffffffffffffffffffffffffffffffffffffff166005846040516105389190611726565b908152602001604051809103902060010160009054906101000a900473ffffffffffffffffffffffffffffffffffffffff1673ffffffffffffffffffffffffffffffffffffffff16141561058b57600080fd5b83600460003373ffffffffffffffffffffffffffffffffffffffff1673ffffffffffffffffffffffffffffffffffffffff168152602001908152602001600020846040516105d99190611726565b90815260200160405180910390205410156105f357600080fd5b83600460003373ffffffffffffffffffffffffffffffffffffffff1673ffffffffffffffffffffffffffffffffffffffff168152602001908152602001600020846040516106419190611726565b9081526020016040518091039020600082825461065e9190611a29565b925050819055506005836040516106759190611726565b908152602001604051809103902060010160009054906101000a900473ffffffffffffffffffffffffffffffffffffffff1673ffffffffffffffffffffffffffffffffffffffff1663a9059cbb33866040518363ffffffff1660e01b81526004016106e1929190611774565b602060405180830381600087803b1580156106fb57600080fd5b505af115801561070f573d6000803e3d6000fd5b505050506040513d601f19601f82011682018060405250810190610733919061133b565b507f6a647eacc9e98792655e8dba08e3167440b93e02ef76e8e3330fa10a27b4ecbf8333600354874260405161076d95949392919061182c565b60405180910390a16003600081548092919061078890611b19565b919050555050505050565b6060600073ffffffffffffffffffffffffffffffffffffffff168273ffffffffffffffffffffffffffffffffffffffff1614156107cf57600080fd5b8173ffffffffffffffffffffffffffffffffffffffff166395d89b416040518163ffffffff1660e01b815260040160006040518083038186803b15801561081557600080fd5b505afa158015610829573d6000803e3d6000fd5b505050506040513d6000823e3d601f19601f8201168201806040525081019061085291906113a5565b9050919050565b60025481565b6001818154811061086f57600080fd5b90600052602060002001600091509050805461088a90611ae7565b80601f01602080910402602001604051908101604052809291908181526020018280546108b690611ae7565b80156109035780601f106108d857610100808354040283529160200191610903565b820191906000526020600020905b8154815290600101906020018083116108e657829003601f168201915b505050505081565b6000806000905060005b6000805490508110156109d2573373ffffffffffffffffffffffffffffffffffffffff1660008281548110610973577f4e487b7100000000000000000000000000000000000000000000000000000000600052603260045260246000fd5b9060005260206000200160009054906101000a900473ffffffffffffffffffffffffffffffffffffffff1673ffffffffffffffffffffffffffffffffffffffff1614156109bf57600191505b80806109ca90611b19565b915050610915565b5060011515811515146109e457600080fd5b826040518060400160405280600381526020017f455448000000000000000000000000000000000000000000000000000000000081525080519060200120818051906020012014610ae157600073ffffffffffffffffffffffffffffffffffffffff16600582604051610a579190611726565b908152602001604051809103902060010160009054906101000a900473ffffffffffffffffffffffffffffffffffffffff1673ffffffffffffffffffffffffffffffffffffffff161415610ae0576040517f08c379a0000000000000000000000000000000000000000000000000000000008152600401610ad790611886565b60405180910390fd5b5b600073ffffffffffffffffffffffffffffffffffffffff16600585604051610b099190611726565b908152602001604051809103902060010160009054906101000a900473ffffffffffffffffffffffffffffffffffffffff1673ffffffffffffffffffffffffffffffffffffffff161415610b5c57600080fd5b600584604051610b6c9190611726565b908152602001604051809103902060010160009054906101000a900473ffffffffffffffffffffffffffffffffffffffff1673ffffffffffffffffffffffffffffffffffffffff166323b872dd3330886040518463ffffffff1660e01b8152600401610bda9392919061173d565b602060405180830381600087803b158015610bf457600080fd5b505af1158015610c08573d6000803e3d6000fd5b505050506040513d601f19601f82011682018060405250810190610c2c919061133b565b5084600460003373ffffffffffffffffffffffffffffffffffffffff1673ffffffffffffffffffffffffffffffffffffffff16815260200190815260200160002085604051610c7b9190611726565b90815260200160405180910390206000828254610c9891906119d3565b92505081905550600192507f41751252894a74bd975de630158c4e47bb25c36d9ce7ad90383d86d391d2be1284336002548842604051610cdc95949392919061182c565b60405180910390a160026000815480929190610cf790611b19565b9190505550505092915050565b6000805b600080549050811015610dc5573373ffffffffffffffffffffffffffffffffffffffff1660008281548110610d66577f4e487b7100000000000000000000000000000000000000000000000000000000600052603260045260246000fd5b9060005260206000200160009054906101000a900473ffffffffffffffffffffffffffffffffffffffff1673ffffffffffffffffffffffffffffffffffffffff161415610db257600191505b8080610dbd90611b19565b915050610d08565b506001151581151514610dd757600080fd5b60005b600180549050811015610e9c57838051906020012060018281548110610e29577f4e487b7100000000000000000000000000000000000000000000000000000000600052603260045260246000fd5b90600052602060002001604051610e40919061170f565b60405180910390201415610e89576040517f08c379a0000000000000000000000000000000000000000000000000000000008152600401610e80906118a6565b60405180910390fd5b8080610e9490611b19565b915050610dda565b5082805190602001208273ffffffffffffffffffffffffffffffffffffffff166395d89b416040518163ffffffff1660e01b815260040160006040518083038186803b158015610eeb57600080fd5b505afa158015610eff573d6000803e3d6000fd5b505050506040513d6000823e3d601f19601f82011682018060405250810190610f2891906113a5565b8051906020012014610f3957600080fd5b60405180604001604052808481526020018373ffffffffffffffffffffffffffffffffffffffff16815250600584604051610f749190611726565b90815260200160405180910390206000820151816000019080519060200190610f9e92919061110c565b5060208201518160010160006101000a81548173ffffffffffffffffffffffffffffffffffffffff021916908373ffffffffffffffffffffffffffffffffffffffff16021790555090505060018390806001815401808255809150506001900390600052602060002001600090919091909150908051906020019061102492919061110c565b50505050565b60058180516020810182018051848252602083016020850120818352809550505050505060009150905080600001805461106390611ae7565b80601f016020809104026020016040519081016040528092919081815260200182805461108f90611ae7565b80156110dc5780601f106110b1576101008083540402835291602001916110dc565b820191906000526020600020905b8154815290600101906020018083116110bf57829003601f168201915b5050505050908060010160009054906101000a900473ffffffffffffffffffffffffffffffffffffffff16905082565b82805461111890611ae7565b90600052602060002090601f01602090048101928261113a5760008555611181565b82601f1061115357805160ff1916838001178555611181565b82800160010185558215611181579182015b82811115611180578251825591602001919060010190611165565b5b50905061118e9190611192565b5090565b5b808211156111ab576000816000905550600101611193565b5090565b60006111c26111bd84611912565b6118e1565b9050828152602081018484840111156111da57600080fd5b6111e5848285611aa5565b509392505050565b60006112006111fb84611912565b6118e1565b90508281526020810184848401111561121857600080fd5b611223848285611ab4565b509392505050565b60008135905061123a81611c00565b92915050565b60008151905061124f81611c17565b92915050565b600082601f83011261126657600080fd5b81356112768482602086016111af565b91505092915050565b600082601f83011261129057600080fd5b81516112a08482602086016111ed565b91505092915050565b6000813590506112b881611c2e565b92915050565b6000602082840312156112d057600080fd5b60006112de8482850161122b565b91505092915050565b600080604083850312156112fa57600080fd5b60006113088582860161122b565b925050602083013567ffffffffffffffff81111561132557600080fd5b61133185828601611255565b9150509250929050565b60006020828403121561134d57600080fd5b600061135b84828501611240565b91505092915050565b60006020828403121561137657600080fd5b600082013567ffffffffffffffff81111561139057600080fd5b61139c84828501611255565b91505092915050565b6000602082840312156113b757600080fd5b600082015167ffffffffffffffff8111156113d157600080fd5b6113dd8482850161127f565b91505092915050565b600080604083850312156113f957600080fd5b600083013567ffffffffffffffff81111561141357600080fd5b61141f85828601611255565b92505060206114308582860161122b565b9150509250929050565b60006020828403121561144c57600080fd5b600061145a848285016112a9565b91505092915050565b6000806040838503121561147657600080fd5b6000611484858286016112a9565b925050602083013567ffffffffffffffff8111156114a157600080fd5b6114ad85828601611255565b9150509250929050565b60006114c383836115dd565b905092915050565b6114d481611a5d565b82525050565b60006114e582611967565b6114ef818561198a565b93508360208202850161150185611942565b8060005b8581101561153d578484038952815161151e85826114b7565b94506115298361197d565b925060208a01995050600181019050611505565b50829750879550505050505092915050565b61155881611a6f565b82525050565b6000815461156b81611ae7565b611575818661199b565b9450600182166000811461159057600181146115a1576115d4565b60ff198316865281860193506115d4565b6115aa85611952565b60005b838110156115cc578154818901526001820191506020810190506115ad565b838801955050505b50505092915050565b60006115e882611972565b6115f281856119a6565b9350611602818560208601611ab4565b61160b81611bef565b840191505092915050565b600061162182611972565b61162b81856119b7565b935061163b818560208601611ab4565b61164481611bef565b840191505092915050565b600061165a82611972565b61166481856119c8565b9350611674818560208601611ab4565b80840191505092915050565b600061168d6014836119b7565b91507f546f6b656e20646f6573206e6f742065786973740000000000000000000000006000830152602082019050919050565b60006116cd6013836119b7565b91507f546f6b656e20616c7265616479206164646564000000000000000000000000006000830152602082019050919050565b61170981611a9b565b82525050565b600061171b828461155e565b915081905092915050565b6000611732828461164f565b915081905092915050565b600060608201905061175260008301866114cb565b61175f60208301856114cb565b61176c6040830184611700565b949350505050565b600060408201905061178960008301856114cb565b6117966020830184611700565b9392505050565b600060208201905081810360008301526117b781846114da565b905092915050565b60006020820190506117d4600083018461154f565b92915050565b600060208201905081810360008301526117f48184611616565b905092915050565b600060408201905081810360008301526118168185611616565b905061182560208301846114cb565b9392505050565b600060a08201905081810360008301526118468188611616565b905061185560208301876114cb565b6118626040830186611700565b61186f6060830185611700565b61187c6080830184611700565b9695505050505050565b6000602082019050818103600083015261189f81611680565b9050919050565b600060208201905081810360008301526118bf816116c0565b9050919050565b60006020820190506118db6000830184611700565b92915050565b6000604051905081810181811067ffffffffffffffff8211171561190857611907611bc0565b5b8060405250919050565b600067ffffffffffffffff82111561192d5761192c611bc0565b5b601f19601f8301169050602081019050919050565b6000819050602082019050919050565b60008190508160005260206000209050919050565b600081519050919050565b600081519050919050565b6000602082019050919050565b600082825260208201905092915050565b600081905092915050565b600082825260208201905092915050565b600082825260208201905092915050565b600081905092915050565b60006119de82611a9b565b91506119e983611a9b565b9250827fffffffffffffffffffffffffffffffffffffffffffffffffffffffffffffffff03821115611a1e57611a1d611b62565b5b828201905092915050565b6000611a3482611a9b565b9150611a3f83611a9b565b925082821015611a5257611a51611b62565b5b828203905092915050565b6000611a6882611a7b565b9050919050565b60008115159050919050565b600073ffffffffffffffffffffffffffffffffffffffff82169050919050565b6000819050919050565b82818337600083830152505050565b60005b83811015611ad2578082015181840152602081019050611ab7565b83811115611ae1576000848401525b50505050565b60006002820490506001821680611aff57607f821691505b60208210811415611b1357611b12611b91565b5b50919050565b6000611b2482611a9b565b91507fffffffffffffffffffffffffffffffffffffffffffffffffffffffffffffffff821415611b5757611b56611b62565b5b600182019050919050565b7f4e487b7100000000000000000000000000000000000000000000000000000000600052601160045260246000fd5b7f4e487b7100000000000000000000000000000000000000000000000000000000600052602260045260246000fd5b7f4e487b7100000000000000000000000000000000000000000000000000000000600052604160045260246000fd5b6000601f19601f8301169050919050565b611c0981611a5d565b8114611c1457600080fd5b50565b611c2081611a6f565b8114611c2b57600080fd5b50565b611c3781611a9b565b8114611c4257600080fd5b5056fea2646970667358221220a527f2a53d688c1022861ebe7b927664ae7e07a9de86197c1405de9028c03d6164736f6c63430008000033",
  "immutableReferences": {},
  "source": "//SPDX-License-Identifier: MIT\r\npragma solidity 0.8.0;\r\npragma abicoder v2;\r\n\r\nimport \"../node_modules/@openzeppelin/contracts/token/ERC20/IERC20.sol\";\r\nimport \"../node_modules/@openzeppelin/contracts/token/ERC20/ERC20.sol\";\r\n\r\n\r\ncontract ERC20Tokens {\r\n\r\n////////////////////////////Global Variables & Mappings///////////////////////////\r\n     address[] owners;\r\n    string[] public tokenList;\r\n     uint256 public depositId = 0;\r\n    uint256 public withdrawalId = 0;\r\n\r\n    mapping(address => mapping(string => uint)) public balances;\r\n    mapping(string => Token) public tokenMapping;\r\n \r\n\r\n\r\n\r\n    struct Token {\r\n        string ticker;\r\n        address tokenAddress;\r\n    }\r\n    \r\n    \r\n////////////////////////////Modifiers///////////////////////////\r\n\r\n    modifier onlyOwners(){\r\n        bool owner = false;\r\n        for(uint i=0; i<owners.length;i++){\r\n            if(owners[i] == msg.sender){\r\n                owner = true;\r\n            }\r\n        }\r\n        require(owner == true);\r\n        _;\r\n    }\r\n\r\n    modifier tokenExists(string memory ticker) {\r\n        \r\n         if(keccak256(bytes(ticker)) != keccak256(bytes(\"ETH\"))) {\r\n            \r\n            require(tokenMapping[ticker].tokenAddress != address(0), \"Token does not exist\");\r\n         }\r\n         _;\r\n    }\r\n    \r\n\r\n////////////////////////////Events///////////////////////////\r\n\r\n    event fundsDeposited(string ticker, address from, uint256 id, uint amount, uint256 timeStamp);\r\n    event fundsWithdrawed(string ticker, address from, uint256 id, uint amount, uint256 timeStamp);\r\n   \r\n    \r\n    function addToken(string memory ticker, address tokenAddress) external onlyOwners {\r\n\r\n        for(uint i = 0; i < tokenList.length; i++) {\r\n            if(keccak256(bytes(tokenList[i])) == keccak256(bytes(ticker))) {\r\n                revert(\"Token already added\");\r\n            }\r\n        }\r\n        \r\n        require(keccak256(bytes(ERC20(tokenAddress).symbol())) == keccak256(bytes(ticker)));\r\n        \r\n        tokenMapping[ticker] = Token(ticker, tokenAddress);\r\n        //add the new token to the token list\r\n        tokenList.push(ticker);\r\n    }\r\n    \r\n\r\n\r\n\r\n    function depositERC20Token(uint amount, string memory ticker) external onlyOwners tokenExists(ticker) returns(bool _success){\r\n\r\n        require(tokenMapping[ticker].tokenAddress != address(0));\r\n    \r\n        IERC20(tokenMapping[ticker].tokenAddress).transferFrom(msg.sender, address(this), amount);\r\n        balances[msg.sender][ticker] += amount;  \r\n        _success = true;\r\n        //emit deposited(msg.sender, address(this), amount, ticker);\r\n        emit fundsDeposited(ticker, msg.sender, depositId, amount, block.timestamp);\r\n        depositId++;\r\n\r\n        return _success;\r\n    }\r\n\r\n  \r\n\r\n    //withdrawal function\r\n    function withdrawERC20Token(uint amount, string memory ticker) external tokenExists(ticker) onlyOwners {\r\n        require(tokenMapping[ticker].tokenAddress != address(0));\r\n        require(balances[msg.sender][ticker] >= amount);\r\n\r\n        balances[msg.sender][ticker] -= amount;\r\n        IERC20(tokenMapping[ticker].tokenAddress).transfer(msg.sender, amount);\r\n        emit fundsWithdrawed(ticker, msg.sender, withdrawalId, amount, block.timestamp);\r\n        withdrawalId++;\r\n\r\n    }\r\n\r\n        \r\n    function getTokenList() public view returns (string[] memory) {\r\n        \r\n        return tokenList;\r\n    }\r\n    \r\n    function getTicker(address tokenAddress) public view returns (string memory) {\r\n        \r\n        require(tokenAddress != address(0));\r\n        return ERC20(tokenAddress).symbol();\r\n    }\r\n}\r\n\r\n\r\n\r\n\r\n\r\n\r\n",
  "sourcePath": "C:/Users/evanMcGraneTest/Documents/EthereumProgramming/MutiSigWalletApp/contracts/ERC20Functionality.sol",
  "compiler": {
    "name": "solc",
    "version": "0.8.0+commit.c7dfd78e.Emscripten.clang"
  },
  "schemaVersion": "3.3.4",
  "updatedAt": "2021-09-15T15:20:01.925Z",
  "devdoc": {
    "kind": "dev",
    "methods": {},
    "version": 1
  },
  "userdoc": {
    "kind": "user",
    "methods": {},
    "version": 1
  }
}