{
  "contractName": "MultiSigWallet",
  "abi": [
    {
      "inputs": [],
      "stateMutability": "nonpayable",
      "type": "constructor"
    },
    {
      "anonymous": false,
      "inputs": [
        {
          "indexed": false,
          "internalType": "uint256",
          "name": "_id",
          "type": "uint256"
        },
        {
          "indexed": false,
          "internalType": "uint256",
          "name": "_approvals",
          "type": "uint256"
        },
        {
          "indexed": false,
          "internalType": "address",
          "name": "_approver",
          "type": "address"
        }
      ],
      "name": "ApprovalReceived",
      "type": "event"
    },
    {
      "anonymous": false,
      "inputs": [
        {
          "indexed": false,
          "internalType": "uint256",
          "name": "_id",
          "type": "uint256"
        }
      ],
      "name": "TransferApproved",
      "type": "event"
    },
    {
      "anonymous": false,
      "inputs": [
        {
          "indexed": false,
          "internalType": "uint256",
          "name": "_id",
          "type": "uint256"
        },
        {
          "indexed": false,
          "internalType": "uint256",
          "name": "_amount",
          "type": "uint256"
        },
        {
          "indexed": false,
          "internalType": "address",
          "name": "_initiator",
          "type": "address"
        },
        {
          "indexed": false,
          "internalType": "address",
          "name": "_receiver",
          "type": "address"
        }
      ],
      "name": "TransferRequestCreated",
      "type": "event"
    },
    {
      "anonymous": false,
      "inputs": [
        {
          "indexed": false,
          "internalType": "address",
          "name": "to",
          "type": "address"
        },
        {
          "indexed": false,
          "internalType": "uint256",
          "name": "id",
          "type": "uint256"
        },
        {
          "indexed": false,
          "internalType": "uint256",
          "name": "amount",
          "type": "uint256"
        },
        {
          "indexed": false,
          "internalType": "uint256",
          "name": "timeOfDeposit",
          "type": "uint256"
        }
      ],
      "name": "fundsDeposited",
      "type": "event"
    },
    {
      "anonymous": false,
      "inputs": [
        {
          "indexed": false,
          "internalType": "address",
          "name": "to",
          "type": "address"
        },
        {
          "indexed": false,
          "internalType": "uint256",
          "name": "id",
          "type": "uint256"
        },
        {
          "indexed": false,
          "internalType": "uint256",
          "name": "amount",
          "type": "uint256"
        },
        {
          "indexed": false,
          "internalType": "uint256",
          "name": "timeOfWithdrawal",
          "type": "uint256"
        }
      ],
      "name": "fundsWithdrawed",
      "type": "event"
    },
    {
      "anonymous": false,
      "inputs": [
        {
          "indexed": false,
          "internalType": "uint256",
          "name": "id",
          "type": "uint256"
        },
        {
          "indexed": false,
          "internalType": "address",
          "name": "sender",
          "type": "address"
        },
        {
          "indexed": false,
          "internalType": "address",
          "name": "receiver",
          "type": "address"
        },
        {
          "indexed": false,
          "internalType": "uint256",
          "name": "amount",
          "type": "uint256"
        },
        {
          "indexed": false,
          "internalType": "uint256",
          "name": "timeOfTransfer",
          "type": "uint256"
        }
      ],
      "name": "transferRequestApproved",
      "type": "event"
    },
    {
      "anonymous": false,
      "inputs": [
        {
          "indexed": false,
          "internalType": "uint256",
          "name": "id",
          "type": "uint256"
        },
        {
          "indexed": false,
          "internalType": "address",
          "name": "sender",
          "type": "address"
        },
        {
          "indexed": false,
          "internalType": "address",
          "name": "receiver",
          "type": "address"
        },
        {
          "indexed": false,
          "internalType": "uint256",
          "name": "amount",
          "type": "uint256"
        },
        {
          "indexed": false,
          "internalType": "uint256",
          "name": "timeOfCancellation",
          "type": "uint256"
        }
      ],
      "name": "transferRequestCancelled",
      "type": "event"
    },
    {
      "inputs": [
        {
          "internalType": "address",
          "name": "",
          "type": "address"
        },
        {
          "internalType": "uint256",
          "name": "",
          "type": "uint256"
        }
      ],
      "name": "approvals",
      "outputs": [
        {
          "internalType": "bool",
          "name": "",
          "type": "bool"
        }
      ],
      "stateMutability": "view",
      "type": "function",
      "constant": true
    },
    {
      "inputs": [
        {
          "internalType": "address",
          "name": "",
          "type": "address"
        }
      ],
      "name": "balance",
      "outputs": [
        {
          "internalType": "uint256",
          "name": "",
          "type": "uint256"
        }
      ],
      "stateMutability": "view",
      "type": "function",
      "constant": true
    },
    {
      "inputs": [],
      "name": "depositId",
      "outputs": [
        {
          "internalType": "uint256",
          "name": "",
          "type": "uint256"
        }
      ],
      "stateMutability": "view",
      "type": "function",
      "constant": true
    },
    {
      "inputs": [],
      "name": "limit",
      "outputs": [
        {
          "internalType": "uint256",
          "name": "",
          "type": "uint256"
        }
      ],
      "stateMutability": "view",
      "type": "function",
      "constant": true
    },
    {
      "inputs": [
        {
          "internalType": "address",
          "name": "",
          "type": "address"
        }
      ],
      "name": "reservedBalance",
      "outputs": [
        {
          "internalType": "uint256",
          "name": "",
          "type": "uint256"
        }
      ],
      "stateMutability": "view",
      "type": "function",
      "constant": true
    },
    {
      "inputs": [],
      "name": "transferId",
      "outputs": [
        {
          "internalType": "uint256",
          "name": "",
          "type": "uint256"
        }
      ],
      "stateMutability": "view",
      "type": "function",
      "constant": true
    },
    {
      "inputs": [],
      "name": "withdrawalId",
      "outputs": [
        {
          "internalType": "uint256",
          "name": "",
          "type": "uint256"
        }
      ],
      "stateMutability": "view",
      "type": "function",
      "constant": true
    },
    {
      "inputs": [
        {
          "internalType": "address",
          "name": "_owners",
          "type": "address"
        }
      ],
      "name": "addUsers",
      "outputs": [],
      "stateMutability": "nonpayable",
      "type": "function"
    },
    {
      "inputs": [
        {
          "internalType": "address",
          "name": "_user",
          "type": "address"
        }
      ],
      "name": "removeUser",
      "outputs": [],
      "stateMutability": "nonpayable",
      "type": "function"
    },
    {
      "inputs": [],
      "name": "getUsers",
      "outputs": [
        {
          "internalType": "address[]",
          "name": "",
          "type": "address[]"
        }
      ],
      "stateMutability": "view",
      "type": "function",
      "constant": true
    },
    {
      "inputs": [],
      "name": "getApprovalLimit",
      "outputs": [
        {
          "internalType": "uint256",
          "name": "",
          "type": "uint256"
        }
      ],
      "stateMutability": "view",
      "type": "function",
      "constant": true
    },
    {
      "inputs": [],
      "name": "deposit",
      "outputs": [],
      "stateMutability": "payable",
      "type": "function",
      "payable": true
    },
    {
      "inputs": [],
      "name": "getAccountBalance",
      "outputs": [
        {
          "internalType": "uint256",
          "name": "",
          "type": "uint256"
        }
      ],
      "stateMutability": "view",
      "type": "function",
      "constant": true
    },
    {
      "inputs": [],
      "name": "getContractBalance",
      "outputs": [
        {
          "internalType": "uint256",
          "name": "",
          "type": "uint256"
        }
      ],
      "stateMutability": "view",
      "type": "function",
      "constant": true
    },
    {
      "inputs": [],
      "name": "getOwner",
      "outputs": [
        {
          "internalType": "address",
          "name": "",
          "type": "address"
        }
      ],
      "stateMutability": "view",
      "type": "function",
      "constant": true
    },
    {
      "inputs": [
        {
          "internalType": "uint256",
          "name": "_amount",
          "type": "uint256"
        },
        {
          "internalType": "address payable",
          "name": "_receiver",
          "type": "address"
        }
      ],
      "name": "createTransfer",
      "outputs": [],
      "stateMutability": "nonpayable",
      "type": "function"
    },
    {
      "inputs": [
        {
          "internalType": "uint256",
          "name": "_id",
          "type": "uint256"
        }
      ],
      "name": "cancelTransfer",
      "outputs": [],
      "stateMutability": "nonpayable",
      "type": "function"
    },
    {
      "inputs": [
        {
          "internalType": "uint256",
          "name": "_id",
          "type": "uint256"
        }
      ],
      "name": "Transferapprove",
      "outputs": [],
      "stateMutability": "nonpayable",
      "type": "function"
    },
    {
      "inputs": [
        {
          "internalType": "uint256",
          "name": "_amount",
          "type": "uint256"
        }
      ],
      "name": "withdraw",
      "outputs": [
        {
          "internalType": "uint256",
          "name": "",
          "type": "uint256"
        }
      ],
      "stateMutability": "nonpayable",
      "type": "function"
    },
    {
      "inputs": [
        {
          "internalType": "uint256",
          "name": "_id",
          "type": "uint256"
        }
      ],
      "name": "getApprovalState",
      "outputs": [
        {
          "internalType": "uint256",
          "name": "",
          "type": "uint256"
        }
      ],
      "stateMutability": "view",
      "type": "function",
      "constant": true
    },
    {
      "inputs": [],
      "name": "getTransferRequests",
      "outputs": [
        {
          "components": [
            {
              "internalType": "uint256",
              "name": "amount",
              "type": "uint256"
            },
            {
              "internalType": "address",
              "name": "sender",
              "type": "address"
            },
            {
              "internalType": "address payable",
              "name": "receiver",
              "type": "address"
            },
            {
              "internalType": "uint256",
              "name": "approvals",
              "type": "uint256"
            },
            {
              "internalType": "bool",
              "name": "hasBeenSent",
              "type": "bool"
            },
            {
              "internalType": "uint256",
              "name": "id",
              "type": "uint256"
            },
            {
              "internalType": "uint256",
              "name": "timeOfCreation",
              "type": "uint256"
            }
          ],
          "internalType": "struct MultiSigWallet.Transfer[]",
          "name": "",
          "type": "tuple[]"
        }
      ],
      "stateMutability": "view",
      "type": "function",
      "constant": true
    }
  ],
  "bytecode": "0x608060405260006003556000600455600060055534801561001f57600080fd5b50336000806101000a81548173ffffffffffffffffffffffffffffffffffffffff021916908373ffffffffffffffffffffffffffffffffffffffff160217905550600160008054906101000a900473ffffffffffffffffffffffffffffffffffffffff169080600181540180825580915050600190039060005260206000200160009091909190916101000a81548173ffffffffffffffffffffffffffffffffffffffff021916908373ffffffffffffffffffffffffffffffffffffffff160217905550612d55806100f26000396000f3fe6080604052600436106101295760003560e01c80637d5539c4116100ab578063a4d66daf1161006f578063a4d66daf146103cd578063b80fd822146103f8578063d0e30db014610423578063e2c61aeb1461042d578063e3d670d71461046a578063ffabc673146104a757610129565b80637d5539c4146102fa578063893d20e8146103235780639852099c1461034e5780639857518814610379578063a04ef145146103a257610129565b806359caecb5116100f257806359caecb5146102135780636896fabf1461023c5780636f9fb98a146102675780637278a1fa146102925780637720cdd8146102bd57610129565b8062ce8e3e1461012e57806304343722146101595780632e1a7d4d146101825780634c12fa47146101bf57806352cda148146101e8575b600080fd5b34801561013a57600080fd5b506101436104e4565b604051610150919061291c565b60405180910390f35b34801561016557600080fd5b50610180600480360381019061017b919061251a565b610572565b005b34801561018e57600080fd5b506101a960048036038101906101a4919061257f565b6106f9565b6040516101b691906129db565b60405180910390f35b3480156101cb57600080fd5b506101e660048036038101906101e191906125a8565b6109a6565b005b3480156101f457600080fd5b506101fd610de8565b60405161020a91906129db565b60405180910390f35b34801561021f57600080fd5b5061023a6004803603810190610235919061257f565b610dee565b005b34801561024857600080fd5b50610251611359565b60405161025e91906129db565b60405180910390f35b34801561027357600080fd5b5061027c6113a0565b60405161028991906129db565b60405180910390f35b34801561029e57600080fd5b506102a76113a8565b6040516102b491906129db565b60405180910390f35b3480156102c957600080fd5b506102e460048036038101906102df919061257f565b6113b2565b6040516102f191906129db565b60405180910390f35b34801561030657600080fd5b50610321600480360381019061031c919061257f565b611407565b005b34801561032f57600080fd5b506103386118e0565b60405161034591906128bc565b60405180910390f35b34801561035a57600080fd5b506103636118e8565b60405161037091906129db565b60405180910390f35b34801561038557600080fd5b506103a0600480360381019061039b919061251a565b6118ee565b005b3480156103ae57600080fd5b506103b7611bb6565b6040516103c4919061293e565b60405180910390f35b3480156103d957600080fd5b506103e2611d04565b6040516103ef91906129db565b60405180910390f35b34801561040457600080fd5b5061040d611d0a565b60405161041a91906129db565b60405180910390f35b61042b611d10565b005b34801561043957600080fd5b50610454600480360381019061044f919061251a565b611e23565b60405161046191906129db565b60405180910390f35b34801561047657600080fd5b50610491600480360381019061048c919061251a565b611e3b565b60405161049e91906129db565b60405180910390f35b3480156104b357600080fd5b506104ce60048036038101906104c99190612543565b611e53565b6040516104db9190612960565b60405180910390f35b6060600180548060200260200160405190810160405280929190818152602001828054801561056857602002820191906000526020600020905b8160009054906101000a900473ffffffffffffffffffffffffffffffffffffffff1673ffffffffffffffffffffffffffffffffffffffff168152602001906001019080831161051e575b5050505050905090565b60005b600180549050811015610668578173ffffffffffffffffffffffffffffffffffffffff16600182815481106105d3577f4e487b7100000000000000000000000000000000000000000000000000000000600052603260045260246000fd5b9060005260206000200160009054906101000a900473ffffffffffffffffffffffffffffffffffffffff1673ffffffffffffffffffffffffffffffffffffffff161415610655576040517f08c379a000000000000000000000000000000000000000000000000000000000815260040161064c9061299b565b60405180910390fd5b808061066090612c62565b915050610575565b506004600180549050111561067c57600080fd5b6001819080600181540180825580915050600190039060005260206000200160009091909190916101000a81548173ffffffffffffffffffffffffffffffffffffffff021916908373ffffffffffffffffffffffffffffffffffffffff160217905550600180805490506106f09190612b9e565b60028190555050565b6000806000905060005b6001805490508110156107c0573373ffffffffffffffffffffffffffffffffffffffff1660018281548110610761577f4e487b7100000000000000000000000000000000000000000000000000000000600052603260045260246000fd5b9060005260206000200160009054906101000a900473ffffffffffffffffffffffffffffffffffffffff1673ffffffffffffffffffffffffffffffffffffffff1614156107ad57600191505b80806107b890612c62565b915050610703565b5060011515811515146107d257600080fd5b82600960003373ffffffffffffffffffffffffffffffffffffffff1673ffffffffffffffffffffffffffffffffffffffff16815260200190815260200160002054101561081e57600080fd5b82600860003373ffffffffffffffffffffffffffffffffffffffff1673ffffffffffffffffffffffffffffffffffffffff16815260200190815260200160002054101561086a57600080fd5b3373ffffffffffffffffffffffffffffffffffffffff166108fc849081150290604051600060405180830381858888f193505050501580156108b0573d6000803e3d6000fd5b5082600860003373ffffffffffffffffffffffffffffffffffffffff1673ffffffffffffffffffffffffffffffffffffffff16815260200190815260200160002060008282546109009190612b9e565b925050819055507f911e5a424cda0aa25334a5bc6c8794ecafee939faa8aa2766de433541fdd840b33600454854260405161093e94939291906128d7565b60405180910390a16004600081548092919061095990612c62565b9190505550600860003373ffffffffffffffffffffffffffffffffffffffff1673ffffffffffffffffffffffffffffffffffffffff16815260200190815260200160002054915050919050565b6000805b600180549050811015610a67573373ffffffffffffffffffffffffffffffffffffffff1660018281548110610a08577f4e487b7100000000000000000000000000000000000000000000000000000000600052603260045260246000fd5b9060005260206000200160009054906101000a900473ffffffffffffffffffffffffffffffffffffffff1673ffffffffffffffffffffffffffffffffffffffff161415610a5457600191505b8080610a5f90612c62565b9150506109aa565b506001151581151514610a7957600080fd5b82600860003373ffffffffffffffffffffffffffffffffffffffff1673ffffffffffffffffffffffffffffffffffffffff168152602001908152602001600020541015610ac557600080fd5b600180805490501015610b0d576040517f08c379a0000000000000000000000000000000000000000000000000000000008152600401610b049061297b565b60405180910390fd5b82600960003373ffffffffffffffffffffffffffffffffffffffff1673ffffffffffffffffffffffffffffffffffffffff1681526020019081526020016000206000828254610b5c9190612b9e565b9250508190555060005b600180549050811015610c23578273ffffffffffffffffffffffffffffffffffffffff1660018281548110610bc4577f4e487b7100000000000000000000000000000000000000000000000000000000600052603260045260246000fd5b9060005260206000200160009054906101000a900473ffffffffffffffffffffffffffffffffffffffff1673ffffffffffffffffffffffffffffffffffffffff161415610c1057600080fd5b8080610c1b90612c62565b915050610b66565b507f099c4ec4ecfc26f7c8b27aeee5443f92120fa2c4e91ba6020369ae71a4d44278600554843385604051610c5b9493929190612a80565b60405180910390a160066040518060e001604052808581526020013373ffffffffffffffffffffffffffffffffffffffff1681526020018473ffffffffffffffffffffffffffffffffffffffff1681526020016000815260200160001515815260200160055481526020014281525090806001815401808255809150506001900390600052602060002090600702016000909190919091506000820151816000015560208201518160010160006101000a81548173ffffffffffffffffffffffffffffffffffffffff021916908373ffffffffffffffffffffffffffffffffffffffff16021790555060408201518160020160006101000a81548173ffffffffffffffffffffffffffffffffffffffff021916908373ffffffffffffffffffffffffffffffffffffffff1602179055506060820151816003015560808201518160040160006101000a81548160ff02191690831515021790555060a0820151816005015560c08201518160060155505060056000815480929190610dde90612c62565b9190505550505050565b60045481565b600180805490501015610e36576040517f08c379a0000000000000000000000000000000000000000000000000000000008152600401610e2d9061297b565b60405180910390fd5b60008060005b600680549050811015610ec6578360068281548110610e84577f4e487b7100000000000000000000000000000000000000000000000000000000600052603260045260246000fd5b9060005260206000209060070201600501541415610ea55760019150610ec6565b8280610eb090612c62565b9350508080610ebe90612c62565b915050610e3c565b50600015158115151415610ed957600080fd5b60068281548110610f13577f4e487b7100000000000000000000000000000000000000000000000000000000600052603260045260246000fd5b906000526020600020906007020160000154600960003373ffffffffffffffffffffffffffffffffffffffff1673ffffffffffffffffffffffffffffffffffffffff1681526020019081526020016000206000828254610f739190612b48565b925050819055507f5c8b6d30be676522035362585e62137986e8b915ae53c3cc945cceefbb51f76d60068381548110610fd5577f4e487b7100000000000000000000000000000000000000000000000000000000600052603260045260246000fd5b9060005260206000209060070201600501543360068581548110611022577f4e487b7100000000000000000000000000000000000000000000000000000000600052603260045260246000fd5b906000526020600020906007020160020160009054906101000a900473ffffffffffffffffffffffffffffffffffffffff166006868154811061108e577f4e487b7100000000000000000000000000000000000000000000000000000000600052603260045260246000fd5b906000526020600020906007020160000154426040516110b29594939291906129f6565b60405180910390a1600660016006805490506110ce9190612b9e565b81548110611105577f4e487b7100000000000000000000000000000000000000000000000000000000600052603260045260246000fd5b90600052602060002090600702016006838154811061114d577f4e487b7100000000000000000000000000000000000000000000000000000000600052603260045260246000fd5b9060005260206000209060070201600082015481600001556001820160009054906101000a900473ffffffffffffffffffffffffffffffffffffffff168160010160006101000a81548173ffffffffffffffffffffffffffffffffffffffff021916908373ffffffffffffffffffffffffffffffffffffffff1602179055506002820160009054906101000a900473ffffffffffffffffffffffffffffffffffffffff168160020160006101000a81548173ffffffffffffffffffffffffffffffffffffffff021916908373ffffffffffffffffffffffffffffffffffffffff160217905550600382015481600301556004820160009054906101000a900460ff168160040160006101000a81548160ff021916908315150217905550600582015481600501556006820154816006015590505060068054806112b9577f4e487b7100000000000000000000000000000000000000000000000000000000600052603160045260246000fd5b60019003818190600052602060002090600702016000808201600090556001820160006101000a81549073ffffffffffffffffffffffffffffffffffffffff02191690556002820160006101000a81549073ffffffffffffffffffffffffffffffffffffffff021916905560038201600090556004820160006101000a81549060ff02191690556005820160009055600682016000905550509055505050565b6000600860003373ffffffffffffffffffffffffffffffffffffffff1673ffffffffffffffffffffffffffffffffffffffff16815260200190815260200160002054905090565b600047905090565b6000600254905090565b6000600682815481106113ee577f4e487b7100000000000000000000000000000000000000000000000000000000600052603260045260246000fd5b9060005260206000209060070201600301549050919050565b6000805b6001805490508110156114c8573373ffffffffffffffffffffffffffffffffffffffff1660018281548110611469577f4e487b7100000000000000000000000000000000000000000000000000000000600052603260045260246000fd5b9060005260206000200160009054906101000a900473ffffffffffffffffffffffffffffffffffffffff1673ffffffffffffffffffffffffffffffffffffffff1614156114b557600191505b80806114c090612c62565b91505061140b565b5060011515811515146114da57600080fd5b60008060005b60068054905081101561156a578460068281548110611528577f4e487b7100000000000000000000000000000000000000000000000000000000600052603260045260246000fd5b9060005260206000209060070201600501541415611549576001915061156a565b828061155490612c62565b935050808061156290612c62565b9150506114e0565b5060001515811515141561157d57600080fd5b6001808054905010156115c5576040517f08c379a00000000000000000000000000000000000000000000000000000000081526004016115bc9061297b565b60405180910390fd5b60008054906101000a900473ffffffffffffffffffffffffffffffffffffffff1673ffffffffffffffffffffffffffffffffffffffff163373ffffffffffffffffffffffffffffffffffffffff16141561161e57600080fd5b60001515600760003373ffffffffffffffffffffffffffffffffffffffff1673ffffffffffffffffffffffffffffffffffffffff168152602001908152602001600020600086815260200190815260200160002060009054906101000a900460ff161515146116c2576040517f08c379a00000000000000000000000000000000000000000000000000000000081526004016116b9906129bb565b60405180910390fd5b6000151560068381548110611700577f4e487b7100000000000000000000000000000000000000000000000000000000600052603260045260246000fd5b906000526020600020906007020160040160009054906101000a900460ff1615151461172b57600080fd5b6001600760003373ffffffffffffffffffffffffffffffffffffffff1673ffffffffffffffffffffffffffffffffffffffff168152602001908152602001600020600084815260200190815260200160002060006101000a81548160ff021916908315150217905550600682815481106117ce577f4e487b7100000000000000000000000000000000000000000000000000000000600052603260045260246000fd5b906000526020600020906007020160030160008154809291906117f090612c62565b91905055507ffec9d12d15ee8c8b836a58347cb0d4980db38411bcd0b83662cee48fb20b6dee8260068481548110611851577f4e487b7100000000000000000000000000000000000000000000000000000000600052603260045260246000fd5b9060005260206000209060070201600301543360405161187393929190612a49565b60405180910390a1600254600683815481106118b8577f4e487b7100000000000000000000000000000000000000000000000000000000600052603260045260246000fd5b90600052602060002090600702016003015414156118da576118d982611e82565b5b50505050565b600033905090565b60035481565b600080600090505b600180549050811015611a4e578273ffffffffffffffffffffffffffffffffffffffff1660018281548110611954577f4e487b7100000000000000000000000000000000000000000000000000000000600052603260045260246000fd5b9060005260206000200160009054906101000a900473ffffffffffffffffffffffffffffffffffffffff1673ffffffffffffffffffffffffffffffffffffffff161415611a3b578091508273ffffffffffffffffffffffffffffffffffffffff16600182815481106119ef577f4e487b7100000000000000000000000000000000000000000000000000000000600052603260045260246000fd5b9060005260206000200160009054906101000a900473ffffffffffffffffffffffffffffffffffffffff1673ffffffffffffffffffffffffffffffffffffffff1614611a3a57600080fd5b5b8080611a4690612c62565b9150506118f6565b506001808080549050611a619190612b9e565b81548110611a98577f4e487b7100000000000000000000000000000000000000000000000000000000600052603260045260246000fd5b9060005260206000200160009054906101000a900473ffffffffffffffffffffffffffffffffffffffff1660018281548110611afd577f4e487b7100000000000000000000000000000000000000000000000000000000600052603260045260246000fd5b9060005260206000200160006101000a81548173ffffffffffffffffffffffffffffffffffffffff021916908373ffffffffffffffffffffffffffffffffffffffff1602179055506001805480611b7d577f4e487b7100000000000000000000000000000000000000000000000000000000600052603160045260246000fd5b6001900381819060005260206000200160006101000a81549073ffffffffffffffffffffffffffffffffffffffff021916905590555050565b60606006805480602002602001604051908101604052809291908181526020016000905b82821015611cfb57838290600052602060002090600702016040518060e0016040529081600082015481526020016001820160009054906101000a900473ffffffffffffffffffffffffffffffffffffffff1673ffffffffffffffffffffffffffffffffffffffff1673ffffffffffffffffffffffffffffffffffffffff1681526020016002820160009054906101000a900473ffffffffffffffffffffffffffffffffffffffff1673ffffffffffffffffffffffffffffffffffffffff1673ffffffffffffffffffffffffffffffffffffffff168152602001600382015481526020016004820160009054906101000a900460ff161515151581526020016005820154815260200160068201548152505081526020019060010190611bda565b50505050905090565b60025481565b60055481565b6000341015611d1e57600080fd5b34600860003373ffffffffffffffffffffffffffffffffffffffff1673ffffffffffffffffffffffffffffffffffffffff1681526020019081526020016000206000828254611d6d9190612b48565b9250508190555034600960003373ffffffffffffffffffffffffffffffffffffffff1673ffffffffffffffffffffffffffffffffffffffff1681526020019081526020016000206000828254611dc39190612b48565b925050819055507f2e0c7c0c884d7be5e05e90478e8e5e8e89b7fccac8131a5107aa200f79203f25336003543442604051611e0194939291906128d7565b60405180910390a160036000815480929190611e1c90612c62565b9190505550565b60096020528060005260406000206000915090505481565b60086020528060005260406000206000915090505481565b60076020528160005260406000206020528060005260406000206000915091509054906101000a900460ff1681565b600160068281548110611ebe577f4e487b7100000000000000000000000000000000000000000000000000000000600052603260045260246000fd5b906000526020600020906007020160040160006101000a81548160ff02191690831515021790555060068181548110611f20577f4e487b7100000000000000000000000000000000000000000000000000000000600052603260045260246000fd5b9060005260206000209060070201600001546008600060068481548110611f70577f4e487b7100000000000000000000000000000000000000000000000000000000600052603260045260246000fd5b906000526020600020906007020160010160009054906101000a900473ffffffffffffffffffffffffffffffffffffffff1673ffffffffffffffffffffffffffffffffffffffff1673ffffffffffffffffffffffffffffffffffffffff1681526020019081526020016000206000828254611feb9190612b9e565b925050819055506006818154811061202c577f4e487b7100000000000000000000000000000000000000000000000000000000600052603260045260246000fd5b906000526020600020906007020160000154600860006006848154811061207c577f4e487b7100000000000000000000000000000000000000000000000000000000600052603260045260246000fd5b906000526020600020906007020160020160009054906101000a900473ffffffffffffffffffffffffffffffffffffffff1673ffffffffffffffffffffffffffffffffffffffff1673ffffffffffffffffffffffffffffffffffffffff16815260200190815260200160002060008282546120f79190612b48565b925050819055507f62d4a4c05d024bc6ec4da7d8bee4346837f58fcbd872e30cd69f37ca55b6e41f60068281548110612159577f4e487b7100000000000000000000000000000000000000000000000000000000600052603260045260246000fd5b90600052602060002090600702016005015433600684815481106121a6577f4e487b7100000000000000000000000000000000000000000000000000000000600052603260045260246000fd5b906000526020600020906007020160020160009054906101000a900473ffffffffffffffffffffffffffffffffffffffff1660068581548110612212577f4e487b7100000000000000000000000000000000000000000000000000000000600052603260045260246000fd5b906000526020600020906007020160000154426040516122369594939291906129f6565b60405180910390a1600660016006805490506122529190612b9e565b81548110612289577f4e487b7100000000000000000000000000000000000000000000000000000000600052603260045260246000fd5b9060005260206000209060070201600682815481106122d1577f4e487b7100000000000000000000000000000000000000000000000000000000600052603260045260246000fd5b9060005260206000209060070201600082015481600001556001820160009054906101000a900473ffffffffffffffffffffffffffffffffffffffff168160010160006101000a81548173ffffffffffffffffffffffffffffffffffffffff021916908373ffffffffffffffffffffffffffffffffffffffff1602179055506002820160009054906101000a900473ffffffffffffffffffffffffffffffffffffffff168160020160006101000a81548173ffffffffffffffffffffffffffffffffffffffff021916908373ffffffffffffffffffffffffffffffffffffffff160217905550600382015481600301556004820160009054906101000a900460ff168160040160006101000a81548160ff0219169083151502179055506005820154816005015560068201548160060155905050600680548061243d577f4e487b7100000000000000000000000000000000000000000000000000000000600052603160045260246000fd5b60019003818190600052602060002090600702016000808201600090556001820160006101000a81549073ffffffffffffffffffffffffffffffffffffffff02191690556002820160006101000a81549073ffffffffffffffffffffffffffffffffffffffff021916905560038201600090556004820160006101000a81549060ff0219169055600582016000905560068201600090555050905550565b6000813590506124ea81612cda565b92915050565b6000813590506124ff81612cf1565b92915050565b60008135905061251481612d08565b92915050565b60006020828403121561252c57600080fd5b600061253a848285016124db565b91505092915050565b6000806040838503121561255657600080fd5b6000612564858286016124db565b925050602061257585828601612505565b9150509250929050565b60006020828403121561259157600080fd5b600061259f84828501612505565b91505092915050565b600080604083850312156125bb57600080fd5b60006125c985828601612505565b92505060206125da858286016124f0565b9150509250929050565b60006125f08383612632565b60208301905092915050565b60006126088383612810565b60e08301905092915050565b61261d81612c2c565b82525050565b61262c81612be4565b82525050565b61263b81612bd2565b82525050565b61264a81612bd2565b82525050565b600061265b82612ae5565b6126658185612b15565b935061267083612ac5565b8060005b838110156126a157815161268888826125e4565b975061269383612afb565b925050600181019050612674565b5085935050505092915050565b60006126b982612af0565b6126c38185612b26565b93506126ce83612ad5565b8060005b838110156126ff5781516126e688826125fc565b97506126f183612b08565b9250506001810190506126d2565b5085935050505092915050565b61271581612bf6565b82525050565b61272481612bf6565b82525050565b6000612737602183612b37565b91507f6e65656420746f2068617665206d6f7265207468616e206f6e65207369676e6560008301527f72000000000000000000000000000000000000000000000000000000000000006020830152604082019050919050565b600061279d601283612b37565b91507f416c7265616479207265676973746572656400000000000000000000000000006000830152602082019050919050565b60006127dd601b83612b37565b91507f7472616e73616374696f6e20616c7261647920617070726f76656400000000006000830152602082019050919050565b60e082016000820151612826600085018261289e565b5060208201516128396020850182612632565b50604082015161284c6040850182612623565b50606082015161285f606085018261289e565b506080820151612872608085018261270c565b5060a082015161288560a085018261289e565b5060c082015161289860c085018261289e565b50505050565b6128a781612c22565b82525050565b6128b681612c22565b82525050565b60006020820190506128d16000830184612641565b92915050565b60006080820190506128ec6000830187612641565b6128f960208301866128ad565b61290660408301856128ad565b61291360608301846128ad565b95945050505050565b600060208201905081810360008301526129368184612650565b905092915050565b6000602082019050818103600083015261295881846126ae565b905092915050565b6000602082019050612975600083018461271b565b92915050565b600060208201905081810360008301526129948161272a565b9050919050565b600060208201905081810360008301526129b481612790565b9050919050565b600060208201905081810360008301526129d4816127d0565b9050919050565b60006020820190506129f060008301846128ad565b92915050565b600060a082019050612a0b60008301886128ad565b612a186020830187612641565b612a256040830186612614565b612a3260608301856128ad565b612a3f60808301846128ad565b9695505050505050565b6000606082019050612a5e60008301866128ad565b612a6b60208301856128ad565b612a786040830184612641565b949350505050565b6000608082019050612a9560008301876128ad565b612aa260208301866128ad565b612aaf6040830185612641565b612abc6060830184612614565b95945050505050565b6000819050602082019050919050565b6000819050602082019050919050565b600081519050919050565b600081519050919050565b6000602082019050919050565b6000602082019050919050565b600082825260208201905092915050565b600082825260208201905092915050565b600082825260208201905092915050565b6000612b5382612c22565b9150612b5e83612c22565b9250827fffffffffffffffffffffffffffffffffffffffffffffffffffffffffffffffff03821115612b9357612b92612cab565b5b828201905092915050565b6000612ba982612c22565b9150612bb483612c22565b925082821015612bc757612bc6612cab565b5b828203905092915050565b6000612bdd82612c02565b9050919050565b6000612bef82612c02565b9050919050565b60008115159050919050565b600073ffffffffffffffffffffffffffffffffffffffff82169050919050565b6000819050919050565b6000612c3782612c3e565b9050919050565b6000612c4982612c50565b9050919050565b6000612c5b82612c02565b9050919050565b6000612c6d82612c22565b91507fffffffffffffffffffffffffffffffffffffffffffffffffffffffffffffffff821415612ca057612c9f612cab565b5b600182019050919050565b7f4e487b7100000000000000000000000000000000000000000000000000000000600052601160045260246000fd5b612ce381612bd2565b8114612cee57600080fd5b50565b612cfa81612be4565b8114612d0557600080fd5b50565b612d1181612c22565b8114612d1c57600080fd5b5056fea2646970667358221220f021608022a4653af8f59c44b2cc7817b2ddc10b6a314750b532d3da729f503a64736f6c63430008000033",
  "immutableReferences": {},
  "source": "//SPDX-License-Identifier: MIT\r\npragma solidity 0.8.0;\r\n\r\n//we need this for the get transferRequests() function\r\n//abicode allows us to print structs\r\npragma abicoder v2;\r\n\r\n\r\ncontract MultiSigWallet {\r\n\r\n    //address array to store owners\r\n    address mainOwner;\r\n    address[] owners;\r\n    //conensus limit for approvals\r\n    uint public limit;\r\n    uint256 public depositId = 0;\r\n    uint256 public withdrawalId = 0;\r\n    uint256 public transferId = 0;\r\n\r\n    constructor() {\r\n        mainOwner = msg.sender;\r\n        owners.push(mainOwner);\r\n    }\r\n    \r\n    //set up data structures. each trasnfer has diff properties\r\n    //like amount, the reviever, how many approvals it has, the state of the\r\n    //transfer etc\r\n    struct Transfer{\r\n        uint amount;\r\n        address sender;\r\n        address payable receiver;\r\n        uint approvals;\r\n        bool hasBeenSent;\r\n        uint id;\r\n        uint timeOfCreation;\r\n    }\r\n    \r\n    \r\n    \r\n    //here we create instances of our structs so we can keep logs\r\n    Transfer[] transferRequests;\r\n    \r\n    \r\n    //double mpping which maps an address and the transaction id to an approval boolean\r\n    //false if not approved true if so\r\n    mapping(address => mapping(uint => bool)) public approvals;\r\n    //balance mapping which maps user address ot their account balance\r\n    mapping(address => uint) public balance;\r\n    mapping(address => uint) public reservedBalance;\r\n    \r\n    //modifier which we can lace in function definitions to restrict access of that \r\n    //function to the wallet owners\r\n    modifier onlyOwners(){\r\n        bool owner = false;\r\n        for(uint i=0; i<owners.length;i++){\r\n            if(owners[i] == msg.sender){\r\n                owner = true;\r\n            }\r\n        }\r\n        require(owner == true);\r\n        _;\r\n    }\r\n    \r\n    //evets\r\n    event fundsDeposited(address to, uint256 id, uint amount, uint256 timeOfDeposit);\r\n    event fundsWithdrawed(address to, uint256 id, uint amount, uint256 timeOfWithdrawal);\r\n    event TransferRequestCreated(uint _id, uint _amount, address _initiator, address _receiver);\r\n    event ApprovalReceived(uint _id, uint _approvals, address _approver);\r\n    event TransferApproved(uint _id);\r\n    // event t(uint id, address sender, address receiver, uint amount, uint timeOfTransfer);\r\n    event transferRequestApproved(uint id, address sender, address receiver, uint amount, uint timeOfTransfer);\r\n    event transferRequestCancelled(uint id, address sender, address receiver, uint amount, uint timeOfCancellation);\r\n\r\n    \r\n    \r\n    //add user function. require owner is not already in the wallet array\r\n    function addUsers(address _owners) public\r\n    {\r\n        for (uint user = 0; user < owners.length; user++)\r\n        {\r\n            require(owners[user] != _owners, \"Already registered\");\r\n        }\r\n        require(owners.length <= 4);\r\n        owners.push(_owners);\r\n        \r\n        //from the current array calculate the value of minimum consensus\r\n        limit = owners.length - 1;\r\n    }\r\n    \r\n    //remove user require the address we pass in is the address were removing\r\n    function removeUser(address _user) public\r\n    {\r\n        uint user_index;\r\n        for(uint user = 0; user < owners.length; user++)\r\n        {\r\n            if (owners[user] == _user)\r\n            {   \r\n                user_index = user;\r\n                require(owners[user] == _user);\r\n            }\r\n        }\r\n        \r\n        owners[user_index] = owners[owners.length - 1];\r\n        owners.pop();\r\n        //owners;\r\n    }\r\n    \r\n    \r\n    //gets wallet users\r\n    function getUsers() public view returns(address[] memory)\r\n    {\r\n        return owners;\r\n    }\r\n    \r\n    function getApprovalLimit() public view returns (uint)\r\n    {\r\n        return (limit);\r\n    }\r\n    \r\n    \r\n    \r\n    //deposit function. require deposit amount i sgreater than 0 and withdrawalRequests//the wallet oweners array is greater than 1\r\n    function deposit() public payable\r\n    {\r\n        require(msg.value >= 0);\r\n        // require(owners.length > 1, \"need to have more than one signer\");\r\n    \r\n        balance[msg.sender] += msg.value;\r\n        reservedBalance[msg.sender] += msg.value;\r\n        emit fundsDeposited(msg.sender, depositId, msg.value, block.timestamp);\r\n        depositId++;\r\n    }\r\n    \r\n    \r\n    //next we want to make a get balance function\r\n    function getAccountBalance() public view returns(uint)\r\n    {\r\n        return balance[msg.sender];\r\n    }\r\n    \r\n    //get contratc balance\r\n    function getContractBalance() public view returns(uint)\r\n    {\r\n        return address(this).balance;\r\n    }\r\n    \r\n    \r\n    //next we want to make q function to return the address of the wallet owner\r\n    function getOwner() public view returns(address)\r\n    {\r\n        return msg.sender;\r\n    }\r\n    \r\n    \r\n    //Create an instance of the Transfer struct and add it to the transferRequests array\r\n    function createTransfer(uint _amount, address payable _receiver) public onlyOwners {\r\n        require(balance[msg.sender] >= _amount);\r\n        require(owners.length >= 1, \"need to have more than one signer\");\r\n        //require(msg.sender != _receiver);\r\n        reservedBalance[msg.sender] -= _amount;\r\n\r\n        for (uint i = 0; i < owners.length; i++)\r\n        {\r\n            require(owners[i] != _receiver);\r\n        //   if  (owners[i] == _receiver)\r\n        //   {\r\n        //       revert();\r\n        //   }\r\n        }\r\n        emit TransferRequestCreated(transferId, _amount, msg.sender, _receiver);\r\n        transferRequests.push(\r\n            Transfer(_amount, msg.sender, _receiver, 0, false, transferId, block.timestamp)\r\n        );\r\n        transferId++;\r\n        \r\n    }\r\n\r\n\r\n    function cancelTransfer(uint _id) public {\r\n        require(owners.length >= 1, \"need to have more than one signer\");\r\n        // require(transferRequests[_id].sender == msg.sender, \"only the user who created the transfer can cancel\");\r\n\r\n        uint counter = 0;\r\n        bool hasBeenFound = false;\r\n        for(uint i = 0; i < transferRequests.length; i++) {\r\n           if(transferRequests[i].id == _id) {\r\n               hasBeenFound = true;\r\n               break;\r\n           }\r\n           counter++;\r\n        }\r\n        if(hasBeenFound == false) revert();\r\n\r\n        reservedBalance[msg.sender] += transferRequests[counter].amount;\r\n        emit transferRequestCancelled(transferRequests[counter].id, msg.sender, transferRequests[counter].receiver, transferRequests[counter].amount, block.timestamp);\r\n\r\n        transferRequests[counter] = transferRequests[transferRequests.length - 1];\r\n        transferRequests.pop();\r\n\r\n\r\n    }\r\n    \r\n    \r\n    \r\n    \r\n    function Transferapprove(uint _id) public onlyOwners {\r\n\r\n        uint counter = 0;\r\n        bool hasBeenFound = false;\r\n        for(uint i = 0; i < transferRequests.length; i++) {\r\n           if(transferRequests[i].id == _id) {\r\n               hasBeenFound = true;\r\n               break;\r\n           }\r\n           counter++;\r\n        }\r\n        if(hasBeenFound == false) revert();\r\n\r\n        require(owners.length >= 1, \"need to have more than one signer\");\r\n        require(msg.sender != mainOwner);\r\n        require(approvals[msg.sender][_id] == false, \"transaction alrady approved\");\r\n        require(transferRequests[counter].hasBeenSent == false);\r\n\r\n        \r\n        \r\n        // if ( transferRequests[_id].approvals => limit){\r\n        //     approvals[msg.sender][_id] = true;\r\n        // }\r\n        approvals[msg.sender][counter] = true;\r\n        transferRequests[counter].approvals++;\r\n        \r\n        emit ApprovalReceived(counter, transferRequests[counter].approvals, msg.sender);\r\n\r\n        if(transferRequests[counter].approvals == limit) {\r\n\r\n            // emit transferRequestApproved(_id, msg.sender, transferRequests[_id].receiver, transferRequests[_id].amount, block.timestamp);\r\n            TransferFunds(counter);\r\n        }\r\n\r\n        \r\n        \r\n    }\r\n    \r\n    \r\n    \r\n    \r\n     //now we need to create a function to actually transfer the funds after the\r\n    //transfer has been recieved\r\n    function TransferFunds(uint _id) private\r\n    {\r\n        // require(owners.length >= 1, \"need to have more than one signer\");\r\n        // require(transferRequests[_id].approvals == limit);\r\n        \r\n       \r\n        transferRequests[_id].hasBeenSent = true;\r\n        balance[transferRequests[_id].sender] -= transferRequests[_id].amount;\r\n        balance[transferRequests[_id].receiver] += transferRequests[_id].amount;\r\n        \r\n        emit transferRequestApproved(transferRequests[_id].id, msg.sender, transferRequests[_id].receiver, transferRequests[_id].amount, block.timestamp);\r\n\r\n        transferRequests[_id] = transferRequests[transferRequests.length - 1];\r\n        transferRequests.pop();\r\n        \r\n        // return balance[transferRequests[_id].sender];\r\n    }\r\n    \r\n    //after transfer is called our balance i < transaction amount thus we cannot withfraw\r\n    //update amount after transfer function.\r\n    function withdraw(uint _amount) public onlyOwners returns (uint)\r\n    {\r\n        require(reservedBalance[msg.sender] >= _amount);\r\n        require(balance[msg.sender] >= _amount);\r\n        \r\n        payable(msg.sender).transfer(_amount);\r\n        balance[msg.sender] -= _amount;\r\n\r\n        emit fundsWithdrawed(msg.sender, withdrawalId, _amount, block.timestamp);\r\n        withdrawalId++;\r\n        \r\n        return balance[msg.sender];\r\n        \r\n    }\r\n    \r\n    \r\n    function getApprovalState(uint _id) public view returns(uint)\r\n    {\r\n        return transferRequests[_id].approvals;\r\n    }\r\n    \r\n    \r\n    //Should return all transfer requests\r\n    function getTransferRequests() public view returns (Transfer[] memory){\r\n       \r\n        return transferRequests;\r\n    }\r\n}",
  "sourcePath": "C:/Users/evanMcGraneTest/Documents/EthereumProgramming/MutiSigWalletApp/contracts/Multisig.sol",
  "compiler": {
    "name": "solc",
    "version": "0.8.0+commit.c7dfd78e.Emscripten.clang"
  },
  "schemaVersion": "3.3.4",
  "updatedAt": "2021-08-21T16:50:10.083Z",
  "networkType": "ethereum",
  "devdoc": {
    "kind": "dev",
    "methods": {},
    "version": 1
  },
  "userdoc": {
    "kind": "user",
    "methods": {},
    "version": 1
  }
}