{
  "contractName": "MultiSigWallet",
  "abi": [
    {
      "inputs": [],
      "stateMutability": "nonpayable",
      "type": "constructor"
    },
    {
      "anonymous": false,
      "inputs": [
        {
          "indexed": false,
          "internalType": "string",
          "name": "ticker",
          "type": "string"
        },
        {
          "indexed": false,
          "internalType": "uint256",
          "name": "id",
          "type": "uint256"
        },
        {
          "indexed": false,
          "internalType": "uint256",
          "name": "_approvals",
          "type": "uint256"
        },
        {
          "indexed": false,
          "internalType": "address",
          "name": "_approver",
          "type": "address"
        }
      ],
      "name": "ApprovalReceived",
      "type": "event"
    },
    {
      "anonymous": false,
      "inputs": [
        {
          "indexed": false,
          "internalType": "string",
          "name": "ticker",
          "type": "string"
        },
        {
          "indexed": false,
          "internalType": "uint256",
          "name": "id",
          "type": "uint256"
        }
      ],
      "name": "TransferApproved",
      "type": "event"
    },
    {
      "anonymous": false,
      "inputs": [
        {
          "indexed": false,
          "internalType": "string",
          "name": "ticker",
          "type": "string"
        },
        {
          "indexed": false,
          "internalType": "uint256",
          "name": "id",
          "type": "uint256"
        },
        {
          "indexed": false,
          "internalType": "uint256",
          "name": "_amount",
          "type": "uint256"
        },
        {
          "indexed": false,
          "internalType": "address",
          "name": "_initiator",
          "type": "address"
        },
        {
          "indexed": false,
          "internalType": "address",
          "name": "_receiver",
          "type": "address"
        }
      ],
      "name": "TransferRequestCreated",
      "type": "event"
    },
    {
      "anonymous": false,
      "inputs": [
        {
          "indexed": false,
          "internalType": "string",
          "name": "ticker",
          "type": "string"
        },
        {
          "indexed": false,
          "internalType": "address",
          "name": "from",
          "type": "address"
        },
        {
          "indexed": false,
          "internalType": "uint256",
          "name": "id",
          "type": "uint256"
        },
        {
          "indexed": false,
          "internalType": "uint256",
          "name": "amount",
          "type": "uint256"
        },
        {
          "indexed": false,
          "internalType": "uint256",
          "name": "timeStamp",
          "type": "uint256"
        }
      ],
      "name": "fundsDeposited",
      "type": "event"
    },
    {
      "anonymous": false,
      "inputs": [
        {
          "indexed": false,
          "internalType": "string",
          "name": "ticker",
          "type": "string"
        },
        {
          "indexed": false,
          "internalType": "address",
          "name": "from",
          "type": "address"
        },
        {
          "indexed": false,
          "internalType": "uint256",
          "name": "id",
          "type": "uint256"
        },
        {
          "indexed": false,
          "internalType": "uint256",
          "name": "amount",
          "type": "uint256"
        },
        {
          "indexed": false,
          "internalType": "uint256",
          "name": "timeStamp",
          "type": "uint256"
        }
      ],
      "name": "fundsWithdrawed",
      "type": "event"
    },
    {
      "anonymous": false,
      "inputs": [
        {
          "indexed": false,
          "internalType": "string",
          "name": "ticker",
          "type": "string"
        },
        {
          "indexed": false,
          "internalType": "uint256",
          "name": "id",
          "type": "uint256"
        },
        {
          "indexed": false,
          "internalType": "address",
          "name": "sender",
          "type": "address"
        },
        {
          "indexed": false,
          "internalType": "address",
          "name": "receiver",
          "type": "address"
        },
        {
          "indexed": false,
          "internalType": "uint256",
          "name": "amount",
          "type": "uint256"
        },
        {
          "indexed": false,
          "internalType": "uint256",
          "name": "timeStamp",
          "type": "uint256"
        }
      ],
      "name": "transferRequestApproved",
      "type": "event"
    },
    {
      "anonymous": false,
      "inputs": [
        {
          "indexed": false,
          "internalType": "string",
          "name": "ticker",
          "type": "string"
        },
        {
          "indexed": false,
          "internalType": "uint256",
          "name": "id",
          "type": "uint256"
        },
        {
          "indexed": false,
          "internalType": "address",
          "name": "sender",
          "type": "address"
        },
        {
          "indexed": false,
          "internalType": "address",
          "name": "receiver",
          "type": "address"
        },
        {
          "indexed": false,
          "internalType": "uint256",
          "name": "amount",
          "type": "uint256"
        },
        {
          "indexed": false,
          "internalType": "uint256",
          "name": "timeStamp",
          "type": "uint256"
        }
      ],
      "name": "transferRequestCancelled",
      "type": "event"
    },
    {
      "inputs": [
        {
          "internalType": "address",
          "name": "",
          "type": "address"
        },
        {
          "internalType": "string",
          "name": "",
          "type": "string"
        }
      ],
      "name": "ERC20Tokenbalances",
      "outputs": [
        {
          "internalType": "uint256",
          "name": "",
          "type": "uint256"
        }
      ],
      "stateMutability": "view",
      "type": "function",
      "constant": true
    },
    {
      "inputs": [
        {
          "internalType": "address",
          "name": "",
          "type": "address"
        },
        {
          "internalType": "uint256",
          "name": "",
          "type": "uint256"
        }
      ],
      "name": "approvals",
      "outputs": [
        {
          "internalType": "bool",
          "name": "",
          "type": "bool"
        }
      ],
      "stateMutability": "view",
      "type": "function",
      "constant": true
    },
    {
      "inputs": [
        {
          "internalType": "address",
          "name": "",
          "type": "address"
        },
        {
          "internalType": "string",
          "name": "",
          "type": "string"
        }
      ],
      "name": "balances",
      "outputs": [
        {
          "internalType": "uint256",
          "name": "",
          "type": "uint256"
        }
      ],
      "stateMutability": "view",
      "type": "function",
      "constant": true
    },
    {
      "inputs": [],
      "name": "depositId",
      "outputs": [
        {
          "internalType": "uint256",
          "name": "",
          "type": "uint256"
        }
      ],
      "stateMutability": "view",
      "type": "function",
      "constant": true
    },
    {
      "inputs": [],
      "name": "limit",
      "outputs": [
        {
          "internalType": "uint256",
          "name": "",
          "type": "uint256"
        }
      ],
      "stateMutability": "view",
      "type": "function",
      "constant": true
    },
    {
      "inputs": [
        {
          "internalType": "address",
          "name": "",
          "type": "address"
        },
        {
          "internalType": "string",
          "name": "",
          "type": "string"
        }
      ],
      "name": "reservedBalance",
      "outputs": [
        {
          "internalType": "uint256",
          "name": "",
          "type": "uint256"
        }
      ],
      "stateMutability": "view",
      "type": "function",
      "constant": true
    },
    {
      "inputs": [
        {
          "internalType": "uint256",
          "name": "",
          "type": "uint256"
        }
      ],
      "name": "tokenList",
      "outputs": [
        {
          "internalType": "string",
          "name": "",
          "type": "string"
        }
      ],
      "stateMutability": "view",
      "type": "function",
      "constant": true
    },
    {
      "inputs": [
        {
          "internalType": "string",
          "name": "",
          "type": "string"
        }
      ],
      "name": "tokenMapping",
      "outputs": [
        {
          "internalType": "string",
          "name": "ticker",
          "type": "string"
        },
        {
          "internalType": "address",
          "name": "tokenAddress",
          "type": "address"
        }
      ],
      "stateMutability": "view",
      "type": "function",
      "constant": true
    },
    {
      "inputs": [],
      "name": "transferId",
      "outputs": [
        {
          "internalType": "uint256",
          "name": "",
          "type": "uint256"
        }
      ],
      "stateMutability": "view",
      "type": "function",
      "constant": true
    },
    {
      "inputs": [],
      "name": "withdrawalId",
      "outputs": [
        {
          "internalType": "uint256",
          "name": "",
          "type": "uint256"
        }
      ],
      "stateMutability": "view",
      "type": "function",
      "constant": true
    },
    {
      "inputs": [
        {
          "internalType": "string",
          "name": "ticker",
          "type": "string"
        },
        {
          "internalType": "address",
          "name": "tokenAddress",
          "type": "address"
        }
      ],
      "name": "addToken",
      "outputs": [],
      "stateMutability": "nonpayable",
      "type": "function"
    },
    {
      "inputs": [
        {
          "internalType": "address",
          "name": "_owners",
          "type": "address"
        }
      ],
      "name": "addUsers",
      "outputs": [],
      "stateMutability": "nonpayable",
      "type": "function"
    },
    {
      "inputs": [
        {
          "internalType": "address",
          "name": "_user",
          "type": "address"
        }
      ],
      "name": "removeUser",
      "outputs": [],
      "stateMutability": "nonpayable",
      "type": "function"
    },
    {
      "inputs": [],
      "name": "getUsers",
      "outputs": [
        {
          "internalType": "address[]",
          "name": "",
          "type": "address[]"
        }
      ],
      "stateMutability": "view",
      "type": "function",
      "constant": true
    },
    {
      "inputs": [],
      "name": "getApprovalLimit",
      "outputs": [
        {
          "internalType": "uint256",
          "name": "",
          "type": "uint256"
        }
      ],
      "stateMutability": "view",
      "type": "function",
      "constant": true
    },
    {
      "inputs": [],
      "name": "deposit",
      "outputs": [],
      "stateMutability": "payable",
      "type": "function",
      "payable": true
    },
    {
      "inputs": [
        {
          "internalType": "uint256",
          "name": "amount",
          "type": "uint256"
        },
        {
          "internalType": "string",
          "name": "ticker",
          "type": "string"
        }
      ],
      "name": "depositERC20Token",
      "outputs": [
        {
          "internalType": "bool",
          "name": "_success",
          "type": "bool"
        }
      ],
      "stateMutability": "nonpayable",
      "type": "function"
    },
    {
      "inputs": [
        {
          "internalType": "uint256",
          "name": "_amount",
          "type": "uint256"
        }
      ],
      "name": "withdraw",
      "outputs": [
        {
          "internalType": "uint256",
          "name": "",
          "type": "uint256"
        }
      ],
      "stateMutability": "nonpayable",
      "type": "function"
    },
    {
      "inputs": [
        {
          "internalType": "uint256",
          "name": "amount",
          "type": "uint256"
        },
        {
          "internalType": "string",
          "name": "ticker",
          "type": "string"
        }
      ],
      "name": "withdrawERC20Token",
      "outputs": [],
      "stateMutability": "nonpayable",
      "type": "function"
    },
    {
      "inputs": [
        {
          "internalType": "string",
          "name": "ticker",
          "type": "string"
        }
      ],
      "name": "getAccountBalance",
      "outputs": [
        {
          "internalType": "uint256",
          "name": "",
          "type": "uint256"
        }
      ],
      "stateMutability": "view",
      "type": "function",
      "constant": true
    },
    {
      "inputs": [],
      "name": "getContractBalance",
      "outputs": [
        {
          "internalType": "uint256",
          "name": "",
          "type": "uint256"
        }
      ],
      "stateMutability": "view",
      "type": "function",
      "constant": true
    },
    {
      "inputs": [],
      "name": "getOwner",
      "outputs": [
        {
          "internalType": "address",
          "name": "",
          "type": "address"
        }
      ],
      "stateMutability": "view",
      "type": "function",
      "constant": true
    },
    {
      "inputs": [
        {
          "internalType": "string",
          "name": "_ticker",
          "type": "string"
        },
        {
          "internalType": "uint256",
          "name": "_amount",
          "type": "uint256"
        },
        {
          "internalType": "address payable",
          "name": "_receiver",
          "type": "address"
        }
      ],
      "name": "createTransfer",
      "outputs": [],
      "stateMutability": "nonpayable",
      "type": "function"
    },
    {
      "inputs": [
        {
          "internalType": "string",
          "name": "ticker",
          "type": "string"
        },
        {
          "internalType": "uint256",
          "name": "_id",
          "type": "uint256"
        }
      ],
      "name": "cancelTransfer",
      "outputs": [],
      "stateMutability": "nonpayable",
      "type": "function"
    },
    {
      "inputs": [
        {
          "internalType": "string",
          "name": "ticker",
          "type": "string"
        },
        {
          "internalType": "uint256",
          "name": "_id",
          "type": "uint256"
        }
      ],
      "name": "Transferapprove",
      "outputs": [],
      "stateMutability": "nonpayable",
      "type": "function"
    },
    {
      "inputs": [
        {
          "internalType": "uint256",
          "name": "_id",
          "type": "uint256"
        }
      ],
      "name": "getApprovalState",
      "outputs": [
        {
          "internalType": "uint256",
          "name": "",
          "type": "uint256"
        }
      ],
      "stateMutability": "view",
      "type": "function",
      "constant": true
    },
    {
      "inputs": [],
      "name": "getTransferRequests",
      "outputs": [
        {
          "components": [
            {
              "internalType": "string",
              "name": "ticker",
              "type": "string"
            },
            {
              "internalType": "uint256",
              "name": "amount",
              "type": "uint256"
            },
            {
              "internalType": "address",
              "name": "sender",
              "type": "address"
            },
            {
              "internalType": "address payable",
              "name": "receiver",
              "type": "address"
            },
            {
              "internalType": "uint256",
              "name": "approvals",
              "type": "uint256"
            },
            {
              "internalType": "bool",
              "name": "hasBeenSent",
              "type": "bool"
            },
            {
              "internalType": "uint256",
              "name": "id",
              "type": "uint256"
            },
            {
              "internalType": "uint256",
              "name": "timeOfCreation",
              "type": "uint256"
            }
          ],
          "internalType": "struct MultiSigWallet.Transfer[]",
          "name": "",
          "type": "tuple[]"
        }
      ],
      "stateMutability": "view",
      "type": "function",
      "constant": true
    }
  ],
  "bytecode": "0x608060405260006003556000600455600060055534801561001f57600080fd5b50336000806101000a81548173ffffffffffffffffffffffffffffffffffffffff021916908373ffffffffffffffffffffffffffffffffffffffff160217905550600160008054906101000a900473ffffffffffffffffffffffffffffffffffffffff169080600181540180825580915050600190039060005260206000200160009091909190916101000a81548173ffffffffffffffffffffffffffffffffffffffff021916908373ffffffffffffffffffffffffffffffffffffffff160217905550614e3b806100f26000396000f3fe60806040526004361061019b5760003560e01c806398575188116100ec578063c48f7e881161008a578063d0e30db011610064578063d0e30db014610601578063e88ad9531461060b578063fbb2e25a14610649578063ffabc673146106725761019b565b8063c48f7e881461055e578063c82b4dbb1461059b578063cad19c40146105d85761019b565b8063a4d66daf116100c6578063a4d66daf146104a2578063ab17fdc7146104cd578063b0b22c2c1461050a578063b80fd822146105335761019b565b806398575188146104115780639ead72221461043a578063a04ef145146104775761019b565b8063622a995c11610159578063766a511111610133578063766a5111146103415780637720cdd81461037e578063893d20e8146103bb5780639852099c146103e65761019b565b8063622a995c146102c25780636f9fb98a146102eb5780637278a1fa146103165761019b565b8062ce8e3e146101a057806304343722146101cb57806305d01f50146101f45780632e1a7d4d1461023157806352cda1481461026e5780635f9bb83f14610299575b600080fd5b3480156101ac57600080fd5b506101b56106af565b6040516101c2919061469d565b60405180910390f35b3480156101d757600080fd5b506101f260048036038101906101ed9190613d3f565b61073d565b005b34801561020057600080fd5b5061021b60048036038101906102169190613d68565b610998565b6040516102289190614a0e565b60405180910390f35b34801561023d57600080fd5b5061025860048036038101906102539190613f71565b6109d3565b6040516102659190614a0e565b60405180910390f35b34801561027a57600080fd5b50610283610ce8565b6040516102909190614a0e565b60405180910390f35b3480156102a557600080fd5b506102c060048036038101906102bb9190613f0a565b610cee565b005b3480156102ce57600080fd5b506102e960048036038101906102e49190613f9a565b6111fb565b005b3480156102f757600080fd5b5061030061166b565b60405161030d9190614a0e565b60405180910390f35b34801561032257600080fd5b5061032b611673565b6040516103389190614a0e565b60405180910390f35b34801561034d57600080fd5b5061036860048036038101906103639190613d68565b61167d565b6040516103759190614a0e565b60405180910390f35b34801561038a57600080fd5b506103a560048036038101906103a09190613f71565b6116b8565b6040516103b29190614a0e565b60405180910390f35b3480156103c757600080fd5b506103d061170d565b6040516103dd9190614622565b60405180910390f35b3480156103f257600080fd5b506103fb611715565b6040516104089190614a0e565b60405180910390f35b34801561041d57600080fd5b5061043860048036038101906104339190613d3f565b61171b565b005b34801561044657600080fd5b50610461600480360381019061045c9190613f71565b611ab7565b60405161046e91906146fc565b60405180910390f35b34801561048357600080fd5b5061048c611b63565b60405161049991906146bf565b60405180910390f35b3480156104ae57600080fd5b506104b7611d44565b6040516104c49190614a0e565b60405180910390f35b3480156104d957600080fd5b506104f460048036038101906104ef9190613f9a565b611d4a565b60405161050191906146e1565b60405180910390f35b34801561051657600080fd5b50610531600480360381019061052c9190613e62565b612166565b005b34801561053f57600080fd5b5061054861232a565b6040516105559190614a0e565b60405180910390f35b34801561056a57600080fd5b5061058560048036038101906105809190613d68565b612330565b6040516105929190614a0e565b60405180910390f35b3480156105a757600080fd5b506105c260048036038101906105bd9190613e21565b61236b565b6040516105cf9190614a0e565b60405180910390f35b3480156105e457600080fd5b506105ff60048036038101906105fa9190613eb6565b6123d0565b005b6106096128e3565b005b34801561061757600080fd5b50610632600480360381019061062d9190613e21565b612afe565b60405161064092919061471e565b60405180910390f35b34801561065557600080fd5b50610670600480360381019061066b9190613eb6565b612be0565b005b34801561067e57600080fd5b5061069960048036038101906106949190613dbc565b6131d0565b6040516106a691906146e1565b60405180910390f35b6060600180548060200260200160405190810160405280929190818152602001828054801561073357602002820191906000526020600020905b8160009054906101000a900473ffffffffffffffffffffffffffffffffffffffff1673ffffffffffffffffffffffffffffffffffffffff16815260200190600101908083116106e9575b5050505050905090565b6000805b6001805490508110156107fe573373ffffffffffffffffffffffffffffffffffffffff166001828154811061079f577f4e487b7100000000000000000000000000000000000000000000000000000000600052603260045260246000fd5b9060005260206000200160009054906101000a900473ffffffffffffffffffffffffffffffffffffffff1673ffffffffffffffffffffffffffffffffffffffff1614156107eb57600191505b80806107f690614cc2565b915050610741565b50600115158115151461081057600080fd5b60005b600180549050811015610906578273ffffffffffffffffffffffffffffffffffffffff1660018281548110610871577f4e487b7100000000000000000000000000000000000000000000000000000000600052603260045260246000fd5b9060005260206000200160009054906101000a900473ffffffffffffffffffffffffffffffffffffffff1673ffffffffffffffffffffffffffffffffffffffff1614156108f3576040517f08c379a00000000000000000000000000000000000000000000000000000000081526004016108ea90614916565b60405180910390fd5b80806108fe90614cc2565b915050610813565b506005600180549050111561091a57600080fd5b6001829080600181540180825580915050600190039060005260206000200160009091909190916101000a81548173ffffffffffffffffffffffffffffffffffffffff021916908373ffffffffffffffffffffffffffffffffffffffff1602179055506001808054905061098e9190614b8a565b6002819055505050565b600860205281600052604060002081805160208101820180518482526020830160208501208183528095505050505050600091509150505481565b6000806000905060005b600180549050811015610a9a573373ffffffffffffffffffffffffffffffffffffffff1660018281548110610a3b577f4e487b7100000000000000000000000000000000000000000000000000000000600052603260045260246000fd5b9060005260206000200160009054906101000a900473ffffffffffffffffffffffffffffffffffffffff1673ffffffffffffffffffffffffffffffffffffffff161415610a8757600191505b8080610a9290614cc2565b9150506109dd565b506001151581151514610aac57600080fd5b82600960003373ffffffffffffffffffffffffffffffffffffffff1673ffffffffffffffffffffffffffffffffffffffff168152602001908152602001600020604051610af89061460d565b9081526020016040518091039020541015610b1257600080fd5b82600860003373ffffffffffffffffffffffffffffffffffffffff1673ffffffffffffffffffffffffffffffffffffffff168152602001908152602001600020604051610b5e9061460d565b9081526020016040518091039020541015610b7857600080fd5b3373ffffffffffffffffffffffffffffffffffffffff166108fc849081150290604051600060405180830381858888f19350505050158015610bbe573d6000803e3d6000fd5b5082600860003373ffffffffffffffffffffffffffffffffffffffff1673ffffffffffffffffffffffffffffffffffffffff168152602001908152602001600020604051610c0b9061460d565b90815260200160405180910390206000828254610c289190614b8a565b925050819055507f6a647eacc9e98792655e8dba08e3167440b93e02ef76e8e3330fa10a27b4ecbf336004548542604051610c669493929190614976565b60405180910390a160046000815480929190610c8190614cc2565b9190505550600860003373ffffffffffffffffffffffffffffffffffffffff1673ffffffffffffffffffffffffffffffffffffffff168152602001908152602001600020604051610cd19061460d565b908152602001604051809103902054915050919050565b60045481565b6000805b600180549050811015610daf573373ffffffffffffffffffffffffffffffffffffffff1660018281548110610d50577f4e487b7100000000000000000000000000000000000000000000000000000000600052603260045260246000fd5b9060005260206000200160009054906101000a900473ffffffffffffffffffffffffffffffffffffffff1673ffffffffffffffffffffffffffffffffffffffff161415610d9c57600191505b8080610da790614cc2565b915050610cf2565b506001151581151514610dc157600080fd5b82600860003373ffffffffffffffffffffffffffffffffffffffff1673ffffffffffffffffffffffffffffffffffffffff16815260200190815260200160002085604051610e0f91906145f6565b9081526020016040518091039020541015610e5f576040517f08c379a0000000000000000000000000000000000000000000000000000000008152600401610e56906148f6565b60405180910390fd5b600180805490501015610ea7576040517f08c379a0000000000000000000000000000000000000000000000000000000008152600401610e9e906148b6565b60405180910390fd5b82600960003373ffffffffffffffffffffffffffffffffffffffff1673ffffffffffffffffffffffffffffffffffffffff16815260200190815260200160002085604051610ef591906145f6565b90815260200160405180910390206000828254610f129190614b8a565b9250508190555060005b60018054905081101561100f578273ffffffffffffffffffffffffffffffffffffffff1660018281548110610f7a577f4e487b7100000000000000000000000000000000000000000000000000000000600052603260045260246000fd5b9060005260206000200160009054906101000a900473ffffffffffffffffffffffffffffffffffffffff1673ffffffffffffffffffffffffffffffffffffffff161415610ffc576040517f08c379a0000000000000000000000000000000000000000000000000000000008152600401610ff390614956565b60405180910390fd5b808061100790614cc2565b915050610f1c565b507ff85258179fd6edacd661ed4d528ac913de6c17c86788c7986958267070e891a48460055485338660405161104995949392919061485c565b60405180910390a160066040518061010001604052808681526020018581526020013373ffffffffffffffffffffffffffffffffffffffff1681526020018473ffffffffffffffffffffffffffffffffffffffff1681526020016000815260200160001515815260200160055481526020014281525090806001815401808255809150506001900390600052602060002090600802016000909190919091506000820151816000019080519060200190611104929190613b13565b506020820151816001015560408201518160020160006101000a81548173ffffffffffffffffffffffffffffffffffffffff021916908373ffffffffffffffffffffffffffffffffffffffff16021790555060608201518160030160006101000a81548173ffffffffffffffffffffffffffffffffffffffff021916908373ffffffffffffffffffffffffffffffffffffffff1602179055506080820151816004015560a08201518160050160006101000a81548160ff02191690831515021790555060c0820151816006015560e082015181600701555050600560008154809291906111f090614cc2565b919050555050505050565b80600073ffffffffffffffffffffffffffffffffffffffff16600a8260405161122491906145f6565b908152602001604051809103902060010160009054906101000a900473ffffffffffffffffffffffffffffffffffffffff1673ffffffffffffffffffffffffffffffffffffffff1614156112ad576040517f08c379a00000000000000000000000000000000000000000000000000000000081526004016112a490614936565b60405180910390fd5b6000805b60018054905081101561136e573373ffffffffffffffffffffffffffffffffffffffff166001828154811061130f577f4e487b7100000000000000000000000000000000000000000000000000000000600052603260045260246000fd5b9060005260206000200160009054906101000a900473ffffffffffffffffffffffffffffffffffffffff1673ffffffffffffffffffffffffffffffffffffffff16141561135b57600191505b808061136690614cc2565b9150506112b1565b50600115158115151461138057600080fd5b600073ffffffffffffffffffffffffffffffffffffffff16600a846040516113a891906145f6565b908152602001604051809103902060010160009054906101000a900473ffffffffffffffffffffffffffffffffffffffff1673ffffffffffffffffffffffffffffffffffffffff1614156113fb57600080fd5b83600860003373ffffffffffffffffffffffffffffffffffffffff1673ffffffffffffffffffffffffffffffffffffffff1681526020019081526020016000208460405161144991906145f6565b908152602001604051809103902054101561146357600080fd5b83600960003373ffffffffffffffffffffffffffffffffffffffff1673ffffffffffffffffffffffffffffffffffffffff168152602001908152602001600020846040516114b191906145f6565b90815260200160405180910390205410156114cb57600080fd5b83600860003373ffffffffffffffffffffffffffffffffffffffff1673ffffffffffffffffffffffffffffffffffffffff1681526020019081526020016000208460405161151991906145f6565b908152602001604051809103902060008282546115369190614b34565b92505081905550600a8360405161154d91906145f6565b908152602001604051809103902060010160009054906101000a900473ffffffffffffffffffffffffffffffffffffffff1673ffffffffffffffffffffffffffffffffffffffff1663a9059cbb33866040518363ffffffff1660e01b81526004016115b9929190614674565b602060405180830381600087803b1580156115d357600080fd5b505af11580156115e7573d6000803e3d6000fd5b505050506040513d601f19601f8201168201806040525081019061160b9190613df8565b507f6a647eacc9e98792655e8dba08e3167440b93e02ef76e8e3330fa10a27b4ecbf8333600454874260405161164595949392919061474e565b60405180910390a16004600081548092919061166090614cc2565b919050555050505050565b600047905090565b6000600254905090565b600960205281600052604060002081805160208101820180518482526020830160208501208183528095505050505050600091509150505481565b6000600682815481106116f4577f4e487b7100000000000000000000000000000000000000000000000000000000600052603260045260246000fd5b9060005260206000209060080201600401549050919050565b600033905090565b60035481565b6000805b6001805490508110156117dc573373ffffffffffffffffffffffffffffffffffffffff166001828154811061177d577f4e487b7100000000000000000000000000000000000000000000000000000000600052603260045260246000fd5b9060005260206000200160009054906101000a900473ffffffffffffffffffffffffffffffffffffffff1673ffffffffffffffffffffffffffffffffffffffff1614156117c957600191505b80806117d490614cc2565b91505061171f565b5060011515811515146117ee57600080fd5b600080600090505b60018054905081101561194e578373ffffffffffffffffffffffffffffffffffffffff1660018281548110611854577f4e487b7100000000000000000000000000000000000000000000000000000000600052603260045260246000fd5b9060005260206000200160009054906101000a900473ffffffffffffffffffffffffffffffffffffffff1673ffffffffffffffffffffffffffffffffffffffff16141561193b578091508373ffffffffffffffffffffffffffffffffffffffff16600182815481106118ef577f4e487b7100000000000000000000000000000000000000000000000000000000600052603260045260246000fd5b9060005260206000200160009054906101000a900473ffffffffffffffffffffffffffffffffffffffff1673ffffffffffffffffffffffffffffffffffffffff161461193a57600080fd5b5b808061194690614cc2565b9150506117f6565b5060018080805490506119619190614b8a565b81548110611998577f4e487b7100000000000000000000000000000000000000000000000000000000600052603260045260246000fd5b9060005260206000200160009054906101000a900473ffffffffffffffffffffffffffffffffffffffff16600182815481106119fd577f4e487b7100000000000000000000000000000000000000000000000000000000600052603260045260246000fd5b9060005260206000200160006101000a81548173ffffffffffffffffffffffffffffffffffffffff021916908373ffffffffffffffffffffffffffffffffffffffff1602179055506001805480611a7d577f4e487b7100000000000000000000000000000000000000000000000000000000600052603160045260246000fd5b6001900381819060005260206000200160006101000a81549073ffffffffffffffffffffffffffffffffffffffff02191690559055505050565b600c8181548110611ac757600080fd5b906000526020600020016000915090508054611ae290614c90565b80601f0160208091040260200160405190810160405280929190818152602001828054611b0e90614c90565b8015611b5b5780601f10611b3057610100808354040283529160200191611b5b565b820191906000526020600020905b815481529060010190602001808311611b3e57829003601f168201915b505050505081565b60606006805480602002602001604051908101604052809291908181526020016000905b82821015611d3b578382906000526020600020906008020160405180610100016040529081600082018054611bbb90614c90565b80601f0160208091040260200160405190810160405280929190818152602001828054611be790614c90565b8015611c345780601f10611c0957610100808354040283529160200191611c34565b820191906000526020600020905b815481529060010190602001808311611c1757829003601f168201915b50505050508152602001600182015481526020016002820160009054906101000a900473ffffffffffffffffffffffffffffffffffffffff1673ffffffffffffffffffffffffffffffffffffffff1673ffffffffffffffffffffffffffffffffffffffff1681526020016003820160009054906101000a900473ffffffffffffffffffffffffffffffffffffffff1673ffffffffffffffffffffffffffffffffffffffff1673ffffffffffffffffffffffffffffffffffffffff168152602001600482015481526020016005820160009054906101000a900460ff161515151581526020016006820154815260200160078201548152505081526020019060010190611b87565b50505050905090565b60025481565b600081600073ffffffffffffffffffffffffffffffffffffffff16600a82604051611d7591906145f6565b908152602001604051809103902060010160009054906101000a900473ffffffffffffffffffffffffffffffffffffffff1673ffffffffffffffffffffffffffffffffffffffff161415611dfe576040517f08c379a0000000000000000000000000000000000000000000000000000000008152600401611df590614936565b60405180910390fd5b6000805b600180549050811015611ebf573373ffffffffffffffffffffffffffffffffffffffff1660018281548110611e60577f4e487b7100000000000000000000000000000000000000000000000000000000600052603260045260246000fd5b9060005260206000200160009054906101000a900473ffffffffffffffffffffffffffffffffffffffff1673ffffffffffffffffffffffffffffffffffffffff161415611eac57600191505b8080611eb790614cc2565b915050611e02565b506001151581151514611ed157600080fd5b600073ffffffffffffffffffffffffffffffffffffffff16600a85604051611ef991906145f6565b908152602001604051809103902060010160009054906101000a900473ffffffffffffffffffffffffffffffffffffffff1673ffffffffffffffffffffffffffffffffffffffff161415611f4c57600080fd5b600a84604051611f5c91906145f6565b908152602001604051809103902060010160009054906101000a900473ffffffffffffffffffffffffffffffffffffffff1673ffffffffffffffffffffffffffffffffffffffff166323b872dd3330886040518463ffffffff1660e01b8152600401611fca9392919061463d565b602060405180830381600087803b158015611fe457600080fd5b505af1158015611ff8573d6000803e3d6000fd5b505050506040513d601f19601f8201168201806040525081019061201c9190613df8565b5084600860003373ffffffffffffffffffffffffffffffffffffffff1673ffffffffffffffffffffffffffffffffffffffff1681526020019081526020016000208560405161206b91906145f6565b908152602001604051809103902060008282546120889190614b34565b9250508190555084600960003373ffffffffffffffffffffffffffffffffffffffff1673ffffffffffffffffffffffffffffffffffffffff168152602001908152602001600020856040516120dd91906145f6565b908152602001604051809103902060008282546120fa9190614b34565b92505081905550600192507f41751252894a74bd975de630158c4e47bb25c36d9ce7ad90383d86d391d2be128433600354884260405161213e95949392919061474e565b60405180910390a16003600081548092919061215990614cc2565b9190505550505092915050565b6000805b600180549050811015612227573373ffffffffffffffffffffffffffffffffffffffff16600182815481106121c8577f4e487b7100000000000000000000000000000000000000000000000000000000600052603260045260246000fd5b9060005260206000200160009054906101000a900473ffffffffffffffffffffffffffffffffffffffff1673ffffffffffffffffffffffffffffffffffffffff16141561221457600191505b808061221f90614cc2565b91505061216a565b50600115158115151461223957600080fd5b60405180604001604052808481526020018373ffffffffffffffffffffffffffffffffffffffff16815250600a8460405161227491906145f6565b9081526020016040518091039020600082015181600001908051906020019061229e929190613b13565b5060208201518160010160006101000a81548173ffffffffffffffffffffffffffffffffffffffff021916908373ffffffffffffffffffffffffffffffffffffffff160217905550905050600c83908060018154018082558091505060019003906000526020600020016000909190919091509080519060200190612324929190613b13565b50505050565b60055481565b600b60205281600052604060002081805160208101820180518482526020830160208501208183528095505050505050600091509150505481565b6000600860003373ffffffffffffffffffffffffffffffffffffffff1673ffffffffffffffffffffffffffffffffffffffff168152602001908152602001600020826040516123ba91906145f6565b9081526020016040518091039020549050919050565b6000805b600180549050811015612491573373ffffffffffffffffffffffffffffffffffffffff1660018281548110612432577f4e487b7100000000000000000000000000000000000000000000000000000000600052603260045260246000fd5b9060005260206000200160009054906101000a900473ffffffffffffffffffffffffffffffffffffffff1673ffffffffffffffffffffffffffffffffffffffff16141561247e57600191505b808061248990614cc2565b9150506123d4565b5060011515811515146124a357600080fd5b60008060005b6006805490508110156125335784600682815481106124f1577f4e487b7100000000000000000000000000000000000000000000000000000000600052603260045260246000fd5b90600052602060002090600802016006015414156125125760019150612533565b828061251d90614cc2565b935050808061252b90614cc2565b9150506124a9565b5060001515811515141561257c576040517f08c379a0000000000000000000000000000000000000000000000000000000008152600401612573906148d6565b60405180910390fd5b6001808054905010156125c4576040517f08c379a00000000000000000000000000000000000000000000000000000000081526004016125bb906148b6565b60405180910390fd5b60008054906101000a900473ffffffffffffffffffffffffffffffffffffffff1673ffffffffffffffffffffffffffffffffffffffff163373ffffffffffffffffffffffffffffffffffffffff16141561261d57600080fd5b60001515600760003373ffffffffffffffffffffffffffffffffffffffff1673ffffffffffffffffffffffffffffffffffffffff168152602001908152602001600020600086815260200190815260200160002060009054906101000a900460ff161515146126c1576040517f08c379a00000000000000000000000000000000000000000000000000000000081526004016126b8906149ee565b60405180910390fd5b60001515600683815481106126ff577f4e487b7100000000000000000000000000000000000000000000000000000000600052603260045260246000fd5b906000526020600020906008020160050160009054906101000a900460ff1615151461272a57600080fd5b6001600760003373ffffffffffffffffffffffffffffffffffffffff1673ffffffffffffffffffffffffffffffffffffffff168152602001908152602001600020600084815260200190815260200160002060006101000a81548160ff021916908315150217905550600682815481106127cd577f4e487b7100000000000000000000000000000000000000000000000000000000600052603260045260246000fd5b906000526020600020906008020160040160008154809291906127ef90614cc2565b91905055507ffe2c7170bbf30cb5442b472fe32cd4080ecb8caefc95e5157e4737119e8cf068858360068581548110612851577f4e487b7100000000000000000000000000000000000000000000000000000000600052603260045260246000fd5b906000526020600020906008020160040154336040516128749493929190614810565b60405180910390a1600254600683815481106128b9577f4e487b7100000000000000000000000000000000000000000000000000000000600052603260045260246000fd5b90600052602060002090600802016004015414156128dc576128db85836131ff565b5b5050505050565b6000805b6001805490508110156129a4573373ffffffffffffffffffffffffffffffffffffffff1660018281548110612945577f4e487b7100000000000000000000000000000000000000000000000000000000600052603260045260246000fd5b9060005260206000200160009054906101000a900473ffffffffffffffffffffffffffffffffffffffff1673ffffffffffffffffffffffffffffffffffffffff16141561299157600191505b808061299c90614cc2565b9150506128e7565b5060011515811515146129b657600080fd5b60003410156129c457600080fd5b34600860003373ffffffffffffffffffffffffffffffffffffffff1673ffffffffffffffffffffffffffffffffffffffff168152602001908152602001600020604051612a109061460d565b90815260200160405180910390206000828254612a2d9190614b34565b9250508190555034600960003373ffffffffffffffffffffffffffffffffffffffff1673ffffffffffffffffffffffffffffffffffffffff168152602001908152602001600020604051612a809061460d565b90815260200160405180910390206000828254612a9d9190614b34565b925050819055507f41751252894a74bd975de630158c4e47bb25c36d9ce7ad90383d86d391d2be12336003543442604051612adb9493929190614976565b60405180910390a160036000815480929190612af690614cc2565b919050555050565b600a81805160208101820180518482526020830160208501208183528095505050505050600091509050806000018054612b3790614c90565b80601f0160208091040260200160405190810160405280929190818152602001828054612b6390614c90565b8015612bb05780601f10612b8557610100808354040283529160200191612bb0565b820191906000526020600020905b815481529060010190602001808311612b9357829003601f168201915b5050505050908060010160009054906101000a900473ffffffffffffffffffffffffffffffffffffffff16905082565b600180805490501015612c28576040517f08c379a0000000000000000000000000000000000000000000000000000000008152600401612c1f906148b6565b60405180910390fd5b60008060005b600680549050811015612cb8578360068281548110612c76577f4e487b7100000000000000000000000000000000000000000000000000000000600052603260045260246000fd5b9060005260206000209060080201600601541415612c975760019150612cb8565b8280612ca290614cc2565b9350508080612cb090614cc2565b915050612c2e565b50600015158115151415612d01576040517f08c379a0000000000000000000000000000000000000000000000000000000008152600401612cf8906149ce565b60405180910390fd5b60068281548110612d3b577f4e487b7100000000000000000000000000000000000000000000000000000000600052603260045260246000fd5b906000526020600020906008020160010154600960003373ffffffffffffffffffffffffffffffffffffffff1673ffffffffffffffffffffffffffffffffffffffff16815260200190815260200160002085604051612d9a91906145f6565b90815260200160405180910390206000828254612db79190614b34565b925050819055507fb80f814c5698722c4bfbbf15abab5a245f91cdea8a998ffe7c29d0d7ba9acf918460068481548110612e1a577f4e487b7100000000000000000000000000000000000000000000000000000000600052603260045260246000fd5b9060005260206000209060080201600601543360068681548110612e67577f4e487b7100000000000000000000000000000000000000000000000000000000600052603260045260246000fd5b906000526020600020906008020160030160009054906101000a900473ffffffffffffffffffffffffffffffffffffffff1660068781548110612ed3577f4e487b7100000000000000000000000000000000000000000000000000000000600052603260045260246000fd5b90600052602060002090600802016001015442604051612ef8969594939291906147a8565b60405180910390a160066001600680549050612f149190614b8a565b81548110612f4b577f4e487b7100000000000000000000000000000000000000000000000000000000600052603260045260246000fd5b906000526020600020906008020160068381548110612f93577f4e487b7100000000000000000000000000000000000000000000000000000000600052603260045260246000fd5b90600052602060002090600802016000820181600001908054612fb590614c90565b612fc0929190613b99565b50600182015481600101556002820160009054906101000a900473ffffffffffffffffffffffffffffffffffffffff168160020160006101000a81548173ffffffffffffffffffffffffffffffffffffffff021916908373ffffffffffffffffffffffffffffffffffffffff1602179055506003820160009054906101000a900473ffffffffffffffffffffffffffffffffffffffff168160030160006101000a81548173ffffffffffffffffffffffffffffffffffffffff021916908373ffffffffffffffffffffffffffffffffffffffff160217905550600482015481600401556005820160009054906101000a900460ff168160050160006101000a81548160ff0219169083151502179055506006820154816006015560078201548160070155905050600680548061311f577f4e487b7100000000000000000000000000000000000000000000000000000000600052603160045260246000fd5b6001900381819060005260206000209060080201600080820160006131449190613c26565b60018201600090556002820160006101000a81549073ffffffffffffffffffffffffffffffffffffffff02191690556003820160006101000a81549073ffffffffffffffffffffffffffffffffffffffff021916905560048201600090556005820160006101000a81549060ff0219169055600682016000905560078201600090555050905550505050565b60076020528160005260406000206020528060005260406000206000915091509054906101000a900460ff1681565b60016006828154811061323b577f4e487b7100000000000000000000000000000000000000000000000000000000600052603260045260246000fd5b906000526020600020906008020160050160006101000a81548160ff0219169083151502179055506006818154811061329d577f4e487b7100000000000000000000000000000000000000000000000000000000600052603260045260246000fd5b90600052602060002090600802016001015460086000600684815481106132ed577f4e487b7100000000000000000000000000000000000000000000000000000000600052603260045260246000fd5b906000526020600020906008020160020160009054906101000a900473ffffffffffffffffffffffffffffffffffffffff1673ffffffffffffffffffffffffffffffffffffffff1673ffffffffffffffffffffffffffffffffffffffff1681526020019081526020016000208360405161336791906145f6565b908152602001604051809103902060008282546133849190614b8a565b92505081905550600681815481106133c5577f4e487b7100000000000000000000000000000000000000000000000000000000600052603260045260246000fd5b9060005260206000209060080201600101546008600060068481548110613415577f4e487b7100000000000000000000000000000000000000000000000000000000600052603260045260246000fd5b906000526020600020906008020160030160009054906101000a900473ffffffffffffffffffffffffffffffffffffffff1673ffffffffffffffffffffffffffffffffffffffff1673ffffffffffffffffffffffffffffffffffffffff1681526020019081526020016000208360405161348f91906145f6565b908152602001604051809103902060008282546134ac9190614b34565b92505081905550600681815481106134ed577f4e487b7100000000000000000000000000000000000000000000000000000000600052603260045260246000fd5b906000526020600020906008020160010154600960006006848154811061353d577f4e487b7100000000000000000000000000000000000000000000000000000000600052603260045260246000fd5b906000526020600020906008020160020160009054906101000a900473ffffffffffffffffffffffffffffffffffffffff1673ffffffffffffffffffffffffffffffffffffffff1673ffffffffffffffffffffffffffffffffffffffff168152602001908152602001600020836040516135b791906145f6565b908152602001604051809103902060008282546135d49190614b8a565b9250508190555060068181548110613615577f4e487b7100000000000000000000000000000000000000000000000000000000600052603260045260246000fd5b9060005260206000209060080201600101546009600060068481548110613665577f4e487b7100000000000000000000000000000000000000000000000000000000600052603260045260246000fd5b906000526020600020906008020160030160009054906101000a900473ffffffffffffffffffffffffffffffffffffffff1673ffffffffffffffffffffffffffffffffffffffff1673ffffffffffffffffffffffffffffffffffffffff168152602001908152602001600020836040516136df91906145f6565b908152602001604051809103902060008282546136fc9190614b34565b925050819055507fd3af251285060458993a5ebb0d39d9636dad6976562f9df61c5ea778c35d0615826006838154811061375f577f4e487b7100000000000000000000000000000000000000000000000000000000600052603260045260246000fd5b90600052602060002090600802016006015433600685815481106137ac577f4e487b7100000000000000000000000000000000000000000000000000000000600052603260045260246000fd5b906000526020600020906008020160030160009054906101000a900473ffffffffffffffffffffffffffffffffffffffff1660068681548110613818577f4e487b7100000000000000000000000000000000000000000000000000000000600052603260045260246000fd5b9060005260206000209060080201600101544260405161383d969594939291906147a8565b60405180910390a1600660016006805490506138599190614b8a565b81548110613890577f4e487b7100000000000000000000000000000000000000000000000000000000600052603260045260246000fd5b9060005260206000209060080201600682815481106138d8577f4e487b7100000000000000000000000000000000000000000000000000000000600052603260045260246000fd5b906000526020600020906008020160008201816000019080546138fa90614c90565b613905929190613b99565b50600182015481600101556002820160009054906101000a900473ffffffffffffffffffffffffffffffffffffffff168160020160006101000a81548173ffffffffffffffffffffffffffffffffffffffff021916908373ffffffffffffffffffffffffffffffffffffffff1602179055506003820160009054906101000a900473ffffffffffffffffffffffffffffffffffffffff168160030160006101000a81548173ffffffffffffffffffffffffffffffffffffffff021916908373ffffffffffffffffffffffffffffffffffffffff160217905550600482015481600401556005820160009054906101000a900460ff168160050160006101000a81548160ff02191690831515021790555060068201548160060155600782015481600701559050506006805480613a64577f4e487b7100000000000000000000000000000000000000000000000000000000600052603160045260246000fd5b600190038181906000526020600020906008020160008082016000613a899190613c26565b60018201600090556002820160006101000a81549073ffffffffffffffffffffffffffffffffffffffff02191690556003820160006101000a81549073ffffffffffffffffffffffffffffffffffffffff021916905560048201600090556005820160006101000a81549060ff021916905560068201600090556007820160009055505090555050565b828054613b1f90614c90565b90600052602060002090601f016020900481019282613b415760008555613b88565b82601f10613b5a57805160ff1916838001178555613b88565b82800160010185558215613b88579182015b82811115613b87578251825591602001919060010190613b6c565b5b509050613b959190613c66565b5090565b828054613ba590614c90565b90600052602060002090601f016020900481019282613bc75760008555613c15565b82601f10613bd85780548555613c15565b82800160010185558215613c1557600052602060002091601f016020900482015b82811115613c14578254825591600101919060010190613bf9565b5b509050613c229190613c66565b5090565b508054613c3290614c90565b6000825580601f10613c445750613c63565b601f016020900490600052602060002090810190613c629190613c66565b5b50565b5b80821115613c7f576000816000905550600101613c67565b5090565b6000613c96613c9184614a5a565b614a29565b905082815260208101848484011115613cae57600080fd5b613cb9848285614c4e565b509392505050565b600081359050613cd081614da9565b92915050565b600081359050613ce581614dc0565b92915050565b600081519050613cfa81614dd7565b92915050565b600082601f830112613d1157600080fd5b8135613d21848260208601613c83565b91505092915050565b600081359050613d3981614dee565b92915050565b600060208284031215613d5157600080fd5b6000613d5f84828501613cc1565b91505092915050565b60008060408385031215613d7b57600080fd5b6000613d8985828601613cc1565b925050602083013567ffffffffffffffff811115613da657600080fd5b613db285828601613d00565b9150509250929050565b60008060408385031215613dcf57600080fd5b6000613ddd85828601613cc1565b9250506020613dee85828601613d2a565b9150509250929050565b600060208284031215613e0a57600080fd5b6000613e1884828501613ceb565b91505092915050565b600060208284031215613e3357600080fd5b600082013567ffffffffffffffff811115613e4d57600080fd5b613e5984828501613d00565b91505092915050565b60008060408385031215613e7557600080fd5b600083013567ffffffffffffffff811115613e8f57600080fd5b613e9b85828601613d00565b9250506020613eac85828601613cc1565b9150509250929050565b60008060408385031215613ec957600080fd5b600083013567ffffffffffffffff811115613ee357600080fd5b613eef85828601613d00565b9250506020613f0085828601613d2a565b9150509250929050565b600080600060608486031215613f1f57600080fd5b600084013567ffffffffffffffff811115613f3957600080fd5b613f4586828701613d00565b9350506020613f5686828701613d2a565b9250506040613f6786828701613cd6565b9150509250925092565b600060208284031215613f8357600080fd5b6000613f9184828501613d2a565b91505092915050565b60008060408385031215613fad57600080fd5b6000613fbb85828601613d2a565b925050602083013567ffffffffffffffff811115613fd857600080fd5b613fe485828601613d00565b9150509250929050565b6000613ffa8383614038565b60208301905092915050565b60006140128383614528565b905092915050565b61402381614c18565b82525050565b61403281614bd0565b82525050565b61404181614bbe565b82525050565b61405081614bbe565b82525050565b600061406182614aaa565b61406b8185614ae5565b935061407683614a8a565b8060005b838110156140a757815161408e8882613fee565b975061409983614acb565b92505060018101905061407a565b5085935050505092915050565b60006140bf82614ab5565b6140c98185614af6565b9350836020820285016140db85614a9a565b8060005b8581101561411757848403895281516140f88582614006565b945061410383614ad8565b925060208a019950506001810190506140df565b50829750879550505050505092915050565b61413281614be2565b82525050565b61414181614be2565b82525050565b600061415282614ac0565b61415c8185614b07565b935061416c818560208601614c5d565b61417581614d98565b840191505092915050565b600061418b82614ac0565b6141958185614b18565b93506141a5818560208601614c5d565b6141ae81614d98565b840191505092915050565b60006141c482614ac0565b6141ce8185614b29565b93506141de818560208601614c5d565b80840191505092915050565b60006141f7602183614b18565b91507f6e65656420746f2068617665206d6f7265207468616e206f6e65207369676e6560008301527f72000000000000000000000000000000000000000000000000000000000000006020830152604082019050919050565b600061425d602283614b18565b91507f5472616e73666572204944206e6f7420666f756e6420666f7220617070726f7660008301527f616c0000000000000000000000000000000000000000000000000000000000006020830152604082019050919050565b60006142c3603183614b18565b91507f696e73756666696369656e742062616c616e636520746f20637265617465206160008301527f207472616e7366657220726561756573740000000000000000000000000000006020830152604082019050919050565b6000614329601283614b18565b91507f416c7265616479207265676973746572656400000000000000000000000000006000830152602082019050919050565b6000614369601483614b18565b91507f546f6b656e20646f6573206e6f742065786973740000000000000000000000006000830152602082019050919050565b60006143a9603183614b18565b91507f6f6e6c79207468652077616c6c6574206f776e6572732063616e206d616b652060008301527f7472616e736665722072657571657374730000000000000000000000000000006020830152604082019050919050565b600061440f600383614b18565b91507f45544800000000000000000000000000000000000000000000000000000000006000830152602082019050919050565b600061444f600383614b29565b91507f45544800000000000000000000000000000000000000000000000000000000006000830152600382019050919050565b600061448f602283614b18565b91507f54726e6173666572204944206e6f7420666f756e642063616e63656c6c61746960008301527f6f6e0000000000000000000000000000000000000000000000000000000000006020830152604082019050919050565b60006144f5601b83614b18565b91507f7472616e73616374696f6e20616c7261647920617070726f76656400000000006000830152602082019050919050565b60006101008301600083015184820360008601526145468282614147565b915050602083015161455b60208601826145d8565b50604083015161456e6040860182614038565b5060608301516145816060860182614029565b50608083015161459460808601826145d8565b5060a08301516145a760a0860182614129565b5060c08301516145ba60c08601826145d8565b5060e08301516145cd60e08601826145d8565b508091505092915050565b6145e181614c0e565b82525050565b6145f081614c0e565b82525050565b600061460282846141b9565b915081905092915050565b600061461882614442565b9150819050919050565b60006020820190506146376000830184614047565b92915050565b60006060820190506146526000830186614047565b61465f6020830185614047565b61466c60408301846145e7565b949350505050565b60006040820190506146896000830185614047565b61469660208301846145e7565b9392505050565b600060208201905081810360008301526146b78184614056565b905092915050565b600060208201905081810360008301526146d981846140b4565b905092915050565b60006020820190506146f66000830184614138565b92915050565b600060208201905081810360008301526147168184614180565b905092915050565b600060408201905081810360008301526147388185614180565b90506147476020830184614047565b9392505050565b600060a08201905081810360008301526147688188614180565b90506147776020830187614047565b61478460408301866145e7565b61479160608301856145e7565b61479e60808301846145e7565b9695505050505050565b600060c08201905081810360008301526147c28189614180565b90506147d160208301886145e7565b6147de6040830187614047565b6147eb606083018661401a565b6147f860808301856145e7565b61480560a08301846145e7565b979650505050505050565b6000608082019050818103600083015261482a8187614180565b905061483960208301866145e7565b61484660408301856145e7565b6148536060830184614047565b95945050505050565b600060a08201905081810360008301526148768188614180565b905061488560208301876145e7565b61489260408301866145e7565b61489f6060830185614047565b6148ac608083018461401a565b9695505050505050565b600060208201905081810360008301526148cf816141ea565b9050919050565b600060208201905081810360008301526148ef81614250565b9050919050565b6000602082019050818103600083015261490f816142b6565b9050919050565b6000602082019050818103600083015261492f8161431c565b9050919050565b6000602082019050818103600083015261494f8161435c565b9050919050565b6000602082019050818103600083015261496f8161439c565b9050919050565b600060a082019050818103600083015261498f81614402565b905061499e6020830187614047565b6149ab60408301866145e7565b6149b860608301856145e7565b6149c560808301846145e7565b95945050505050565b600060208201905081810360008301526149e781614482565b9050919050565b60006020820190508181036000830152614a07816144e8565b9050919050565b6000602082019050614a2360008301846145e7565b92915050565b6000604051905081810181811067ffffffffffffffff82111715614a5057614a4f614d69565b5b8060405250919050565b600067ffffffffffffffff821115614a7557614a74614d69565b5b601f19601f8301169050602081019050919050565b6000819050602082019050919050565b6000819050602082019050919050565b600081519050919050565b600081519050919050565b600081519050919050565b6000602082019050919050565b6000602082019050919050565b600082825260208201905092915050565b600082825260208201905092915050565b600082825260208201905092915050565b600082825260208201905092915050565b600081905092915050565b6000614b3f82614c0e565b9150614b4a83614c0e565b9250827fffffffffffffffffffffffffffffffffffffffffffffffffffffffffffffffff03821115614b7f57614b7e614d0b565b5b828201905092915050565b6000614b9582614c0e565b9150614ba083614c0e565b925082821015614bb357614bb2614d0b565b5b828203905092915050565b6000614bc982614bee565b9050919050565b6000614bdb82614bee565b9050919050565b60008115159050919050565b600073ffffffffffffffffffffffffffffffffffffffff82169050919050565b6000819050919050565b6000614c2382614c2a565b9050919050565b6000614c3582614c3c565b9050919050565b6000614c4782614bee565b9050919050565b82818337600083830152505050565b60005b83811015614c7b578082015181840152602081019050614c60565b83811115614c8a576000848401525b50505050565b60006002820490506001821680614ca857607f821691505b60208210811415614cbc57614cbb614d3a565b5b50919050565b6000614ccd82614c0e565b91507fffffffffffffffffffffffffffffffffffffffffffffffffffffffffffffffff821415614d0057614cff614d0b565b5b600182019050919050565b7f4e487b7100000000000000000000000000000000000000000000000000000000600052601160045260246000fd5b7f4e487b7100000000000000000000000000000000000000000000000000000000600052602260045260246000fd5b7f4e487b7100000000000000000000000000000000000000000000000000000000600052604160045260246000fd5b6000601f19601f8301169050919050565b614db281614bbe565b8114614dbd57600080fd5b50565b614dc981614bd0565b8114614dd457600080fd5b50565b614de081614be2565b8114614deb57600080fd5b50565b614df781614c0e565b8114614e0257600080fd5b5056fea2646970667358221220df51e8b5b37ab611dc386b83e225fd61decf5cc5fcfbf22b1b5c1db14567528864736f6c63430008000033",
  "immutableReferences": {},
  "source": "//SPDX-License-Identifier: MIT\r\npragma solidity 0.8.0;\r\npragma abicoder v2;\r\n\r\nimport \"../node_modules/@openzeppelin/contracts/token/ERC20/IERC20.sol\";\r\n\r\ncontract MultiSigWallet {\r\n\r\n    //address array to store owners\r\n    address mainOwner;\r\n    address[] owners;\r\n    //conensus limit for approvals\r\n    uint public limit;\r\n    uint256 public depositId = 0;\r\n    uint256 public withdrawalId = 0;\r\n    uint256 public transferId = 0;\r\n\r\n    constructor() {\r\n        mainOwner = msg.sender;\r\n        owners.push(mainOwner);\r\n    }\r\n    \r\n    //set up data structures. each trasnfer has diff properties\r\n    //like amount, the reviever, how many approvals it has, the state of the\r\n    //transfer etc\r\n    struct Transfer{\r\n        string ticker;\r\n        uint amount;\r\n        address sender;\r\n        address payable receiver;\r\n        uint approvals;\r\n        bool hasBeenSent;\r\n        uint id;\r\n        uint timeOfCreation;\r\n    }\r\n\r\n    struct Token {\r\n        string ticker;\r\n        address tokenAddress;\r\n    }\r\n    \r\n    \r\n    \r\n    //here we create instances of our structs so we can keep logs\r\n    Transfer[] transferRequests;\r\n    \r\n    \r\n    \r\n    //double mpping which maps an address and the transaction id to an approval boolean\r\n    //false if not approved true if so\r\n    mapping(address => mapping(uint => bool)) public approvals;\r\n    //balance mapping which maps user address ot their account balance\r\n    mapping(address => mapping(string => uint)) public balances;\r\n    mapping(address => mapping(string => uint)) public reservedBalance;\r\n    mapping(string => Token) public tokenMapping;\r\n    \r\n    //modifier which we can lace in function definitions to restrict access of that \r\n    //function to the wallet owners\r\n    modifier onlyOwners(){\r\n        bool owner = false;\r\n        for(uint i=0; i<owners.length;i++){\r\n            if(owners[i] == msg.sender){\r\n                owner = true;\r\n            }\r\n        }\r\n        require(owner == true);\r\n        _;\r\n    }\r\n\r\n    modifier tokenExists(string memory ticker) {\r\n        \r\n        require(tokenMapping[ticker].tokenAddress != address(0), \"Token does not exist\");\r\n         _;\r\n    }\r\n    \r\n    //evets\r\n    event fundsDeposited(string ticker, address from, uint256 id, uint amount, uint256 timeStamp);\r\n    event fundsWithdrawed(string ticker, address from, uint256 id, uint amount, uint256 timeStamp);\r\n    event TransferRequestCreated(string ticker, uint id, uint _amount, address _initiator, address _receiver);\r\n    event ApprovalReceived(string ticker, uint id, uint _approvals, address _approver);\r\n    event TransferApproved(string ticker, uint id);\r\n    // event t(uint id, address sender, address receiver, uint amount, uint timeOfTransfer);\r\n    event transferRequestApproved(string ticker, uint id, address sender, address receiver, uint amount, uint timeStamp);\r\n    event transferRequestCancelled(string ticker, uint id, address sender, address receiver, uint amount, uint timeStamp);\r\n\r\n   \r\n    \r\n    //we will begin with a double mapping that maps an address token ticker or symbol\r\n    // which maps to the balance of that token. We can have balances of many types of\r\n    //tokens /eth so we need a mapping to keep track of this\r\n    mapping(address => mapping(string => uint256)) public ERC20Tokenbalances;\r\n    string[] public tokenList;\r\n\r\n    \r\n    function addToken(string memory ticker, address tokenAddress) external onlyOwners {\r\n\r\n        //create new token\r\n        tokenMapping[ticker] = Token(ticker, tokenAddress);\r\n        //add the new token to the token list\r\n        tokenList.push(ticker);\r\n    }\r\n    \r\n    //add user function. require owner is not already in the wallet array\r\n    function addUsers(address _owners) public onlyOwners\r\n    {\r\n        for (uint user = 0; user < owners.length; user++)\r\n        {\r\n            require(owners[user] != _owners, \"Already registered\");\r\n        }\r\n        require(owners.length <= 5);\r\n        owners.push(_owners);\r\n        \r\n        //from the current array calculate the value of minimum consensus\r\n        limit = owners.length - 1;\r\n    }\r\n    \r\n    //remove user require the address we pass in is the address were removing\r\n    function removeUser(address _user) public onlyOwners\r\n    {\r\n        uint user_index;\r\n        for(uint user = 0; user < owners.length; user++)\r\n        {\r\n            if (owners[user] == _user)\r\n            {   \r\n                user_index = user;\r\n                require(owners[user] == _user);\r\n            }\r\n        }\r\n        \r\n        owners[user_index] = owners[owners.length - 1];\r\n        owners.pop();\r\n        //owners;\r\n    }\r\n    \r\n    \r\n    //gets wallet users\r\n    function getUsers() public view returns(address[] memory)\r\n    {\r\n        return owners;\r\n    }\r\n    \r\n    function getApprovalLimit() public view returns (uint)\r\n    {\r\n        return (limit);\r\n    }\r\n    \r\n    \r\n    //deposit function. require deposit amount i sgreater than 0 and withdrawalRequests//the wallet oweners array is greater than 1\r\n    function deposit() public onlyOwners payable\r\n    {\r\n        require(msg.value >= 0);\r\n        // require(owners.length > 1, \"need to have more than one signer\");\r\n    \r\n        balances[msg.sender][\"ETH\"] += msg.value;\r\n        reservedBalance[msg.sender][\"ETH\"] += msg.value;\r\n        emit fundsDeposited(\"ETH\", msg.sender, depositId, msg.value, block.timestamp);\r\n        depositId++;\r\n    }\r\n\r\n    function depositERC20Token(uint amount, string memory ticker) external tokenExists(ticker) onlyOwners returns(bool _success){\r\n        require(tokenMapping[ticker].tokenAddress != address(0));\r\n        IERC20(tokenMapping[ticker].tokenAddress).transferFrom(msg.sender, address(this), amount);\r\n        balances[msg.sender][ticker] += amount;  \r\n        reservedBalance[msg.sender][ticker] += amount;\r\n        _success = true;\r\n        //emit deposited(msg.sender, address(this), amount, ticker);\r\n        emit fundsDeposited(ticker, msg.sender, depositId, amount, block.timestamp);\r\n        depositId++;\r\n\r\n        return _success;\r\n    }\r\n\r\n    //after transfer is called our balance i < transaction amount thus we cannot withfraw\r\n    //update amount after transfer function.\r\n    function withdraw(uint _amount) public onlyOwners returns (uint)\r\n    {\r\n        require(reservedBalance[msg.sender][\"ETH\"] >= _amount);\r\n        require(balances[msg.sender][\"ETH\"] >= _amount);\r\n        \r\n        payable(msg.sender).transfer(_amount);\r\n        balances[msg.sender][\"ETH\"] -= _amount;\r\n\r\n        emit fundsWithdrawed(\"ETH\", msg.sender, withdrawalId, _amount, block.timestamp);\r\n        withdrawalId++;\r\n        \r\n        return balances[msg.sender][\"ETH\"];\r\n        \r\n    }\r\n\r\n    //withdrawal function\r\n    function withdrawERC20Token(uint amount, string memory ticker) external tokenExists(ticker) onlyOwners {\r\n        require(tokenMapping[ticker].tokenAddress != address(0));\r\n        require(balances[msg.sender][ticker] >= amount);\r\n        require(reservedBalance[msg.sender][ticker] >= amount);\r\n        balances[msg.sender][ticker] += amount;\r\n        IERC20(tokenMapping[ticker].tokenAddress).transfer(msg.sender, amount);\r\n        emit fundsWithdrawed(ticker, msg.sender, withdrawalId, amount, block.timestamp);\r\n        withdrawalId++;\r\n\r\n    }\r\n\r\n        \r\n    //next we want to make a get balance function\r\n    function getAccountBalance(string memory ticker) public view returns(uint)\r\n    {\r\n        return balances[msg.sender][ticker];\r\n    }\r\n\r\n    //get contratc balance\r\n    function getContractBalance() public view returns(uint)\r\n    {\r\n        return address(this).balance;\r\n    }\r\n    \r\n    \r\n    //next we want to make q function to return the address of the wallet owner\r\n    function getOwner() public view returns(address)\r\n    {\r\n        return msg.sender;\r\n    }\r\n    \r\n    \r\n    //Create an instance of the Transfer struct and add it to the transferRequests array\r\n    function createTransfer(string memory _ticker, uint _amount, address payable _receiver) public onlyOwners {\r\n        require(balances[msg.sender][_ticker] >= _amount, \"insufficient balance to create a transfer reauest\");\r\n        require(owners.length >= 1, \"need to have more than one signer\");\r\n        //require(msg.sender != _receiver);\r\n        reservedBalance[msg.sender][_ticker] -= _amount;\r\n\r\n        for (uint i = 0; i < owners.length; i++)\r\n        {\r\n            require(owners[i] != _receiver, \"only the wallet owners can make transfer reuqests\");\r\n        //   if  (owners[i] == _receiver)\r\n        //   {\r\n        //       revert();\r\n        //   }\r\n        }\r\n        emit TransferRequestCreated(_ticker, transferId, _amount, msg.sender, _receiver);\r\n        transferRequests.push(\r\n            Transfer(_ticker, _amount, msg.sender, _receiver, 0, false, transferId, block.timestamp)\r\n        );\r\n        transferId++;\r\n        \r\n    }\r\n\r\n\r\n    function cancelTransfer(string memory ticker, uint _id) public {\r\n        require(owners.length >= 1, \"need to have more than one signer\");\r\n        // require(transferRequests[_id].sender == msg.sender, \"only the user who created the transfer can cancel\");\r\n\r\n        uint counter = 0;\r\n        bool hasBeenFound = false;\r\n        for(uint i = 0; i < transferRequests.length; i++) {\r\n           if(transferRequests[i].id == _id) {\r\n               hasBeenFound = true;\r\n               break;\r\n           }\r\n           counter++;\r\n        }\r\n        if(hasBeenFound == false) revert(\"Trnasfer ID not found cancellation\");\r\n\r\n        reservedBalance[msg.sender][ticker] += transferRequests[counter].amount;\r\n        emit transferRequestCancelled(ticker, transferRequests[counter].id, msg.sender, transferRequests[counter].receiver, transferRequests[counter].amount, block.timestamp);\r\n\r\n        transferRequests[counter] = transferRequests[transferRequests.length - 1];\r\n        transferRequests.pop();\r\n\r\n\r\n    }\r\n    \r\n    \r\n    \r\n    \r\n    function Transferapprove(string memory ticker, uint _id) public onlyOwners {\r\n\r\n        uint counter = 0;\r\n        bool hasBeenFound = false;\r\n        for(uint i = 0; i < transferRequests.length; i++) {\r\n           if(transferRequests[i].id == _id) {\r\n               hasBeenFound = true;\r\n               break;\r\n           }\r\n           counter++;\r\n        }\r\n        if(hasBeenFound == false) revert(\"Transfer ID not found for approval\");\r\n\r\n        require(owners.length >= 1, \"need to have more than one signer\");\r\n        require(msg.sender != mainOwner);\r\n        require(approvals[msg.sender][_id] == false, \"transaction alrady approved\");\r\n        require(transferRequests[counter].hasBeenSent == false);\r\n\r\n        approvals[msg.sender][counter] = true;\r\n        transferRequests[counter].approvals++;\r\n        \r\n        emit ApprovalReceived(ticker, counter, transferRequests[counter].approvals, msg.sender);\r\n\r\n        if(transferRequests[counter].approvals == limit) {\r\n\r\n            // emit transferRequestApproved(_id, msg.sender, transferRequests[_id].receiver, transferRequests[_id].amount, block.timestamp);\r\n            TransferFunds(ticker, counter);\r\n        }\r\n\r\n        \r\n        \r\n    }    \r\n\r\n     //now we need to create a function to actually transfer the funds after the\r\n    //transfer has been recieved\r\n    function TransferFunds(string memory _ticker, uint _id) private\r\n    {\r\n        // require(owners.length >= 1, \"need to have more than one signer\");\r\n        // require(transferRequests[_id].approvals == limit);\r\n        \r\n       \r\n        transferRequests[_id].hasBeenSent = true;\r\n        balances[transferRequests[_id].sender][_ticker] -= transferRequests[_id].amount;\r\n        balances[transferRequests[_id].receiver][_ticker] += transferRequests[_id].amount;\r\n        reservedBalance[transferRequests[_id].sender][_ticker] -= transferRequests[_id].amount;\r\n        reservedBalance[transferRequests[_id].receiver][_ticker] += transferRequests[_id].amount;\r\n        \r\n        emit transferRequestApproved(_ticker, transferRequests[_id].id, msg.sender, transferRequests[_id].receiver, transferRequests[_id].amount, block.timestamp);\r\n\r\n        transferRequests[_id] = transferRequests[transferRequests.length - 1];\r\n        transferRequests.pop();\r\n        \r\n        // return balance[transferRequests[_id].sender];\r\n    }\r\n    \r\n    \r\n    function getApprovalState(uint _id) public view returns(uint)\r\n    {\r\n        return transferRequests[_id].approvals;\r\n    }\r\n    \r\n    \r\n    //Should return all transfer requests\r\n    function getTransferRequests() public view returns (Transfer[] memory){\r\n       \r\n        return transferRequests;\r\n    }\r\n}",
  "sourcePath": "C:/Users/evanMcGraneTest/Documents/EthereumProgramming/MutiSigWalletApp/contracts/Multisig.sol",
  "compiler": {
    "name": "solc",
    "version": "0.8.0+commit.c7dfd78e.Emscripten.clang"
  },
  "schemaVersion": "3.3.4",
  "updatedAt": "2021-09-02T09:15:28.066Z",
  "networkType": "ethereum",
  "devdoc": {
    "kind": "dev",
    "methods": {},
    "version": 1
  },
  "userdoc": {
    "kind": "user",
    "methods": {},
    "version": 1
  }
}