{
  "contractName": "MultiSigFactory",
  "abi": [
    {
      "anonymous": false,
      "inputs": [
        {
          "indexed": false,
          "internalType": "uint256",
          "name": "date",
          "type": "uint256"
        },
        {
          "indexed": false,
          "internalType": "address",
          "name": "walletOwner",
          "type": "address"
        },
        {
          "indexed": false,
          "internalType": "address",
          "name": "multiSigAddress",
          "type": "address"
        }
      ],
      "name": "multisigInstanceCreated",
      "type": "event"
    },
    {
      "inputs": [
        {
          "internalType": "uint256",
          "name": "",
          "type": "uint256"
        }
      ],
      "name": "multisigInstances",
      "outputs": [
        {
          "internalType": "contract MultiSigWallet",
          "name": "",
          "type": "address"
        }
      ],
      "stateMutability": "view",
      "type": "function",
      "constant": true
    },
    {
      "inputs": [
        {
          "internalType": "uint256",
          "name": "",
          "type": "uint256"
        }
      ],
      "name": "wallets",
      "outputs": [
        {
          "internalType": "address",
          "name": "walletAddress",
          "type": "address"
        },
        {
          "internalType": "uint256",
          "name": "walletID",
          "type": "uint256"
        }
      ],
      "stateMutability": "view",
      "type": "function",
      "constant": true
    },
    {
      "inputs": [],
      "name": "createMultiSig",
      "outputs": [],
      "stateMutability": "nonpayable",
      "type": "function"
    },
    {
      "inputs": [],
      "name": "getUserWallets",
      "outputs": [
        {
          "components": [
            {
              "internalType": "address",
              "name": "walletAddress",
              "type": "address"
            },
            {
              "internalType": "uint256",
              "name": "walletID",
              "type": "uint256"
            }
          ],
          "internalType": "struct MultiSigFactory.UserWallets[]",
          "name": "wals",
          "type": "tuple[]"
        }
      ],
      "stateMutability": "view",
      "type": "function",
      "constant": true
    },
    {
      "inputs": [
        {
          "internalType": "address",
          "name": "account",
          "type": "address"
        },
        {
          "internalType": "address",
          "name": "walletAddres",
          "type": "address"
        }
      ],
      "name": "addOwner",
      "outputs": [],
      "stateMutability": "nonpayable",
      "type": "function"
    },
    {
      "inputs": [
        {
          "internalType": "address",
          "name": "walletAddres",
          "type": "address"
        }
      ],
      "name": "getWalletID",
      "outputs": [
        {
          "internalType": "uint256",
          "name": "",
          "type": "uint256"
        }
      ],
      "stateMutability": "view",
      "type": "function",
      "constant": true
    },
    {
      "inputs": [
        {
          "internalType": "address",
          "name": "account",
          "type": "address"
        },
        {
          "internalType": "address",
          "name": "walletAddres",
          "type": "address"
        }
      ],
      "name": "removeOwner",
      "outputs": [],
      "stateMutability": "nonpayable",
      "type": "function"
    }
  ],
  "bytecode": "0x60806040526000805534801561001457600080fd5b50615cc6806100246000396000f3fe60806040523480156200001157600080fd5b5060043610620000885760003560e01c806368e170a8116200006357806368e170a814620001195780637ad71f72146200013b578063f0f202461462000172578063fbe5ce0a146200017e5762000088565b806316d390bf146200008d57806328442b4d14620000ad5780635c0082bf14620000e3575b600080fd5b620000ab6004803603810190620000a5919062000a99565b6200019e565b005b620000cb6004803603810190620000c5919062000ada565b62000290565b604051620000da919062000c80565b60405180910390f35b620001016004803603810190620000fb919062000a6d565b620002d0565b60405162000110919062000c9d565b60405180910390f35b6200012362000436565b60405162000132919062000c5c565b60405180910390f35b62000159600480360381019062000153919062000ada565b62000534565b6040516200016992919062000c2f565b60405180910390f35b6200017c62000589565b005b6200019c600480360381019062000196919062000a99565b62000770565b005b6000600360008473ffffffffffffffffffffffffffffffffffffffff1673ffffffffffffffffffffffffffffffffffffffff16815260200190815260200160002090508060405180604001604052808473ffffffffffffffffffffffffffffffffffffffff168152602001600054815250908060018154018082558091505060019003906000526020600020906002020160009091909190915060008201518160000160006101000a81548173ffffffffffffffffffffffffffffffffffffffff021916908373ffffffffffffffffffffffffffffffffffffffff160217905550602082015181600101555050505050565b60028181548110620002a157600080fd5b906000526020600020016000915054906101000a900473ffffffffffffffffffffffffffffffffffffffff1681565b6000806000600360003373ffffffffffffffffffffffffffffffffffffffff1673ffffffffffffffffffffffffffffffffffffffff168152602001908152602001600020905060005b81805490508110156200042b578473ffffffffffffffffffffffffffffffffffffffff1682828154811062000377577f4e487b7100000000000000000000000000000000000000000000000000000000600052603260045260246000fd5b906000526020600020906002020160000160009054906101000a900473ffffffffffffffffffffffffffffffffffffffff1673ffffffffffffffffffffffffffffffffffffffff161415620004155781818154811062000400577f4e487b7100000000000000000000000000000000000000000000000000000000600052603260045260246000fd5b90600052602060002090600202016001015492505b8080620004229062000dd1565b91505062000319565b508192505050919050565b6060600360003373ffffffffffffffffffffffffffffffffffffffff1673ffffffffffffffffffffffffffffffffffffffff168152602001908152602001600020805480602002602001604051908101604052809291908181526020016000905b828210156200052b57838290600052602060002090600202016040518060400160405290816000820160009054906101000a900473ffffffffffffffffffffffffffffffffffffffff1673ffffffffffffffffffffffffffffffffffffffff1673ffffffffffffffffffffffffffffffffffffffff1681526020016001820154815250508152602001906001019062000497565b50505050905090565b600181815481106200054557600080fd5b90600052602060002090600202016000915090508060000160009054906101000a900473ffffffffffffffffffffffffffffffffffffffff16908060010154905082565b6000336040516200059a9062000a31565b620005a6919062000c12565b604051809103906000f080158015620005c3573d6000803e3d6000fd5b5090506002819080600181540180825580915050600190039060005260206000200160009091909190916101000a81548173ffffffffffffffffffffffffffffffffffffffff021916908373ffffffffffffffffffffffffffffffffffffffff1602179055506000600360003373ffffffffffffffffffffffffffffffffffffffff1673ffffffffffffffffffffffffffffffffffffffff16815260200190815260200160002090508060405180604001604052808473ffffffffffffffffffffffffffffffffffffffff168152602001600054815250908060018154018082558091505060019003906000526020600020906002020160009091909190915060008201518160000160006101000a81548173ffffffffffffffffffffffffffffffffffffffff021916908373ffffffffffffffffffffffffffffffffffffffff1602179055506020820151816001015550507f131a21debd61d4e35432834b9dec2854e4b4b125fb391ffcee71d6ea6b01185f4233846040516200074b9392919062000cba565b60405180910390a1600080815480929190620007679062000dd1565b91905055505050565b6000600360008473ffffffffffffffffffffffffffffffffffffffff1673ffffffffffffffffffffffffffffffffffffffff16815260200190815260200160002090506000806000905060005b838054905081101562000888578473ffffffffffffffffffffffffffffffffffffffff168482815481106200081b577f4e487b7100000000000000000000000000000000000000000000000000000000600052603260045260246000fd5b906000526020600020906002020160000160009054906101000a900473ffffffffffffffffffffffffffffffffffffffff1673ffffffffffffffffffffffffffffffffffffffff1614156200087257809250600191505b80806200087f9062000dd1565b915050620007bd565b50806200089457600080fd5b8260018480549050620008a8919062000d30565b81548110620008e0577f4e487b7100000000000000000000000000000000000000000000000000000000600052603260045260246000fd5b906000526020600020906002020183838154811062000928577f4e487b7100000000000000000000000000000000000000000000000000000000600052603260045260246000fd5b90600052602060002090600202016000820160009054906101000a900473ffffffffffffffffffffffffffffffffffffffff168160000160006101000a81548173ffffffffffffffffffffffffffffffffffffffff021916908373ffffffffffffffffffffffffffffffffffffffff1602179055506001820154816001015590505082805480620009e2577f4e487b7100000000000000000000000000000000000000000000000000000000600052603160045260246000fd5b6001900381819060005260206000209060020201600080820160006101000a81549073ffffffffffffffffffffffffffffffffffffffff02191690556001820160009055505090555050505050565b614e0e8062000e8383390190565b60008135905062000a508162000e4e565b92915050565b60008135905062000a678162000e68565b92915050565b60006020828403121562000a8057600080fd5b600062000a908482850162000a3f565b91505092915050565b6000806040838503121562000aad57600080fd5b600062000abd8582860162000a3f565b925050602062000ad08582860162000a3f565b9150509250929050565b60006020828403121562000aed57600080fd5b600062000afd8482850162000a56565b91505092915050565b600062000b14838362000bbd565b60408301905092915050565b62000b2b8162000d6b565b82525050565b62000b3c8162000d6b565b82525050565b600062000b4f8262000d07565b62000b5b818562000d1f565b935062000b688362000cf7565b8060005b8381101562000b9f57815162000b83888262000b06565b975062000b908362000d12565b92505060018101905062000b6c565b5085935050505092915050565b62000bb78162000da9565b82525050565b60408201600082015162000bd5600085018262000b20565b50602082015162000bea602085018262000bf0565b50505050565b62000bfb8162000d9f565b82525050565b62000c0c8162000d9f565b82525050565b600060208201905062000c29600083018462000b31565b92915050565b600060408201905062000c46600083018562000b31565b62000c55602083018462000c01565b9392505050565b6000602082019050818103600083015262000c78818462000b42565b905092915050565b600060208201905062000c97600083018462000bac565b92915050565b600060208201905062000cb4600083018462000c01565b92915050565b600060608201905062000cd1600083018662000c01565b62000ce0602083018562000b31565b62000cef604083018462000b31565b949350505050565b6000819050602082019050919050565b600081519050919050565b6000602082019050919050565b600082825260208201905092915050565b600062000d3d8262000d9f565b915062000d4a8362000d9f565b92508282101562000d605762000d5f62000e1f565b5b828203905092915050565b600062000d788262000d7f565b9050919050565b600073ffffffffffffffffffffffffffffffffffffffff82169050919050565b6000819050919050565b600062000db68262000dbd565b9050919050565b600062000dca8262000d7f565b9050919050565b600062000dde8262000d9f565b91507fffffffffffffffffffffffffffffffffffffffffffffffffffffffffffffffff82141562000e145762000e1362000e1f565b5b600182019050919050565b7f4e487b7100000000000000000000000000000000000000000000000000000000600052601160045260246000fd5b62000e598162000d6b565b811462000e6557600080fd5b50565b62000e738162000d9f565b811462000e7f57600080fd5b5056fe60806040526000600455600060055560006006553480156200002057600080fd5b5060405162004e0e38038062004e0e833981810160405281019062000046919062000264565b80600160006101000a81548173ffffffffffffffffffffffffffffffffffffffff021916908373ffffffffffffffffffffffffffffffffffffffff1602179055506002600160009054906101000a900473ffffffffffffffffffffffffffffffffffffffff169080600181540180825580915050600190039060005260206000200160009091909190916101000a81548173ffffffffffffffffffffffffffffffffffffffff021916908373ffffffffffffffffffffffffffffffffffffffff160217905550600160028054905062000120919062000290565b600381905550600c80600181540180825580915050600190039060005260206000200160006040518060400160405280600381526020017f455448000000000000000000000000000000000000000000000000000000000081525090919091509080519060200190620001959291906200019d565b5050620003b7565b828054620001ab9062000309565b90600052602060002090601f016020900481019282620001cf57600085556200021b565b82601f10620001ea57805160ff19168380011785556200021b565b828001600101855582156200021b579182015b828111156200021a578251825591602001919060010190620001fd565b5b5090506200022a91906200022e565b5090565b5b80821115620002495760008160009055506001016200022f565b5090565b6000815190506200025e816200039d565b92915050565b6000602082840312156200027757600080fd5b600062000287848285016200024d565b91505092915050565b60006200029d82620002ff565b9150620002aa83620002ff565b925082821015620002c057620002bf6200033f565b5b828203905092915050565b6000620002d882620002df565b9050919050565b600073ffffffffffffffffffffffffffffffffffffffff82169050919050565b6000819050919050565b600060028204905060018216806200032257607f821691505b602082108114156200033957620003386200036e565b5b50919050565b7f4e487b7100000000000000000000000000000000000000000000000000000000600052601160045260246000fd5b7f4e487b7100000000000000000000000000000000000000000000000000000000600052602260045260246000fd5b620003a881620002cb565b8114620003b457600080fd5b50565b614a4780620003c76000396000f3fe6080604052600436106101805760003560e01c80639ead7222116100d1578063c48f7e881161008a578063d0e30db011610064578063d0e30db0146105a9578063e88ad953146105b3578063fbb2e25a146105f1578063ffabc6731461061a57610180565b8063c48f7e8814610506578063c82b4dbb14610543578063cad19c401461058057610180565b80639ead7222146103e2578063a04ef1451461041f578063a4d66daf1461044a578063ab17fdc714610475578063b0b22c2c146104b2578063b80fd822146104db57610180565b80635f9bb83f1161013e5780637278a1fa116101185780637278a1fa146103245780637720cdd81461034f578063893d20e81461038c5780639852099c146103b757610180565b80635f9bb83f146102a7578063622a995c146102d05780636f9fb98a146102f957610180565b8062ce8e3e1461018557806305d01f50146101b05780632e1a7d4d146101ed5780633b3e1de81461022a578063412ff0551461025357806352cda1481461027c575b600080fd5b34801561019157600080fd5b5061019a610657565b6040516101a791906142a9565b60405180910390f35b3480156101bc57600080fd5b506101d760048036038101906101d2919061394b565b6106e5565b6040516101e4919061461a565b60405180910390f35b3480156101f957600080fd5b50610214600480360381019061020f9190613b54565b610720565b604051610221919061461a565b60405180910390f35b34801561023657600080fd5b50610251600480360381019061024c91906138fc565b6109cf565b005b34801561025f57600080fd5b5061027a600480360381019061027591906138fc565b610c40565b005b34801561028857600080fd5b5061029161100b565b60405161029e919061461a565b60405180910390f35b3480156102b357600080fd5b506102ce60048036038101906102c99190613aed565b611011565b005b3480156102dc57600080fd5b506102f760048036038101906102f29190613b7d565b6114d6565b005b34801561030557600080fd5b5061030e6118de565b60405161031b919061461a565b60405180910390f35b34801561033057600080fd5b506103396118e6565b604051610346919061461a565b60405180910390f35b34801561035b57600080fd5b5061037660048036038101906103719190613b54565b6118f0565b604051610383919061461a565b60405180910390f35b34801561039857600080fd5b506103a1611945565b6040516103ae9190614205565b60405180910390f35b3480156103c357600080fd5b506103cc61194d565b6040516103d9919061461a565b60405180910390f35b3480156103ee57600080fd5b5061040960048036038101906104049190613b54565b611953565b6040516104169190614308565b60405180910390f35b34801561042b57600080fd5b506104346119ff565b60405161044191906142cb565b60405180910390f35b34801561045657600080fd5b5061045f611be0565b60405161046c919061461a565b60405180910390f35b34801561048157600080fd5b5061049c60048036038101906104979190613b7d565b611be6565b6040516104a991906142ed565b60405180910390f35b3480156104be57600080fd5b506104d960048036038101906104d49190613a45565b611f94565b005b3480156104e757600080fd5b506104f0612158565b6040516104fd919061461a565b60405180910390f35b34801561051257600080fd5b5061052d6004803603810190610528919061394b565b61215e565b60405161053a919061461a565b60405180910390f35b34801561054f57600080fd5b5061056a60048036038101906105659190613a04565b612199565b604051610577919061461a565b60405180910390f35b34801561058c57600080fd5b506105a760048036038101906105a29190613a99565b6121fe565b005b6105b1612714565b005b3480156105bf57600080fd5b506105da60048036038101906105d59190613a04565b6128bf565b6040516105e892919061432a565b60405180910390f35b3480156105fd57600080fd5b5061061860048036038101906106139190613a99565b6129a1565b005b34801561062657600080fd5b50610641600480360381019061063c919061399f565b612f92565b60405161064e91906142ed565b60405180910390f35b606060028054806020026020016040519081016040528092919081815260200182805480156106db57602002820191906000526020600020905b8160009054906101000a900473ffffffffffffffffffffffffffffffffffffffff1673ffffffffffffffffffffffffffffffffffffffff1681526020019060010190808311610691575b5050505050905090565b600960205281600052604060002081805160208101820180518482526020830160208501208183528095505050505050600091509150505481565b6000806000905060005b6002805490508110156107e7573373ffffffffffffffffffffffffffffffffffffffff1660028281548110610788577f4e487b7100000000000000000000000000000000000000000000000000000000600052603260045260246000fd5b9060005260206000200160009054906101000a900473ffffffffffffffffffffffffffffffffffffffff1673ffffffffffffffffffffffffffffffffffffffff1614156107d457600191505b80806107df906148ce565b91505061072a565b5060011515811515146107f957600080fd5b82600960003373ffffffffffffffffffffffffffffffffffffffff1673ffffffffffffffffffffffffffffffffffffffff168152602001908152602001600020604051610845906141f0565b908152602001604051809103902054101561085f57600080fd5b3373ffffffffffffffffffffffffffffffffffffffff166108fc849081150290604051600060405180830381858888f193505050501580156108a5573d6000803e3d6000fd5b5082600960003373ffffffffffffffffffffffffffffffffffffffff1673ffffffffffffffffffffffffffffffffffffffff1681526020019081526020016000206040516108f2906141f0565b9081526020016040518091039020600082825461090f9190614796565b925050819055507f6a647eacc9e98792655e8dba08e3167440b93e02ef76e8e3330fa10a27b4ecbf33600554854260405161094d9493929190614582565b60405180910390a160056000815480929190610968906148ce565b9190505550600960003373ffffffffffffffffffffffffffffffffffffffff1673ffffffffffffffffffffffffffffffffffffffff1681526020019081526020016000206040516109b8906141f0565b908152602001604051809103902054915050919050565b6000805b600280549050811015610a90573373ffffffffffffffffffffffffffffffffffffffff1660028281548110610a31577f4e487b7100000000000000000000000000000000000000000000000000000000600052603260045260246000fd5b9060005260206000200160009054906101000a900473ffffffffffffffffffffffffffffffffffffffff1673ffffffffffffffffffffffffffffffffffffffff161415610a7d57600191505b8080610a88906148ce565b9150506109d3565b506001151581151514610aa257600080fd5b60005b600280549050811015610b98578473ffffffffffffffffffffffffffffffffffffffff1660028281548110610b03577f4e487b7100000000000000000000000000000000000000000000000000000000600052603260045260246000fd5b9060005260206000200160009054906101000a900473ffffffffffffffffffffffffffffffffffffffff1673ffffffffffffffffffffffffffffffffffffffff161415610b85576040517f08c379a0000000000000000000000000000000000000000000000000000000008152600401610b7c90614522565b60405180910390fd5b8080610b90906148ce565b915050610aa5565b5060056002805490501115610bac57600080fd5b6002849080600181540180825580915050600190039060005260206000200160009091909190916101000a81548173ffffffffffffffffffffffffffffffffffffffff021916908373ffffffffffffffffffffffffffffffffffffffff1602179055506001600280549050610c219190614796565b600381905550610c3083612fc1565b610c3a8483613004565b50505050565b6000805b600280549050811015610d01573373ffffffffffffffffffffffffffffffffffffffff1660028281548110610ca2577f4e487b7100000000000000000000000000000000000000000000000000000000600052603260045260246000fd5b9060005260206000200160009054906101000a900473ffffffffffffffffffffffffffffffffffffffff1673ffffffffffffffffffffffffffffffffffffffff161415610cee57600191505b8080610cf9906148ce565b915050610c44565b506001151581151514610d1357600080fd5b600080600090505b600280549050811015610e73578573ffffffffffffffffffffffffffffffffffffffff1660028281548110610d79577f4e487b7100000000000000000000000000000000000000000000000000000000600052603260045260246000fd5b9060005260206000200160009054906101000a900473ffffffffffffffffffffffffffffffffffffffff1673ffffffffffffffffffffffffffffffffffffffff161415610e60578091508573ffffffffffffffffffffffffffffffffffffffff1660028281548110610e14577f4e487b7100000000000000000000000000000000000000000000000000000000600052603260045260246000fd5b9060005260206000200160009054906101000a900473ffffffffffffffffffffffffffffffffffffffff1673ffffffffffffffffffffffffffffffffffffffff1614610e5f57600080fd5b5b8080610e6b906148ce565b915050610d1b565b5060026001600280549050610e889190614796565b81548110610ebf577f4e487b7100000000000000000000000000000000000000000000000000000000600052603260045260246000fd5b9060005260206000200160009054906101000a900473ffffffffffffffffffffffffffffffffffffffff1660028281548110610f24577f4e487b7100000000000000000000000000000000000000000000000000000000600052603260045260246000fd5b9060005260206000200160006101000a81548173ffffffffffffffffffffffffffffffffffffffff021916908373ffffffffffffffffffffffffffffffffffffffff1602179055506002805480610fa4577f4e487b7100000000000000000000000000000000000000000000000000000000600052603160045260246000fd5b6001900381819060005260206000200160006101000a81549073ffffffffffffffffffffffffffffffffffffffff021916905590556001600280549050610feb9190614796565b600381905550610ffa84612fc1565b611004858461309c565b5050505050565b60055481565b6000805b6002805490508110156110d2573373ffffffffffffffffffffffffffffffffffffffff1660028281548110611073577f4e487b7100000000000000000000000000000000000000000000000000000000600052603260045260246000fd5b9060005260206000200160009054906101000a900473ffffffffffffffffffffffffffffffffffffffff1673ffffffffffffffffffffffffffffffffffffffff1614156110bf57600191505b80806110ca906148ce565b915050611015565b5060011515811515146110e457600080fd5b82600960003373ffffffffffffffffffffffffffffffffffffffff1673ffffffffffffffffffffffffffffffffffffffff1681526020019081526020016000208560405161113291906141d9565b9081526020016040518091039020541015611182576040517f08c379a000000000000000000000000000000000000000000000000000000000815260040161117990614502565b60405180910390fd5b60005b600280549050811015611278578273ffffffffffffffffffffffffffffffffffffffff16600282815481106111e3577f4e487b7100000000000000000000000000000000000000000000000000000000600052603260045260246000fd5b9060005260206000200160009054906101000a900473ffffffffffffffffffffffffffffffffffffffff1673ffffffffffffffffffffffffffffffffffffffff161415611265576040517f08c379a000000000000000000000000000000000000000000000000000000000815260040161125c90614562565b60405180910390fd5b8080611270906148ce565b915050611185565b5082600960003373ffffffffffffffffffffffffffffffffffffffff1673ffffffffffffffffffffffffffffffffffffffff168152602001908152602001600020856040516112c791906141d9565b908152602001604051809103902060008282546112e49190614796565b9250508190555060076040518061010001604052808681526020018581526020013373ffffffffffffffffffffffffffffffffffffffff1681526020018473ffffffffffffffffffffffffffffffffffffffff168152602001600081526020016000151581526020016006548152602001428152509080600181540180825580915050600190039060005260206000209060080201600090919091909150600082015181600001908051906020019061139e9291906136d0565b506020820151816001015560408201518160020160006101000a81548173ffffffffffffffffffffffffffffffffffffffff021916908373ffffffffffffffffffffffffffffffffffffffff16021790555060608201518160030160006101000a81548173ffffffffffffffffffffffffffffffffffffffff021916908373ffffffffffffffffffffffffffffffffffffffff1602179055506080820151816004015560a08201518160050160006101000a81548160ff02191690831515021790555060c0820151816006015560e0820151816007015550507ff85258179fd6edacd661ed4d528ac913de6c17c86788c7986958267070e891a4846006548533866040516114b0959493929190614468565b60405180910390a1600660008154809291906114cb906148ce565b919050555050505050565b80600073ffffffffffffffffffffffffffffffffffffffff16600a826040516114ff91906141d9565b908152602001604051809103902060010160009054906101000a900473ffffffffffffffffffffffffffffffffffffffff1673ffffffffffffffffffffffffffffffffffffffff161415611588576040517f08c379a000000000000000000000000000000000000000000000000000000000815260040161157f90614542565b60405180910390fd5b6000805b600280549050811015611649573373ffffffffffffffffffffffffffffffffffffffff16600282815481106115ea577f4e487b7100000000000000000000000000000000000000000000000000000000600052603260045260246000fd5b9060005260206000200160009054906101000a900473ffffffffffffffffffffffffffffffffffffffff1673ffffffffffffffffffffffffffffffffffffffff16141561163657600191505b8080611641906148ce565b91505061158c565b50600115158115151461165b57600080fd5b600073ffffffffffffffffffffffffffffffffffffffff16600a8460405161168391906141d9565b908152602001604051809103902060010160009054906101000a900473ffffffffffffffffffffffffffffffffffffffff1673ffffffffffffffffffffffffffffffffffffffff1614156116d657600080fd5b83600960003373ffffffffffffffffffffffffffffffffffffffff1673ffffffffffffffffffffffffffffffffffffffff1681526020019081526020016000208460405161172491906141d9565b908152602001604051809103902054101561173e57600080fd5b83600960003373ffffffffffffffffffffffffffffffffffffffff1673ffffffffffffffffffffffffffffffffffffffff1681526020019081526020016000208460405161178c91906141d9565b908152602001604051809103902060008282546117a99190614740565b92505081905550600a836040516117c091906141d9565b908152602001604051809103902060010160009054906101000a900473ffffffffffffffffffffffffffffffffffffffff1673ffffffffffffffffffffffffffffffffffffffff1663a9059cbb33866040518363ffffffff1660e01b815260040161182c929190614280565b602060405180830381600087803b15801561184657600080fd5b505af115801561185a573d6000803e3d6000fd5b505050506040513d601f19601f8201168201806040525081019061187e91906139db565b507f6a647eacc9e98792655e8dba08e3167440b93e02ef76e8e3330fa10a27b4ecbf833360055487426040516118b895949392919061435a565b60405180910390a1600560008154809291906118d3906148ce565b919050555050505050565b600047905090565b6000600354905090565b60006007828154811061192c577f4e487b7100000000000000000000000000000000000000000000000000000000600052603260045260246000fd5b9060005260206000209060080201600401549050919050565b600033905090565b60045481565b600c818154811061196357600080fd5b90600052602060002001600091509050805461197e9061489c565b80601f01602080910402602001604051908101604052809291908181526020018280546119aa9061489c565b80156119f75780601f106119cc576101008083540402835291602001916119f7565b820191906000526020600020905b8154815290600101906020018083116119da57829003601f168201915b505050505081565b60606007805480602002602001604051908101604052809291908181526020016000905b82821015611bd7578382906000526020600020906008020160405180610100016040529081600082018054611a579061489c565b80601f0160208091040260200160405190810160405280929190818152602001828054611a839061489c565b8015611ad05780601f10611aa557610100808354040283529160200191611ad0565b820191906000526020600020905b815481529060010190602001808311611ab357829003601f168201915b50505050508152602001600182015481526020016002820160009054906101000a900473ffffffffffffffffffffffffffffffffffffffff1673ffffffffffffffffffffffffffffffffffffffff1673ffffffffffffffffffffffffffffffffffffffff1681526020016003820160009054906101000a900473ffffffffffffffffffffffffffffffffffffffff1673ffffffffffffffffffffffffffffffffffffffff1673ffffffffffffffffffffffffffffffffffffffff168152602001600482015481526020016005820160009054906101000a900460ff161515151581526020016006820154815260200160078201548152505081526020019060010190611a23565b50505050905090565b60035481565b6000806000905060005b600280549050811015611cad573373ffffffffffffffffffffffffffffffffffffffff1660028281548110611c4e577f4e487b7100000000000000000000000000000000000000000000000000000000600052603260045260246000fd5b9060005260206000200160009054906101000a900473ffffffffffffffffffffffffffffffffffffffff1673ffffffffffffffffffffffffffffffffffffffff161415611c9a57600191505b8080611ca5906148ce565b915050611bf0565b506001151581151514611cbf57600080fd5b82600073ffffffffffffffffffffffffffffffffffffffff16600a82604051611ce891906141d9565b908152602001604051809103902060010160009054906101000a900473ffffffffffffffffffffffffffffffffffffffff1673ffffffffffffffffffffffffffffffffffffffff161415611d71576040517f08c379a0000000000000000000000000000000000000000000000000000000008152600401611d6890614542565b60405180910390fd5b600073ffffffffffffffffffffffffffffffffffffffff16600a85604051611d9991906141d9565b908152602001604051809103902060010160009054906101000a900473ffffffffffffffffffffffffffffffffffffffff1673ffffffffffffffffffffffffffffffffffffffff161415611dec57600080fd5b600a84604051611dfc91906141d9565b908152602001604051809103902060010160009054906101000a900473ffffffffffffffffffffffffffffffffffffffff1673ffffffffffffffffffffffffffffffffffffffff166323b872dd3330886040518463ffffffff1660e01b8152600401611e6a93929190614249565b602060405180830381600087803b158015611e8457600080fd5b505af1158015611e98573d6000803e3d6000fd5b505050506040513d601f19601f82011682018060405250810190611ebc91906139db565b5084600960003373ffffffffffffffffffffffffffffffffffffffff1673ffffffffffffffffffffffffffffffffffffffff16815260200190815260200160002085604051611f0b91906141d9565b90815260200160405180910390206000828254611f289190614740565b92505081905550600192507f41751252894a74bd975de630158c4e47bb25c36d9ce7ad90383d86d391d2be1284336004548842604051611f6c95949392919061435a565b60405180910390a160046000815480929190611f87906148ce565b9190505550505092915050565b6000805b600280549050811015612055573373ffffffffffffffffffffffffffffffffffffffff1660028281548110611ff6577f4e487b7100000000000000000000000000000000000000000000000000000000600052603260045260246000fd5b9060005260206000200160009054906101000a900473ffffffffffffffffffffffffffffffffffffffff1673ffffffffffffffffffffffffffffffffffffffff16141561204257600191505b808061204d906148ce565b915050611f98565b50600115158115151461206757600080fd5b60405180604001604052808481526020018373ffffffffffffffffffffffffffffffffffffffff16815250600a846040516120a291906141d9565b908152602001604051809103902060008201518160000190805190602001906120cc9291906136d0565b5060208201518160010160006101000a81548173ffffffffffffffffffffffffffffffffffffffff021916908373ffffffffffffffffffffffffffffffffffffffff160217905550905050600c839080600181540180825580915050600190039060005260206000200160009091909190915090805190602001906121529291906136d0565b50505050565b60065481565b600b60205281600052604060002081805160208101820180518482526020830160208501208183528095505050505050600091509150505481565b6000600960003373ffffffffffffffffffffffffffffffffffffffff1673ffffffffffffffffffffffffffffffffffffffff168152602001908152602001600020826040516121e891906141d9565b9081526020016040518091039020549050919050565b6000805b6002805490508110156122bf573373ffffffffffffffffffffffffffffffffffffffff1660028281548110612260577f4e487b7100000000000000000000000000000000000000000000000000000000600052603260045260246000fd5b9060005260206000200160009054906101000a900473ffffffffffffffffffffffffffffffffffffffff1673ffffffffffffffffffffffffffffffffffffffff1614156122ac57600191505b80806122b7906148ce565b915050612202565b5060011515811515146122d157600080fd5b60008060005b60078054905081101561236157846007828154811061231f577f4e487b7100000000000000000000000000000000000000000000000000000000600052603260045260246000fd5b90600052602060002090600802016006015414156123405760019150612361565b828061234b906148ce565b9350508080612359906148ce565b9150506122d7565b506000151581151514156123aa576040517f08c379a00000000000000000000000000000000000000000000000000000000081526004016123a1906144e2565b60405180910390fd5b600782815481106123e4577f4e487b7100000000000000000000000000000000000000000000000000000000600052603260045260246000fd5b906000526020600020906008020160020160009054906101000a900473ffffffffffffffffffffffffffffffffffffffff1673ffffffffffffffffffffffffffffffffffffffff163373ffffffffffffffffffffffffffffffffffffffff16141561244e57600080fd5b60001515600860003373ffffffffffffffffffffffffffffffffffffffff1673ffffffffffffffffffffffffffffffffffffffff168152602001908152602001600020600086815260200190815260200160002060009054906101000a900460ff161515146124f2576040517f08c379a00000000000000000000000000000000000000000000000000000000081526004016124e9906145fa565b60405180910390fd5b6000151560078381548110612530577f4e487b7100000000000000000000000000000000000000000000000000000000600052603260045260246000fd5b906000526020600020906008020160050160009054906101000a900460ff1615151461255b57600080fd5b6001600860003373ffffffffffffffffffffffffffffffffffffffff1673ffffffffffffffffffffffffffffffffffffffff168152602001908152602001600020600084815260200190815260200160002060006101000a81548160ff021916908315150217905550600782815481106125fe577f4e487b7100000000000000000000000000000000000000000000000000000000600052603260045260246000fd5b90600052602060002090600802016004016000815480929190612620906148ce565b91905055507ffe2c7170bbf30cb5442b472fe32cd4080ecb8caefc95e5157e4737119e8cf068858360078581548110612682577f4e487b7100000000000000000000000000000000000000000000000000000000600052603260045260246000fd5b906000526020600020906008020160040154336040516126a5949392919061441c565b60405180910390a1600354600783815481106126ea577f4e487b7100000000000000000000000000000000000000000000000000000000600052603260045260246000fd5b906000526020600020906008020160040154141561270d5761270c8583613134565b5b5050505050565b6000805b6002805490508110156127d5573373ffffffffffffffffffffffffffffffffffffffff1660028281548110612776577f4e487b7100000000000000000000000000000000000000000000000000000000600052603260045260246000fd5b9060005260206000200160009054906101000a900473ffffffffffffffffffffffffffffffffffffffff1673ffffffffffffffffffffffffffffffffffffffff1614156127c257600191505b80806127cd906148ce565b915050612718565b5060011515811515146127e757600080fd5b60003410156127f557600080fd5b34600960003373ffffffffffffffffffffffffffffffffffffffff1673ffffffffffffffffffffffffffffffffffffffff168152602001908152602001600020604051612841906141f0565b9081526020016040518091039020600082825461285e9190614740565b925050819055507f41751252894a74bd975de630158c4e47bb25c36d9ce7ad90383d86d391d2be1233600454344260405161289c9493929190614582565b60405180910390a1600460008154809291906128b7906148ce565b919050555050565b600a818051602081018201805184825260208301602085012081835280955050505050506000915090508060000180546128f89061489c565b80601f01602080910402602001604051908101604052809291908181526020018280546129249061489c565b80156129715780601f1061294657610100808354040283529160200191612971565b820191906000526020600020905b81548152906001019060200180831161295457829003601f168201915b5050505050908060010160009054906101000a900473ffffffffffffffffffffffffffffffffffffffff16905082565b600160028054905010156129ea576040517f08c379a00000000000000000000000000000000000000000000000000000000081526004016129e1906144c2565b60405180910390fd5b60008060005b600780549050811015612a7a578360078281548110612a38577f4e487b7100000000000000000000000000000000000000000000000000000000600052603260045260246000fd5b9060005260206000209060080201600601541415612a595760019150612a7a565b8280612a64906148ce565b9350508080612a72906148ce565b9150506129f0565b50600015158115151415612ac3576040517f08c379a0000000000000000000000000000000000000000000000000000000008152600401612aba906145da565b60405180910390fd5b60078281548110612afd577f4e487b7100000000000000000000000000000000000000000000000000000000600052603260045260246000fd5b906000526020600020906008020160010154600960003373ffffffffffffffffffffffffffffffffffffffff1673ffffffffffffffffffffffffffffffffffffffff16815260200190815260200160002085604051612b5c91906141d9565b90815260200160405180910390206000828254612b799190614740565b925050819055507fb80f814c5698722c4bfbbf15abab5a245f91cdea8a998ffe7c29d0d7ba9acf918460078481548110612bdc577f4e487b7100000000000000000000000000000000000000000000000000000000600052603260045260246000fd5b9060005260206000209060080201600601543360078681548110612c29577f4e487b7100000000000000000000000000000000000000000000000000000000600052603260045260246000fd5b906000526020600020906008020160030160009054906101000a900473ffffffffffffffffffffffffffffffffffffffff1660078781548110612c95577f4e487b7100000000000000000000000000000000000000000000000000000000600052603260045260246000fd5b90600052602060002090600802016001015442604051612cba969594939291906143b4565b60405180910390a160076001600780549050612cd69190614796565b81548110612d0d577f4e487b7100000000000000000000000000000000000000000000000000000000600052603260045260246000fd5b906000526020600020906008020160078381548110612d55577f4e487b7100000000000000000000000000000000000000000000000000000000600052603260045260246000fd5b90600052602060002090600802016000820181600001908054612d779061489c565b612d82929190613756565b50600182015481600101556002820160009054906101000a900473ffffffffffffffffffffffffffffffffffffffff168160020160006101000a81548173ffffffffffffffffffffffffffffffffffffffff021916908373ffffffffffffffffffffffffffffffffffffffff1602179055506003820160009054906101000a900473ffffffffffffffffffffffffffffffffffffffff168160030160006101000a81548173ffffffffffffffffffffffffffffffffffffffff021916908373ffffffffffffffffffffffffffffffffffffffff160217905550600482015481600401556005820160009054906101000a900460ff168160050160006101000a81548160ff02191690831515021790555060068201548160060155600782015481600701559050506007805480612ee1577f4e487b7100000000000000000000000000000000000000000000000000000000600052603160045260246000fd5b600190038181906000526020600020906008020160008082016000612f0691906137e3565b60018201600090556002820160006101000a81549073ffffffffffffffffffffffffffffffffffffffff02191690556003820160006101000a81549073ffffffffffffffffffffffffffffffffffffffff021916905560048201600090556005820160006101000a81549060ff0219169055600682016000905560078201600090555050905550505050565b60086020528160005260406000206020528060005260406000206000915091509054906101000a900460ff1681565b806000806101000a81548173ffffffffffffffffffffffffffffffffffffffff021916908373ffffffffffffffffffffffffffffffffffffffff16021790555050565b60008060009054906101000a900473ffffffffffffffffffffffffffffffffffffffff1690508073ffffffffffffffffffffffffffffffffffffffff166316d390bf84846040518363ffffffff1660e01b8152600401613065929190614220565b600060405180830381600087803b15801561307f57600080fd5b505af1158015613093573d6000803e3d6000fd5b50505050505050565b60008060009054906101000a900473ffffffffffffffffffffffffffffffffffffffff1690508073ffffffffffffffffffffffffffffffffffffffff1663fbe5ce0a84846040518363ffffffff1660e01b81526004016130fd929190614220565b600060405180830381600087803b15801561311757600080fd5b505af115801561312b573d6000803e3d6000fd5b50505050505050565b600160078281548110613170577f4e487b7100000000000000000000000000000000000000000000000000000000600052603260045260246000fd5b906000526020600020906008020160050160006101000a81548160ff021916908315150217905550600781815481106131d2577f4e487b7100000000000000000000000000000000000000000000000000000000600052603260045260246000fd5b9060005260206000209060080201600101546009600060078481548110613222577f4e487b7100000000000000000000000000000000000000000000000000000000600052603260045260246000fd5b906000526020600020906008020160030160009054906101000a900473ffffffffffffffffffffffffffffffffffffffff1673ffffffffffffffffffffffffffffffffffffffff1673ffffffffffffffffffffffffffffffffffffffff1681526020019081526020016000208360405161329c91906141d9565b908152602001604051809103902060008282546132b99190614740565b925050819055507fd3af251285060458993a5ebb0d39d9636dad6976562f9df61c5ea778c35d0615826007838154811061331c577f4e487b7100000000000000000000000000000000000000000000000000000000600052603260045260246000fd5b9060005260206000209060080201600601543360078581548110613369577f4e487b7100000000000000000000000000000000000000000000000000000000600052603260045260246000fd5b906000526020600020906008020160030160009054906101000a900473ffffffffffffffffffffffffffffffffffffffff16600786815481106133d5577f4e487b7100000000000000000000000000000000000000000000000000000000600052603260045260246000fd5b906000526020600020906008020160010154426040516133fa969594939291906143b4565b60405180910390a1600760016007805490506134169190614796565b8154811061344d577f4e487b7100000000000000000000000000000000000000000000000000000000600052603260045260246000fd5b906000526020600020906008020160078281548110613495577f4e487b7100000000000000000000000000000000000000000000000000000000600052603260045260246000fd5b906000526020600020906008020160008201816000019080546134b79061489c565b6134c2929190613756565b50600182015481600101556002820160009054906101000a900473ffffffffffffffffffffffffffffffffffffffff168160020160006101000a81548173ffffffffffffffffffffffffffffffffffffffff021916908373ffffffffffffffffffffffffffffffffffffffff1602179055506003820160009054906101000a900473ffffffffffffffffffffffffffffffffffffffff168160030160006101000a81548173ffffffffffffffffffffffffffffffffffffffff021916908373ffffffffffffffffffffffffffffffffffffffff160217905550600482015481600401556005820160009054906101000a900460ff168160050160006101000a81548160ff02191690831515021790555060068201548160060155600782015481600701559050506007805480613621577f4e487b7100000000000000000000000000000000000000000000000000000000600052603160045260246000fd5b60019003818190600052602060002090600802016000808201600061364691906137e3565b60018201600090556002820160006101000a81549073ffffffffffffffffffffffffffffffffffffffff02191690556003820160006101000a81549073ffffffffffffffffffffffffffffffffffffffff021916905560048201600090556005820160006101000a81549060ff021916905560068201600090556007820160009055505090555050565b8280546136dc9061489c565b90600052602060002090601f0160209004810192826136fe5760008555613745565b82601f1061371757805160ff1916838001178555613745565b82800160010185558215613745579182015b82811115613744578251825591602001919060010190613729565b5b5090506137529190613823565b5090565b8280546137629061489c565b90600052602060002090601f01602090048101928261378457600085556137d2565b82601f1061379557805485556137d2565b828001600101855582156137d257600052602060002091601f016020900482015b828111156137d15782548255916001019190600101906137b6565b5b5090506137df9190613823565b5090565b5080546137ef9061489c565b6000825580601f106138015750613820565b601f01602090049060005260206000209081019061381f9190613823565b5b50565b5b8082111561383c576000816000905550600101613824565b5090565b600061385361384e84614666565b614635565b90508281526020810184848401111561386b57600080fd5b61387684828561485a565b509392505050565b60008135905061388d816149b5565b92915050565b6000813590506138a2816149cc565b92915050565b6000815190506138b7816149e3565b92915050565b600082601f8301126138ce57600080fd5b81356138de848260208601613840565b91505092915050565b6000813590506138f6816149fa565b92915050565b60008060006060848603121561391157600080fd5b600061391f8682870161387e565b93505060206139308682870161387e565b92505060406139418682870161387e565b9150509250925092565b6000806040838503121561395e57600080fd5b600061396c8582860161387e565b925050602083013567ffffffffffffffff81111561398957600080fd5b613995858286016138bd565b9150509250929050565b600080604083850312156139b257600080fd5b60006139c08582860161387e565b92505060206139d1858286016138e7565b9150509250929050565b6000602082840312156139ed57600080fd5b60006139fb848285016138a8565b91505092915050565b600060208284031215613a1657600080fd5b600082013567ffffffffffffffff811115613a3057600080fd5b613a3c848285016138bd565b91505092915050565b60008060408385031215613a5857600080fd5b600083013567ffffffffffffffff811115613a7257600080fd5b613a7e858286016138bd565b9250506020613a8f8582860161387e565b9150509250929050565b60008060408385031215613aac57600080fd5b600083013567ffffffffffffffff811115613ac657600080fd5b613ad2858286016138bd565b9250506020613ae3858286016138e7565b9150509250929050565b600080600060608486031215613b0257600080fd5b600084013567ffffffffffffffff811115613b1c57600080fd5b613b28868287016138bd565b9350506020613b39868287016138e7565b9250506040613b4a86828701613893565b9150509250925092565b600060208284031215613b6657600080fd5b6000613b74848285016138e7565b91505092915050565b60008060408385031215613b9057600080fd5b6000613b9e858286016138e7565b925050602083013567ffffffffffffffff811115613bbb57600080fd5b613bc7858286016138bd565b9150509250929050565b6000613bdd8383613c1b565b60208301905092915050565b6000613bf5838361410b565b905092915050565b613c0681614824565b82525050565b613c15816147dc565b82525050565b613c24816147ca565b82525050565b613c33816147ca565b82525050565b6000613c44826146b6565b613c4e81856146f1565b9350613c5983614696565b8060005b83811015613c8a578151613c718882613bd1565b9750613c7c836146d7565b925050600181019050613c5d565b5085935050505092915050565b6000613ca2826146c1565b613cac8185614702565b935083602082028501613cbe856146a6565b8060005b85811015613cfa5784840389528151613cdb8582613be9565b9450613ce6836146e4565b925060208a01995050600181019050613cc2565b50829750879550505050505092915050565b613d15816147ee565b82525050565b613d24816147ee565b82525050565b6000613d35826146cc565b613d3f8185614713565b9350613d4f818560208601614869565b613d58816149a4565b840191505092915050565b6000613d6e826146cc565b613d788185614724565b9350613d88818560208601614869565b613d91816149a4565b840191505092915050565b6000613da7826146cc565b613db18185614735565b9350613dc1818560208601614869565b80840191505092915050565b6000613dda602183614724565b91507f6e65656420746f2068617665206d6f7265207468616e206f6e65207369676e6560008301527f72000000000000000000000000000000000000000000000000000000000000006020830152604082019050919050565b6000613e40602283614724565b91507f5472616e73666572204944206e6f7420666f756e6420666f7220617070726f7660008301527f616c0000000000000000000000000000000000000000000000000000000000006020830152604082019050919050565b6000613ea6603183614724565b91507f696e73756666696369656e742062616c616e636520746f20637265617465206160008301527f207472616e7366657220726561756573740000000000000000000000000000006020830152604082019050919050565b6000613f0c601283614724565b91507f416c7265616479207265676973746572656400000000000000000000000000006000830152602082019050919050565b6000613f4c601483614724565b91507f546f6b656e20646f6573206e6f742065786973740000000000000000000000006000830152602082019050919050565b6000613f8c603183614724565b91507f6f6e6c79207468652077616c6c6574206f776e6572732063616e206d616b652060008301527f7472616e736665722072657571657374730000000000000000000000000000006020830152604082019050919050565b6000613ff2600383614724565b91507f45544800000000000000000000000000000000000000000000000000000000006000830152602082019050919050565b6000614032600383614735565b91507f45544800000000000000000000000000000000000000000000000000000000006000830152600382019050919050565b6000614072602283614724565b91507f54726e6173666572204944206e6f7420666f756e642063616e63656c6c61746960008301527f6f6e0000000000000000000000000000000000000000000000000000000000006020830152604082019050919050565b60006140d8601b83614724565b91507f7472616e73616374696f6e20616c7261647920617070726f76656400000000006000830152602082019050919050565b60006101008301600083015184820360008601526141298282613d2a565b915050602083015161413e60208601826141bb565b5060408301516141516040860182613c1b565b5060608301516141646060860182613c0c565b50608083015161417760808601826141bb565b5060a083015161418a60a0860182613d0c565b5060c083015161419d60c08601826141bb565b5060e08301516141b060e08601826141bb565b508091505092915050565b6141c48161481a565b82525050565b6141d38161481a565b82525050565b60006141e58284613d9c565b915081905092915050565b60006141fb82614025565b9150819050919050565b600060208201905061421a6000830184613c2a565b92915050565b60006040820190506142356000830185613c2a565b6142426020830184613c2a565b9392505050565b600060608201905061425e6000830186613c2a565b61426b6020830185613c2a565b61427860408301846141ca565b949350505050565b60006040820190506142956000830185613c2a565b6142a260208301846141ca565b9392505050565b600060208201905081810360008301526142c38184613c39565b905092915050565b600060208201905081810360008301526142e58184613c97565b905092915050565b60006020820190506143026000830184613d1b565b92915050565b600060208201905081810360008301526143228184613d63565b905092915050565b600060408201905081810360008301526143448185613d63565b90506143536020830184613c2a565b9392505050565b600060a08201905081810360008301526143748188613d63565b90506143836020830187613c2a565b61439060408301866141ca565b61439d60608301856141ca565b6143aa60808301846141ca565b9695505050505050565b600060c08201905081810360008301526143ce8189613d63565b90506143dd60208301886141ca565b6143ea6040830187613c2a565b6143f76060830186613bfd565b61440460808301856141ca565b61441160a08301846141ca565b979650505050505050565b600060808201905081810360008301526144368187613d63565b905061444560208301866141ca565b61445260408301856141ca565b61445f6060830184613c2a565b95945050505050565b600060a08201905081810360008301526144828188613d63565b905061449160208301876141ca565b61449e60408301866141ca565b6144ab6060830185613c2a565b6144b86080830184613bfd565b9695505050505050565b600060208201905081810360008301526144db81613dcd565b9050919050565b600060208201905081810360008301526144fb81613e33565b9050919050565b6000602082019050818103600083015261451b81613e99565b9050919050565b6000602082019050818103600083015261453b81613eff565b9050919050565b6000602082019050818103600083015261455b81613f3f565b9050919050565b6000602082019050818103600083015261457b81613f7f565b9050919050565b600060a082019050818103600083015261459b81613fe5565b90506145aa6020830187613c2a565b6145b760408301866141ca565b6145c460608301856141ca565b6145d160808301846141ca565b95945050505050565b600060208201905081810360008301526145f381614065565b9050919050565b60006020820190508181036000830152614613816140cb565b9050919050565b600060208201905061462f60008301846141ca565b92915050565b6000604051905081810181811067ffffffffffffffff8211171561465c5761465b614975565b5b8060405250919050565b600067ffffffffffffffff82111561468157614680614975565b5b601f19601f8301169050602081019050919050565b6000819050602082019050919050565b6000819050602082019050919050565b600081519050919050565b600081519050919050565b600081519050919050565b6000602082019050919050565b6000602082019050919050565b600082825260208201905092915050565b600082825260208201905092915050565b600082825260208201905092915050565b600082825260208201905092915050565b600081905092915050565b600061474b8261481a565b91506147568361481a565b9250827fffffffffffffffffffffffffffffffffffffffffffffffffffffffffffffffff0382111561478b5761478a614917565b5b828201905092915050565b60006147a18261481a565b91506147ac8361481a565b9250828210156147bf576147be614917565b5b828203905092915050565b60006147d5826147fa565b9050919050565b60006147e7826147fa565b9050919050565b60008115159050919050565b600073ffffffffffffffffffffffffffffffffffffffff82169050919050565b6000819050919050565b600061482f82614836565b9050919050565b600061484182614848565b9050919050565b6000614853826147fa565b9050919050565b82818337600083830152505050565b60005b8381101561488757808201518184015260208101905061486c565b83811115614896576000848401525b50505050565b600060028204905060018216806148b457607f821691505b602082108114156148c8576148c7614946565b5b50919050565b60006148d98261481a565b91507fffffffffffffffffffffffffffffffffffffffffffffffffffffffffffffffff82141561490c5761490b614917565b5b600182019050919050565b7f4e487b7100000000000000000000000000000000000000000000000000000000600052601160045260246000fd5b7f4e487b7100000000000000000000000000000000000000000000000000000000600052602260045260246000fd5b7f4e487b7100000000000000000000000000000000000000000000000000000000600052604160045260246000fd5b6000601f19601f8301169050919050565b6149be816147ca565b81146149c957600080fd5b50565b6149d5816147dc565b81146149e057600080fd5b50565b6149ec816147ee565b81146149f757600080fd5b50565b614a038161481a565b8114614a0e57600080fd5b5056fea2646970667358221220e757150d1bcf08e655763cd7f8d11be065ae31f6d2428a618d78512ef7cf848564736f6c63430008000033a26469706673582212207243cb76836346f01a1d3c4d497656c923e2f850cd45ea575bd7fe8b7846f25a64736f6c63430008000033",
  "immutableReferences": {},
  "source": "//SPDX-License-Identifier: MIT\r\npragma solidity 0.8.0;\r\npragma abicoder v2;\r\n\r\nimport \"../node_modules/@openzeppelin/contracts/token/ERC20/IERC20.sol\";\r\n\r\ncontract MultiSigWallet {\r\n\r\n    address MultiSigInstance;\r\n    address mainOwner;\r\n    address[] owners;\r\n\r\n    //conensus limit for approvals\r\n    uint public limit;\r\n    uint256 public depositId = 0;\r\n    uint256 public withdrawalId = 0;\r\n    uint256 public transferId = 0;\r\n\r\n    constructor(address _owner) {\r\n        mainOwner = _owner;\r\n        owners.push(mainOwner);\r\n        limit = owners.length - 1;\r\n        tokenList.push(\"ETH\");\r\n    }\r\n    \r\n    //set up data structures. each trasnfer has diff properties\r\n    //like amount, the reviever, how many approvals it has, the state of the\r\n    //transfer etc\r\n    struct Transfer{\r\n        string ticker;\r\n        uint amount;\r\n        address sender;\r\n        address payable receiver;\r\n        uint approvals;\r\n        bool hasBeenSent;\r\n        uint id;\r\n        uint timeOfCreation;\r\n    }\r\n\r\n    struct Token {\r\n        string ticker;\r\n        address tokenAddress;\r\n    }\r\n    \r\n    \r\n    //here we create instances of our structs so we can keep logs\r\n    Transfer[] transferRequests;\r\n    \r\n    //double mpping which maps an address and the transaction id to an approval boolean\r\n    //false if not approved true if so\r\n    mapping(address => mapping(uint => bool)) public approvals;\r\n    mapping(address => mapping(string => uint)) public balances;\r\n    mapping(string => Token) public tokenMapping;\r\n    \r\n    //modifier which we can lace in function definitions to restrict access of that \r\n    //function to the wallet owners\r\n    modifier onlyOwners(){\r\n        bool owner = false;\r\n        for(uint i=0; i<owners.length;i++){\r\n            if(owners[i] == msg.sender){\r\n                owner = true;\r\n            }\r\n        }\r\n        require(owner == true);\r\n        _;\r\n    }\r\n\r\n    modifier tokenExists(string memory ticker) {\r\n        \r\n        require(tokenMapping[ticker].tokenAddress != address(0), \"Token does not exist\");\r\n         _;\r\n    }\r\n    \r\n    //evets\r\n    event fundsDeposited(string ticker, address from, uint256 id, uint amount, uint256 timeStamp);\r\n    event fundsWithdrawed(string ticker, address from, uint256 id, uint amount, uint256 timeStamp);\r\n    event TransferRequestCreated(string ticker, uint id, uint _amount, address _initiator, address _receiver);\r\n    event ApprovalReceived(string ticker, uint id, uint _approvals, address _approver);\r\n    event TransferApproved(string ticker, uint id);\r\n    // event t(uint id, address sender, address receiver, uint amount, uint timeOfTransfer);\r\n    event transferRequestApproved(string ticker, uint id, address sender, address receiver, uint amount, uint timeStamp);\r\n    event transferRequestCancelled(string ticker, uint id, address sender, address receiver, uint amount, uint timeStamp);\r\n\r\n   \r\n    \r\n    //we will begin with a double mapping that maps an address token ticker or symbol\r\n    // which maps to the balance of that token. We can have balances of many types of\r\n    //tokens /eth so we need a mapping to keep track of this\r\n    mapping(address => mapping(string => uint256)) public ERC20Tokenbalances;\r\n    string[] public tokenList;\r\n\r\n    function setWalletAddress(address _address) private {\r\n        MultiSigInstance = _address;\r\n    }\r\n    \r\n    function callAddOwner(address owner, address wallet) private {\r\n        MultiSigFactory factory = MultiSigFactory(MultiSigInstance);\r\n        factory.addOwner(owner, wallet);\r\n    }\r\n\r\n    function callRemoveOwner(address owner, address wallet) private {\r\n        MultiSigFactory factory = MultiSigFactory(MultiSigInstance);\r\n        factory.removeOwner(owner, wallet);\r\n    }\r\n    \r\n    function addToken(string memory ticker, address tokenAddress) external onlyOwners {\r\n\r\n        //create new token\r\n        tokenMapping[ticker] = Token(ticker, tokenAddress);\r\n        //add the new token to the token list\r\n        tokenList.push(ticker);\r\n    }\r\n    \r\n    //add user function. require owner is not already in the wallet array\r\n    function addUsers(address _owners, address _address, address walletAddress) public onlyOwners\r\n    {\r\n        for (uint user = 0; user < owners.length; user++)\r\n        {\r\n            require(owners[user] != _owners, \"Already registered\");\r\n        }\r\n        require(owners.length <= 5);\r\n        owners.push(_owners);\r\n        \r\n        //from the current array calculate the value of minimum consensus\r\n        limit = owners.length - 1;\r\n        \r\n        setWalletAddress(_address);\r\n        callAddOwner(_owners, walletAddress );\r\n    }\r\n    \r\n    //remove user require the address we pass in is the address were removing\r\n    function removeUser(address _user, address _address, address walletAddress) public onlyOwners\r\n    {\r\n        uint user_index;\r\n        for(uint user = 0; user < owners.length; user++)\r\n        {\r\n            if (owners[user] == _user)\r\n            {   \r\n                user_index = user;\r\n                require(owners[user] == _user);\r\n            }\r\n        }\r\n        \r\n        owners[user_index] = owners[owners.length - 1];\r\n        owners.pop();\r\n        limit= owners.length - 1;\r\n        \r\n        setWalletAddress(_address);\r\n        callRemoveOwner(_user, walletAddress );\r\n    }\r\n    \r\n    \r\n    //gets wallet users\r\n    function getUsers() public view returns(address[] memory)\r\n    {\r\n        return owners;\r\n    }\r\n    \r\n    function getApprovalLimit() public view returns (uint)\r\n    {\r\n        return (limit);\r\n    }\r\n    \r\n    \r\n    //deposit function. require deposit amount i sgreater than 0 and withdrawalRequests//the wallet oweners array is greater than 1\r\n    function deposit() public onlyOwners payable {\r\n        \r\n        require(msg.value >= 0);\r\n    \r\n        balances[msg.sender][\"ETH\"] += msg.value;\r\n        emit fundsDeposited(\"ETH\", msg.sender, depositId, msg.value, block.timestamp);\r\n        depositId++;\r\n    }\r\n\r\n    function depositERC20Token(uint amount, string memory ticker) external onlyOwners tokenExists(ticker) returns(bool _success){\r\n\r\n        require(tokenMapping[ticker].tokenAddress != address(0));\r\n    \r\n        IERC20(tokenMapping[ticker].tokenAddress).transferFrom(msg.sender, address(this), amount);\r\n        balances[msg.sender][ticker] += amount;  \r\n        _success = true;\r\n        //emit deposited(msg.sender, address(this), amount, ticker);\r\n        emit fundsDeposited(ticker, msg.sender, depositId, amount, block.timestamp);\r\n        depositId++;\r\n\r\n        return _success;\r\n    }\r\n\r\n    //after transfer is called our balance i < transaction amount thus we cannot withfraw\r\n    //update amount after transfer function.\r\n    function withdraw(uint _amount) public onlyOwners returns (uint)\r\n    {\r\n        require(balances[msg.sender][\"ETH\"] >= _amount);\r\n        \r\n        payable(msg.sender).transfer(_amount);\r\n        balances[msg.sender][\"ETH\"] -= _amount;\r\n\r\n        emit fundsWithdrawed(\"ETH\", msg.sender, withdrawalId, _amount, block.timestamp);\r\n        withdrawalId++;\r\n        \r\n        return balances[msg.sender][\"ETH\"];\r\n        \r\n    }\r\n\r\n    //withdrawal function\r\n    function withdrawERC20Token(uint amount, string memory ticker) external tokenExists(ticker) onlyOwners {\r\n        require(tokenMapping[ticker].tokenAddress != address(0));\r\n        require(balances[msg.sender][ticker] >= amount);\r\n\r\n        balances[msg.sender][ticker] += amount;\r\n        IERC20(tokenMapping[ticker].tokenAddress).transfer(msg.sender, amount);\r\n        emit fundsWithdrawed(ticker, msg.sender, withdrawalId, amount, block.timestamp);\r\n        withdrawalId++;\r\n\r\n    }\r\n\r\n        \r\n    //next we want to make a get balance function\r\n    function getAccountBalance(string memory ticker) public view returns(uint)\r\n    {\r\n        return balances[msg.sender][ticker];\r\n    }\r\n\r\n    //get contratc balance\r\n    function getContractBalance() public view returns(uint)\r\n    {\r\n        return address(this).balance;\r\n    }\r\n    \r\n    \r\n    //next we want to make q function to return the address of the wallet owner\r\n    function getOwner() public view returns(address)\r\n    {\r\n        return msg.sender;\r\n    }\r\n    \r\n    \r\n    //Create an instance of the Transfer struct and add it to the transferRequests array\r\n    function createTransfer(string memory _ticker, uint _amount, address payable _receiver) public onlyOwners {\r\n\r\n        require(balances[msg.sender][_ticker] >= _amount, \"insufficient balance to create a transfer reauest\");\r\n    \r\n        for (uint i = 0; i < owners.length; i++) {\r\n            require(owners[i] != _receiver, \"only the wallet owners can make transfer reuqests\");\r\n        }\r\n        \r\n        balances[msg.sender][_ticker] -= _amount;\r\n        transferRequests.push(Transfer(_ticker, _amount, msg.sender, _receiver, 0, false, transferId, block.timestamp));\r\n        emit TransferRequestCreated(_ticker, transferId, _amount, msg.sender, _receiver);\r\n        transferId++;\r\n        \r\n    }\r\n\r\n\r\n    function cancelTransfer(string memory ticker, uint _id) public {\r\n        require(owners.length >= 1, \"need to have more than one signer\");\r\n        // require(transferRequests[_id].sender == msg.sender, \"only the user who created the transfer can cancel\");\r\n\r\n        uint counter = 0;\r\n        bool hasBeenFound = false;\r\n        for(uint i = 0; i < transferRequests.length; i++) {\r\n           if(transferRequests[i].id == _id) {\r\n               hasBeenFound = true;\r\n               break;\r\n           }\r\n           counter++;\r\n        }\r\n        if(hasBeenFound == false) revert(\"Trnasfer ID not found cancellation\");\r\n\r\n\r\n        balances[msg.sender][ticker] += transferRequests[counter].amount;\r\n        emit transferRequestCancelled(ticker, transferRequests[counter].id, msg.sender, transferRequests[counter].receiver, transferRequests[counter].amount, block.timestamp);\r\n\r\n        transferRequests[counter] = transferRequests[transferRequests.length - 1];\r\n        transferRequests.pop();\r\n\r\n\r\n    }\r\n    \r\n    \r\n    \r\n    \r\n    function Transferapprove(string memory ticker, uint _id) public onlyOwners {\r\n\r\n        uint counter = 0;\r\n        bool hasBeenFound = false;\r\n        for(uint i = 0; i < transferRequests.length; i++) {\r\n           if(transferRequests[i].id == _id) {\r\n               hasBeenFound = true;\r\n               break;\r\n           }\r\n           counter++;\r\n        }\r\n        if(hasBeenFound == false) revert(\"Transfer ID not found for approval\");\r\n\r\n        require(msg.sender != transferRequests[counter].sender);\r\n        require(approvals[msg.sender][_id] == false, \"transaction alrady approved\");\r\n        require(transferRequests[counter].hasBeenSent == false);\r\n\r\n        approvals[msg.sender][counter] = true;\r\n        transferRequests[counter].approvals++;\r\n        \r\n        emit ApprovalReceived(ticker, counter, transferRequests[counter].approvals, msg.sender);\r\n\r\n        if(transferRequests[counter].approvals == limit) {\r\n\r\n            TransferFunds(ticker, counter);\r\n        }\r\n\r\n    }    \r\n\r\n     //now we need to create a function to actually transfer the funds after the\r\n    //transfer has been recieved\r\n    function TransferFunds(string memory _ticker, uint _id) private {\r\n        \r\n        transferRequests[_id].hasBeenSent = true;\r\n        balances[transferRequests[_id].receiver][_ticker] += transferRequests[_id].amount;\r\n       \r\n        emit transferRequestApproved(_ticker, transferRequests[_id].id, msg.sender, transferRequests[_id].receiver, transferRequests[_id].amount, block.timestamp);\r\n\r\n        transferRequests[_id] = transferRequests[transferRequests.length - 1];\r\n        transferRequests.pop();\r\n        \r\n    }\r\n    \r\n    \r\n    function getApprovalState(uint _id) public view returns(uint)\r\n    {\r\n        return transferRequests[_id].approvals;\r\n    }\r\n    \r\n    \r\n    //Should return all transfer requests\r\n    function getTransferRequests() public view returns (Transfer[] memory){\r\n       \r\n        return transferRequests;\r\n    }\r\n}\r\n\r\n\r\n\r\n\r\n\r\n\r\ncontract MultiSigFactory {\r\n    \r\n     struct UserWallets{\r\n\r\n        address walletAddress;\r\n        uint walletID;\r\n    }\r\n\r\n    uint id = 0;\r\n    UserWallets[] public wallets;\r\n    MultiSigWallet[] public multisigInstances;\r\n\r\n    mapping(address => UserWallets[]) userWallet;\r\n    event multisigInstanceCreated(uint date, address walletOwner, address multiSigAddress);\r\n   \r\n    function createMultiSig() public {\r\n\r\n        MultiSigWallet newWalletInstance = new MultiSigWallet(msg.sender);\r\n        multisigInstances.push(newWalletInstance);\r\n        \r\n        UserWallets[] storage newWallet = userWallet[msg.sender];\r\n        newWallet.push(UserWallets(address(newWalletInstance), id));\r\n        \r\n        emit multisigInstanceCreated(block.timestamp, msg.sender, address(newWalletInstance));\r\n        id++;\r\n    }\r\n    \r\n    function getUserWallets() public view returns (UserWallets[] memory wals) {\r\n        return userWallet[msg.sender];\r\n    }\r\n    \r\n    function addOwner(address account, address walletAddres) public {\r\n        \r\n        UserWallets[] storage newWallet = userWallet[account];\r\n        newWallet.push(UserWallets(walletAddres, id));\r\n      \r\n    }\r\n    \r\n    function getWalletID(address walletAddres) public view returns (uint) {\r\n        \r\n        uint walletId;\r\n        UserWallets[] storage newWallet = userWallet[msg.sender];\r\n        for (uint i = 0; i < newWallet.length; i ++) {\r\n            if (newWallet[i].walletAddress == walletAddres){\r\n                walletId = newWallet[i].walletID;\r\n            }\r\n        }\r\n        \r\n        \r\n        return walletId;\r\n    }\r\n\r\n    function removeOwner(address account, address walletAddres) public {\r\n        \r\n        UserWallets[] storage newWallet = userWallet[account];\r\n       \r\n        uint walletIndex;\r\n        bool hasBeenFound = false;\r\n        for(uint i = 0; i < newWallet.length; i++)\r\n        {\r\n            if (newWallet[i].walletAddress == walletAddres)\r\n            {   \r\n                walletIndex = i;\r\n                hasBeenFound = true;\r\n            }\r\n        }\r\n        require(hasBeenFound);\r\n\r\n        newWallet[walletIndex] = newWallet[newWallet.length - 1];\r\n        newWallet.pop();\r\n    }\r\n     \r\n}   ",
  "sourcePath": "C:/Users/evanMcGraneTest/Documents/EthereumProgramming/MutiSigWalletApp/contracts/Multisig.sol",
  "compiler": {
    "name": "solc",
    "version": "0.8.0+commit.c7dfd78e.Emscripten.clang"
  },
  "schemaVersion": "3.3.4",
  "updatedAt": "2021-09-11T11:44:04.002Z",
  "networkType": "ethereum",
  "devdoc": {
    "kind": "dev",
    "methods": {},
    "version": 1
  },
  "userdoc": {
    "kind": "user",
    "methods": {},
    "version": 1
  }
}