{
  "contractName": "MultiSigWallet",
  "abi": [
    {
      "inputs": [
        {
          "internalType": "address",
          "name": "_owner",
          "type": "address"
        }
      ],
      "stateMutability": "nonpayable",
      "type": "constructor"
    },
    {
      "anonymous": false,
      "inputs": [
        {
          "indexed": false,
          "internalType": "string",
          "name": "ticker",
          "type": "string"
        },
        {
          "indexed": false,
          "internalType": "uint256",
          "name": "id",
          "type": "uint256"
        },
        {
          "indexed": false,
          "internalType": "uint256",
          "name": "_approvals",
          "type": "uint256"
        },
        {
          "indexed": false,
          "internalType": "address",
          "name": "_approver",
          "type": "address"
        }
      ],
      "name": "ApprovalReceived",
      "type": "event"
    },
    {
      "anonymous": false,
      "inputs": [
        {
          "indexed": false,
          "internalType": "string",
          "name": "ticker",
          "type": "string"
        },
        {
          "indexed": false,
          "internalType": "uint256",
          "name": "id",
          "type": "uint256"
        }
      ],
      "name": "TransferApproved",
      "type": "event"
    },
    {
      "anonymous": false,
      "inputs": [
        {
          "indexed": false,
          "internalType": "string",
          "name": "ticker",
          "type": "string"
        },
        {
          "indexed": false,
          "internalType": "uint256",
          "name": "id",
          "type": "uint256"
        },
        {
          "indexed": false,
          "internalType": "uint256",
          "name": "_amount",
          "type": "uint256"
        },
        {
          "indexed": false,
          "internalType": "address",
          "name": "_initiator",
          "type": "address"
        },
        {
          "indexed": false,
          "internalType": "address",
          "name": "_receiver",
          "type": "address"
        }
      ],
      "name": "TransferRequestCreated",
      "type": "event"
    },
    {
      "anonymous": false,
      "inputs": [
        {
          "indexed": false,
          "internalType": "string",
          "name": "ticker",
          "type": "string"
        },
        {
          "indexed": false,
          "internalType": "address",
          "name": "from",
          "type": "address"
        },
        {
          "indexed": false,
          "internalType": "uint256",
          "name": "id",
          "type": "uint256"
        },
        {
          "indexed": false,
          "internalType": "uint256",
          "name": "amount",
          "type": "uint256"
        },
        {
          "indexed": false,
          "internalType": "uint256",
          "name": "timeStamp",
          "type": "uint256"
        }
      ],
      "name": "fundsDeposited",
      "type": "event"
    },
    {
      "anonymous": false,
      "inputs": [
        {
          "indexed": false,
          "internalType": "string",
          "name": "ticker",
          "type": "string"
        },
        {
          "indexed": false,
          "internalType": "address",
          "name": "from",
          "type": "address"
        },
        {
          "indexed": false,
          "internalType": "uint256",
          "name": "id",
          "type": "uint256"
        },
        {
          "indexed": false,
          "internalType": "uint256",
          "name": "amount",
          "type": "uint256"
        },
        {
          "indexed": false,
          "internalType": "uint256",
          "name": "timeStamp",
          "type": "uint256"
        }
      ],
      "name": "fundsWithdrawed",
      "type": "event"
    },
    {
      "anonymous": false,
      "inputs": [
        {
          "indexed": false,
          "internalType": "string",
          "name": "ticker",
          "type": "string"
        },
        {
          "indexed": false,
          "internalType": "uint256",
          "name": "id",
          "type": "uint256"
        },
        {
          "indexed": false,
          "internalType": "address",
          "name": "sender",
          "type": "address"
        },
        {
          "indexed": false,
          "internalType": "address",
          "name": "receiver",
          "type": "address"
        },
        {
          "indexed": false,
          "internalType": "uint256",
          "name": "amount",
          "type": "uint256"
        },
        {
          "indexed": false,
          "internalType": "uint256",
          "name": "timeStamp",
          "type": "uint256"
        }
      ],
      "name": "transferRequestApproved",
      "type": "event"
    },
    {
      "anonymous": false,
      "inputs": [
        {
          "indexed": false,
          "internalType": "string",
          "name": "ticker",
          "type": "string"
        },
        {
          "indexed": false,
          "internalType": "uint256",
          "name": "id",
          "type": "uint256"
        },
        {
          "indexed": false,
          "internalType": "address",
          "name": "sender",
          "type": "address"
        },
        {
          "indexed": false,
          "internalType": "address",
          "name": "receiver",
          "type": "address"
        },
        {
          "indexed": false,
          "internalType": "uint256",
          "name": "amount",
          "type": "uint256"
        },
        {
          "indexed": false,
          "internalType": "uint256",
          "name": "timeStamp",
          "type": "uint256"
        }
      ],
      "name": "transferRequestCancelled",
      "type": "event"
    },
    {
      "inputs": [
        {
          "internalType": "address",
          "name": "",
          "type": "address"
        },
        {
          "internalType": "uint256",
          "name": "",
          "type": "uint256"
        }
      ],
      "name": "approvals",
      "outputs": [
        {
          "internalType": "bool",
          "name": "",
          "type": "bool"
        }
      ],
      "stateMutability": "view",
      "type": "function",
      "constant": true
    },
    {
      "inputs": [
        {
          "internalType": "address",
          "name": "",
          "type": "address"
        },
        {
          "internalType": "string",
          "name": "",
          "type": "string"
        }
      ],
      "name": "balances",
      "outputs": [
        {
          "internalType": "uint256",
          "name": "",
          "type": "uint256"
        }
      ],
      "stateMutability": "view",
      "type": "function",
      "constant": true
    },
    {
      "inputs": [],
      "name": "depositId",
      "outputs": [
        {
          "internalType": "uint256",
          "name": "",
          "type": "uint256"
        }
      ],
      "stateMutability": "view",
      "type": "function",
      "constant": true
    },
    {
      "inputs": [],
      "name": "limit",
      "outputs": [
        {
          "internalType": "uint256",
          "name": "",
          "type": "uint256"
        }
      ],
      "stateMutability": "view",
      "type": "function",
      "constant": true
    },
    {
      "inputs": [
        {
          "internalType": "uint256",
          "name": "",
          "type": "uint256"
        }
      ],
      "name": "tokenList",
      "outputs": [
        {
          "internalType": "string",
          "name": "",
          "type": "string"
        }
      ],
      "stateMutability": "view",
      "type": "function",
      "constant": true
    },
    {
      "inputs": [
        {
          "internalType": "string",
          "name": "",
          "type": "string"
        }
      ],
      "name": "tokenMapping",
      "outputs": [
        {
          "internalType": "string",
          "name": "ticker",
          "type": "string"
        },
        {
          "internalType": "address",
          "name": "tokenAddress",
          "type": "address"
        }
      ],
      "stateMutability": "view",
      "type": "function",
      "constant": true
    },
    {
      "inputs": [],
      "name": "transferId",
      "outputs": [
        {
          "internalType": "uint256",
          "name": "",
          "type": "uint256"
        }
      ],
      "stateMutability": "view",
      "type": "function",
      "constant": true
    },
    {
      "inputs": [],
      "name": "withdrawalId",
      "outputs": [
        {
          "internalType": "uint256",
          "name": "",
          "type": "uint256"
        }
      ],
      "stateMutability": "view",
      "type": "function",
      "constant": true
    },
    {
      "inputs": [
        {
          "internalType": "string",
          "name": "ticker",
          "type": "string"
        },
        {
          "internalType": "address",
          "name": "tokenAddress",
          "type": "address"
        }
      ],
      "name": "addToken",
      "outputs": [],
      "stateMutability": "nonpayable",
      "type": "function"
    },
    {
      "inputs": [
        {
          "internalType": "address",
          "name": "_owners",
          "type": "address"
        },
        {
          "internalType": "address",
          "name": "_address",
          "type": "address"
        },
        {
          "internalType": "address",
          "name": "walletAddress",
          "type": "address"
        }
      ],
      "name": "addUsers",
      "outputs": [],
      "stateMutability": "nonpayable",
      "type": "function"
    },
    {
      "inputs": [
        {
          "internalType": "address",
          "name": "_user",
          "type": "address"
        },
        {
          "internalType": "address",
          "name": "_address",
          "type": "address"
        },
        {
          "internalType": "address",
          "name": "walletAddress",
          "type": "address"
        }
      ],
      "name": "removeUser",
      "outputs": [],
      "stateMutability": "nonpayable",
      "type": "function"
    },
    {
      "inputs": [],
      "name": "getUsers",
      "outputs": [
        {
          "internalType": "address[]",
          "name": "",
          "type": "address[]"
        }
      ],
      "stateMutability": "view",
      "type": "function",
      "constant": true
    },
    {
      "inputs": [],
      "name": "deposit",
      "outputs": [],
      "stateMutability": "payable",
      "type": "function",
      "payable": true
    },
    {
      "inputs": [
        {
          "internalType": "uint256",
          "name": "amount",
          "type": "uint256"
        },
        {
          "internalType": "string",
          "name": "ticker",
          "type": "string"
        }
      ],
      "name": "depositERC20Token",
      "outputs": [],
      "stateMutability": "nonpayable",
      "type": "function"
    },
    {
      "inputs": [
        {
          "internalType": "string",
          "name": "ticker",
          "type": "string"
        },
        {
          "internalType": "uint256",
          "name": "_amount",
          "type": "uint256"
        }
      ],
      "name": "withdraw",
      "outputs": [],
      "stateMutability": "nonpayable",
      "type": "function"
    },
    {
      "inputs": [
        {
          "internalType": "string",
          "name": "_ticker",
          "type": "string"
        },
        {
          "internalType": "uint256",
          "name": "_amount",
          "type": "uint256"
        },
        {
          "internalType": "address payable",
          "name": "_receiver",
          "type": "address"
        }
      ],
      "name": "createTransfer",
      "outputs": [],
      "stateMutability": "nonpayable",
      "type": "function"
    },
    {
      "inputs": [
        {
          "internalType": "string",
          "name": "ticker",
          "type": "string"
        },
        {
          "internalType": "uint256",
          "name": "_id",
          "type": "uint256"
        }
      ],
      "name": "cancelTransfer",
      "outputs": [],
      "stateMutability": "nonpayable",
      "type": "function"
    },
    {
      "inputs": [
        {
          "internalType": "string",
          "name": "ticker",
          "type": "string"
        },
        {
          "internalType": "uint256",
          "name": "_id",
          "type": "uint256"
        }
      ],
      "name": "Transferapprove",
      "outputs": [],
      "stateMutability": "nonpayable",
      "type": "function"
    },
    {
      "inputs": [],
      "name": "getTransferRequests",
      "outputs": [
        {
          "components": [
            {
              "internalType": "string",
              "name": "ticker",
              "type": "string"
            },
            {
              "internalType": "uint256",
              "name": "amount",
              "type": "uint256"
            },
            {
              "internalType": "address",
              "name": "sender",
              "type": "address"
            },
            {
              "internalType": "address payable",
              "name": "receiver",
              "type": "address"
            },
            {
              "internalType": "uint256",
              "name": "approvals",
              "type": "uint256"
            },
            {
              "internalType": "uint256",
              "name": "id",
              "type": "uint256"
            },
            {
              "internalType": "uint256",
              "name": "timeOfCreation",
              "type": "uint256"
            }
          ],
          "internalType": "struct MultiSigWallet.Transfer[]",
          "name": "",
          "type": "tuple[]"
        }
      ],
      "stateMutability": "view",
      "type": "function",
      "constant": true
    },
    {
      "inputs": [
        {
          "internalType": "string",
          "name": "ticker",
          "type": "string"
        }
      ],
      "name": "getAccountBalance",
      "outputs": [
        {
          "internalType": "uint256",
          "name": "",
          "type": "uint256"
        }
      ],
      "stateMutability": "view",
      "type": "function",
      "constant": true
    },
    {
      "inputs": [],
      "name": "getTokenList",
      "outputs": [
        {
          "internalType": "string[]",
          "name": "",
          "type": "string[]"
        }
      ],
      "stateMutability": "view",
      "type": "function",
      "constant": true
    }
  ],
  "bytecode": "0x60806040526000600355600060045560006005553480156200002057600080fd5b5060405162004ecc38038062004ecc833981810160405281019062000046919062000264565b80600160006101000a81548173ffffffffffffffffffffffffffffffffffffffff021916908373ffffffffffffffffffffffffffffffffffffffff1602179055506007600160009054906101000a900473ffffffffffffffffffffffffffffffffffffffff169080600181540180825580915050600190039060005260206000200160009091909190916101000a81548173ffffffffffffffffffffffffffffffffffffffff021916908373ffffffffffffffffffffffffffffffffffffffff160217905550600160078054905062000120919062000290565b600281905550600880600181540180825580915050600190039060005260206000200160006040518060400160405280600381526020017f455448000000000000000000000000000000000000000000000000000000000081525090919091509080519060200190620001959291906200019d565b5050620003b7565b828054620001ab9062000309565b90600052602060002090601f016020900481019282620001cf57600085556200021b565b82601f10620001ea57805160ff19168380011785556200021b565b828001600101855582156200021b579182015b828111156200021a578251825591602001919060010190620001fd565b5b5090506200022a91906200022e565b5090565b5b80821115620002495760008160009055506001016200022f565b5090565b6000815190506200025e816200039d565b92915050565b6000602082840312156200027757600080fd5b600062000287848285016200024d565b91505092915050565b60006200029d82620002ff565b9150620002aa83620002ff565b925082821015620002c057620002bf6200033f565b5b828203905092915050565b6000620002d882620002df565b9050919050565b600073ffffffffffffffffffffffffffffffffffffffff82169050919050565b6000819050919050565b600060028204905060018216806200032257607f821691505b602082108114156200033957620003386200036e565b5b50919050565b7f4e487b7100000000000000000000000000000000000000000000000000000000600052601160045260246000fd5b7f4e487b7100000000000000000000000000000000000000000000000000000000600052602260045260246000fd5b620003a881620002cb565b8114620003b457600080fd5b50565b614b0580620003c76000396000f3fe6080604052600436106101295760003560e01c8063a04ef145116100ab578063c82b4dbb1161006f578063c82b4dbb146103cb578063cad19c4014610408578063d0e30db014610431578063e88ad9531461043b578063fbb2e25a14610479578063ffabc673146104a257610129565b8063a04ef145146102f8578063a4d66daf14610323578063ab17fdc71461034e578063b0b22c2c14610377578063b80fd822146103a057610129565b8063412ff055116100f2578063412ff0551461021357806352cda1481461023c5780635f9bb83f146102675780639852099c146102905780639ead7222146102bb57610129565b8062ce8e3e1461012e57806305d01f5014610159578063273cbaa01461019657806330b39a62146101c15780633b3e1de8146101ea575b600080fd5b34801561013a57600080fd5b506101436104df565b60405161015091906142ec565b60405180910390f35b34801561016557600080fd5b50610180600480360381019061017b9190613814565b61056d565b60405161018d919061467f565b60405180910390f35b3480156101a257600080fd5b506101ab6105a8565b6040516101b8919061430e565b60405180910390f35b3480156101cd57600080fd5b506101e860048036038101906101e391906139a3565b610681565b005b3480156101f657600080fd5b50610211600480360381019061020c91906137c5565b610a6c565b005b34801561021f57600080fd5b5061023a600480360381019061023591906137c5565b610d14565b005b34801561024857600080fd5b50610251611116565b60405161025e919061467f565b60405180910390f35b34801561027357600080fd5b5061028e600480360381019061028991906139f7565b61111c565b005b34801561029c57600080fd5b506102a56115b7565b6040516102b2919061467f565b60405180910390f35b3480156102c757600080fd5b506102e260048036038101906102dd9190613a5e565b6115bd565b6040516102ef919061436d565b60405180910390f35b34801561030457600080fd5b5061030d611669565b60405161031a9190614330565b60405180910390f35b34801561032f57600080fd5b5061033861182e565b604051610345919061467f565b60405180910390f35b34801561035a57600080fd5b5061037560048036038101906103709190613a87565b611834565b005b34801561038357600080fd5b5061039e6004803603810190610399919061394f565b611bd6565b005b3480156103ac57600080fd5b506103b5611efc565b6040516103c2919061467f565b60405180910390f35b3480156103d757600080fd5b506103f260048036038101906103ed91906138cd565b611f02565b6040516103ff919061467f565b60405180910390f35b34801561041457600080fd5b5061042f600480360381019061042a91906139a3565b611f67565b005b610439612414565b005b34801561044757600080fd5b50610462600480360381019061045d91906138cd565b6125bf565b60405161047092919061438f565b60405180910390f35b34801561048557600080fd5b506104a0600480360381019061049b91906139a3565b6126a1565b005b3480156104ae57600080fd5b506104c960048036038101906104c49190613868565b612c08565b6040516104d69190614352565b60405180910390f35b6060600780548060200260200160405190810160405280929190818152602001828054801561056357602002820191906000526020600020905b8160009054906101000a900473ffffffffffffffffffffffffffffffffffffffff1673ffffffffffffffffffffffffffffffffffffffff1681526020019060010190808311610519575b5050505050905090565b600a60205281600052604060002081805160208101820180518482526020830160208501208183528095505050505050600091509150505481565b60606008805480602002602001604051908101604052809291908181526020016000905b828210156106785783829060005260206000200180546105eb9061495a565b80601f01602080910402602001604051908101604052809291908181526020018280546106179061495a565b80156106645780601f1061063957610100808354040283529160200191610664565b820191906000526020600020905b81548152906001019060200180831161064757829003601f168201915b5050505050815260200190600101906105cc565b50505050905090565b6000805b600780549050811015610742573373ffffffffffffffffffffffffffffffffffffffff16600782815481106106e3577f4e487b7100000000000000000000000000000000000000000000000000000000600052603260045260246000fd5b9060005260206000200160009054906101000a900473ffffffffffffffffffffffffffffffffffffffff1673ffffffffffffffffffffffffffffffffffffffff16141561072f57600191505b808061073a9061498c565b915050610685565b50600115158115151461075457600080fd5b81600a60003373ffffffffffffffffffffffffffffffffffffffff1673ffffffffffffffffffffffffffffffffffffffff168152602001908152602001600020846040516107a291906141f9565b90815260200160405180910390205410156107bc57600080fd5b81600a60003373ffffffffffffffffffffffffffffffffffffffff1673ffffffffffffffffffffffffffffffffffffffff16815260200190815260200160002060405161080890614210565b908152602001604051809103902060008282546108259190614854565b925050819055506040518060400160405280600381526020017f455448000000000000000000000000000000000000000000000000000000000081525080519060200120838051906020012014156108c3573373ffffffffffffffffffffffffffffffffffffffff166108fc839081150290604051600060405180830381858888f193505050501580156108bd573d6000803e3d6000fd5b50610a0e565b600073ffffffffffffffffffffffffffffffffffffffff16600b846040516108eb91906141f9565b908152602001604051809103902060010160009054906101000a900473ffffffffffffffffffffffffffffffffffffffff1673ffffffffffffffffffffffffffffffffffffffff16141561093e57600080fd5b600b8360405161094e91906141f9565b908152602001604051809103902060010160009054906101000a900473ffffffffffffffffffffffffffffffffffffffff1673ffffffffffffffffffffffffffffffffffffffff1663a9059cbb33846040518363ffffffff1660e01b81526004016109ba9291906142c3565b602060405180830381600087803b1580156109d457600080fd5b505af11580156109e8573d6000803e3d6000fd5b505050506040513d601f19601f82011682018060405250810190610a0c91906138a4565b505b7f6a647eacc9e98792655e8dba08e3167440b93e02ef76e8e3330fa10a27b4ecbf83336004548542604051610a479594939291906143bf565b60405180910390a160046000815480929190610a629061498c565b9190505550505050565b6000805b600780549050811015610b2d573373ffffffffffffffffffffffffffffffffffffffff1660078281548110610ace577f4e487b7100000000000000000000000000000000000000000000000000000000600052603260045260246000fd5b9060005260206000200160009054906101000a900473ffffffffffffffffffffffffffffffffffffffff1673ffffffffffffffffffffffffffffffffffffffff161415610b1a57600191505b8080610b259061498c565b915050610a70565b506001151581151514610b3f57600080fd5b60005b600780549050811015610c35578473ffffffffffffffffffffffffffffffffffffffff1660078281548110610ba0577f4e487b7100000000000000000000000000000000000000000000000000000000600052603260045260246000fd5b9060005260206000200160009054906101000a900473ffffffffffffffffffffffffffffffffffffffff1673ffffffffffffffffffffffffffffffffffffffff161415610c22576040517f08c379a0000000000000000000000000000000000000000000000000000000008152600401610c1990614567565b60405180910390fd5b8080610c2d9061498c565b915050610b42565b5060056007805490501115610c4957600080fd5b6007849080600181540180825580915050600190039060005260206000200160009091909190916101000a81548173ffffffffffffffffffffffffffffffffffffffff021916908373ffffffffffffffffffffffffffffffffffffffff1602179055506001600780549050610cbe9190614854565b600281905550826000806101000a81548173ffffffffffffffffffffffffffffffffffffffff021916908373ffffffffffffffffffffffffffffffffffffffff160217905550610d0e8483612c37565b50505050565b6000805b600780549050811015610dd5573373ffffffffffffffffffffffffffffffffffffffff1660078281548110610d76577f4e487b7100000000000000000000000000000000000000000000000000000000600052603260045260246000fd5b9060005260206000200160009054906101000a900473ffffffffffffffffffffffffffffffffffffffff1673ffffffffffffffffffffffffffffffffffffffff161415610dc257600191505b8080610dcd9061498c565b915050610d18565b506001151581151514610de757600080fd5b600080600090505b600780549050811015610f47578573ffffffffffffffffffffffffffffffffffffffff1660078281548110610e4d577f4e487b7100000000000000000000000000000000000000000000000000000000600052603260045260246000fd5b9060005260206000200160009054906101000a900473ffffffffffffffffffffffffffffffffffffffff1673ffffffffffffffffffffffffffffffffffffffff161415610f34578091508573ffffffffffffffffffffffffffffffffffffffff1660078281548110610ee8577f4e487b7100000000000000000000000000000000000000000000000000000000600052603260045260246000fd5b9060005260206000200160009054906101000a900473ffffffffffffffffffffffffffffffffffffffff1673ffffffffffffffffffffffffffffffffffffffff1614610f3357600080fd5b5b8080610f3f9061498c565b915050610def565b5060076001600780549050610f5c9190614854565b81548110610f93577f4e487b7100000000000000000000000000000000000000000000000000000000600052603260045260246000fd5b9060005260206000200160009054906101000a900473ffffffffffffffffffffffffffffffffffffffff1660078281548110610ff8577f4e487b7100000000000000000000000000000000000000000000000000000000600052603260045260246000fd5b9060005260206000200160006101000a81548173ffffffffffffffffffffffffffffffffffffffff021916908373ffffffffffffffffffffffffffffffffffffffff1602179055506007805480611078577f4e487b7100000000000000000000000000000000000000000000000000000000600052603160045260246000fd5b6001900381819060005260206000200160006101000a81549073ffffffffffffffffffffffffffffffffffffffff0219169055905560016007805490506110bf9190614854565b600281905550836000806101000a81548173ffffffffffffffffffffffffffffffffffffffff021916908373ffffffffffffffffffffffffffffffffffffffff16021790555061110f8584612ccf565b5050505050565b60045481565b6000805b6007805490508110156111dd573373ffffffffffffffffffffffffffffffffffffffff166007828154811061117e577f4e487b7100000000000000000000000000000000000000000000000000000000600052603260045260246000fd5b9060005260206000200160009054906101000a900473ffffffffffffffffffffffffffffffffffffffff1673ffffffffffffffffffffffffffffffffffffffff1614156111ca57600191505b80806111d59061498c565b915050611120565b5060011515811515146111ef57600080fd5b82600a60003373ffffffffffffffffffffffffffffffffffffffff1673ffffffffffffffffffffffffffffffffffffffff1681526020019081526020016000208560405161123d91906141f9565b908152602001604051809103902054101561128d576040517f08c379a000000000000000000000000000000000000000000000000000000000815260040161128490614547565b60405180910390fd5b60005b600780549050811015611383578273ffffffffffffffffffffffffffffffffffffffff16600782815481106112ee577f4e487b7100000000000000000000000000000000000000000000000000000000600052603260045260246000fd5b9060005260206000200160009054906101000a900473ffffffffffffffffffffffffffffffffffffffff1673ffffffffffffffffffffffffffffffffffffffff161415611370576040517f08c379a0000000000000000000000000000000000000000000000000000000008152600401611367906145a7565b60405180910390fd5b808061137b9061498c565b915050611290565b5082600a60003373ffffffffffffffffffffffffffffffffffffffff1673ffffffffffffffffffffffffffffffffffffffff168152602001908152602001600020856040516113d291906141f9565b908152602001604051809103902060008282546113ef9190614854565b9250508190555060066040518060e001604052808681526020018581526020013373ffffffffffffffffffffffffffffffffffffffff1681526020018473ffffffffffffffffffffffffffffffffffffffff168152602001600081526020016005548152602001428152509080600181540180825580915050600190039060005260206000209060070201600090919091909150600082015181600001908051906020019061149f929190613531565b506020820151816001015560408201518160020160006101000a81548173ffffffffffffffffffffffffffffffffffffffff021916908373ffffffffffffffffffffffffffffffffffffffff16021790555060608201518160030160006101000a81548173ffffffffffffffffffffffffffffffffffffffff021916908373ffffffffffffffffffffffffffffffffffffffff1602179055506080820151816004015560a0820151816005015560c0820151816006015550507ff85258179fd6edacd661ed4d528ac913de6c17c86788c7986958267070e891a4846005548533866040516115919594939291906144cd565b60405180910390a1600560008154809291906115ac9061498c565b919050555050505050565b60035481565b600881815481106115cd57600080fd5b9060005260206000200160009150905080546115e89061495a565b80601f01602080910402602001604051908101604052809291908181526020018280546116149061495a565b80156116615780601f1061163657610100808354040283529160200191611661565b820191906000526020600020905b81548152906001019060200180831161164457829003601f168201915b505050505081565b60606006805480602002602001604051908101604052809291908181526020016000905b8282101561182557838290600052602060002090600702016040518060e00160405290816000820180546116c09061495a565b80601f01602080910402602001604051908101604052809291908181526020018280546116ec9061495a565b80156117395780601f1061170e57610100808354040283529160200191611739565b820191906000526020600020905b81548152906001019060200180831161171c57829003601f168201915b50505050508152602001600182015481526020016002820160009054906101000a900473ffffffffffffffffffffffffffffffffffffffff1673ffffffffffffffffffffffffffffffffffffffff1673ffffffffffffffffffffffffffffffffffffffff1681526020016003820160009054906101000a900473ffffffffffffffffffffffffffffffffffffffff1673ffffffffffffffffffffffffffffffffffffffff1673ffffffffffffffffffffffffffffffffffffffff16815260200160048201548152602001600582015481526020016006820154815250508152602001906001019061168d565b50505050905090565b60025481565b6000805b6007805490508110156118f5573373ffffffffffffffffffffffffffffffffffffffff1660078281548110611896577f4e487b7100000000000000000000000000000000000000000000000000000000600052603260045260246000fd5b9060005260206000200160009054906101000a900473ffffffffffffffffffffffffffffffffffffffff1673ffffffffffffffffffffffffffffffffffffffff1614156118e257600191505b80806118ed9061498c565b915050611838565b50600115158115151461190757600080fd5b81600073ffffffffffffffffffffffffffffffffffffffff16600b8260405161193091906141f9565b908152602001604051809103902060010160009054906101000a900473ffffffffffffffffffffffffffffffffffffffff1673ffffffffffffffffffffffffffffffffffffffff1614156119b9576040517f08c379a00000000000000000000000000000000000000000000000000000000081526004016119b090614587565b60405180910390fd5b600073ffffffffffffffffffffffffffffffffffffffff16600b846040516119e191906141f9565b908152602001604051809103902060010160009054906101000a900473ffffffffffffffffffffffffffffffffffffffff1673ffffffffffffffffffffffffffffffffffffffff161415611a3457600080fd5b600b83604051611a4491906141f9565b908152602001604051809103902060010160009054906101000a900473ffffffffffffffffffffffffffffffffffffffff1673ffffffffffffffffffffffffffffffffffffffff166323b872dd3330876040518463ffffffff1660e01b8152600401611ab29392919061428c565b602060405180830381600087803b158015611acc57600080fd5b505af1158015611ae0573d6000803e3d6000fd5b505050506040513d601f19601f82011682018060405250810190611b0491906138a4565b5083600a60003373ffffffffffffffffffffffffffffffffffffffff1673ffffffffffffffffffffffffffffffffffffffff16815260200190815260200160002084604051611b5391906141f9565b90815260200160405180910390206000828254611b7091906147fe565b925050819055507f41751252894a74bd975de630158c4e47bb25c36d9ce7ad90383d86d391d2be1283336003548742604051611bb09594939291906143bf565b60405180910390a160036000815480929190611bcb9061498c565b919050555050505050565b6000805b600780549050811015611c97573373ffffffffffffffffffffffffffffffffffffffff1660078281548110611c38577f4e487b7100000000000000000000000000000000000000000000000000000000600052603260045260246000fd5b9060005260206000200160009054906101000a900473ffffffffffffffffffffffffffffffffffffffff1673ffffffffffffffffffffffffffffffffffffffff161415611c8457600191505b8080611c8f9061498c565b915050611bda565b506001151581151514611ca957600080fd5b60005b600880549050811015611d6e57838051906020012060088281548110611cfb577f4e487b7100000000000000000000000000000000000000000000000000000000600052603260045260246000fd5b90600052602060002001604051611d1291906141e2565b60405180910390201415611d5b576040517f08c379a0000000000000000000000000000000000000000000000000000000008152600401611d529061461f565b60405180910390fd5b8080611d669061498c565b915050611cac565b5082805190602001208273ffffffffffffffffffffffffffffffffffffffff166395d89b416040518163ffffffff1660e01b815260040160006040518083038186803b158015611dbd57600080fd5b505afa158015611dd1573d6000803e3d6000fd5b505050506040513d6000823e3d601f19601f82011682018060405250810190611dfa919061390e565b8051906020012014611e0b57600080fd5b60405180604001604052808481526020018373ffffffffffffffffffffffffffffffffffffffff16815250600b84604051611e4691906141f9565b90815260200160405180910390206000820151816000019080519060200190611e70929190613531565b5060208201518160010160006101000a81548173ffffffffffffffffffffffffffffffffffffffff021916908373ffffffffffffffffffffffffffffffffffffffff160217905550905050600883908060018154018082558091505060019003906000526020600020016000909190919091509080519060200190611ef6929190613531565b50505050565b60055481565b6000600a60003373ffffffffffffffffffffffffffffffffffffffff1673ffffffffffffffffffffffffffffffffffffffff16815260200190815260200160002082604051611f5191906141f9565b9081526020016040518091039020549050919050565b6000805b600780549050811015612028573373ffffffffffffffffffffffffffffffffffffffff1660078281548110611fc9577f4e487b7100000000000000000000000000000000000000000000000000000000600052603260045260246000fd5b9060005260206000200160009054906101000a900473ffffffffffffffffffffffffffffffffffffffff1673ffffffffffffffffffffffffffffffffffffffff16141561201557600191505b80806120209061498c565b915050611f6b565b50600115158115151461203a57600080fd5b60008060005b6006805490508110156120ca578460068281548110612088577f4e487b7100000000000000000000000000000000000000000000000000000000600052603260045260246000fd5b90600052602060002090600702016005015414156120a957600191506120ca565b82806120b49061498c565b93505080806120c29061498c565b915050612040565b50600015158115151415612113576040517f08c379a000000000000000000000000000000000000000000000000000000000815260040161210a90614527565b60405180910390fd5b6006828154811061214d577f4e487b7100000000000000000000000000000000000000000000000000000000600052603260045260246000fd5b906000526020600020906007020160020160009054906101000a900473ffffffffffffffffffffffffffffffffffffffff1673ffffffffffffffffffffffffffffffffffffffff163373ffffffffffffffffffffffffffffffffffffffff1614156121b757600080fd5b60001515600960003373ffffffffffffffffffffffffffffffffffffffff1673ffffffffffffffffffffffffffffffffffffffff168152602001908152602001600020600086815260200190815260200160002060009054906101000a900460ff1615151461225b576040517f08c379a00000000000000000000000000000000000000000000000000000000081526004016122529061465f565b60405180910390fd5b6001600960003373ffffffffffffffffffffffffffffffffffffffff1673ffffffffffffffffffffffffffffffffffffffff168152602001908152602001600020600084815260200190815260200160002060006101000a81548160ff021916908315150217905550600682815481106122fe577f4e487b7100000000000000000000000000000000000000000000000000000000600052603260045260246000fd5b906000526020600020906007020160040160008154809291906123209061498c565b91905055507ffe2c7170bbf30cb5442b472fe32cd4080ecb8caefc95e5157e4737119e8cf068858360068581548110612382577f4e487b7100000000000000000000000000000000000000000000000000000000600052603260045260246000fd5b906000526020600020906007020160040154336040516123a59493929190614481565b60405180910390a1600254600683815481106123ea577f4e487b7100000000000000000000000000000000000000000000000000000000600052603260045260246000fd5b906000526020600020906007020160040154141561240d5761240c8583612d67565b5b5050505050565b6000805b6007805490508110156124d5573373ffffffffffffffffffffffffffffffffffffffff1660078281548110612476577f4e487b7100000000000000000000000000000000000000000000000000000000600052603260045260246000fd5b9060005260206000200160009054906101000a900473ffffffffffffffffffffffffffffffffffffffff1673ffffffffffffffffffffffffffffffffffffffff1614156124c257600191505b80806124cd9061498c565b915050612418565b5060011515811515146124e757600080fd5b60003410156124f557600080fd5b34600a60003373ffffffffffffffffffffffffffffffffffffffff1673ffffffffffffffffffffffffffffffffffffffff16815260200190815260200160002060405161254190614225565b9081526020016040518091039020600082825461255e91906147fe565b925050819055507f41751252894a74bd975de630158c4e47bb25c36d9ce7ad90383d86d391d2be1233600354344260405161259c94939291906145c7565b60405180910390a1600360008154809291906125b79061498c565b919050555050565b600b818051602081018201805184825260208301602085012081835280955050505050506000915090508060000180546125f89061495a565b80601f01602080910402602001604051908101604052809291908181526020018280546126249061495a565b80156126715780601f1061264657610100808354040283529160200191612671565b820191906000526020600020905b81548152906001019060200180831161265457829003601f168201915b5050505050908060010160009054906101000a900473ffffffffffffffffffffffffffffffffffffffff16905082565b60008060005b6006805490508110156127315783600682815481106126ef577f4e487b7100000000000000000000000000000000000000000000000000000000600052603260045260246000fd5b90600052602060002090600702016005015414156127105760019150612731565b828061271b9061498c565b93505080806127299061498c565b9150506126a7565b5060001515811515141561277a576040517f08c379a00000000000000000000000000000000000000000000000000000000081526004016127719061463f565b60405180910390fd5b600682815481106127b4577f4e487b7100000000000000000000000000000000000000000000000000000000600052603260045260246000fd5b906000526020600020906007020160010154600a60003373ffffffffffffffffffffffffffffffffffffffff1673ffffffffffffffffffffffffffffffffffffffff1681526020019081526020016000208560405161281391906141f9565b9081526020016040518091039020600082825461283091906147fe565b925050819055507fb80f814c5698722c4bfbbf15abab5a245f91cdea8a998ffe7c29d0d7ba9acf918460068481548110612893577f4e487b7100000000000000000000000000000000000000000000000000000000600052603260045260246000fd5b90600052602060002090600702016005015433600686815481106128e0577f4e487b7100000000000000000000000000000000000000000000000000000000600052603260045260246000fd5b906000526020600020906007020160030160009054906101000a900473ffffffffffffffffffffffffffffffffffffffff166006878154811061294c577f4e487b7100000000000000000000000000000000000000000000000000000000600052603260045260246000fd5b9060005260206000209060070201600101544260405161297196959493929190614419565b60405180910390a16006600160068054905061298d9190614854565b815481106129c4577f4e487b7100000000000000000000000000000000000000000000000000000000600052603260045260246000fd5b906000526020600020906007020160068381548110612a0c577f4e487b7100000000000000000000000000000000000000000000000000000000600052603260045260246000fd5b90600052602060002090600702016000820181600001908054612a2e9061495a565b612a399291906135b7565b50600182015481600101556002820160009054906101000a900473ffffffffffffffffffffffffffffffffffffffff168160020160006101000a81548173ffffffffffffffffffffffffffffffffffffffff021916908373ffffffffffffffffffffffffffffffffffffffff1602179055506003820160009054906101000a900473ffffffffffffffffffffffffffffffffffffffff168160030160006101000a81548173ffffffffffffffffffffffffffffffffffffffff021916908373ffffffffffffffffffffffffffffffffffffffff1602179055506004820154816004015560058201548160050155600682015481600601559050506006805480612b6b577f4e487b7100000000000000000000000000000000000000000000000000000000600052603160045260246000fd5b600190038181906000526020600020906007020160008082016000612b909190613644565b60018201600090556002820160006101000a81549073ffffffffffffffffffffffffffffffffffffffff02191690556003820160006101000a81549073ffffffffffffffffffffffffffffffffffffffff02191690556004820160009055600582016000905560068201600090555050905550505050565b60096020528160005260406000206020528060005260406000206000915091509054906101000a900460ff1681565b60008060009054906101000a900473ffffffffffffffffffffffffffffffffffffffff1690508073ffffffffffffffffffffffffffffffffffffffff166316d390bf84846040518363ffffffff1660e01b8152600401612c98929190614263565b600060405180830381600087803b158015612cb257600080fd5b505af1158015612cc6573d6000803e3d6000fd5b50505050505050565b60008060009054906101000a900473ffffffffffffffffffffffffffffffffffffffff1690508073ffffffffffffffffffffffffffffffffffffffff1663fbe5ce0a84846040518363ffffffff1660e01b8152600401612d30929190614263565b600060405180830381600087803b158015612d4a57600080fd5b505af1158015612d5e573d6000803e3d6000fd5b50505050505050565b6040518060400160405280600381526020017f45544800000000000000000000000000000000000000000000000000000000008152508051906020012082805190602001201415612eb45760068181548110612dec577f4e487b7100000000000000000000000000000000000000000000000000000000600052603260045260246000fd5b906000526020600020906007020160030160009054906101000a900473ffffffffffffffffffffffffffffffffffffffff1673ffffffffffffffffffffffffffffffffffffffff166108fc60068381548110612e71577f4e487b7100000000000000000000000000000000000000000000000000000000600052603260045260246000fd5b9060005260206000209060070201600101549081150290604051600060405180830381858888f19350505050158015612eae573d6000803e3d6000fd5b5061303a565b600b82604051612ec491906141f9565b908152602001604051809103902060010160009054906101000a900473ffffffffffffffffffffffffffffffffffffffff1673ffffffffffffffffffffffffffffffffffffffff1663a9059cbb60068381548110612f4b577f4e487b7100000000000000000000000000000000000000000000000000000000600052603260045260246000fd5b906000526020600020906007020160030160009054906101000a900473ffffffffffffffffffffffffffffffffffffffff1660068481548110612fb7577f4e487b7100000000000000000000000000000000000000000000000000000000600052603260045260246000fd5b9060005260206000209060070201600101546040518363ffffffff1660e01b8152600401612fe692919061423a565b602060405180830381600087803b15801561300057600080fd5b505af1158015613014573d6000803e3d6000fd5b505050506040513d601f19601f8201168201806040525081019061303891906138a4565b505b60068181548110613074577f4e487b7100000000000000000000000000000000000000000000000000000000600052603260045260246000fd5b906000526020600020906007020160010154600a6000600684815481106130c4577f4e487b7100000000000000000000000000000000000000000000000000000000600052603260045260246000fd5b906000526020600020906007020160030160009054906101000a900473ffffffffffffffffffffffffffffffffffffffff1673ffffffffffffffffffffffffffffffffffffffff1673ffffffffffffffffffffffffffffffffffffffff1681526020019081526020016000208360405161313e91906141f9565b9081526020016040518091039020600082825461315b91906147fe565b925050819055507fd3af251285060458993a5ebb0d39d9636dad6976562f9df61c5ea778c35d061582600683815481106131be577f4e487b7100000000000000000000000000000000000000000000000000000000600052603260045260246000fd5b906000526020600020906007020160050154336006858154811061320b577f4e487b7100000000000000000000000000000000000000000000000000000000600052603260045260246000fd5b906000526020600020906007020160030160009054906101000a900473ffffffffffffffffffffffffffffffffffffffff1660068681548110613277577f4e487b7100000000000000000000000000000000000000000000000000000000600052603260045260246000fd5b9060005260206000209060070201600101544260405161329c96959493929190614419565b60405180910390a1600660016006805490506132b89190614854565b815481106132ef577f4e487b7100000000000000000000000000000000000000000000000000000000600052603260045260246000fd5b906000526020600020906007020160068281548110613337577f4e487b7100000000000000000000000000000000000000000000000000000000600052603260045260246000fd5b906000526020600020906007020160008201816000019080546133599061495a565b6133649291906135b7565b50600182015481600101556002820160009054906101000a900473ffffffffffffffffffffffffffffffffffffffff168160020160006101000a81548173ffffffffffffffffffffffffffffffffffffffff021916908373ffffffffffffffffffffffffffffffffffffffff1602179055506003820160009054906101000a900473ffffffffffffffffffffffffffffffffffffffff168160030160006101000a81548173ffffffffffffffffffffffffffffffffffffffff021916908373ffffffffffffffffffffffffffffffffffffffff1602179055506004820154816004015560058201548160050155600682015481600601559050506006805480613496577f4e487b7100000000000000000000000000000000000000000000000000000000600052603160045260246000fd5b6001900381819060005260206000209060070201600080820160006134bb9190613644565b60018201600090556002820160006101000a81549073ffffffffffffffffffffffffffffffffffffffff02191690556003820160006101000a81549073ffffffffffffffffffffffffffffffffffffffff0219169055600482016000905560058201600090556006820160009055505090555050565b82805461353d9061495a565b90600052602060002090601f01602090048101928261355f57600085556135a6565b82601f1061357857805160ff19168380011785556135a6565b828001600101855582156135a6579182015b828111156135a557825182559160200191906001019061358a565b5b5090506135b39190613684565b5090565b8280546135c39061495a565b90600052602060002090601f0160209004810192826135e55760008555613633565b82601f106135f65780548555613633565b8280016001018555821561363357600052602060002091601f016020900482015b82811115613632578254825591600101919060010190613617565b5b5090506136409190613684565b5090565b5080546136509061495a565b6000825580601f106136625750613681565b601f0160209004906000526020600020908101906136809190613684565b5b50565b5b8082111561369d576000816000905550600101613685565b5090565b60006136b46136af846146cb565b61469a565b9050828152602081018484840111156136cc57600080fd5b6136d7848285614918565b509392505050565b60006136f26136ed846146cb565b61469a565b90508281526020810184848401111561370a57600080fd5b613715848285614927565b509392505050565b60008135905061372c81614a73565b92915050565b60008135905061374181614a8a565b92915050565b60008151905061375681614aa1565b92915050565b600082601f83011261376d57600080fd5b813561377d8482602086016136a1565b91505092915050565b600082601f83011261379757600080fd5b81516137a78482602086016136df565b91505092915050565b6000813590506137bf81614ab8565b92915050565b6000806000606084860312156137da57600080fd5b60006137e88682870161371d565b93505060206137f98682870161371d565b925050604061380a8682870161371d565b9150509250925092565b6000806040838503121561382757600080fd5b60006138358582860161371d565b925050602083013567ffffffffffffffff81111561385257600080fd5b61385e8582860161375c565b9150509250929050565b6000806040838503121561387b57600080fd5b60006138898582860161371d565b925050602061389a858286016137b0565b9150509250929050565b6000602082840312156138b657600080fd5b60006138c484828501613747565b91505092915050565b6000602082840312156138df57600080fd5b600082013567ffffffffffffffff8111156138f957600080fd5b6139058482850161375c565b91505092915050565b60006020828403121561392057600080fd5b600082015167ffffffffffffffff81111561393a57600080fd5b61394684828501613786565b91505092915050565b6000806040838503121561396257600080fd5b600083013567ffffffffffffffff81111561397c57600080fd5b6139888582860161375c565b92505060206139998582860161371d565b9150509250929050565b600080604083850312156139b657600080fd5b600083013567ffffffffffffffff8111156139d057600080fd5b6139dc8582860161375c565b92505060206139ed858286016137b0565b9150509250929050565b600080600060608486031215613a0c57600080fd5b600084013567ffffffffffffffff811115613a2657600080fd5b613a328682870161375c565b9350506020613a43868287016137b0565b9250506040613a5486828701613732565b9150509250925092565b600060208284031215613a7057600080fd5b6000613a7e848285016137b0565b91505092915050565b60008060408385031215613a9a57600080fd5b6000613aa8858286016137b0565b925050602083013567ffffffffffffffff811115613ac557600080fd5b613ad18582860161375c565b9150509250929050565b6000613ae78383613b39565b60208301905092915050565b6000613aff8383613d2d565b905092915050565b6000613b138383614128565b905092915050565b613b24816148e2565b82525050565b613b338161489a565b82525050565b613b4281614888565b82525050565b613b5181614888565b82525050565b6000613b6282614740565b613b6c8185614793565b9350613b77836146fb565b8060005b83811015613ba8578151613b8f8882613adb565b9750613b9a8361476c565b925050600181019050613b7b565b5085935050505092915050565b6000613bc08261474b565b613bca81856147a4565b935083602082028501613bdc8561470b565b8060005b85811015613c185784840389528151613bf98582613af3565b9450613c0483614779565b925060208a01995050600181019050613be0565b50829750879550505050505092915050565b6000613c3582614756565b613c3f81856147b5565b935083602082028501613c518561471b565b8060005b85811015613c8d5784840389528151613c6e8582613b07565b9450613c7983614786565b925060208a01995050600181019050613c55565b50829750879550505050505092915050565b613ca8816148ac565b82525050565b60008154613cbb8161495a565b613cc581866147c6565b94506001821660008114613ce05760018114613cf157613d24565b60ff19831686528186019350613d24565b613cfa8561472b565b60005b83811015613d1c57815481890152600182019150602081019050613cfd565b838801955050505b50505092915050565b6000613d3882614761565b613d4281856147d1565b9350613d52818560208601614927565b613d5b81614a62565b840191505092915050565b6000613d7182614761565b613d7b81856147e2565b9350613d8b818560208601614927565b613d9481614a62565b840191505092915050565b6000613daa82614761565b613db481856147f3565b9350613dc4818560208601614927565b80840191505092915050565b6000613ddd6006836147f3565b91507f7469636b657200000000000000000000000000000000000000000000000000006000830152600682019050919050565b6000613e1d6022836147e2565b91507f5472616e73666572204944206e6f7420666f756e6420666f7220617070726f7660008301527f616c0000000000000000000000000000000000000000000000000000000000006020830152604082019050919050565b6000613e836031836147e2565b91507f696e73756666696369656e742062616c616e636520746f20637265617465206160008301527f207472616e7366657220726561756573740000000000000000000000000000006020830152604082019050919050565b6000613ee96012836147e2565b91507f416c7265616479207265676973746572656400000000000000000000000000006000830152602082019050919050565b6000613f296014836147e2565b91507f546f6b656e20646f6573206e6f742065786973740000000000000000000000006000830152602082019050919050565b6000613f696031836147e2565b91507f6f6e6c79207468652077616c6c6574206f776e6572732063616e206d616b652060008301527f7472616e736665722072657571657374730000000000000000000000000000006020830152604082019050919050565b6000613fcf6003836147e2565b91507f45544800000000000000000000000000000000000000000000000000000000006000830152602082019050919050565b600061400f6003836147f3565b91507f45544800000000000000000000000000000000000000000000000000000000006000830152600382019050919050565b600061404f6013836147e2565b91507f546f6b656e20616c7265616479206164646564000000000000000000000000006000830152602082019050919050565b600061408f6022836147e2565b91507f54726e6173666572204944206e6f7420666f756e642063616e63656c6c61746960008301527f6f6e0000000000000000000000000000000000000000000000000000000000006020830152604082019050919050565b60006140f5601b836147e2565b91507f7472616e73616374696f6e20616c7261647920617070726f76656400000000006000830152602082019050919050565b600060e08301600083015184820360008601526141458282613d2d565b915050602083015161415a60208601826141c4565b50604083015161416d6040860182613b39565b5060608301516141806060860182613b2a565b50608083015161419360808601826141c4565b5060a08301516141a660a08601826141c4565b5060c08301516141b960c08601826141c4565b508091505092915050565b6141cd816148d8565b82525050565b6141dc816148d8565b82525050565b60006141ee8284613cae565b915081905092915050565b60006142058284613d9f565b915081905092915050565b600061421b82613dd0565b9150819050919050565b600061423082614002565b9150819050919050565b600060408201905061424f6000830185613b1b565b61425c60208301846141d3565b9392505050565b60006040820190506142786000830185613b48565b6142856020830184613b48565b9392505050565b60006060820190506142a16000830186613b48565b6142ae6020830185613b48565b6142bb60408301846141d3565b949350505050565b60006040820190506142d86000830185613b48565b6142e560208301846141d3565b9392505050565b600060208201905081810360008301526143068184613b57565b905092915050565b600060208201905081810360008301526143288184613bb5565b905092915050565b6000602082019050818103600083015261434a8184613c2a565b905092915050565b60006020820190506143676000830184613c9f565b92915050565b600060208201905081810360008301526143878184613d66565b905092915050565b600060408201905081810360008301526143a98185613d66565b90506143b86020830184613b48565b9392505050565b600060a08201905081810360008301526143d98188613d66565b90506143e86020830187613b48565b6143f560408301866141d3565b61440260608301856141d3565b61440f60808301846141d3565b9695505050505050565b600060c08201905081810360008301526144338189613d66565b905061444260208301886141d3565b61444f6040830187613b48565b61445c6060830186613b1b565b61446960808301856141d3565b61447660a08301846141d3565b979650505050505050565b6000608082019050818103600083015261449b8187613d66565b90506144aa60208301866141d3565b6144b760408301856141d3565b6144c46060830184613b48565b95945050505050565b600060a08201905081810360008301526144e78188613d66565b90506144f660208301876141d3565b61450360408301866141d3565b6145106060830185613b48565b61451d6080830184613b1b565b9695505050505050565b6000602082019050818103600083015261454081613e10565b9050919050565b6000602082019050818103600083015261456081613e76565b9050919050565b6000602082019050818103600083015261458081613edc565b9050919050565b600060208201905081810360008301526145a081613f1c565b9050919050565b600060208201905081810360008301526145c081613f5c565b9050919050565b600060a08201905081810360008301526145e081613fc2565b90506145ef6020830187613b48565b6145fc60408301866141d3565b61460960608301856141d3565b61461660808301846141d3565b95945050505050565b6000602082019050818103600083015261463881614042565b9050919050565b6000602082019050818103600083015261465881614082565b9050919050565b60006020820190508181036000830152614678816140e8565b9050919050565b600060208201905061469460008301846141d3565b92915050565b6000604051905081810181811067ffffffffffffffff821117156146c1576146c0614a33565b5b8060405250919050565b600067ffffffffffffffff8211156146e6576146e5614a33565b5b601f19601f8301169050602081019050919050565b6000819050602082019050919050565b6000819050602082019050919050565b6000819050602082019050919050565b60008190508160005260206000209050919050565b600081519050919050565b600081519050919050565b600081519050919050565b600081519050919050565b6000602082019050919050565b6000602082019050919050565b6000602082019050919050565b600082825260208201905092915050565b600082825260208201905092915050565b600082825260208201905092915050565b600081905092915050565b600082825260208201905092915050565b600082825260208201905092915050565b600081905092915050565b6000614809826148d8565b9150614814836148d8565b9250827fffffffffffffffffffffffffffffffffffffffffffffffffffffffffffffffff03821115614849576148486149d5565b5b828201905092915050565b600061485f826148d8565b915061486a836148d8565b92508282101561487d5761487c6149d5565b5b828203905092915050565b6000614893826148b8565b9050919050565b60006148a5826148b8565b9050919050565b60008115159050919050565b600073ffffffffffffffffffffffffffffffffffffffff82169050919050565b6000819050919050565b60006148ed826148f4565b9050919050565b60006148ff82614906565b9050919050565b6000614911826148b8565b9050919050565b82818337600083830152505050565b60005b8381101561494557808201518184015260208101905061492a565b83811115614954576000848401525b50505050565b6000600282049050600182168061497257607f821691505b6020821081141561498657614985614a04565b5b50919050565b6000614997826148d8565b91507fffffffffffffffffffffffffffffffffffffffffffffffffffffffffffffffff8214156149ca576149c96149d5565b5b600182019050919050565b7f4e487b7100000000000000000000000000000000000000000000000000000000600052601160045260246000fd5b7f4e487b7100000000000000000000000000000000000000000000000000000000600052602260045260246000fd5b7f4e487b7100000000000000000000000000000000000000000000000000000000600052604160045260246000fd5b6000601f19601f8301169050919050565b614a7c81614888565b8114614a8757600080fd5b50565b614a938161489a565b8114614a9e57600080fd5b50565b614aaa816148ac565b8114614ab557600080fd5b50565b614ac1816148d8565b8114614acc57600080fd5b5056fea264697066735822122043719416375296550a6de3ff67c64cee3a465d2e56d8f7079035029dc67e0bfa64736f6c63430008000033",
  "immutableReferences": {},
  "source": "//SPDX-License-Identifier: MIT\r\npragma solidity 0.8.0;\r\npragma abicoder v2;\r\n\r\nimport \"../node_modules/@openzeppelin/contracts/token/ERC20/IERC20.sol\";\r\nimport \"../node_modules/@openzeppelin/contracts/token/ERC20/ERC20.sol\";\r\n\r\n\r\ncontract MultiSigWallet {\r\n\r\n////////////////////////////Global Variables & Mappings///////////////////////////\r\n\r\n    address MultiSigInstance;\r\n    address mainOwner;\r\n    uint public limit;\r\n    uint256 public depositId = 0;\r\n    uint256 public withdrawalId = 0;\r\n    uint256 public transferId = 0;\r\n    Transfer[] transferRequests;\r\n    address[] owners;\r\n    string[] public tokenList;\r\n\r\n    mapping(address => mapping(uint => bool)) public approvals;\r\n    mapping(address => mapping(string => uint)) public balances;\r\n    mapping(string => Token) public tokenMapping;\r\n \r\n\r\n////////////////////////////Constructor///////////////////////////\r\n//used to set the main owner, the approval limit and sets eth as default token\r\n//on the deployment of the contract\r\n\r\n    constructor(address _owner) {\r\n        mainOwner = _owner;\r\n        owners.push(mainOwner);\r\n        limit = owners.length - 1;\r\n        tokenList.push(\"ETH\");\r\n    }\r\n    \r\n\r\n////////////////////////////Data Strructures (Structs)///////////////////////////\r\n//here we have a transfer struct and token struct used to create instances of each\r\n\r\n    struct Transfer{\r\n        string ticker;\r\n        uint amount;\r\n        address sender;\r\n        address payable receiver;\r\n        uint approvals;\r\n        uint id;\r\n        uint timeOfCreation;\r\n    }\r\n\r\n    struct Token {\r\n        string ticker;\r\n        address tokenAddress;\r\n    }\r\n    \r\n    \r\n////////////////////////////Modifiers///////////////////////////\r\n\r\n    modifier onlyOwners(){\r\n        bool owner = false;\r\n        for(uint i=0; i<owners.length;i++){\r\n            if(owners[i] == msg.sender){\r\n                owner = true;\r\n            }\r\n        }\r\n        require(owner == true);\r\n        _;\r\n    }\r\n\r\n    modifier tokenExists(string memory ticker) {\r\n        \r\n        require(tokenMapping[ticker].tokenAddress != address(0), \"Token does not exist\");\r\n         _;\r\n    }\r\n    \r\n\r\n////////////////////////////Events///////////////////////////\r\n\r\n    event fundsDeposited(string ticker, address from, uint256 id, uint amount, uint256 timeStamp);\r\n    event fundsWithdrawed(string ticker, address from, uint256 id, uint amount, uint256 timeStamp);\r\n    event TransferRequestCreated(string ticker, uint id, uint _amount, address _initiator, address _receiver);\r\n    event ApprovalReceived(string ticker, uint id, uint _approvals, address _approver);\r\n    event TransferApproved(string ticker, uint id);\r\n    event transferRequestApproved(string ticker, uint id, address sender, address receiver, uint amount, uint timeStamp);\r\n    event transferRequestCancelled(string ticker, uint id, address sender, address receiver, uint amount, uint timeStamp);\r\n\r\n   \r\n    \r\n    function addToken(string memory ticker, address tokenAddress) external onlyOwners {\r\n\r\n        for(uint i = 0; i < tokenList.length; i++) {\r\n            if(keccak256(bytes(tokenList[i])) == keccak256(bytes(ticker))) {\r\n                revert(\"Token already added\");\r\n            }\r\n        }\r\n        require(keccak256(bytes(ERC20(tokenAddress).symbol())) == keccak256(bytes(ticker)));\r\n        \r\n        tokenMapping[ticker] = Token(ticker, tokenAddress);\r\n        //add the new token to the token list\r\n        tokenList.push(ticker);\r\n    }\r\n    \r\n////////////////////////////Functions for Dynamically Adding and Removing Wallet Owners///////////////////////////\r\n    //add user function. require owner is not already in the wallet array\r\n    function addUsers(address _owners, address _address, address walletAddress) public onlyOwners\r\n    {\r\n        for (uint user = 0; user < owners.length; user++)\r\n        {\r\n            require(owners[user] != _owners, \"Already registered\");\r\n        }\r\n        require(owners.length <= 5);\r\n        owners.push(_owners);\r\n        \r\n        //from the current array calculate the value of minimum consensus\r\n        limit = owners.length - 1;\r\n        \r\n         MultiSigInstance = _address;\r\n        callAddOwner(_owners, walletAddress );\r\n    }\r\n    \r\n    //remove user require the address we pass in is the address were removing\r\n    function removeUser(address _user, address _address, address walletAddress) public onlyOwners\r\n    {\r\n        uint user_index;\r\n        for(uint user = 0; user < owners.length; user++)\r\n        {\r\n            if (owners[user] == _user)\r\n            {   \r\n                user_index = user;\r\n                require(owners[user] == _user);\r\n            }\r\n        }\r\n        \r\n        owners[user_index] = owners[owners.length - 1];\r\n        owners.pop();\r\n        limit= owners.length - 1;\r\n        \r\n         MultiSigInstance = _address;\r\n        callRemoveOwner(_user, walletAddress );\r\n    }\r\n\r\n//this function is used to set the address of the current logged in wallet instance that the user is using\r\n\r\n//this function updates the users list of available wallets. This function is used from the multisig fsctory contract   \r\n    function callAddOwner(address owner, address wallet) private {\r\n        MultiSigFactory factory = MultiSigFactory(MultiSigInstance);\r\n        factory.addOwner(owner, wallet);\r\n    }\r\n\r\n//this function updates the users list of available wallets. This function is used from the multisig fsctory contract   \r\n    function callRemoveOwner(address owner, address wallet) private {\r\n\r\n        MultiSigFactory factory = MultiSigFactory(MultiSigInstance);\r\n        factory.removeOwner(owner, wallet);\r\n    }\r\n    \r\n    \r\n    //gets wallet users\r\n    function getUsers() public view returns(address[] memory)\r\n    {\r\n        return owners;\r\n    }\r\n    \r\n   \r\n    \r\n////////////////////////////Functions for deopositing and withdrawing assets to and from the wallet///////////////////////////\r\n    //deposit function. require deposit amount i sgreater than 0 and withdrawalRequests//the wallet oweners array is greater than 1\r\n    function deposit() public onlyOwners payable {\r\n        \r\n        require(msg.value >= 0);\r\n    \r\n        balances[msg.sender][\"ETH\"] += msg.value;\r\n        emit fundsDeposited(\"ETH\", msg.sender, depositId, msg.value, block.timestamp);\r\n        depositId++;\r\n    }\r\n\r\n    function depositERC20Token(uint amount, string memory ticker) external onlyOwners tokenExists(ticker) {\r\n\r\n        require(tokenMapping[ticker].tokenAddress != address(0));\r\n    \r\n        IERC20(tokenMapping[ticker].tokenAddress).transferFrom(msg.sender, address(this), amount);\r\n        balances[msg.sender][ticker] += amount;  \r\n        \r\n        //emit deposited(msg.sender, address(this), amount, ticker);\r\n        emit fundsDeposited(ticker, msg.sender, depositId, amount, block.timestamp);\r\n        depositId++;\r\n    }\r\n\r\n    //after transfer is called our balance i < transaction amount thus we cannot withfraw\r\n    //update amount after transfer function.\r\n    function withdraw(string memory ticker, uint _amount) public onlyOwners {\r\n    \r\n        require(balances[msg.sender][ticker] >= _amount);\r\n        balances[msg.sender][\"ticker\"] -= _amount;\r\n\r\n        if(keccak256(bytes(ticker)) == keccak256(bytes(\"ETH\")))  {\r\n            payable(msg.sender).transfer(_amount);\r\n        }\r\n        else {\r\n            require(tokenMapping[ticker].tokenAddress != address(0));\r\n            IERC20(tokenMapping[ticker].tokenAddress).transfer(msg.sender, _amount);\r\n        }\r\n        \r\n        emit fundsWithdrawed(ticker, msg.sender, withdrawalId, _amount, block.timestamp);\r\n        withdrawalId++;\r\n        \r\n    }\r\n\r\n    //withdrawal function\r\n    // function withdrawERC20Token(uint amount, string memory ticker) external tokenExists(ticker) onlyOwners {\r\n    //     require(tokenMapping[ticker].tokenAddress != address(0));\r\n    //     require(balances[msg.sender][ticker] >= amount);\r\n\r\n    //     balances[msg.sender][ticker] -= amount;\r\n    //     IERC20(tokenMapping[ticker].tokenAddress).transfer(msg.sender, amount);\r\n    //     emit fundsWithdrawed(ticker, msg.sender, withdrawalId, amount, block.timestamp);\r\n    //     withdrawalId++;\r\n\r\n    // }\r\n\r\n        \r\n////////////////////////////Functions for approving, cancelling and executing transfers within the wallet///////////////////////////\r\n\r\n    //Create an instance of the Transfer struct and add it to the transferRequests array\r\n    function createTransfer(string memory _ticker, uint _amount, address payable _receiver) public onlyOwners {\r\n\r\n        require(balances[msg.sender][_ticker] >= _amount, \"insufficient balance to create a transfer reauest\");\r\n    \r\n        for (uint i = 0; i < owners.length; i++) {\r\n            require(owners[i] != _receiver, \"only the wallet owners can make transfer reuqests\");\r\n        }\r\n        \r\n        balances[msg.sender][_ticker] -= _amount;\r\n        transferRequests.push(Transfer(_ticker, _amount, msg.sender, _receiver, 0, transferId, block.timestamp));\r\n        emit TransferRequestCreated(_ticker, transferId, _amount, msg.sender, _receiver);\r\n        transferId++;\r\n        \r\n    }\r\n\r\n\r\n    function cancelTransfer(string memory ticker, uint _id) public {\r\n        // require(transferRequests[_id].sender == msg.sender, \"only the user who created the transfer can cancel\");\r\n\r\n        uint counter = 0;\r\n        bool hasBeenFound = false;\r\n        for(uint i = 0; i < transferRequests.length; i++) {\r\n           if(transferRequests[i].id == _id) {\r\n               hasBeenFound = true;\r\n               break;\r\n           }\r\n           counter++;\r\n        }\r\n        if(hasBeenFound == false) revert(\"Trnasfer ID not found cancellation\");\r\n\r\n\r\n        balances[msg.sender][ticker] += transferRequests[counter].amount;\r\n        emit transferRequestCancelled(ticker, transferRequests[counter].id, msg.sender, transferRequests[counter].receiver, transferRequests[counter].amount, block.timestamp);\r\n\r\n        transferRequests[counter] = transferRequests[transferRequests.length - 1];\r\n        transferRequests.pop();\r\n\r\n\r\n    }\r\n    \r\n    \r\n    \r\n    \r\n    function Transferapprove(string memory ticker, uint _id) public onlyOwners {\r\n\r\n        uint counter = 0;\r\n        bool hasBeenFound = false;\r\n        for(uint i = 0; i < transferRequests.length; i++) {\r\n           if(transferRequests[i].id == _id) {\r\n               hasBeenFound = true;\r\n               break;\r\n           }\r\n           counter++;\r\n        }\r\n        if(hasBeenFound == false) revert(\"Transfer ID not found for approval\");\r\n\r\n        require(msg.sender != transferRequests[counter].sender);\r\n        require(approvals[msg.sender][_id] == false, \"transaction alrady approved\");\r\n\r\n        approvals[msg.sender][counter] = true;\r\n        transferRequests[counter].approvals++;\r\n        \r\n        emit ApprovalReceived(ticker, counter, transferRequests[counter].approvals, msg.sender);\r\n\r\n        if(transferRequests[counter].approvals == limit) {\r\n\r\n            TransferFunds(ticker, counter);\r\n        }\r\n\r\n    }    \r\n\r\n     //now we need to create a function to actually transfer the funds after the\r\n    //transfer has been recieved\r\n    function TransferFunds(string memory _ticker, uint _id) private {\r\n\r\n        if(keccak256(bytes(_ticker)) == keccak256(bytes(\"ETH\")))  {\r\n            transferRequests[_id].receiver.transfer(transferRequests[_id].amount);\r\n        }\r\n        else {\r\n            IERC20(tokenMapping[_ticker].tokenAddress).transfer(transferRequests[_id].receiver, transferRequests[_id].amount);\r\n        }\r\n        \r\n        balances[transferRequests[_id].receiver][_ticker] += transferRequests[_id].amount;\r\n       \r\n        emit transferRequestApproved(_ticker, transferRequests[_id].id, msg.sender, transferRequests[_id].receiver, transferRequests[_id].amount, block.timestamp);\r\n\r\n        transferRequests[_id] = transferRequests[transferRequests.length - 1];\r\n        transferRequests.pop();\r\n        \r\n    }\r\n    \r\n////////////////////////////Helper functions and blockhain reading functions///////////////////////////\r\n\r\n    \r\n    //Should return all transfer requests\r\n    function getTransferRequests() public view returns (Transfer[] memory){\r\n       \r\n        return transferRequests;\r\n    }\r\n\r\n    \r\n    //next we want to make a get balance function\r\n    function getAccountBalance(string memory ticker) public view returns(uint)\r\n    {\r\n        return balances[msg.sender][ticker];\r\n    }\r\n    \r\n    function getTokenList() public view returns (string[] memory) {\r\n        \r\n        return tokenList;\r\n    }\r\n    \r\n    \r\n}\r\n\r\n\r\n\r\n\r\n\r\n\r\ncontract MultiSigFactory {\r\n    \r\n     struct UserWallets{\r\n\r\n        address walletAddress;\r\n        uint walletID;\r\n    }\r\n\r\n    uint id = 0;\r\n    UserWallets[] public wallets;\r\n    MultiSigWallet[] public multisigInstances;\r\n\r\n    mapping(address => UserWallets[]) userWallet;\r\n    event multisigInstanceCreated(uint date, address walletOwner, address multiSigAddress);\r\n   \r\n    function createMultiSig() public {\r\n\r\n        MultiSigWallet newWalletInstance = new MultiSigWallet(msg.sender);\r\n        multisigInstances.push(newWalletInstance);\r\n        \r\n        UserWallets[] storage newWallet = userWallet[msg.sender];\r\n        newWallet.push(UserWallets(address(newWalletInstance), id));\r\n        \r\n        emit multisigInstanceCreated(block.timestamp, msg.sender, address(newWalletInstance));\r\n        id++;\r\n    }\r\n    \r\n    function getUserWallets() public view returns (UserWallets[] memory wals) {\r\n        return userWallet[msg.sender];\r\n    }\r\n    \r\n    function addOwner(address account, address walletAddres) public {\r\n        \r\n        UserWallets[] storage newWallet = userWallet[account];\r\n        newWallet.push(UserWallets(walletAddres, id));\r\n      \r\n    }\r\n    \r\n    function getWalletID(address walletAddres) public view returns (uint) {\r\n        \r\n        uint walletId;\r\n        UserWallets[] memory newWallet = userWallet[msg.sender];\r\n        for (uint i = 0; i < newWallet.length; i ++) {\r\n            if (newWallet[i].walletAddress == walletAddres){\r\n                walletId = newWallet[i].walletID;\r\n            }\r\n        }  \r\n        return walletId;\r\n    }\r\n\r\n    function removeOwner(address account, address walletAddres) public {\r\n        \r\n        UserWallets[] storage newWallet = userWallet[account];\r\n       \r\n        uint walletIndex;\r\n        bool hasBeenFound = false;\r\n        for(uint i = 0; i < newWallet.length; i++)\r\n        {\r\n            if (newWallet[i].walletAddress == walletAddres)\r\n            {   \r\n                walletIndex = i;\r\n                hasBeenFound = true;\r\n            }\r\n        }\r\n        require(hasBeenFound);\r\n\r\n        newWallet[walletIndex] = newWallet[newWallet.length - 1];\r\n        newWallet.pop();\r\n    }\r\n     \r\n}   \r\n\r\n\r\n\r\n\r\n\r\n\r\n\r\n\r\n\r\n",
  "sourcePath": "C:/Users/evanMcGraneTest/Documents/EthereumProgramming/MutiSigWalletApp/contracts/Multisig.sol",
  "compiler": {
    "name": "solc",
    "version": "0.8.0+commit.c7dfd78e.Emscripten.clang"
  },
  "schemaVersion": "3.3.4",
  "updatedAt": "2021-09-19T11:00:54.434Z",
  "networkType": "ethereum",
  "devdoc": {
    "kind": "dev",
    "methods": {},
    "version": 1
  },
  "userdoc": {
    "kind": "user",
    "methods": {},
    "version": 1
  }
}