{
  "contractName": "MultiSigWallet",
  "abi": [
    {
      "inputs": [],
      "stateMutability": "nonpayable",
      "type": "constructor"
    },
    {
      "anonymous": false,
      "inputs": [
        {
          "indexed": false,
          "internalType": "uint256",
          "name": "_id",
          "type": "uint256"
        },
        {
          "indexed": false,
          "internalType": "uint256",
          "name": "_approvals",
          "type": "uint256"
        },
        {
          "indexed": false,
          "internalType": "address",
          "name": "_approver",
          "type": "address"
        }
      ],
      "name": "ApprovalReceived",
      "type": "event"
    },
    {
      "anonymous": false,
      "inputs": [
        {
          "indexed": false,
          "internalType": "uint256",
          "name": "_id",
          "type": "uint256"
        }
      ],
      "name": "TransferApproved",
      "type": "event"
    },
    {
      "anonymous": false,
      "inputs": [
        {
          "indexed": false,
          "internalType": "uint256",
          "name": "_id",
          "type": "uint256"
        },
        {
          "indexed": false,
          "internalType": "uint256",
          "name": "_amount",
          "type": "uint256"
        },
        {
          "indexed": false,
          "internalType": "address",
          "name": "_initiator",
          "type": "address"
        },
        {
          "indexed": false,
          "internalType": "address",
          "name": "_receiver",
          "type": "address"
        }
      ],
      "name": "TransferRequestCreated",
      "type": "event"
    },
    {
      "anonymous": false,
      "inputs": [
        {
          "indexed": false,
          "internalType": "address",
          "name": "to",
          "type": "address"
        },
        {
          "indexed": false,
          "internalType": "uint256",
          "name": "id",
          "type": "uint256"
        },
        {
          "indexed": false,
          "internalType": "uint256",
          "name": "amount",
          "type": "uint256"
        },
        {
          "indexed": false,
          "internalType": "uint256",
          "name": "timeOfDeposit",
          "type": "uint256"
        }
      ],
      "name": "fundsDeposited",
      "type": "event"
    },
    {
      "anonymous": false,
      "inputs": [
        {
          "indexed": false,
          "internalType": "address",
          "name": "to",
          "type": "address"
        },
        {
          "indexed": false,
          "internalType": "uint256",
          "name": "id",
          "type": "uint256"
        },
        {
          "indexed": false,
          "internalType": "uint256",
          "name": "amount",
          "type": "uint256"
        },
        {
          "indexed": false,
          "internalType": "uint256",
          "name": "timeOfWithdrawal",
          "type": "uint256"
        }
      ],
      "name": "fundsWithdrawed",
      "type": "event"
    },
    {
      "anonymous": false,
      "inputs": [
        {
          "indexed": false,
          "internalType": "uint256",
          "name": "id",
          "type": "uint256"
        },
        {
          "indexed": false,
          "internalType": "address",
          "name": "sender",
          "type": "address"
        },
        {
          "indexed": false,
          "internalType": "address",
          "name": "receiver",
          "type": "address"
        },
        {
          "indexed": false,
          "internalType": "uint256",
          "name": "amount",
          "type": "uint256"
        },
        {
          "indexed": false,
          "internalType": "uint256",
          "name": "timeOfTransfer",
          "type": "uint256"
        }
      ],
      "name": "transferRequestApproved",
      "type": "event"
    },
    {
      "anonymous": false,
      "inputs": [
        {
          "indexed": false,
          "internalType": "uint256",
          "name": "id",
          "type": "uint256"
        },
        {
          "indexed": false,
          "internalType": "address",
          "name": "sender",
          "type": "address"
        },
        {
          "indexed": false,
          "internalType": "address",
          "name": "receiver",
          "type": "address"
        },
        {
          "indexed": false,
          "internalType": "uint256",
          "name": "amount",
          "type": "uint256"
        },
        {
          "indexed": false,
          "internalType": "uint256",
          "name": "timeOfCancellation",
          "type": "uint256"
        }
      ],
      "name": "transferRequestCancelled",
      "type": "event"
    },
    {
      "inputs": [
        {
          "internalType": "address",
          "name": "",
          "type": "address"
        },
        {
          "internalType": "uint256",
          "name": "",
          "type": "uint256"
        }
      ],
      "name": "approvals",
      "outputs": [
        {
          "internalType": "bool",
          "name": "",
          "type": "bool"
        }
      ],
      "stateMutability": "view",
      "type": "function",
      "constant": true
    },
    {
      "inputs": [
        {
          "internalType": "address",
          "name": "",
          "type": "address"
        }
      ],
      "name": "balance",
      "outputs": [
        {
          "internalType": "uint256",
          "name": "",
          "type": "uint256"
        }
      ],
      "stateMutability": "view",
      "type": "function",
      "constant": true
    },
    {
      "inputs": [],
      "name": "depositId",
      "outputs": [
        {
          "internalType": "uint256",
          "name": "",
          "type": "uint256"
        }
      ],
      "stateMutability": "view",
      "type": "function",
      "constant": true
    },
    {
      "inputs": [],
      "name": "limit",
      "outputs": [
        {
          "internalType": "uint256",
          "name": "",
          "type": "uint256"
        }
      ],
      "stateMutability": "view",
      "type": "function",
      "constant": true
    },
    {
      "inputs": [],
      "name": "transferId",
      "outputs": [
        {
          "internalType": "uint256",
          "name": "",
          "type": "uint256"
        }
      ],
      "stateMutability": "view",
      "type": "function",
      "constant": true
    },
    {
      "inputs": [],
      "name": "withdrawalId",
      "outputs": [
        {
          "internalType": "uint256",
          "name": "",
          "type": "uint256"
        }
      ],
      "stateMutability": "view",
      "type": "function",
      "constant": true
    },
    {
      "inputs": [
        {
          "internalType": "address",
          "name": "_owners",
          "type": "address"
        }
      ],
      "name": "addUsers",
      "outputs": [],
      "stateMutability": "nonpayable",
      "type": "function"
    },
    {
      "inputs": [
        {
          "internalType": "address",
          "name": "_user",
          "type": "address"
        }
      ],
      "name": "removeUser",
      "outputs": [],
      "stateMutability": "nonpayable",
      "type": "function"
    },
    {
      "inputs": [],
      "name": "getUsers",
      "outputs": [
        {
          "internalType": "address[]",
          "name": "",
          "type": "address[]"
        }
      ],
      "stateMutability": "view",
      "type": "function",
      "constant": true
    },
    {
      "inputs": [],
      "name": "getApprovalLimit",
      "outputs": [
        {
          "internalType": "uint256",
          "name": "",
          "type": "uint256"
        }
      ],
      "stateMutability": "view",
      "type": "function",
      "constant": true
    },
    {
      "inputs": [],
      "name": "deposit",
      "outputs": [],
      "stateMutability": "payable",
      "type": "function",
      "payable": true
    },
    {
      "inputs": [],
      "name": "getAccountBalance",
      "outputs": [
        {
          "internalType": "uint256",
          "name": "",
          "type": "uint256"
        }
      ],
      "stateMutability": "view",
      "type": "function",
      "constant": true
    },
    {
      "inputs": [],
      "name": "getContractBalance",
      "outputs": [
        {
          "internalType": "uint256",
          "name": "",
          "type": "uint256"
        }
      ],
      "stateMutability": "view",
      "type": "function",
      "constant": true
    },
    {
      "inputs": [],
      "name": "getOwner",
      "outputs": [
        {
          "internalType": "address",
          "name": "",
          "type": "address"
        }
      ],
      "stateMutability": "view",
      "type": "function",
      "constant": true
    },
    {
      "inputs": [
        {
          "internalType": "uint256",
          "name": "_amount",
          "type": "uint256"
        },
        {
          "internalType": "address payable",
          "name": "_receiver",
          "type": "address"
        }
      ],
      "name": "createTransfer",
      "outputs": [],
      "stateMutability": "nonpayable",
      "type": "function"
    },
    {
      "inputs": [
        {
          "internalType": "uint256",
          "name": "_id",
          "type": "uint256"
        }
      ],
      "name": "cancelTransfer",
      "outputs": [],
      "stateMutability": "nonpayable",
      "type": "function"
    },
    {
      "inputs": [
        {
          "internalType": "uint256",
          "name": "_id",
          "type": "uint256"
        }
      ],
      "name": "Transferapprove",
      "outputs": [],
      "stateMutability": "nonpayable",
      "type": "function"
    },
    {
      "inputs": [
        {
          "internalType": "uint256",
          "name": "_amount",
          "type": "uint256"
        }
      ],
      "name": "withdraw",
      "outputs": [
        {
          "internalType": "uint256",
          "name": "",
          "type": "uint256"
        }
      ],
      "stateMutability": "nonpayable",
      "type": "function"
    },
    {
      "inputs": [
        {
          "internalType": "uint256",
          "name": "_id",
          "type": "uint256"
        }
      ],
      "name": "getApprovalState",
      "outputs": [
        {
          "internalType": "uint256",
          "name": "",
          "type": "uint256"
        }
      ],
      "stateMutability": "view",
      "type": "function",
      "constant": true
    },
    {
      "inputs": [],
      "name": "getTransferRequests",
      "outputs": [
        {
          "components": [
            {
              "internalType": "uint256",
              "name": "amount",
              "type": "uint256"
            },
            {
              "internalType": "address",
              "name": "sender",
              "type": "address"
            },
            {
              "internalType": "address payable",
              "name": "receiver",
              "type": "address"
            },
            {
              "internalType": "uint256",
              "name": "approvals",
              "type": "uint256"
            },
            {
              "internalType": "bool",
              "name": "hasBeenSent",
              "type": "bool"
            },
            {
              "internalType": "uint256",
              "name": "id",
              "type": "uint256"
            },
            {
              "internalType": "uint256",
              "name": "timeOfCreation",
              "type": "uint256"
            }
          ],
          "internalType": "struct MultiSigWallet.Transfer[]",
          "name": "",
          "type": "tuple[]"
        }
      ],
      "stateMutability": "view",
      "type": "function",
      "constant": true
    }
  ],
  "bytecode": "0x608060405260006003556000600455600060055534801561001f57600080fd5b50336000806101000a81548173ffffffffffffffffffffffffffffffffffffffff021916908373ffffffffffffffffffffffffffffffffffffffff160217905550600160008054906101000a900473ffffffffffffffffffffffffffffffffffffffff169080600181540180825580915050600190039060005260206000200160009091909190916101000a81548173ffffffffffffffffffffffffffffffffffffffff021916908373ffffffffffffffffffffffffffffffffffffffff160217905550612b10806100f26000396000f3fe60806040526004361061011e5760003560e01c80637d5539c4116100a0578063a4d66daf11610064578063a4d66daf146103c2578063b80fd822146103ed578063d0e30db014610418578063e3d670d714610422578063ffabc6731461045f5761011e565b80637d5539c4146102ef578063893d20e8146103185780639852099c14610343578063985751881461036e578063a04ef145146103975761011e565b806359caecb5116100e757806359caecb5146102085780636896fabf146102315780636f9fb98a1461025c5780637278a1fa146102875780637720cdd8146102b25761011e565b8062ce8e3e14610123578063043437221461014e5780632e1a7d4d146101775780634c12fa47146101b457806352cda148146101dd575b600080fd5b34801561012f57600080fd5b5061013861049c565b60405161014591906126d7565b60405180910390f35b34801561015a57600080fd5b50610175600480360381019061017091906122d5565b61052a565b005b34801561018357600080fd5b5061019e6004803603810190610199919061233a565b6106b1565b6040516101ab9190612796565b60405180910390f35b3480156101c057600080fd5b506101db60048036038101906101d69190612363565b610912565b005b3480156101e957600080fd5b506101f2610cb2565b6040516101ff9190612796565b60405180910390f35b34801561021457600080fd5b5061022f600480360381019061022a919061233a565b610cb8565b005b34801561023d57600080fd5b50610246611182565b6040516102539190612796565b60405180910390f35b34801561026857600080fd5b506102716111c9565b60405161027e9190612796565b60405180910390f35b34801561029357600080fd5b5061029c6111d1565b6040516102a99190612796565b60405180910390f35b3480156102be57600080fd5b506102d960048036038101906102d4919061233a565b6111db565b6040516102e69190612796565b60405180910390f35b3480156102fb57600080fd5b506103166004803603810190610311919061233a565b611230565b005b34801561032457600080fd5b5061032d611709565b60405161033a9190612677565b60405180910390f35b34801561034f57600080fd5b50610358611711565b6040516103659190612796565b60405180910390f35b34801561037a57600080fd5b50610395600480360381019061039091906122d5565b611717565b005b3480156103a357600080fd5b506103ac6119df565b6040516103b991906126f9565b60405180910390f35b3480156103ce57600080fd5b506103d7611b2d565b6040516103e49190612796565b60405180910390f35b3480156103f957600080fd5b50610402611b33565b60405161040f9190612796565b60405180910390f35b610420611b39565b005b34801561042e57600080fd5b50610449600480360381019061044491906122d5565b611bf6565b6040516104569190612796565b60405180910390f35b34801561046b57600080fd5b50610486600480360381019061048191906122fe565b611c0e565b604051610493919061271b565b60405180910390f35b6060600180548060200260200160405190810160405280929190818152602001828054801561052057602002820191906000526020600020905b8160009054906101000a900473ffffffffffffffffffffffffffffffffffffffff1673ffffffffffffffffffffffffffffffffffffffff16815260200190600101908083116104d6575b5050505050905090565b60005b600180549050811015610620578173ffffffffffffffffffffffffffffffffffffffff166001828154811061058b577f4e487b7100000000000000000000000000000000000000000000000000000000600052603260045260246000fd5b9060005260206000200160009054906101000a900473ffffffffffffffffffffffffffffffffffffffff1673ffffffffffffffffffffffffffffffffffffffff16141561060d576040517f08c379a000000000000000000000000000000000000000000000000000000000815260040161060490612756565b60405180910390fd5b808061061890612a1d565b91505061052d565b506004600180549050111561063457600080fd5b6001819080600181540180825580915050600190039060005260206000200160009091909190916101000a81548173ffffffffffffffffffffffffffffffffffffffff021916908373ffffffffffffffffffffffffffffffffffffffff160217905550600180805490506106a89190612959565b60028190555050565b6000806000905060005b600180549050811015610778573373ffffffffffffffffffffffffffffffffffffffff1660018281548110610719577f4e487b7100000000000000000000000000000000000000000000000000000000600052603260045260246000fd5b9060005260206000200160009054906101000a900473ffffffffffffffffffffffffffffffffffffffff1673ffffffffffffffffffffffffffffffffffffffff16141561076557600191505b808061077090612a1d565b9150506106bb565b50600115158115151461078a57600080fd5b82600860003373ffffffffffffffffffffffffffffffffffffffff1673ffffffffffffffffffffffffffffffffffffffff1681526020019081526020016000205410156107d657600080fd5b3373ffffffffffffffffffffffffffffffffffffffff166108fc849081150290604051600060405180830381858888f1935050505015801561081c573d6000803e3d6000fd5b5082600860003373ffffffffffffffffffffffffffffffffffffffff1673ffffffffffffffffffffffffffffffffffffffff168152602001908152602001600020600082825461086c9190612959565b925050819055507f911e5a424cda0aa25334a5bc6c8794ecafee939faa8aa2766de433541fdd840b3360045485426040516108aa9493929190612692565b60405180910390a1600460008154809291906108c590612a1d565b9190505550600860003373ffffffffffffffffffffffffffffffffffffffff1673ffffffffffffffffffffffffffffffffffffffff16815260200190815260200160002054915050919050565b6000805b6001805490508110156109d3573373ffffffffffffffffffffffffffffffffffffffff1660018281548110610974577f4e487b7100000000000000000000000000000000000000000000000000000000600052603260045260246000fd5b9060005260206000200160009054906101000a900473ffffffffffffffffffffffffffffffffffffffff1673ffffffffffffffffffffffffffffffffffffffff1614156109c057600191505b80806109cb90612a1d565b915050610916565b5060011515811515146109e557600080fd5b600180805490501015610a2d576040517f08c379a0000000000000000000000000000000000000000000000000000000008152600401610a2490612736565b60405180910390fd5b60005b600180549050811015610aed578273ffffffffffffffffffffffffffffffffffffffff1660018281548110610a8e577f4e487b7100000000000000000000000000000000000000000000000000000000600052603260045260246000fd5b9060005260206000200160009054906101000a900473ffffffffffffffffffffffffffffffffffffffff1673ffffffffffffffffffffffffffffffffffffffff161415610ada57600080fd5b8080610ae590612a1d565b915050610a30565b507f099c4ec4ecfc26f7c8b27aeee5443f92120fa2c4e91ba6020369ae71a4d44278600554843385604051610b25949392919061283b565b60405180910390a160066040518060e001604052808581526020013373ffffffffffffffffffffffffffffffffffffffff1681526020018473ffffffffffffffffffffffffffffffffffffffff1681526020016000815260200160001515815260200160055481526020014281525090806001815401808255809150506001900390600052602060002090600702016000909190919091506000820151816000015560208201518160010160006101000a81548173ffffffffffffffffffffffffffffffffffffffff021916908373ffffffffffffffffffffffffffffffffffffffff16021790555060408201518160020160006101000a81548173ffffffffffffffffffffffffffffffffffffffff021916908373ffffffffffffffffffffffffffffffffffffffff1602179055506060820151816003015560808201518160040160006101000a81548160ff02191690831515021790555060a0820151816005015560c08201518160060155505060056000815480929190610ca890612a1d565b9190505550505050565b60045481565b600180805490501015610d00576040517f08c379a0000000000000000000000000000000000000000000000000000000008152600401610cf790612736565b60405180910390fd5b60008060005b600680549050811015610d90578360068281548110610d4e577f4e487b7100000000000000000000000000000000000000000000000000000000600052603260045260246000fd5b9060005260206000209060070201600501541415610d6f5760019150610d90565b8280610d7a90612a1d565b9350508080610d8890612a1d565b915050610d06565b50600015158115151415610da357600080fd5b7f5c8b6d30be676522035362585e62137986e8b915ae53c3cc945cceefbb51f76d60068481548110610dfe577f4e487b7100000000000000000000000000000000000000000000000000000000600052603260045260246000fd5b9060005260206000209060070201600501543360068681548110610e4b577f4e487b7100000000000000000000000000000000000000000000000000000000600052603260045260246000fd5b906000526020600020906007020160020160009054906101000a900473ffffffffffffffffffffffffffffffffffffffff1660068781548110610eb7577f4e487b7100000000000000000000000000000000000000000000000000000000600052603260045260246000fd5b90600052602060002090600702016000015442604051610edb9594939291906127b1565b60405180910390a160066001600680549050610ef79190612959565b81548110610f2e577f4e487b7100000000000000000000000000000000000000000000000000000000600052603260045260246000fd5b906000526020600020906007020160068381548110610f76577f4e487b7100000000000000000000000000000000000000000000000000000000600052603260045260246000fd5b9060005260206000209060070201600082015481600001556001820160009054906101000a900473ffffffffffffffffffffffffffffffffffffffff168160010160006101000a81548173ffffffffffffffffffffffffffffffffffffffff021916908373ffffffffffffffffffffffffffffffffffffffff1602179055506002820160009054906101000a900473ffffffffffffffffffffffffffffffffffffffff168160020160006101000a81548173ffffffffffffffffffffffffffffffffffffffff021916908373ffffffffffffffffffffffffffffffffffffffff160217905550600382015481600301556004820160009054906101000a900460ff168160040160006101000a81548160ff021916908315150217905550600582015481600501556006820154816006015590505060068054806110e2577f4e487b7100000000000000000000000000000000000000000000000000000000600052603160045260246000fd5b60019003818190600052602060002090600702016000808201600090556001820160006101000a81549073ffffffffffffffffffffffffffffffffffffffff02191690556002820160006101000a81549073ffffffffffffffffffffffffffffffffffffffff021916905560038201600090556004820160006101000a81549060ff02191690556005820160009055600682016000905550509055505050565b6000600860003373ffffffffffffffffffffffffffffffffffffffff1673ffffffffffffffffffffffffffffffffffffffff16815260200190815260200160002054905090565b600047905090565b6000600254905090565b600060068281548110611217577f4e487b7100000000000000000000000000000000000000000000000000000000600052603260045260246000fd5b9060005260206000209060070201600301549050919050565b6000805b6001805490508110156112f1573373ffffffffffffffffffffffffffffffffffffffff1660018281548110611292577f4e487b7100000000000000000000000000000000000000000000000000000000600052603260045260246000fd5b9060005260206000200160009054906101000a900473ffffffffffffffffffffffffffffffffffffffff1673ffffffffffffffffffffffffffffffffffffffff1614156112de57600191505b80806112e990612a1d565b915050611234565b50600115158115151461130357600080fd5b60008060005b600680549050811015611393578460068281548110611351577f4e487b7100000000000000000000000000000000000000000000000000000000600052603260045260246000fd5b90600052602060002090600702016005015414156113725760019150611393565b828061137d90612a1d565b935050808061138b90612a1d565b915050611309565b506000151581151514156113a657600080fd5b6001808054905010156113ee576040517f08c379a00000000000000000000000000000000000000000000000000000000081526004016113e590612736565b60405180910390fd5b60008054906101000a900473ffffffffffffffffffffffffffffffffffffffff1673ffffffffffffffffffffffffffffffffffffffff163373ffffffffffffffffffffffffffffffffffffffff16141561144757600080fd5b60001515600760003373ffffffffffffffffffffffffffffffffffffffff1673ffffffffffffffffffffffffffffffffffffffff168152602001908152602001600020600086815260200190815260200160002060009054906101000a900460ff161515146114eb576040517f08c379a00000000000000000000000000000000000000000000000000000000081526004016114e290612776565b60405180910390fd5b6000151560068381548110611529577f4e487b7100000000000000000000000000000000000000000000000000000000600052603260045260246000fd5b906000526020600020906007020160040160009054906101000a900460ff1615151461155457600080fd5b6001600760003373ffffffffffffffffffffffffffffffffffffffff1673ffffffffffffffffffffffffffffffffffffffff168152602001908152602001600020600084815260200190815260200160002060006101000a81548160ff021916908315150217905550600682815481106115f7577f4e487b7100000000000000000000000000000000000000000000000000000000600052603260045260246000fd5b9060005260206000209060070201600301600081548092919061161990612a1d565b91905055507ffec9d12d15ee8c8b836a58347cb0d4980db38411bcd0b83662cee48fb20b6dee826006848154811061167a577f4e487b7100000000000000000000000000000000000000000000000000000000600052603260045260246000fd5b9060005260206000209060070201600301543360405161169c93929190612804565b60405180910390a1600254600683815481106116e1577f4e487b7100000000000000000000000000000000000000000000000000000000600052603260045260246000fd5b90600052602060002090600702016003015414156117035761170282611c3d565b5b50505050565b600033905090565b60035481565b600080600090505b600180549050811015611877578273ffffffffffffffffffffffffffffffffffffffff166001828154811061177d577f4e487b7100000000000000000000000000000000000000000000000000000000600052603260045260246000fd5b9060005260206000200160009054906101000a900473ffffffffffffffffffffffffffffffffffffffff1673ffffffffffffffffffffffffffffffffffffffff161415611864578091508273ffffffffffffffffffffffffffffffffffffffff1660018281548110611818577f4e487b7100000000000000000000000000000000000000000000000000000000600052603260045260246000fd5b9060005260206000200160009054906101000a900473ffffffffffffffffffffffffffffffffffffffff1673ffffffffffffffffffffffffffffffffffffffff161461186357600080fd5b5b808061186f90612a1d565b91505061171f565b50600180808054905061188a9190612959565b815481106118c1577f4e487b7100000000000000000000000000000000000000000000000000000000600052603260045260246000fd5b9060005260206000200160009054906101000a900473ffffffffffffffffffffffffffffffffffffffff1660018281548110611926577f4e487b7100000000000000000000000000000000000000000000000000000000600052603260045260246000fd5b9060005260206000200160006101000a81548173ffffffffffffffffffffffffffffffffffffffff021916908373ffffffffffffffffffffffffffffffffffffffff16021790555060018054806119a6577f4e487b7100000000000000000000000000000000000000000000000000000000600052603160045260246000fd5b6001900381819060005260206000200160006101000a81549073ffffffffffffffffffffffffffffffffffffffff021916905590555050565b60606006805480602002602001604051908101604052809291908181526020016000905b82821015611b2457838290600052602060002090600702016040518060e0016040529081600082015481526020016001820160009054906101000a900473ffffffffffffffffffffffffffffffffffffffff1673ffffffffffffffffffffffffffffffffffffffff1673ffffffffffffffffffffffffffffffffffffffff1681526020016002820160009054906101000a900473ffffffffffffffffffffffffffffffffffffffff1673ffffffffffffffffffffffffffffffffffffffff1673ffffffffffffffffffffffffffffffffffffffff168152602001600382015481526020016004820160009054906101000a900460ff161515151581526020016005820154815260200160068201548152505081526020019060010190611a03565b50505050905090565b60025481565b60055481565b6000341015611b4757600080fd5b34600860003373ffffffffffffffffffffffffffffffffffffffff1673ffffffffffffffffffffffffffffffffffffffff1681526020019081526020016000206000828254611b969190612903565b925050819055507f2e0c7c0c884d7be5e05e90478e8e5e8e89b7fccac8131a5107aa200f79203f25336003543442604051611bd49493929190612692565b60405180910390a160036000815480929190611bef90612a1d565b9190505550565b60086020528060005260406000206000915090505481565b60076020528160005260406000206020528060005260406000206000915091509054906101000a900460ff1681565b600160068281548110611c79577f4e487b7100000000000000000000000000000000000000000000000000000000600052603260045260246000fd5b906000526020600020906007020160040160006101000a81548160ff02191690831515021790555060068181548110611cdb577f4e487b7100000000000000000000000000000000000000000000000000000000600052603260045260246000fd5b9060005260206000209060070201600001546008600060068481548110611d2b577f4e487b7100000000000000000000000000000000000000000000000000000000600052603260045260246000fd5b906000526020600020906007020160010160009054906101000a900473ffffffffffffffffffffffffffffffffffffffff1673ffffffffffffffffffffffffffffffffffffffff1673ffffffffffffffffffffffffffffffffffffffff1681526020019081526020016000206000828254611da69190612959565b9250508190555060068181548110611de7577f4e487b7100000000000000000000000000000000000000000000000000000000600052603260045260246000fd5b9060005260206000209060070201600001546008600060068481548110611e37577f4e487b7100000000000000000000000000000000000000000000000000000000600052603260045260246000fd5b906000526020600020906007020160020160009054906101000a900473ffffffffffffffffffffffffffffffffffffffff1673ffffffffffffffffffffffffffffffffffffffff1673ffffffffffffffffffffffffffffffffffffffff1681526020019081526020016000206000828254611eb29190612903565b925050819055507f62d4a4c05d024bc6ec4da7d8bee4346837f58fcbd872e30cd69f37ca55b6e41f60068281548110611f14577f4e487b7100000000000000000000000000000000000000000000000000000000600052603260045260246000fd5b9060005260206000209060070201600501543360068481548110611f61577f4e487b7100000000000000000000000000000000000000000000000000000000600052603260045260246000fd5b906000526020600020906007020160020160009054906101000a900473ffffffffffffffffffffffffffffffffffffffff1660068581548110611fcd577f4e487b7100000000000000000000000000000000000000000000000000000000600052603260045260246000fd5b90600052602060002090600702016000015442604051611ff19594939291906127b1565b60405180910390a16006600160068054905061200d9190612959565b81548110612044577f4e487b7100000000000000000000000000000000000000000000000000000000600052603260045260246000fd5b90600052602060002090600702016006828154811061208c577f4e487b7100000000000000000000000000000000000000000000000000000000600052603260045260246000fd5b9060005260206000209060070201600082015481600001556001820160009054906101000a900473ffffffffffffffffffffffffffffffffffffffff168160010160006101000a81548173ffffffffffffffffffffffffffffffffffffffff021916908373ffffffffffffffffffffffffffffffffffffffff1602179055506002820160009054906101000a900473ffffffffffffffffffffffffffffffffffffffff168160020160006101000a81548173ffffffffffffffffffffffffffffffffffffffff021916908373ffffffffffffffffffffffffffffffffffffffff160217905550600382015481600301556004820160009054906101000a900460ff168160040160006101000a81548160ff021916908315150217905550600582015481600501556006820154816006015590505060068054806121f8577f4e487b7100000000000000000000000000000000000000000000000000000000600052603160045260246000fd5b60019003818190600052602060002090600702016000808201600090556001820160006101000a81549073ffffffffffffffffffffffffffffffffffffffff02191690556002820160006101000a81549073ffffffffffffffffffffffffffffffffffffffff021916905560038201600090556004820160006101000a81549060ff0219169055600582016000905560068201600090555050905550565b6000813590506122a581612a95565b92915050565b6000813590506122ba81612aac565b92915050565b6000813590506122cf81612ac3565b92915050565b6000602082840312156122e757600080fd5b60006122f584828501612296565b91505092915050565b6000806040838503121561231157600080fd5b600061231f85828601612296565b9250506020612330858286016122c0565b9150509250929050565b60006020828403121561234c57600080fd5b600061235a848285016122c0565b91505092915050565b6000806040838503121561237657600080fd5b6000612384858286016122c0565b9250506020612395858286016122ab565b9150509250929050565b60006123ab83836123ed565b60208301905092915050565b60006123c383836125cb565b60e08301905092915050565b6123d8816129e7565b82525050565b6123e78161299f565b82525050565b6123f68161298d565b82525050565b6124058161298d565b82525050565b6000612416826128a0565b61242081856128d0565b935061242b83612880565b8060005b8381101561245c578151612443888261239f565b975061244e836128b6565b92505060018101905061242f565b5085935050505092915050565b6000612474826128ab565b61247e81856128e1565b935061248983612890565b8060005b838110156124ba5781516124a188826123b7565b97506124ac836128c3565b92505060018101905061248d565b5085935050505092915050565b6124d0816129b1565b82525050565b6124df816129b1565b82525050565b60006124f26021836128f2565b91507f6e65656420746f2068617665206d6f7265207468616e206f6e65207369676e6560008301527f72000000000000000000000000000000000000000000000000000000000000006020830152604082019050919050565b60006125586012836128f2565b91507f416c7265616479207265676973746572656400000000000000000000000000006000830152602082019050919050565b6000612598601b836128f2565b91507f7472616e73616374696f6e20616c7261647920617070726f76656400000000006000830152602082019050919050565b60e0820160008201516125e16000850182612659565b5060208201516125f460208501826123ed565b50604082015161260760408501826123de565b50606082015161261a6060850182612659565b50608082015161262d60808501826124c7565b5060a082015161264060a0850182612659565b5060c082015161265360c0850182612659565b50505050565b612662816129dd565b82525050565b612671816129dd565b82525050565b600060208201905061268c60008301846123fc565b92915050565b60006080820190506126a760008301876123fc565b6126b46020830186612668565b6126c16040830185612668565b6126ce6060830184612668565b95945050505050565b600060208201905081810360008301526126f1818461240b565b905092915050565b600060208201905081810360008301526127138184612469565b905092915050565b600060208201905061273060008301846124d6565b92915050565b6000602082019050818103600083015261274f816124e5565b9050919050565b6000602082019050818103600083015261276f8161254b565b9050919050565b6000602082019050818103600083015261278f8161258b565b9050919050565b60006020820190506127ab6000830184612668565b92915050565b600060a0820190506127c66000830188612668565b6127d360208301876123fc565b6127e060408301866123cf565b6127ed6060830185612668565b6127fa6080830184612668565b9695505050505050565b60006060820190506128196000830186612668565b6128266020830185612668565b61283360408301846123fc565b949350505050565b60006080820190506128506000830187612668565b61285d6020830186612668565b61286a60408301856123fc565b61287760608301846123cf565b95945050505050565b6000819050602082019050919050565b6000819050602082019050919050565b600081519050919050565b600081519050919050565b6000602082019050919050565b6000602082019050919050565b600082825260208201905092915050565b600082825260208201905092915050565b600082825260208201905092915050565b600061290e826129dd565b9150612919836129dd565b9250827fffffffffffffffffffffffffffffffffffffffffffffffffffffffffffffffff0382111561294e5761294d612a66565b5b828201905092915050565b6000612964826129dd565b915061296f836129dd565b92508282101561298257612981612a66565b5b828203905092915050565b6000612998826129bd565b9050919050565b60006129aa826129bd565b9050919050565b60008115159050919050565b600073ffffffffffffffffffffffffffffffffffffffff82169050919050565b6000819050919050565b60006129f2826129f9565b9050919050565b6000612a0482612a0b565b9050919050565b6000612a16826129bd565b9050919050565b6000612a28826129dd565b91507fffffffffffffffffffffffffffffffffffffffffffffffffffffffffffffffff821415612a5b57612a5a612a66565b5b600182019050919050565b7f4e487b7100000000000000000000000000000000000000000000000000000000600052601160045260246000fd5b612a9e8161298d565b8114612aa957600080fd5b50565b612ab58161299f565b8114612ac057600080fd5b50565b612acc816129dd565b8114612ad757600080fd5b5056fea264697066735822122095efbb19aebe44cf21f32fdcbe42548ed885e8ee9c5ccefa734a0f60818af59164736f6c63430008000033",
  "immutableReferences": {},
  "source": "//SPDX-License-Identifier: MIT\r\npragma solidity 0.8.0;\r\n\r\n//we need this for the get transferRequests() function\r\n//abicode allows us to print structs\r\npragma abicoder v2;\r\n\r\n\r\ncontract MultiSigWallet {\r\n\r\n    //address array to store owners\r\n    address mainOwner;\r\n    address[] owners;\r\n    //conensus limit for approvals\r\n    uint public limit;\r\n    uint256 public depositId = 0;\r\n    uint256 public withdrawalId = 0;\r\n    uint256 public transferId = 0;\r\n\r\n    constructor() {\r\n        mainOwner = msg.sender;\r\n        owners.push(mainOwner);\r\n    }\r\n    \r\n    //set up data structures. each trasnfer has diff properties\r\n    //like amount, the reviever, how many approvals it has, the state of the\r\n    //transfer etc\r\n    struct Transfer{\r\n        uint amount;\r\n        address sender;\r\n        address payable receiver;\r\n        uint approvals;\r\n        bool hasBeenSent;\r\n        uint id;\r\n        uint timeOfCreation;\r\n    }\r\n    \r\n    \r\n    \r\n    //here we create instances of our structs so we can keep logs\r\n    Transfer[] transferRequests;\r\n    \r\n    \r\n    //double mpping which maps an address and the transaction id to an approval boolean\r\n    //false if not approved true if so\r\n    mapping(address => mapping(uint => bool)) public approvals;\r\n    //balance mapping which maps user address ot their account balance\r\n    mapping(address => uint) public balance;\r\n    \r\n    //modifier which we can lace in function definitions to restrict access of that \r\n    //function to the wallet owners\r\n    modifier onlyOwners(){\r\n        bool owner = false;\r\n        for(uint i=0; i<owners.length;i++){\r\n            if(owners[i] == msg.sender){\r\n                owner = true;\r\n            }\r\n        }\r\n        require(owner == true);\r\n        _;\r\n    }\r\n    \r\n    //evets\r\n    event fundsDeposited(address to, uint256 id, uint amount, uint256 timeOfDeposit);\r\n    event fundsWithdrawed(address to, uint256 id, uint amount, uint256 timeOfWithdrawal);\r\n    event TransferRequestCreated(uint _id, uint _amount, address _initiator, address _receiver);\r\n    event ApprovalReceived(uint _id, uint _approvals, address _approver);\r\n    event TransferApproved(uint _id);\r\n    // event t(uint id, address sender, address receiver, uint amount, uint timeOfTransfer);\r\n    event transferRequestApproved(uint id, address sender, address receiver, uint amount, uint timeOfTransfer);\r\n    event transferRequestCancelled(uint id, address sender, address receiver, uint amount, uint timeOfCancellation);\r\n\r\n    \r\n    \r\n    //add user function. require owner is not already in the wallet array\r\n    function addUsers(address _owners) public\r\n    {\r\n        for (uint user = 0; user < owners.length; user++)\r\n        {\r\n            require(owners[user] != _owners, \"Already registered\");\r\n        }\r\n        require(owners.length <= 4);\r\n        owners.push(_owners);\r\n        \r\n        //from the current array calculate the value of minimum consensus\r\n        limit = owners.length - 1;\r\n    }\r\n    \r\n    //remove user require the address we pass in is the address were removing\r\n    function removeUser(address _user) public\r\n    {\r\n        uint user_index;\r\n        for(uint user = 0; user < owners.length; user++)\r\n        {\r\n            if (owners[user] == _user)\r\n            {   \r\n                user_index = user;\r\n                require(owners[user] == _user);\r\n            }\r\n        }\r\n        \r\n        owners[user_index] = owners[owners.length - 1];\r\n        owners.pop();\r\n        //owners;\r\n    }\r\n    \r\n    \r\n    //gets wallet users\r\n    function getUsers() public view returns(address[] memory)\r\n    {\r\n        return owners;\r\n    }\r\n    \r\n    function getApprovalLimit() public view returns (uint)\r\n    {\r\n        return (limit);\r\n    }\r\n    \r\n    \r\n    \r\n    //deposit function. require deposit amount i sgreater than 0 and withdrawalRequests//the wallet oweners array is greater than 1\r\n    function deposit() public payable\r\n    {\r\n        require(msg.value >= 0);\r\n        // require(owners.length > 1, \"need to have more than one signer\");\r\n    \r\n        balance[msg.sender] += msg.value;\r\n        emit fundsDeposited(msg.sender, depositId, msg.value, block.timestamp);\r\n        depositId++;\r\n    }\r\n    \r\n    \r\n    //next we want to make a get balance function\r\n    function getAccountBalance() public view returns(uint)\r\n    {\r\n        return balance[msg.sender];\r\n    }\r\n    \r\n    //get contratc balance\r\n    function getContractBalance() public view returns(uint)\r\n    {\r\n        return address(this).balance;\r\n    }\r\n    \r\n    \r\n    //next we want to make q function to return the address of the wallet owner\r\n    function getOwner() public view returns(address)\r\n    {\r\n        return msg.sender;\r\n    }\r\n    \r\n    \r\n    //Create an instance of the Transfer struct and add it to the transferRequests array\r\n    function createTransfer(uint _amount, address payable _receiver) public onlyOwners {\r\n        require(owners.length >= 1, \"need to have more than one signer\");\r\n        //require(msg.sender != _receiver);\r\n        for (uint i = 0; i < owners.length; i++)\r\n        {\r\n            require(owners[i] != _receiver);\r\n        //   if  (owners[i] == _receiver)\r\n        //   {\r\n        //       revert();\r\n        //   }\r\n        }\r\n        emit TransferRequestCreated(transferId, _amount, msg.sender, _receiver);\r\n        transferRequests.push(\r\n            Transfer(_amount, msg.sender, _receiver, 0, false, transferId, block.timestamp)\r\n        );\r\n        transferId++;\r\n        \r\n    }\r\n\r\n\r\n    function cancelTransfer(uint _id) public {\r\n        require(owners.length >= 1, \"need to have more than one signer\");\r\n        // require(transferRequests[_id].sender == msg.sender, \"only the user who created the transfer can cancel\");\r\n\r\n        uint counter = 0;\r\n        bool hasBeenFound = false;\r\n        for(uint i = 0; i < transferRequests.length; i++) {\r\n           if(transferRequests[i].id == _id) {\r\n               hasBeenFound = true;\r\n               break;\r\n           }\r\n           counter++;\r\n        }\r\n        if(hasBeenFound == false) revert();\r\n\r\n        emit transferRequestCancelled(transferRequests[_id].id, msg.sender, transferRequests[_id].receiver, transferRequests[_id].amount, block.timestamp);\r\n\r\n        transferRequests[counter] = transferRequests[transferRequests.length - 1];\r\n        transferRequests.pop();\r\n\r\n\r\n    }\r\n    \r\n    \r\n    \r\n    \r\n    function Transferapprove(uint _id) public onlyOwners {\r\n\r\n        uint counter = 0;\r\n        bool hasBeenFound = false;\r\n        for(uint i = 0; i < transferRequests.length; i++) {\r\n           if(transferRequests[i].id == _id) {\r\n               hasBeenFound = true;\r\n               break;\r\n           }\r\n           counter++;\r\n        }\r\n        if(hasBeenFound == false) revert();\r\n\r\n        require(owners.length >= 1, \"need to have more than one signer\");\r\n        require(msg.sender != mainOwner);\r\n        require(approvals[msg.sender][_id] == false, \"transaction alrady approved\");\r\n        require(transferRequests[counter].hasBeenSent == false);\r\n\r\n        \r\n        \r\n        // if ( transferRequests[_id].approvals => limit){\r\n        //     approvals[msg.sender][_id] = true;\r\n        // }\r\n        approvals[msg.sender][counter] = true;\r\n        transferRequests[counter].approvals++;\r\n        \r\n        emit ApprovalReceived(counter, transferRequests[counter].approvals, msg.sender);\r\n\r\n        if(transferRequests[counter].approvals == limit) {\r\n\r\n            // emit transferRequestApproved(_id, msg.sender, transferRequests[_id].receiver, transferRequests[_id].amount, block.timestamp);\r\n            TransferFunds(counter);\r\n        }\r\n\r\n        \r\n        \r\n    }\r\n    \r\n    \r\n    \r\n    \r\n     //now we need to create a function to actually transfer the funds after the\r\n    //transfer has been recieved\r\n    function TransferFunds(uint _id) private\r\n    {\r\n        // require(owners.length >= 1, \"need to have more than one signer\");\r\n        // require(transferRequests[_id].approvals == limit);\r\n        \r\n       \r\n        transferRequests[_id].hasBeenSent = true;\r\n        balance[transferRequests[_id].sender] -= transferRequests[_id].amount;\r\n        balance[transferRequests[_id].receiver] += transferRequests[_id].amount;\r\n        \r\n        emit transferRequestApproved(transferRequests[_id].id, msg.sender, transferRequests[_id].receiver, transferRequests[_id].amount, block.timestamp);\r\n\r\n        transferRequests[_id] = transferRequests[transferRequests.length - 1];\r\n        transferRequests.pop();\r\n        \r\n        // return balance[transferRequests[_id].sender];\r\n    }\r\n    \r\n    //after transfer is called our balance i < transaction amount thus we cannot withfraw\r\n    //update amount after transfer function.\r\n    function withdraw(uint _amount) public onlyOwners returns (uint)\r\n    {\r\n       \r\n        require(balance[msg.sender] >= _amount);\r\n        \r\n        payable(msg.sender).transfer(_amount);\r\n        balance[msg.sender] -= _amount;\r\n\r\n        emit fundsWithdrawed(msg.sender, withdrawalId, _amount, block.timestamp);\r\n        withdrawalId++;\r\n        \r\n        return balance[msg.sender];\r\n        \r\n    }\r\n    \r\n    \r\n    function getApprovalState(uint _id) public view returns(uint)\r\n    {\r\n        return transferRequests[_id].approvals;\r\n    }\r\n    \r\n    \r\n    //Should return all transfer requests\r\n    function getTransferRequests() public view returns (Transfer[] memory){\r\n       \r\n        return transferRequests;\r\n    }\r\n}",
  "sourcePath": "C:/Users/evanMcGraneTest/Documents/EthereumProgramming/MutiSigWalletApp/contracts/Multisig.sol",
  "compiler": {
    "name": "solc",
    "version": "0.8.0+commit.c7dfd78e.Emscripten.clang"
  },
  "schemaVersion": "3.3.4",
  "updatedAt": "2021-08-16T14:36:10.622Z",
  "networkType": "ethereum",
  "devdoc": {
    "kind": "dev",
    "methods": {},
    "version": 1
  },
  "userdoc": {
    "kind": "user",
    "methods": {},
    "version": 1
  }
}