{
  "contractName": "MultiSigWallet",
  "abi": [
    {
      "inputs": [],
      "stateMutability": "nonpayable",
      "type": "constructor"
    },
    {
      "anonymous": false,
      "inputs": [
        {
          "indexed": false,
          "internalType": "uint256",
          "name": "_id",
          "type": "uint256"
        },
        {
          "indexed": false,
          "internalType": "uint256",
          "name": "_approvals",
          "type": "uint256"
        },
        {
          "indexed": false,
          "internalType": "address",
          "name": "_approver",
          "type": "address"
        }
      ],
      "name": "ApprovalReceived",
      "type": "event"
    },
    {
      "anonymous": false,
      "inputs": [
        {
          "indexed": false,
          "internalType": "uint256",
          "name": "_id",
          "type": "uint256"
        }
      ],
      "name": "TransferApproved",
      "type": "event"
    },
    {
      "anonymous": false,
      "inputs": [
        {
          "indexed": false,
          "internalType": "uint256",
          "name": "_id",
          "type": "uint256"
        },
        {
          "indexed": false,
          "internalType": "uint256",
          "name": "_amount",
          "type": "uint256"
        },
        {
          "indexed": false,
          "internalType": "address",
          "name": "_initiator",
          "type": "address"
        },
        {
          "indexed": false,
          "internalType": "address",
          "name": "_receiver",
          "type": "address"
        }
      ],
      "name": "TransferRequestCreated",
      "type": "event"
    },
    {
      "anonymous": false,
      "inputs": [
        {
          "indexed": false,
          "internalType": "address",
          "name": "to",
          "type": "address"
        },
        {
          "indexed": false,
          "internalType": "uint256",
          "name": "id",
          "type": "uint256"
        },
        {
          "indexed": false,
          "internalType": "uint256",
          "name": "amount",
          "type": "uint256"
        },
        {
          "indexed": false,
          "internalType": "uint256",
          "name": "timeOfDeposit",
          "type": "uint256"
        }
      ],
      "name": "fundsDeposited",
      "type": "event"
    },
    {
      "anonymous": false,
      "inputs": [
        {
          "indexed": false,
          "internalType": "address",
          "name": "to",
          "type": "address"
        },
        {
          "indexed": false,
          "internalType": "uint256",
          "name": "id",
          "type": "uint256"
        },
        {
          "indexed": false,
          "internalType": "uint256",
          "name": "amount",
          "type": "uint256"
        },
        {
          "indexed": false,
          "internalType": "uint256",
          "name": "timeOfWithdrawal",
          "type": "uint256"
        }
      ],
      "name": "fundsWithdrawed",
      "type": "event"
    },
    {
      "anonymous": false,
      "inputs": [
        {
          "indexed": false,
          "internalType": "uint256",
          "name": "id",
          "type": "uint256"
        },
        {
          "indexed": false,
          "internalType": "address",
          "name": "sender",
          "type": "address"
        },
        {
          "indexed": false,
          "internalType": "address",
          "name": "receiver",
          "type": "address"
        },
        {
          "indexed": false,
          "internalType": "uint256",
          "name": "amount",
          "type": "uint256"
        },
        {
          "indexed": false,
          "internalType": "uint256",
          "name": "timeOfTransfer",
          "type": "uint256"
        }
      ],
      "name": "transferRequestApproved",
      "type": "event"
    },
    {
      "inputs": [
        {
          "internalType": "address",
          "name": "",
          "type": "address"
        },
        {
          "internalType": "uint256",
          "name": "",
          "type": "uint256"
        }
      ],
      "name": "approvals",
      "outputs": [
        {
          "internalType": "bool",
          "name": "",
          "type": "bool"
        }
      ],
      "stateMutability": "view",
      "type": "function",
      "constant": true
    },
    {
      "inputs": [
        {
          "internalType": "address",
          "name": "",
          "type": "address"
        }
      ],
      "name": "balance",
      "outputs": [
        {
          "internalType": "uint256",
          "name": "",
          "type": "uint256"
        }
      ],
      "stateMutability": "view",
      "type": "function",
      "constant": true
    },
    {
      "inputs": [],
      "name": "depositId",
      "outputs": [
        {
          "internalType": "uint256",
          "name": "",
          "type": "uint256"
        }
      ],
      "stateMutability": "view",
      "type": "function",
      "constant": true
    },
    {
      "inputs": [],
      "name": "limit",
      "outputs": [
        {
          "internalType": "uint256",
          "name": "",
          "type": "uint256"
        }
      ],
      "stateMutability": "view",
      "type": "function",
      "constant": true
    },
    {
      "inputs": [],
      "name": "transferId",
      "outputs": [
        {
          "internalType": "uint256",
          "name": "",
          "type": "uint256"
        }
      ],
      "stateMutability": "view",
      "type": "function",
      "constant": true
    },
    {
      "inputs": [],
      "name": "withdrawalId",
      "outputs": [
        {
          "internalType": "uint256",
          "name": "",
          "type": "uint256"
        }
      ],
      "stateMutability": "view",
      "type": "function",
      "constant": true
    },
    {
      "inputs": [
        {
          "internalType": "address",
          "name": "_owners",
          "type": "address"
        }
      ],
      "name": "addUsers",
      "outputs": [],
      "stateMutability": "nonpayable",
      "type": "function"
    },
    {
      "inputs": [
        {
          "internalType": "address",
          "name": "_user",
          "type": "address"
        }
      ],
      "name": "removeUser",
      "outputs": [],
      "stateMutability": "nonpayable",
      "type": "function"
    },
    {
      "inputs": [],
      "name": "getUsers",
      "outputs": [
        {
          "internalType": "address[]",
          "name": "",
          "type": "address[]"
        }
      ],
      "stateMutability": "view",
      "type": "function",
      "constant": true
    },
    {
      "inputs": [],
      "name": "getApprovalLimit",
      "outputs": [
        {
          "internalType": "uint256",
          "name": "",
          "type": "uint256"
        }
      ],
      "stateMutability": "view",
      "type": "function",
      "constant": true
    },
    {
      "inputs": [],
      "name": "deposit",
      "outputs": [],
      "stateMutability": "payable",
      "type": "function",
      "payable": true
    },
    {
      "inputs": [],
      "name": "getAccountBalance",
      "outputs": [
        {
          "internalType": "uint256",
          "name": "",
          "type": "uint256"
        }
      ],
      "stateMutability": "view",
      "type": "function",
      "constant": true
    },
    {
      "inputs": [],
      "name": "getContractBalance",
      "outputs": [
        {
          "internalType": "uint256",
          "name": "",
          "type": "uint256"
        }
      ],
      "stateMutability": "view",
      "type": "function",
      "constant": true
    },
    {
      "inputs": [],
      "name": "getOwner",
      "outputs": [
        {
          "internalType": "address",
          "name": "",
          "type": "address"
        }
      ],
      "stateMutability": "view",
      "type": "function",
      "constant": true
    },
    {
      "inputs": [
        {
          "internalType": "uint256",
          "name": "_amount",
          "type": "uint256"
        },
        {
          "internalType": "address payable",
          "name": "_receiver",
          "type": "address"
        }
      ],
      "name": "createTransfer",
      "outputs": [],
      "stateMutability": "nonpayable",
      "type": "function"
    },
    {
      "inputs": [
        {
          "internalType": "uint256",
          "name": "_id",
          "type": "uint256"
        }
      ],
      "name": "cancelTransfer",
      "outputs": [],
      "stateMutability": "nonpayable",
      "type": "function"
    },
    {
      "inputs": [
        {
          "internalType": "uint256",
          "name": "_id",
          "type": "uint256"
        }
      ],
      "name": "Transferapprove",
      "outputs": [],
      "stateMutability": "nonpayable",
      "type": "function"
    },
    {
      "inputs": [
        {
          "internalType": "uint256",
          "name": "_amount",
          "type": "uint256"
        }
      ],
      "name": "withdraw",
      "outputs": [
        {
          "internalType": "uint256",
          "name": "",
          "type": "uint256"
        }
      ],
      "stateMutability": "nonpayable",
      "type": "function"
    },
    {
      "inputs": [
        {
          "internalType": "uint256",
          "name": "_id",
          "type": "uint256"
        }
      ],
      "name": "getApprovalState",
      "outputs": [
        {
          "internalType": "uint256",
          "name": "",
          "type": "uint256"
        }
      ],
      "stateMutability": "view",
      "type": "function",
      "constant": true
    },
    {
      "inputs": [],
      "name": "getTransferRequests",
      "outputs": [
        {
          "components": [
            {
              "internalType": "uint256",
              "name": "amount",
              "type": "uint256"
            },
            {
              "internalType": "address",
              "name": "sender",
              "type": "address"
            },
            {
              "internalType": "address payable",
              "name": "receiver",
              "type": "address"
            },
            {
              "internalType": "uint256",
              "name": "approvals",
              "type": "uint256"
            },
            {
              "internalType": "bool",
              "name": "hasBeenSent",
              "type": "bool"
            },
            {
              "internalType": "uint256",
              "name": "id",
              "type": "uint256"
            },
            {
              "internalType": "uint256",
              "name": "timeOfCreation",
              "type": "uint256"
            }
          ],
          "internalType": "struct MultiSigWallet.Transfer[]",
          "name": "",
          "type": "tuple[]"
        }
      ],
      "stateMutability": "view",
      "type": "function",
      "constant": true
    }
  ],
  "bytecode": "0x608060405260006003556000600455600060055534801561001f57600080fd5b50336000806101000a81548173ffffffffffffffffffffffffffffffffffffffff021916908373ffffffffffffffffffffffffffffffffffffffff160217905550600160008054906101000a900473ffffffffffffffffffffffffffffffffffffffff169080600181540180825580915050600190039060005260206000200160009091909190916101000a81548173ffffffffffffffffffffffffffffffffffffffff021916908373ffffffffffffffffffffffffffffffffffffffff16021790555061295b806100f26000396000f3fe60806040526004361061011e5760003560e01c80637d5539c4116100a0578063a4d66daf11610064578063a4d66daf146103c2578063b80fd822146103ed578063d0e30db014610418578063e3d670d714610422578063ffabc6731461045f5761011e565b80637d5539c4146102ef578063893d20e8146103185780639852099c14610343578063985751881461036e578063a04ef145146103975761011e565b806359caecb5116100e757806359caecb5146102085780636896fabf146102315780636f9fb98a1461025c5780637278a1fa146102875780637720cdd8146102b25761011e565b8062ce8e3e14610123578063043437221461014e5780632e1a7d4d146101775780634c12fa47146101b457806352cda148146101dd575b600080fd5b34801561012f57600080fd5b5061013861049c565b6040516101459190612522565b60405180910390f35b34801561015a57600080fd5b5061017560048036038101906101709190612120565b61052a565b005b34801561018357600080fd5b5061019e60048036038101906101999190612185565b6106b1565b6040516101ab91906125e1565b60405180910390f35b3480156101c057600080fd5b506101db60048036038101906101d691906121ae565b610912565b005b3480156101e957600080fd5b506101f2610cb2565b6040516101ff91906125e1565b60405180910390f35b34801561021457600080fd5b5061022f600480360381019061022a9190612185565b610cb8565b005b34801561023d57600080fd5b50610246611116565b60405161025391906125e1565b60405180910390f35b34801561026857600080fd5b5061027161115d565b60405161027e91906125e1565b60405180910390f35b34801561029357600080fd5b5061029c611165565b6040516102a991906125e1565b60405180910390f35b3480156102be57600080fd5b506102d960048036038101906102d49190612185565b61116f565b6040516102e691906125e1565b60405180910390f35b3480156102fb57600080fd5b5061031660048036038101906103119190612185565b6111c4565b005b34801561032457600080fd5b5061032d61159f565b60405161033a91906124c2565b60405180910390f35b34801561034f57600080fd5b506103586115a7565b60405161036591906125e1565b60405180910390f35b34801561037a57600080fd5b5061039560048036038101906103909190612120565b6115ad565b005b3480156103a357600080fd5b506103ac611875565b6040516103b99190612544565b60405180910390f35b3480156103ce57600080fd5b506103d76119c3565b6040516103e491906125e1565b60405180910390f35b3480156103f957600080fd5b506104026119c9565b60405161040f91906125e1565b60405180910390f35b6104206119cf565b005b34801561042e57600080fd5b5061044960048036038101906104449190612120565b611a8c565b60405161045691906125e1565b60405180910390f35b34801561046b57600080fd5b5061048660048036038101906104819190612149565b611aa4565b6040516104939190612566565b60405180910390f35b6060600180548060200260200160405190810160405280929190818152602001828054801561052057602002820191906000526020600020905b8160009054906101000a900473ffffffffffffffffffffffffffffffffffffffff1673ffffffffffffffffffffffffffffffffffffffff16815260200190600101908083116104d6575b5050505050905090565b60005b600180549050811015610620578173ffffffffffffffffffffffffffffffffffffffff166001828154811061058b577f4e487b7100000000000000000000000000000000000000000000000000000000600052603260045260246000fd5b9060005260206000200160009054906101000a900473ffffffffffffffffffffffffffffffffffffffff1673ffffffffffffffffffffffffffffffffffffffff16141561060d576040517f08c379a0000000000000000000000000000000000000000000000000000000008152600401610604906125a1565b60405180910390fd5b808061061890612868565b91505061052d565b506004600180549050111561063457600080fd5b6001819080600181540180825580915050600190039060005260206000200160009091909190916101000a81548173ffffffffffffffffffffffffffffffffffffffff021916908373ffffffffffffffffffffffffffffffffffffffff160217905550600180805490506106a891906127a4565b60028190555050565b6000806000905060005b600180549050811015610778573373ffffffffffffffffffffffffffffffffffffffff1660018281548110610719577f4e487b7100000000000000000000000000000000000000000000000000000000600052603260045260246000fd5b9060005260206000200160009054906101000a900473ffffffffffffffffffffffffffffffffffffffff1673ffffffffffffffffffffffffffffffffffffffff16141561076557600191505b808061077090612868565b9150506106bb565b50600115158115151461078a57600080fd5b82600860003373ffffffffffffffffffffffffffffffffffffffff1673ffffffffffffffffffffffffffffffffffffffff1681526020019081526020016000205410156107d657600080fd5b3373ffffffffffffffffffffffffffffffffffffffff166108fc849081150290604051600060405180830381858888f1935050505015801561081c573d6000803e3d6000fd5b5082600860003373ffffffffffffffffffffffffffffffffffffffff1673ffffffffffffffffffffffffffffffffffffffff168152602001908152602001600020600082825461086c91906127a4565b925050819055507f911e5a424cda0aa25334a5bc6c8794ecafee939faa8aa2766de433541fdd840b3360045485426040516108aa94939291906124dd565b60405180910390a1600460008154809291906108c590612868565b9190505550600860003373ffffffffffffffffffffffffffffffffffffffff1673ffffffffffffffffffffffffffffffffffffffff16815260200190815260200160002054915050919050565b6000805b6001805490508110156109d3573373ffffffffffffffffffffffffffffffffffffffff1660018281548110610974577f4e487b7100000000000000000000000000000000000000000000000000000000600052603260045260246000fd5b9060005260206000200160009054906101000a900473ffffffffffffffffffffffffffffffffffffffff1673ffffffffffffffffffffffffffffffffffffffff1614156109c057600191505b80806109cb90612868565b915050610916565b5060011515811515146109e557600080fd5b600180805490501015610a2d576040517f08c379a0000000000000000000000000000000000000000000000000000000008152600401610a2490612581565b60405180910390fd5b60005b600180549050811015610aed578273ffffffffffffffffffffffffffffffffffffffff1660018281548110610a8e577f4e487b7100000000000000000000000000000000000000000000000000000000600052603260045260246000fd5b9060005260206000200160009054906101000a900473ffffffffffffffffffffffffffffffffffffffff1673ffffffffffffffffffffffffffffffffffffffff161415610ada57600080fd5b8080610ae590612868565b915050610a30565b507f099c4ec4ecfc26f7c8b27aeee5443f92120fa2c4e91ba6020369ae71a4d44278600554843385604051610b259493929190612686565b60405180910390a160066040518060e001604052808581526020013373ffffffffffffffffffffffffffffffffffffffff1681526020018473ffffffffffffffffffffffffffffffffffffffff1681526020016000815260200160001515815260200160055481526020014281525090806001815401808255809150506001900390600052602060002090600702016000909190919091506000820151816000015560208201518160010160006101000a81548173ffffffffffffffffffffffffffffffffffffffff021916908373ffffffffffffffffffffffffffffffffffffffff16021790555060408201518160020160006101000a81548173ffffffffffffffffffffffffffffffffffffffff021916908373ffffffffffffffffffffffffffffffffffffffff1602179055506060820151816003015560808201518160040160006101000a81548160ff02191690831515021790555060a0820151816005015560c08201518160060155505060056000815480929190610ca890612868565b9190505550505050565b60045481565b6000805b600180549050811015610d79573373ffffffffffffffffffffffffffffffffffffffff1660018281548110610d1a577f4e487b7100000000000000000000000000000000000000000000000000000000600052603260045260246000fd5b9060005260206000200160009054906101000a900473ffffffffffffffffffffffffffffffffffffffff1673ffffffffffffffffffffffffffffffffffffffff161415610d6657600191505b8080610d7190612868565b915050610cbc565b506001151581151514610d8b57600080fd5b600180805490501015610dd3576040517f08c379a0000000000000000000000000000000000000000000000000000000008152600401610dca90612581565b60405180910390fd5b60008060005b600680549050811015610e63578460068281548110610e21577f4e487b7100000000000000000000000000000000000000000000000000000000600052603260045260246000fd5b9060005260206000209060070201600501541415610e425760019150610e63565b8280610e4d90612868565b9350508080610e5b90612868565b915050610dd9565b50600015158115151415610e7657600080fd5b60066001600680549050610e8a91906127a4565b81548110610ec1577f4e487b7100000000000000000000000000000000000000000000000000000000600052603260045260246000fd5b906000526020600020906007020160068381548110610f09577f4e487b7100000000000000000000000000000000000000000000000000000000600052603260045260246000fd5b9060005260206000209060070201600082015481600001556001820160009054906101000a900473ffffffffffffffffffffffffffffffffffffffff168160010160006101000a81548173ffffffffffffffffffffffffffffffffffffffff021916908373ffffffffffffffffffffffffffffffffffffffff1602179055506002820160009054906101000a900473ffffffffffffffffffffffffffffffffffffffff168160020160006101000a81548173ffffffffffffffffffffffffffffffffffffffff021916908373ffffffffffffffffffffffffffffffffffffffff160217905550600382015481600301556004820160009054906101000a900460ff168160040160006101000a81548160ff02191690831515021790555060058201548160050155600682015481600601559050506006805480611075577f4e487b7100000000000000000000000000000000000000000000000000000000600052603160045260246000fd5b60019003818190600052602060002090600702016000808201600090556001820160006101000a81549073ffffffffffffffffffffffffffffffffffffffff02191690556002820160006101000a81549073ffffffffffffffffffffffffffffffffffffffff021916905560038201600090556004820160006101000a81549060ff0219169055600582016000905560068201600090555050905550505050565b6000600860003373ffffffffffffffffffffffffffffffffffffffff1673ffffffffffffffffffffffffffffffffffffffff16815260200190815260200160002054905090565b600047905090565b6000600254905090565b6000600682815481106111ab577f4e487b7100000000000000000000000000000000000000000000000000000000600052603260045260246000fd5b9060005260206000209060070201600301549050919050565b6000805b600180549050811015611285573373ffffffffffffffffffffffffffffffffffffffff1660018281548110611226577f4e487b7100000000000000000000000000000000000000000000000000000000600052603260045260246000fd5b9060005260206000200160009054906101000a900473ffffffffffffffffffffffffffffffffffffffff1673ffffffffffffffffffffffffffffffffffffffff16141561127257600191505b808061127d90612868565b9150506111c8565b50600115158115151461129757600080fd5b6001808054905010156112df576040517f08c379a00000000000000000000000000000000000000000000000000000000081526004016112d690612581565b60405180910390fd5b60001515600760003373ffffffffffffffffffffffffffffffffffffffff1673ffffffffffffffffffffffffffffffffffffffff168152602001908152602001600020600084815260200190815260200160002060009054906101000a900460ff16151514611383576040517f08c379a000000000000000000000000000000000000000000000000000000000815260040161137a906125c1565b60405180910390fd5b60001515600683815481106113c1577f4e487b7100000000000000000000000000000000000000000000000000000000600052603260045260246000fd5b906000526020600020906007020160040160009054906101000a900460ff161515146113ec57600080fd5b6001600760003373ffffffffffffffffffffffffffffffffffffffff1673ffffffffffffffffffffffffffffffffffffffff168152602001908152602001600020600084815260200190815260200160002060006101000a81548160ff0219169083151502179055506006828154811061148f577f4e487b7100000000000000000000000000000000000000000000000000000000600052603260045260246000fd5b906000526020600020906007020160030160008154809291906114b190612868565b91905055507ffec9d12d15ee8c8b836a58347cb0d4980db38411bcd0b83662cee48fb20b6dee8260068481548110611512577f4e487b7100000000000000000000000000000000000000000000000000000000600052603260045260246000fd5b906000526020600020906007020160030154336040516115349392919061264f565b60405180910390a160025460068381548110611579577f4e487b7100000000000000000000000000000000000000000000000000000000600052603260045260246000fd5b906000526020600020906007020160030154141561159b5761159a82611ad3565b5b5050565b600033905090565b60035481565b600080600090505b60018054905081101561170d578273ffffffffffffffffffffffffffffffffffffffff1660018281548110611613577f4e487b7100000000000000000000000000000000000000000000000000000000600052603260045260246000fd5b9060005260206000200160009054906101000a900473ffffffffffffffffffffffffffffffffffffffff1673ffffffffffffffffffffffffffffffffffffffff1614156116fa578091508273ffffffffffffffffffffffffffffffffffffffff16600182815481106116ae577f4e487b7100000000000000000000000000000000000000000000000000000000600052603260045260246000fd5b9060005260206000200160009054906101000a900473ffffffffffffffffffffffffffffffffffffffff1673ffffffffffffffffffffffffffffffffffffffff16146116f957600080fd5b5b808061170590612868565b9150506115b5565b50600180808054905061172091906127a4565b81548110611757577f4e487b7100000000000000000000000000000000000000000000000000000000600052603260045260246000fd5b9060005260206000200160009054906101000a900473ffffffffffffffffffffffffffffffffffffffff16600182815481106117bc577f4e487b7100000000000000000000000000000000000000000000000000000000600052603260045260246000fd5b9060005260206000200160006101000a81548173ffffffffffffffffffffffffffffffffffffffff021916908373ffffffffffffffffffffffffffffffffffffffff160217905550600180548061183c577f4e487b7100000000000000000000000000000000000000000000000000000000600052603160045260246000fd5b6001900381819060005260206000200160006101000a81549073ffffffffffffffffffffffffffffffffffffffff021916905590555050565b60606006805480602002602001604051908101604052809291908181526020016000905b828210156119ba57838290600052602060002090600702016040518060e0016040529081600082015481526020016001820160009054906101000a900473ffffffffffffffffffffffffffffffffffffffff1673ffffffffffffffffffffffffffffffffffffffff1673ffffffffffffffffffffffffffffffffffffffff1681526020016002820160009054906101000a900473ffffffffffffffffffffffffffffffffffffffff1673ffffffffffffffffffffffffffffffffffffffff1673ffffffffffffffffffffffffffffffffffffffff168152602001600382015481526020016004820160009054906101000a900460ff161515151581526020016005820154815260200160068201548152505081526020019060010190611899565b50505050905090565b60025481565b60055481565b60003410156119dd57600080fd5b34600860003373ffffffffffffffffffffffffffffffffffffffff1673ffffffffffffffffffffffffffffffffffffffff1681526020019081526020016000206000828254611a2c919061274e565b925050819055507f2e0c7c0c884d7be5e05e90478e8e5e8e89b7fccac8131a5107aa200f79203f25336003543442604051611a6a94939291906124dd565b60405180910390a160036000815480929190611a8590612868565b9190505550565b60086020528060005260406000206000915090505481565b60076020528160005260406000206020528060005260406000206000915091509054906101000a900460ff1681565b600160068281548110611b0f577f4e487b7100000000000000000000000000000000000000000000000000000000600052603260045260246000fd5b906000526020600020906007020160040160006101000a81548160ff02191690831515021790555060068181548110611b71577f4e487b7100000000000000000000000000000000000000000000000000000000600052603260045260246000fd5b9060005260206000209060070201600001546008600060068481548110611bc1577f4e487b7100000000000000000000000000000000000000000000000000000000600052603260045260246000fd5b906000526020600020906007020160010160009054906101000a900473ffffffffffffffffffffffffffffffffffffffff1673ffffffffffffffffffffffffffffffffffffffff1673ffffffffffffffffffffffffffffffffffffffff1681526020019081526020016000206000828254611c3c91906127a4565b9250508190555060068181548110611c7d577f4e487b7100000000000000000000000000000000000000000000000000000000600052603260045260246000fd5b9060005260206000209060070201600001546008600060068481548110611ccd577f4e487b7100000000000000000000000000000000000000000000000000000000600052603260045260246000fd5b906000526020600020906007020160020160009054906101000a900473ffffffffffffffffffffffffffffffffffffffff1673ffffffffffffffffffffffffffffffffffffffff1673ffffffffffffffffffffffffffffffffffffffff1681526020019081526020016000206000828254611d48919061274e565b925050819055507f62d4a4c05d024bc6ec4da7d8bee4346837f58fcbd872e30cd69f37ca55b6e41f813360068481548110611dac577f4e487b7100000000000000000000000000000000000000000000000000000000600052603260045260246000fd5b906000526020600020906007020160020160009054906101000a900473ffffffffffffffffffffffffffffffffffffffff1660068581548110611e18577f4e487b7100000000000000000000000000000000000000000000000000000000600052603260045260246000fd5b90600052602060002090600702016000015442604051611e3c9594939291906125fc565b60405180910390a160066001600680549050611e5891906127a4565b81548110611e8f577f4e487b7100000000000000000000000000000000000000000000000000000000600052603260045260246000fd5b906000526020600020906007020160068281548110611ed7577f4e487b7100000000000000000000000000000000000000000000000000000000600052603260045260246000fd5b9060005260206000209060070201600082015481600001556001820160009054906101000a900473ffffffffffffffffffffffffffffffffffffffff168160010160006101000a81548173ffffffffffffffffffffffffffffffffffffffff021916908373ffffffffffffffffffffffffffffffffffffffff1602179055506002820160009054906101000a900473ffffffffffffffffffffffffffffffffffffffff168160020160006101000a81548173ffffffffffffffffffffffffffffffffffffffff021916908373ffffffffffffffffffffffffffffffffffffffff160217905550600382015481600301556004820160009054906101000a900460ff168160040160006101000a81548160ff02191690831515021790555060058201548160050155600682015481600601559050506006805480612043577f4e487b7100000000000000000000000000000000000000000000000000000000600052603160045260246000fd5b60019003818190600052602060002090600702016000808201600090556001820160006101000a81549073ffffffffffffffffffffffffffffffffffffffff02191690556002820160006101000a81549073ffffffffffffffffffffffffffffffffffffffff021916905560038201600090556004820160006101000a81549060ff0219169055600582016000905560068201600090555050905550565b6000813590506120f0816128e0565b92915050565b600081359050612105816128f7565b92915050565b60008135905061211a8161290e565b92915050565b60006020828403121561213257600080fd5b6000612140848285016120e1565b91505092915050565b6000806040838503121561215c57600080fd5b600061216a858286016120e1565b925050602061217b8582860161210b565b9150509250929050565b60006020828403121561219757600080fd5b60006121a58482850161210b565b91505092915050565b600080604083850312156121c157600080fd5b60006121cf8582860161210b565b92505060206121e0858286016120f6565b9150509250929050565b60006121f68383612238565b60208301905092915050565b600061220e8383612416565b60e08301905092915050565b61222381612832565b82525050565b612232816127ea565b82525050565b612241816127d8565b82525050565b612250816127d8565b82525050565b6000612261826126eb565b61226b818561271b565b9350612276836126cb565b8060005b838110156122a757815161228e88826121ea565b975061229983612701565b92505060018101905061227a565b5085935050505092915050565b60006122bf826126f6565b6122c9818561272c565b93506122d4836126db565b8060005b838110156123055781516122ec8882612202565b97506122f78361270e565b9250506001810190506122d8565b5085935050505092915050565b61231b816127fc565b82525050565b61232a816127fc565b82525050565b600061233d60218361273d565b91507f6e65656420746f2068617665206d6f7265207468616e206f6e65207369676e6560008301527f72000000000000000000000000000000000000000000000000000000000000006020830152604082019050919050565b60006123a360128361273d565b91507f416c7265616479207265676973746572656400000000000000000000000000006000830152602082019050919050565b60006123e3601b8361273d565b91507f7472616e73616374696f6e20616c7261647920617070726f76656400000000006000830152602082019050919050565b60e08201600082015161242c60008501826124a4565b50602082015161243f6020850182612238565b5060408201516124526040850182612229565b50606082015161246560608501826124a4565b5060808201516124786080850182612312565b5060a082015161248b60a08501826124a4565b5060c082015161249e60c08501826124a4565b50505050565b6124ad81612828565b82525050565b6124bc81612828565b82525050565b60006020820190506124d76000830184612247565b92915050565b60006080820190506124f26000830187612247565b6124ff60208301866124b3565b61250c60408301856124b3565b61251960608301846124b3565b95945050505050565b6000602082019050818103600083015261253c8184612256565b905092915050565b6000602082019050818103600083015261255e81846122b4565b905092915050565b600060208201905061257b6000830184612321565b92915050565b6000602082019050818103600083015261259a81612330565b9050919050565b600060208201905081810360008301526125ba81612396565b9050919050565b600060208201905081810360008301526125da816123d6565b9050919050565b60006020820190506125f660008301846124b3565b92915050565b600060a08201905061261160008301886124b3565b61261e6020830187612247565b61262b604083018661221a565b61263860608301856124b3565b61264560808301846124b3565b9695505050505050565b600060608201905061266460008301866124b3565b61267160208301856124b3565b61267e6040830184612247565b949350505050565b600060808201905061269b60008301876124b3565b6126a860208301866124b3565b6126b56040830185612247565b6126c2606083018461221a565b95945050505050565b6000819050602082019050919050565b6000819050602082019050919050565b600081519050919050565b600081519050919050565b6000602082019050919050565b6000602082019050919050565b600082825260208201905092915050565b600082825260208201905092915050565b600082825260208201905092915050565b600061275982612828565b915061276483612828565b9250827fffffffffffffffffffffffffffffffffffffffffffffffffffffffffffffffff03821115612799576127986128b1565b5b828201905092915050565b60006127af82612828565b91506127ba83612828565b9250828210156127cd576127cc6128b1565b5b828203905092915050565b60006127e382612808565b9050919050565b60006127f582612808565b9050919050565b60008115159050919050565b600073ffffffffffffffffffffffffffffffffffffffff82169050919050565b6000819050919050565b600061283d82612844565b9050919050565b600061284f82612856565b9050919050565b600061286182612808565b9050919050565b600061287382612828565b91507fffffffffffffffffffffffffffffffffffffffffffffffffffffffffffffffff8214156128a6576128a56128b1565b5b600182019050919050565b7f4e487b7100000000000000000000000000000000000000000000000000000000600052601160045260246000fd5b6128e9816127d8565b81146128f457600080fd5b50565b612900816127ea565b811461290b57600080fd5b50565b61291781612828565b811461292257600080fd5b5056fea264697066735822122043d6503674eb57ecf9c8f259b09cec0d6850ef476382f678f2863e320f7f4a9f64736f6c63430008000033",
  "immutableReferences": {},
  "source": "//SPDX-License-Identifier: MIT\r\npragma solidity 0.8.0;\r\n\r\n//we need this for the get transferRequests() function\r\n//abicode allows us to print structs\r\npragma abicoder v2;\r\n\r\n\r\ncontract MultiSigWallet {\r\n\r\n    //address array to store owners\r\n    address mainOwner;\r\n    address[] owners;\r\n    //conensus limit for approvals\r\n    uint public limit;\r\n    uint256 public depositId = 0;\r\n    uint256 public withdrawalId = 0;\r\n    uint256 public transferId = 0;\r\n\r\n    constructor() {\r\n        mainOwner = msg.sender;\r\n        owners.push(mainOwner);\r\n    }\r\n    \r\n    //set up data structures. each trasnfer has diff properties\r\n    //like amount, the reviever, how many approvals it has, the state of the\r\n    //transfer etc\r\n    struct Transfer{\r\n        uint amount;\r\n        address sender;\r\n        address payable receiver;\r\n        uint approvals;\r\n        bool hasBeenSent;\r\n        uint id;\r\n        uint timeOfCreation;\r\n    }\r\n    \r\n    \r\n    \r\n    //here we create instances of our structs so we can keep logs\r\n    Transfer[] transferRequests;\r\n    \r\n    \r\n    //double mpping which maps an address and the transaction id to an approval boolean\r\n    //false if not approved true if so\r\n    mapping(address => mapping(uint => bool)) public approvals;\r\n    //balance mapping which maps user address ot their account balance\r\n    mapping(address => uint) public balance;\r\n    \r\n    //modifier which we can lace in function definitions to restrict access of that \r\n    //function to the wallet owners\r\n    modifier onlyOwners(){\r\n        bool owner = false;\r\n        for(uint i=0; i<owners.length;i++){\r\n            if(owners[i] == msg.sender){\r\n                owner = true;\r\n            }\r\n        }\r\n        require(owner == true);\r\n        _;\r\n    }\r\n    \r\n    //evets\r\n    event fundsDeposited(address to, uint256 id, uint amount, uint256 timeOfDeposit);\r\n    event fundsWithdrawed(address to, uint256 id, uint amount, uint256 timeOfWithdrawal);\r\n    event TransferRequestCreated(uint _id, uint _amount, address _initiator, address _receiver);\r\n    event ApprovalReceived(uint _id, uint _approvals, address _approver);\r\n    event TransferApproved(uint _id);\r\n    // event t(uint id, address sender, address receiver, uint amount, uint timeOfTransfer);\r\n    event transferRequestApproved(uint id, address sender, address receiver, uint amount, uint timeOfTransfer);\r\n    \r\n    \r\n    //add user function. require owner is not already in the wallet array\r\n    function addUsers(address _owners) public\r\n    {\r\n        for (uint user = 0; user < owners.length; user++)\r\n        {\r\n            require(owners[user] != _owners, \"Already registered\");\r\n        }\r\n        require(owners.length <= 4);\r\n        owners.push(_owners);\r\n        \r\n        //from the current array calculate the value of minimum consensus\r\n        limit = owners.length - 1;\r\n    }\r\n    \r\n    //remove user require the address we pass in is the address were removing\r\n    function removeUser(address _user) public\r\n    {\r\n        uint user_index;\r\n        for(uint user = 0; user < owners.length; user++)\r\n        {\r\n            if (owners[user] == _user)\r\n            {   \r\n                user_index = user;\r\n                require(owners[user] == _user);\r\n            }\r\n        }\r\n        \r\n        owners[user_index] = owners[owners.length - 1];\r\n        owners.pop();\r\n        //owners;\r\n    }\r\n    \r\n    \r\n    //gets wallet users\r\n    function getUsers() public view returns(address[] memory)\r\n    {\r\n        return owners;\r\n    }\r\n    \r\n    function getApprovalLimit() public view returns (uint)\r\n    {\r\n        return (limit);\r\n    }\r\n    \r\n    \r\n    \r\n    //deposit function. require deposit amount i sgreater than 0 and withdrawalRequests//the wallet oweners array is greater than 1\r\n    function deposit() public payable\r\n    {\r\n        require(msg.value >= 0);\r\n        // require(owners.length > 1, \"need to have more than one signer\");\r\n    \r\n        balance[msg.sender] += msg.value;\r\n        emit fundsDeposited(msg.sender, depositId, msg.value, block.timestamp);\r\n        depositId++;\r\n    }\r\n    \r\n    \r\n    //next we want to make a get balance function\r\n    function getAccountBalance() public view returns(uint)\r\n    {\r\n        return balance[msg.sender];\r\n    }\r\n    \r\n    //get contratc balance\r\n    function getContractBalance() public view returns(uint)\r\n    {\r\n        return address(this).balance;\r\n    }\r\n    \r\n    \r\n    //next we want to make q function to return the address of the wallet owner\r\n    function getOwner() public view returns(address)\r\n    {\r\n        return msg.sender;\r\n    }\r\n    \r\n    \r\n    //Create an instance of the Transfer struct and add it to the transferRequests array\r\n    function createTransfer(uint _amount, address payable _receiver) public onlyOwners {\r\n        require(owners.length >= 1, \"need to have more than one signer\");\r\n        //require(msg.sender != _receiver);\r\n        for (uint i = 0; i < owners.length; i++)\r\n        {\r\n            require(owners[i] != _receiver);\r\n        //   if  (owners[i] == _receiver)\r\n        //   {\r\n        //       revert();\r\n        //   }\r\n        }\r\n        emit TransferRequestCreated(transferId, _amount, msg.sender, _receiver);\r\n        transferRequests.push(\r\n            Transfer(_amount, msg.sender, _receiver, 0, false, transferId, block.timestamp)\r\n        );\r\n        transferId++;\r\n        \r\n    }\r\n\r\n\r\n    function cancelTransfer(uint _id) public onlyOwners {\r\n        require(owners.length >= 1, \"need to have more than one signer\");\r\n\r\n        uint counter = 0;\r\n        bool hasBeenFound = false;\r\n        for(uint i = 0; i < transferRequests.length; i++) {\r\n           if(transferRequests[i].id == _id) {\r\n               hasBeenFound = true;\r\n               break;\r\n           }\r\n           counter++;\r\n        }\r\n        if(hasBeenFound == false) revert();\r\n\r\n        transferRequests[counter] = transferRequests[transferRequests.length - 1];\r\n        transferRequests.pop();\r\n\r\n\r\n    }\r\n    \r\n    \r\n    \r\n    \r\n    function Transferapprove(uint _id) public onlyOwners {\r\n        require(owners.length >= 1, \"need to have more than one signer\");\r\n        require(approvals[msg.sender][_id] == false, \"transaction alrady approved\");\r\n        require(transferRequests[_id].hasBeenSent == false);\r\n        \r\n        // if ( transferRequests[_id].approvals => limit){\r\n        //     approvals[msg.sender][_id] = true;\r\n        // }\r\n        approvals[msg.sender][_id] = true;\r\n        transferRequests[_id].approvals++;\r\n        \r\n        emit ApprovalReceived(_id, transferRequests[_id].approvals, msg.sender);\r\n\r\n        if(transferRequests[_id].approvals == limit) {\r\n\r\n            // emit transferRequestApproved(_id, msg.sender, transferRequests[_id].receiver, transferRequests[_id].amount, block.timestamp);\r\n            TransferFunds(_id);\r\n        }\r\n\r\n        \r\n        \r\n    }\r\n    \r\n    \r\n    \r\n    \r\n     //now we need to create a function to actually transfer the funds after the\r\n    //transfer has been recieved\r\n    function TransferFunds(uint _id) private\r\n    {\r\n        // require(owners.length >= 1, \"need to have more than one signer\");\r\n        // require(transferRequests[_id].approvals == limit);\r\n        \r\n       \r\n        transferRequests[_id].hasBeenSent = true;\r\n        balance[transferRequests[_id].sender] -= transferRequests[_id].amount;\r\n        balance[transferRequests[_id].receiver] += transferRequests[_id].amount;\r\n        \r\n        emit transferRequestApproved(_id, msg.sender, transferRequests[_id].receiver, transferRequests[_id].amount, block.timestamp);\r\n\r\n        transferRequests[_id] = transferRequests[transferRequests.length - 1];\r\n        transferRequests.pop();\r\n        \r\n        // return balance[transferRequests[_id].sender];\r\n    }\r\n    \r\n    //after transfer is called our balance i < transaction amount thus we cannot withfraw\r\n    //update amount after transfer function.\r\n    function withdraw(uint _amount) public onlyOwners returns (uint)\r\n    {\r\n       \r\n        require(balance[msg.sender] >= _amount);\r\n        \r\n        payable(msg.sender).transfer(_amount);\r\n        balance[msg.sender] -= _amount;\r\n\r\n        emit fundsWithdrawed(msg.sender, withdrawalId, _amount, block.timestamp);\r\n        withdrawalId++;\r\n        \r\n        return balance[msg.sender];\r\n        \r\n    }\r\n    \r\n    \r\n    function getApprovalState(uint _id) public view returns(uint)\r\n    {\r\n        return transferRequests[_id].approvals;\r\n    }\r\n    \r\n    \r\n    //Should return all transfer requests\r\n    function getTransferRequests() public view returns (Transfer[] memory){\r\n       \r\n        return transferRequests;\r\n    }\r\n}",
  "sourcePath": "C:/Users/evanMcGraneTest/Documents/EthereumProgramming/MutiSigWalletApp/contracts/Multisig.sol",
  "compiler": {
    "name": "solc",
    "version": "0.8.0+commit.c7dfd78e.Emscripten.clang"
  },
  "schemaVersion": "3.3.4",
  "updatedAt": "2021-08-13T12:12:22.678Z",
  "networkType": "ethereum",
  "devdoc": {
    "kind": "dev",
    "methods": {},
    "version": 1
  },
  "userdoc": {
    "kind": "user",
    "methods": {},
    "version": 1
  }
}