{
  "contractName": "MultiSigWallet",
  "abi": [
    {
      "inputs": [
        {
          "internalType": "address",
          "name": "_owner",
          "type": "address"
        }
      ],
      "stateMutability": "nonpayable",
      "type": "constructor"
    },
    {
      "anonymous": false,
      "inputs": [
        {
          "indexed": false,
          "internalType": "string",
          "name": "ticker",
          "type": "string"
        },
        {
          "indexed": false,
          "internalType": "uint256",
          "name": "id",
          "type": "uint256"
        },
        {
          "indexed": false,
          "internalType": "uint256",
          "name": "_approvals",
          "type": "uint256"
        },
        {
          "indexed": false,
          "internalType": "address",
          "name": "_approver",
          "type": "address"
        }
      ],
      "name": "ApprovalReceived",
      "type": "event"
    },
    {
      "anonymous": false,
      "inputs": [
        {
          "indexed": false,
          "internalType": "string",
          "name": "ticker",
          "type": "string"
        },
        {
          "indexed": false,
          "internalType": "uint256",
          "name": "id",
          "type": "uint256"
        }
      ],
      "name": "TransferApproved",
      "type": "event"
    },
    {
      "anonymous": false,
      "inputs": [
        {
          "indexed": false,
          "internalType": "string",
          "name": "ticker",
          "type": "string"
        },
        {
          "indexed": false,
          "internalType": "uint256",
          "name": "id",
          "type": "uint256"
        },
        {
          "indexed": false,
          "internalType": "uint256",
          "name": "_amount",
          "type": "uint256"
        },
        {
          "indexed": false,
          "internalType": "address",
          "name": "_initiator",
          "type": "address"
        },
        {
          "indexed": false,
          "internalType": "address",
          "name": "_receiver",
          "type": "address"
        }
      ],
      "name": "TransferRequestCreated",
      "type": "event"
    },
    {
      "anonymous": false,
      "inputs": [
        {
          "indexed": false,
          "internalType": "string",
          "name": "ticker",
          "type": "string"
        },
        {
          "indexed": false,
          "internalType": "address",
          "name": "from",
          "type": "address"
        },
        {
          "indexed": false,
          "internalType": "uint256",
          "name": "id",
          "type": "uint256"
        },
        {
          "indexed": false,
          "internalType": "uint256",
          "name": "amount",
          "type": "uint256"
        },
        {
          "indexed": false,
          "internalType": "uint256",
          "name": "timeStamp",
          "type": "uint256"
        }
      ],
      "name": "fundsDeposited",
      "type": "event"
    },
    {
      "anonymous": false,
      "inputs": [
        {
          "indexed": false,
          "internalType": "string",
          "name": "ticker",
          "type": "string"
        },
        {
          "indexed": false,
          "internalType": "address",
          "name": "from",
          "type": "address"
        },
        {
          "indexed": false,
          "internalType": "uint256",
          "name": "id",
          "type": "uint256"
        },
        {
          "indexed": false,
          "internalType": "uint256",
          "name": "amount",
          "type": "uint256"
        },
        {
          "indexed": false,
          "internalType": "uint256",
          "name": "timeStamp",
          "type": "uint256"
        }
      ],
      "name": "fundsWithdrawed",
      "type": "event"
    },
    {
      "anonymous": false,
      "inputs": [
        {
          "indexed": false,
          "internalType": "string",
          "name": "ticker",
          "type": "string"
        },
        {
          "indexed": false,
          "internalType": "uint256",
          "name": "id",
          "type": "uint256"
        },
        {
          "indexed": false,
          "internalType": "address",
          "name": "sender",
          "type": "address"
        },
        {
          "indexed": false,
          "internalType": "address",
          "name": "receiver",
          "type": "address"
        },
        {
          "indexed": false,
          "internalType": "uint256",
          "name": "amount",
          "type": "uint256"
        },
        {
          "indexed": false,
          "internalType": "uint256",
          "name": "timeStamp",
          "type": "uint256"
        }
      ],
      "name": "transferRequestApproved",
      "type": "event"
    },
    {
      "anonymous": false,
      "inputs": [
        {
          "indexed": false,
          "internalType": "string",
          "name": "ticker",
          "type": "string"
        },
        {
          "indexed": false,
          "internalType": "uint256",
          "name": "id",
          "type": "uint256"
        },
        {
          "indexed": false,
          "internalType": "address",
          "name": "sender",
          "type": "address"
        },
        {
          "indexed": false,
          "internalType": "address",
          "name": "receiver",
          "type": "address"
        },
        {
          "indexed": false,
          "internalType": "uint256",
          "name": "amount",
          "type": "uint256"
        },
        {
          "indexed": false,
          "internalType": "uint256",
          "name": "timeStamp",
          "type": "uint256"
        }
      ],
      "name": "transferRequestCancelled",
      "type": "event"
    },
    {
      "inputs": [
        {
          "internalType": "address",
          "name": "",
          "type": "address"
        },
        {
          "internalType": "string",
          "name": "",
          "type": "string"
        }
      ],
      "name": "ERC20Tokenbalances",
      "outputs": [
        {
          "internalType": "uint256",
          "name": "",
          "type": "uint256"
        }
      ],
      "stateMutability": "view",
      "type": "function",
      "constant": true
    },
    {
      "inputs": [
        {
          "internalType": "address",
          "name": "",
          "type": "address"
        },
        {
          "internalType": "uint256",
          "name": "",
          "type": "uint256"
        }
      ],
      "name": "approvals",
      "outputs": [
        {
          "internalType": "bool",
          "name": "",
          "type": "bool"
        }
      ],
      "stateMutability": "view",
      "type": "function",
      "constant": true
    },
    {
      "inputs": [
        {
          "internalType": "address",
          "name": "",
          "type": "address"
        },
        {
          "internalType": "string",
          "name": "",
          "type": "string"
        }
      ],
      "name": "balances",
      "outputs": [
        {
          "internalType": "uint256",
          "name": "",
          "type": "uint256"
        }
      ],
      "stateMutability": "view",
      "type": "function",
      "constant": true
    },
    {
      "inputs": [],
      "name": "depositId",
      "outputs": [
        {
          "internalType": "uint256",
          "name": "",
          "type": "uint256"
        }
      ],
      "stateMutability": "view",
      "type": "function",
      "constant": true
    },
    {
      "inputs": [],
      "name": "limit",
      "outputs": [
        {
          "internalType": "uint256",
          "name": "",
          "type": "uint256"
        }
      ],
      "stateMutability": "view",
      "type": "function",
      "constant": true
    },
    {
      "inputs": [
        {
          "internalType": "uint256",
          "name": "",
          "type": "uint256"
        }
      ],
      "name": "tokenList",
      "outputs": [
        {
          "internalType": "string",
          "name": "",
          "type": "string"
        }
      ],
      "stateMutability": "view",
      "type": "function",
      "constant": true
    },
    {
      "inputs": [
        {
          "internalType": "string",
          "name": "",
          "type": "string"
        }
      ],
      "name": "tokenMapping",
      "outputs": [
        {
          "internalType": "string",
          "name": "ticker",
          "type": "string"
        },
        {
          "internalType": "address",
          "name": "tokenAddress",
          "type": "address"
        }
      ],
      "stateMutability": "view",
      "type": "function",
      "constant": true
    },
    {
      "inputs": [],
      "name": "transferId",
      "outputs": [
        {
          "internalType": "uint256",
          "name": "",
          "type": "uint256"
        }
      ],
      "stateMutability": "view",
      "type": "function",
      "constant": true
    },
    {
      "inputs": [],
      "name": "withdrawalId",
      "outputs": [
        {
          "internalType": "uint256",
          "name": "",
          "type": "uint256"
        }
      ],
      "stateMutability": "view",
      "type": "function",
      "constant": true
    },
    {
      "inputs": [
        {
          "internalType": "string",
          "name": "ticker",
          "type": "string"
        },
        {
          "internalType": "address",
          "name": "tokenAddress",
          "type": "address"
        }
      ],
      "name": "addToken",
      "outputs": [],
      "stateMutability": "nonpayable",
      "type": "function"
    },
    {
      "inputs": [
        {
          "internalType": "address",
          "name": "_owners",
          "type": "address"
        },
        {
          "internalType": "address",
          "name": "_address",
          "type": "address"
        },
        {
          "internalType": "address",
          "name": "walletAddress",
          "type": "address"
        }
      ],
      "name": "addUsers",
      "outputs": [],
      "stateMutability": "nonpayable",
      "type": "function"
    },
    {
      "inputs": [
        {
          "internalType": "address",
          "name": "_user",
          "type": "address"
        }
      ],
      "name": "removeUser",
      "outputs": [],
      "stateMutability": "nonpayable",
      "type": "function"
    },
    {
      "inputs": [],
      "name": "getUsers",
      "outputs": [
        {
          "internalType": "address[]",
          "name": "",
          "type": "address[]"
        }
      ],
      "stateMutability": "view",
      "type": "function",
      "constant": true
    },
    {
      "inputs": [],
      "name": "getApprovalLimit",
      "outputs": [
        {
          "internalType": "uint256",
          "name": "",
          "type": "uint256"
        }
      ],
      "stateMutability": "view",
      "type": "function",
      "constant": true
    },
    {
      "inputs": [],
      "name": "deposit",
      "outputs": [],
      "stateMutability": "payable",
      "type": "function",
      "payable": true
    },
    {
      "inputs": [
        {
          "internalType": "uint256",
          "name": "amount",
          "type": "uint256"
        },
        {
          "internalType": "string",
          "name": "ticker",
          "type": "string"
        }
      ],
      "name": "depositERC20Token",
      "outputs": [
        {
          "internalType": "bool",
          "name": "_success",
          "type": "bool"
        }
      ],
      "stateMutability": "nonpayable",
      "type": "function"
    },
    {
      "inputs": [
        {
          "internalType": "uint256",
          "name": "_amount",
          "type": "uint256"
        }
      ],
      "name": "withdraw",
      "outputs": [
        {
          "internalType": "uint256",
          "name": "",
          "type": "uint256"
        }
      ],
      "stateMutability": "nonpayable",
      "type": "function"
    },
    {
      "inputs": [
        {
          "internalType": "uint256",
          "name": "amount",
          "type": "uint256"
        },
        {
          "internalType": "string",
          "name": "ticker",
          "type": "string"
        }
      ],
      "name": "withdrawERC20Token",
      "outputs": [],
      "stateMutability": "nonpayable",
      "type": "function"
    },
    {
      "inputs": [
        {
          "internalType": "string",
          "name": "ticker",
          "type": "string"
        }
      ],
      "name": "getAccountBalance",
      "outputs": [
        {
          "internalType": "uint256",
          "name": "",
          "type": "uint256"
        }
      ],
      "stateMutability": "view",
      "type": "function",
      "constant": true
    },
    {
      "inputs": [],
      "name": "getContractBalance",
      "outputs": [
        {
          "internalType": "uint256",
          "name": "",
          "type": "uint256"
        }
      ],
      "stateMutability": "view",
      "type": "function",
      "constant": true
    },
    {
      "inputs": [],
      "name": "getOwner",
      "outputs": [
        {
          "internalType": "address",
          "name": "",
          "type": "address"
        }
      ],
      "stateMutability": "view",
      "type": "function",
      "constant": true
    },
    {
      "inputs": [
        {
          "internalType": "string",
          "name": "_ticker",
          "type": "string"
        },
        {
          "internalType": "uint256",
          "name": "_amount",
          "type": "uint256"
        },
        {
          "internalType": "address payable",
          "name": "_receiver",
          "type": "address"
        }
      ],
      "name": "createTransfer",
      "outputs": [],
      "stateMutability": "nonpayable",
      "type": "function"
    },
    {
      "inputs": [
        {
          "internalType": "string",
          "name": "ticker",
          "type": "string"
        },
        {
          "internalType": "uint256",
          "name": "_id",
          "type": "uint256"
        }
      ],
      "name": "cancelTransfer",
      "outputs": [],
      "stateMutability": "nonpayable",
      "type": "function"
    },
    {
      "inputs": [
        {
          "internalType": "string",
          "name": "ticker",
          "type": "string"
        },
        {
          "internalType": "uint256",
          "name": "_id",
          "type": "uint256"
        }
      ],
      "name": "Transferapprove",
      "outputs": [],
      "stateMutability": "nonpayable",
      "type": "function"
    },
    {
      "inputs": [
        {
          "internalType": "uint256",
          "name": "_id",
          "type": "uint256"
        }
      ],
      "name": "getApprovalState",
      "outputs": [
        {
          "internalType": "uint256",
          "name": "",
          "type": "uint256"
        }
      ],
      "stateMutability": "view",
      "type": "function",
      "constant": true
    },
    {
      "inputs": [],
      "name": "getTransferRequests",
      "outputs": [
        {
          "components": [
            {
              "internalType": "string",
              "name": "ticker",
              "type": "string"
            },
            {
              "internalType": "uint256",
              "name": "amount",
              "type": "uint256"
            },
            {
              "internalType": "address",
              "name": "sender",
              "type": "address"
            },
            {
              "internalType": "address payable",
              "name": "receiver",
              "type": "address"
            },
            {
              "internalType": "uint256",
              "name": "approvals",
              "type": "uint256"
            },
            {
              "internalType": "bool",
              "name": "hasBeenSent",
              "type": "bool"
            },
            {
              "internalType": "uint256",
              "name": "id",
              "type": "uint256"
            },
            {
              "internalType": "uint256",
              "name": "timeOfCreation",
              "type": "uint256"
            }
          ],
          "internalType": "struct MultiSigWallet.Transfer[]",
          "name": "",
          "type": "tuple[]"
        }
      ],
      "stateMutability": "view",
      "type": "function",
      "constant": true
    }
  ],
  "bytecode": "0x60806040526000600455600060055560006006553480156200002057600080fd5b5060405162004eb238038062004eb2833981810160405281019062000046919062000264565b80600160006101000a81548173ffffffffffffffffffffffffffffffffffffffff021916908373ffffffffffffffffffffffffffffffffffffffff1602179055506002600160009054906101000a900473ffffffffffffffffffffffffffffffffffffffff169080600181540180825580915050600190039060005260206000200160009091909190916101000a81548173ffffffffffffffffffffffffffffffffffffffff021916908373ffffffffffffffffffffffffffffffffffffffff160217905550600160028054905062000120919062000290565b600381905550600c80600181540180825580915050600190039060005260206000200160006040518060400160405280600381526020017f455448000000000000000000000000000000000000000000000000000000000081525090919091509080519060200190620001959291906200019d565b5050620003b7565b828054620001ab9062000309565b90600052602060002090601f016020900481019282620001cf57600085556200021b565b82601f10620001ea57805160ff19168380011785556200021b565b828001600101855582156200021b579182015b828111156200021a578251825591602001919060010190620001fd565b5b5090506200022a91906200022e565b5090565b5b80821115620002495760008160009055506001016200022f565b5090565b6000815190506200025e816200039d565b92915050565b6000602082840312156200027757600080fd5b600062000287848285016200024d565b91505092915050565b60006200029d82620002ff565b9150620002aa83620002ff565b925082821015620002c057620002bf6200033f565b5b828203905092915050565b6000620002d882620002df565b9050919050565b600073ffffffffffffffffffffffffffffffffffffffff82169050919050565b6000819050919050565b600060028204905060018216806200032257607f821691505b602082108114156200033957620003386200036e565b5b50919050565b7f4e487b7100000000000000000000000000000000000000000000000000000000600052601160045260246000fd5b7f4e487b7100000000000000000000000000000000000000000000000000000000600052602260045260246000fd5b620003a881620002cb565b8114620003b457600080fd5b50565b614aeb80620003c76000396000f3fe6080604052600436106101805760003560e01c80639ead7222116100d1578063c48f7e881161008a578063d0e30db011610064578063d0e30db0146105a9578063e88ad953146105b3578063fbb2e25a146105f1578063ffabc6731461061a57610180565b8063c48f7e8814610506578063c82b4dbb14610543578063cad19c401461058057610180565b80639ead7222146103e2578063a04ef1451461041f578063a4d66daf1461044a578063ab17fdc714610475578063b0b22c2c146104b2578063b80fd822146104db57610180565b8063622a995c1161013e5780637720cdd8116101185780637720cdd814610326578063893d20e8146103635780639852099c1461038e57806398575188146103b957610180565b8063622a995c146102a75780636f9fb98a146102d05780637278a1fa146102fb57610180565b8062ce8e3e1461018557806305d01f50146101b05780632e1a7d4d146101ed5780633b3e1de81461022a57806352cda148146102535780635f9bb83f1461027e575b600080fd5b34801561019157600080fd5b5061019a610657565b6040516101a7919061434d565b60405180910390f35b3480156101bc57600080fd5b506101d760048036038101906101d291906139ef565b6106e5565b6040516101e491906146be565b60405180910390f35b3480156101f957600080fd5b50610214600480360381019061020f9190613bf8565b610720565b60405161022191906146be565b60405180910390f35b34801561023657600080fd5b50610251600480360381019061024c91906139a0565b6109cf565b005b34801561025f57600080fd5b50610268610c40565b60405161027591906146be565b60405180910390f35b34801561028a57600080fd5b506102a560048036038101906102a09190613b91565b610c46565b005b3480156102b357600080fd5b506102ce60048036038101906102c99190613c21565b61110b565b005b3480156102dc57600080fd5b506102e5611513565b6040516102f291906146be565b60405180910390f35b34801561030757600080fd5b5061031061151b565b60405161031d91906146be565b60405180910390f35b34801561033257600080fd5b5061034d60048036038101906103489190613bf8565b611525565b60405161035a91906146be565b60405180910390f35b34801561036f57600080fd5b5061037861157a565b60405161038591906142a9565b60405180910390f35b34801561039a57600080fd5b506103a3611582565b6040516103b091906146be565b60405180910390f35b3480156103c557600080fd5b506103e060048036038101906103db9190613977565b611588565b005b3480156103ee57600080fd5b5061040960048036038101906104049190613bf8565b61193e565b60405161041691906143ac565b60405180910390f35b34801561042b57600080fd5b506104346119ea565b604051610441919061436f565b60405180910390f35b34801561045657600080fd5b5061045f611bcb565b60405161046c91906146be565b60405180910390f35b34801561048157600080fd5b5061049c60048036038101906104979190613c21565b611bd1565b6040516104a99190614391565b60405180910390f35b3480156104be57600080fd5b506104d960048036038101906104d49190613ae9565b611f7f565b005b3480156104e757600080fd5b506104f0612143565b6040516104fd91906146be565b60405180910390f35b34801561051257600080fd5b5061052d600480360381019061052891906139ef565b612149565b60405161053a91906146be565b60405180910390f35b34801561054f57600080fd5b5061056a60048036038101906105659190613aa8565b612184565b60405161057791906146be565b60405180910390f35b34801561058c57600080fd5b506105a760048036038101906105a29190613b3d565b6121e9565b005b6105b16126ff565b005b3480156105bf57600080fd5b506105da60048036038101906105d59190613aa8565b6128aa565b6040516105e89291906143ce565b60405180910390f35b3480156105fd57600080fd5b5061061860048036038101906106139190613b3d565b61298c565b005b34801561062657600080fd5b50610641600480360381019061063c9190613a43565b612f7d565b60405161064e9190614391565b60405180910390f35b606060028054806020026020016040519081016040528092919081815260200182805480156106db57602002820191906000526020600020905b8160009054906101000a900473ffffffffffffffffffffffffffffffffffffffff1673ffffffffffffffffffffffffffffffffffffffff1681526020019060010190808311610691575b5050505050905090565b600960205281600052604060002081805160208101820180518482526020830160208501208183528095505050505050600091509150505481565b6000806000905060005b6002805490508110156107e7573373ffffffffffffffffffffffffffffffffffffffff1660028281548110610788577f4e487b7100000000000000000000000000000000000000000000000000000000600052603260045260246000fd5b9060005260206000200160009054906101000a900473ffffffffffffffffffffffffffffffffffffffff1673ffffffffffffffffffffffffffffffffffffffff1614156107d457600191505b80806107df90614972565b91505061072a565b5060011515811515146107f957600080fd5b82600960003373ffffffffffffffffffffffffffffffffffffffff1673ffffffffffffffffffffffffffffffffffffffff16815260200190815260200160002060405161084590614294565b908152602001604051809103902054101561085f57600080fd5b3373ffffffffffffffffffffffffffffffffffffffff166108fc849081150290604051600060405180830381858888f193505050501580156108a5573d6000803e3d6000fd5b5082600960003373ffffffffffffffffffffffffffffffffffffffff1673ffffffffffffffffffffffffffffffffffffffff1681526020019081526020016000206040516108f290614294565b9081526020016040518091039020600082825461090f919061483a565b925050819055507f6a647eacc9e98792655e8dba08e3167440b93e02ef76e8e3330fa10a27b4ecbf33600554854260405161094d9493929190614626565b60405180910390a16005600081548092919061096890614972565b9190505550600960003373ffffffffffffffffffffffffffffffffffffffff1673ffffffffffffffffffffffffffffffffffffffff1681526020019081526020016000206040516109b890614294565b908152602001604051809103902054915050919050565b6000805b600280549050811015610a90573373ffffffffffffffffffffffffffffffffffffffff1660028281548110610a31577f4e487b7100000000000000000000000000000000000000000000000000000000600052603260045260246000fd5b9060005260206000200160009054906101000a900473ffffffffffffffffffffffffffffffffffffffff1673ffffffffffffffffffffffffffffffffffffffff161415610a7d57600191505b8080610a8890614972565b9150506109d3565b506001151581151514610aa257600080fd5b60005b600280549050811015610b98578473ffffffffffffffffffffffffffffffffffffffff1660028281548110610b03577f4e487b7100000000000000000000000000000000000000000000000000000000600052603260045260246000fd5b9060005260206000200160009054906101000a900473ffffffffffffffffffffffffffffffffffffffff1673ffffffffffffffffffffffffffffffffffffffff161415610b85576040517f08c379a0000000000000000000000000000000000000000000000000000000008152600401610b7c906145c6565b60405180910390fd5b8080610b9090614972565b915050610aa5565b5060056002805490501115610bac57600080fd5b6002849080600181540180825580915050600190039060005260206000200160009091909190916101000a81548173ffffffffffffffffffffffffffffffffffffffff021916908373ffffffffffffffffffffffffffffffffffffffff1602179055506001600280549050610c21919061483a565b600381905550610c3083612fac565b610c3a8483612fef565b50505050565b60055481565b6000805b600280549050811015610d07573373ffffffffffffffffffffffffffffffffffffffff1660028281548110610ca8577f4e487b7100000000000000000000000000000000000000000000000000000000600052603260045260246000fd5b9060005260206000200160009054906101000a900473ffffffffffffffffffffffffffffffffffffffff1673ffffffffffffffffffffffffffffffffffffffff161415610cf457600191505b8080610cff90614972565b915050610c4a565b506001151581151514610d1957600080fd5b82600960003373ffffffffffffffffffffffffffffffffffffffff1673ffffffffffffffffffffffffffffffffffffffff16815260200190815260200160002085604051610d67919061427d565b9081526020016040518091039020541015610db7576040517f08c379a0000000000000000000000000000000000000000000000000000000008152600401610dae906145a6565b60405180910390fd5b60005b600280549050811015610ead578273ffffffffffffffffffffffffffffffffffffffff1660028281548110610e18577f4e487b7100000000000000000000000000000000000000000000000000000000600052603260045260246000fd5b9060005260206000200160009054906101000a900473ffffffffffffffffffffffffffffffffffffffff1673ffffffffffffffffffffffffffffffffffffffff161415610e9a576040517f08c379a0000000000000000000000000000000000000000000000000000000008152600401610e9190614606565b60405180910390fd5b8080610ea590614972565b915050610dba565b5082600960003373ffffffffffffffffffffffffffffffffffffffff1673ffffffffffffffffffffffffffffffffffffffff16815260200190815260200160002085604051610efc919061427d565b90815260200160405180910390206000828254610f19919061483a565b9250508190555060076040518061010001604052808681526020018581526020013373ffffffffffffffffffffffffffffffffffffffff1681526020018473ffffffffffffffffffffffffffffffffffffffff1681526020016000815260200160001515815260200160065481526020014281525090806001815401808255809150506001900390600052602060002090600802016000909190919091506000820151816000019080519060200190610fd392919061374b565b506020820151816001015560408201518160020160006101000a81548173ffffffffffffffffffffffffffffffffffffffff021916908373ffffffffffffffffffffffffffffffffffffffff16021790555060608201518160030160006101000a81548173ffffffffffffffffffffffffffffffffffffffff021916908373ffffffffffffffffffffffffffffffffffffffff1602179055506080820151816004015560a08201518160050160006101000a81548160ff02191690831515021790555060c0820151816006015560e0820151816007015550507ff85258179fd6edacd661ed4d528ac913de6c17c86788c7986958267070e891a4846006548533866040516110e595949392919061450c565b60405180910390a16006600081548092919061110090614972565b919050555050505050565b80600073ffffffffffffffffffffffffffffffffffffffff16600a82604051611134919061427d565b908152602001604051809103902060010160009054906101000a900473ffffffffffffffffffffffffffffffffffffffff1673ffffffffffffffffffffffffffffffffffffffff1614156111bd576040517f08c379a00000000000000000000000000000000000000000000000000000000081526004016111b4906145e6565b60405180910390fd5b6000805b60028054905081101561127e573373ffffffffffffffffffffffffffffffffffffffff166002828154811061121f577f4e487b7100000000000000000000000000000000000000000000000000000000600052603260045260246000fd5b9060005260206000200160009054906101000a900473ffffffffffffffffffffffffffffffffffffffff1673ffffffffffffffffffffffffffffffffffffffff16141561126b57600191505b808061127690614972565b9150506111c1565b50600115158115151461129057600080fd5b600073ffffffffffffffffffffffffffffffffffffffff16600a846040516112b8919061427d565b908152602001604051809103902060010160009054906101000a900473ffffffffffffffffffffffffffffffffffffffff1673ffffffffffffffffffffffffffffffffffffffff16141561130b57600080fd5b83600960003373ffffffffffffffffffffffffffffffffffffffff1673ffffffffffffffffffffffffffffffffffffffff16815260200190815260200160002084604051611359919061427d565b908152602001604051809103902054101561137357600080fd5b83600960003373ffffffffffffffffffffffffffffffffffffffff1673ffffffffffffffffffffffffffffffffffffffff168152602001908152602001600020846040516113c1919061427d565b908152602001604051809103902060008282546113de91906147e4565b92505081905550600a836040516113f5919061427d565b908152602001604051809103902060010160009054906101000a900473ffffffffffffffffffffffffffffffffffffffff1673ffffffffffffffffffffffffffffffffffffffff1663a9059cbb33866040518363ffffffff1660e01b8152600401611461929190614324565b602060405180830381600087803b15801561147b57600080fd5b505af115801561148f573d6000803e3d6000fd5b505050506040513d601f19601f820116820180604052508101906114b39190613a7f565b507f6a647eacc9e98792655e8dba08e3167440b93e02ef76e8e3330fa10a27b4ecbf833360055487426040516114ed9594939291906143fe565b60405180910390a16005600081548092919061150890614972565b919050555050505050565b600047905090565b6000600354905090565b600060078281548110611561577f4e487b7100000000000000000000000000000000000000000000000000000000600052603260045260246000fd5b9060005260206000209060080201600401549050919050565b600033905090565b60045481565b6000805b600280549050811015611649573373ffffffffffffffffffffffffffffffffffffffff16600282815481106115ea577f4e487b7100000000000000000000000000000000000000000000000000000000600052603260045260246000fd5b9060005260206000200160009054906101000a900473ffffffffffffffffffffffffffffffffffffffff1673ffffffffffffffffffffffffffffffffffffffff16141561163657600191505b808061164190614972565b91505061158c565b50600115158115151461165b57600080fd5b600080600090505b6002805490508110156117bb578373ffffffffffffffffffffffffffffffffffffffff16600282815481106116c1577f4e487b7100000000000000000000000000000000000000000000000000000000600052603260045260246000fd5b9060005260206000200160009054906101000a900473ffffffffffffffffffffffffffffffffffffffff1673ffffffffffffffffffffffffffffffffffffffff1614156117a8578091508373ffffffffffffffffffffffffffffffffffffffff166002828154811061175c577f4e487b7100000000000000000000000000000000000000000000000000000000600052603260045260246000fd5b9060005260206000200160009054906101000a900473ffffffffffffffffffffffffffffffffffffffff1673ffffffffffffffffffffffffffffffffffffffff16146117a757600080fd5b5b80806117b390614972565b915050611663565b50600260016002805490506117d0919061483a565b81548110611807577f4e487b7100000000000000000000000000000000000000000000000000000000600052603260045260246000fd5b9060005260206000200160009054906101000a900473ffffffffffffffffffffffffffffffffffffffff166002828154811061186c577f4e487b7100000000000000000000000000000000000000000000000000000000600052603260045260246000fd5b9060005260206000200160006101000a81548173ffffffffffffffffffffffffffffffffffffffff021916908373ffffffffffffffffffffffffffffffffffffffff16021790555060028054806118ec577f4e487b7100000000000000000000000000000000000000000000000000000000600052603160045260246000fd5b6001900381819060005260206000200160006101000a81549073ffffffffffffffffffffffffffffffffffffffff021916905590556001600280549050611933919061483a565b600381905550505050565b600c818154811061194e57600080fd5b90600052602060002001600091509050805461196990614940565b80601f016020809104026020016040519081016040528092919081815260200182805461199590614940565b80156119e25780601f106119b7576101008083540402835291602001916119e2565b820191906000526020600020905b8154815290600101906020018083116119c557829003601f168201915b505050505081565b60606007805480602002602001604051908101604052809291908181526020016000905b82821015611bc2578382906000526020600020906008020160405180610100016040529081600082018054611a4290614940565b80601f0160208091040260200160405190810160405280929190818152602001828054611a6e90614940565b8015611abb5780601f10611a9057610100808354040283529160200191611abb565b820191906000526020600020905b815481529060010190602001808311611a9e57829003601f168201915b50505050508152602001600182015481526020016002820160009054906101000a900473ffffffffffffffffffffffffffffffffffffffff1673ffffffffffffffffffffffffffffffffffffffff1673ffffffffffffffffffffffffffffffffffffffff1681526020016003820160009054906101000a900473ffffffffffffffffffffffffffffffffffffffff1673ffffffffffffffffffffffffffffffffffffffff1673ffffffffffffffffffffffffffffffffffffffff168152602001600482015481526020016005820160009054906101000a900460ff161515151581526020016006820154815260200160078201548152505081526020019060010190611a0e565b50505050905090565b60035481565b6000806000905060005b600280549050811015611c98573373ffffffffffffffffffffffffffffffffffffffff1660028281548110611c39577f4e487b7100000000000000000000000000000000000000000000000000000000600052603260045260246000fd5b9060005260206000200160009054906101000a900473ffffffffffffffffffffffffffffffffffffffff1673ffffffffffffffffffffffffffffffffffffffff161415611c8557600191505b8080611c9090614972565b915050611bdb565b506001151581151514611caa57600080fd5b82600073ffffffffffffffffffffffffffffffffffffffff16600a82604051611cd3919061427d565b908152602001604051809103902060010160009054906101000a900473ffffffffffffffffffffffffffffffffffffffff1673ffffffffffffffffffffffffffffffffffffffff161415611d5c576040517f08c379a0000000000000000000000000000000000000000000000000000000008152600401611d53906145e6565b60405180910390fd5b600073ffffffffffffffffffffffffffffffffffffffff16600a85604051611d84919061427d565b908152602001604051809103902060010160009054906101000a900473ffffffffffffffffffffffffffffffffffffffff1673ffffffffffffffffffffffffffffffffffffffff161415611dd757600080fd5b600a84604051611de7919061427d565b908152602001604051809103902060010160009054906101000a900473ffffffffffffffffffffffffffffffffffffffff1673ffffffffffffffffffffffffffffffffffffffff166323b872dd3330886040518463ffffffff1660e01b8152600401611e55939291906142ed565b602060405180830381600087803b158015611e6f57600080fd5b505af1158015611e83573d6000803e3d6000fd5b505050506040513d601f19601f82011682018060405250810190611ea79190613a7f565b5084600960003373ffffffffffffffffffffffffffffffffffffffff1673ffffffffffffffffffffffffffffffffffffffff16815260200190815260200160002085604051611ef6919061427d565b90815260200160405180910390206000828254611f1391906147e4565b92505081905550600192507f41751252894a74bd975de630158c4e47bb25c36d9ce7ad90383d86d391d2be1284336004548842604051611f579594939291906143fe565b60405180910390a160046000815480929190611f7290614972565b9190505550505092915050565b6000805b600280549050811015612040573373ffffffffffffffffffffffffffffffffffffffff1660028281548110611fe1577f4e487b7100000000000000000000000000000000000000000000000000000000600052603260045260246000fd5b9060005260206000200160009054906101000a900473ffffffffffffffffffffffffffffffffffffffff1673ffffffffffffffffffffffffffffffffffffffff16141561202d57600191505b808061203890614972565b915050611f83565b50600115158115151461205257600080fd5b60405180604001604052808481526020018373ffffffffffffffffffffffffffffffffffffffff16815250600a8460405161208d919061427d565b908152602001604051809103902060008201518160000190805190602001906120b792919061374b565b5060208201518160010160006101000a81548173ffffffffffffffffffffffffffffffffffffffff021916908373ffffffffffffffffffffffffffffffffffffffff160217905550905050600c8390806001815401808255809150506001900390600052602060002001600090919091909150908051906020019061213d92919061374b565b50505050565b60065481565b600b60205281600052604060002081805160208101820180518482526020830160208501208183528095505050505050600091509150505481565b6000600960003373ffffffffffffffffffffffffffffffffffffffff1673ffffffffffffffffffffffffffffffffffffffff168152602001908152602001600020826040516121d3919061427d565b9081526020016040518091039020549050919050565b6000805b6002805490508110156122aa573373ffffffffffffffffffffffffffffffffffffffff166002828154811061224b577f4e487b7100000000000000000000000000000000000000000000000000000000600052603260045260246000fd5b9060005260206000200160009054906101000a900473ffffffffffffffffffffffffffffffffffffffff1673ffffffffffffffffffffffffffffffffffffffff16141561229757600191505b80806122a290614972565b9150506121ed565b5060011515811515146122bc57600080fd5b60008060005b60078054905081101561234c57846007828154811061230a577f4e487b7100000000000000000000000000000000000000000000000000000000600052603260045260246000fd5b906000526020600020906008020160060154141561232b576001915061234c565b828061233690614972565b935050808061234490614972565b9150506122c2565b50600015158115151415612395576040517f08c379a000000000000000000000000000000000000000000000000000000000815260040161238c90614586565b60405180910390fd5b600160028054905010156123de576040517f08c379a00000000000000000000000000000000000000000000000000000000081526004016123d590614566565b60405180910390fd5b600160009054906101000a900473ffffffffffffffffffffffffffffffffffffffff1673ffffffffffffffffffffffffffffffffffffffff163373ffffffffffffffffffffffffffffffffffffffff16141561243957600080fd5b60001515600860003373ffffffffffffffffffffffffffffffffffffffff1673ffffffffffffffffffffffffffffffffffffffff168152602001908152602001600020600086815260200190815260200160002060009054906101000a900460ff161515146124dd576040517f08c379a00000000000000000000000000000000000000000000000000000000081526004016124d49061469e565b60405180910390fd5b600015156007838154811061251b577f4e487b7100000000000000000000000000000000000000000000000000000000600052603260045260246000fd5b906000526020600020906008020160050160009054906101000a900460ff1615151461254657600080fd5b6001600860003373ffffffffffffffffffffffffffffffffffffffff1673ffffffffffffffffffffffffffffffffffffffff168152602001908152602001600020600084815260200190815260200160002060006101000a81548160ff021916908315150217905550600782815481106125e9577f4e487b7100000000000000000000000000000000000000000000000000000000600052603260045260246000fd5b9060005260206000209060080201600401600081548092919061260b90614972565b91905055507ffe2c7170bbf30cb5442b472fe32cd4080ecb8caefc95e5157e4737119e8cf06885836007858154811061266d577f4e487b7100000000000000000000000000000000000000000000000000000000600052603260045260246000fd5b9060005260206000209060080201600401543360405161269094939291906144c0565b60405180910390a1600354600783815481106126d5577f4e487b7100000000000000000000000000000000000000000000000000000000600052603260045260246000fd5b90600052602060002090600802016004015414156126f8576126f78583613087565b5b5050505050565b6000805b6002805490508110156127c0573373ffffffffffffffffffffffffffffffffffffffff1660028281548110612761577f4e487b7100000000000000000000000000000000000000000000000000000000600052603260045260246000fd5b9060005260206000200160009054906101000a900473ffffffffffffffffffffffffffffffffffffffff1673ffffffffffffffffffffffffffffffffffffffff1614156127ad57600191505b80806127b890614972565b915050612703565b5060011515811515146127d257600080fd5b60003410156127e057600080fd5b34600960003373ffffffffffffffffffffffffffffffffffffffff1673ffffffffffffffffffffffffffffffffffffffff16815260200190815260200160002060405161282c90614294565b9081526020016040518091039020600082825461284991906147e4565b925050819055507f41751252894a74bd975de630158c4e47bb25c36d9ce7ad90383d86d391d2be123360045434426040516128879493929190614626565b60405180910390a1600460008154809291906128a290614972565b919050555050565b600a818051602081018201805184825260208301602085012081835280955050505050506000915090508060000180546128e390614940565b80601f016020809104026020016040519081016040528092919081815260200182805461290f90614940565b801561295c5780601f106129315761010080835404028352916020019161295c565b820191906000526020600020905b81548152906001019060200180831161293f57829003601f168201915b5050505050908060010160009054906101000a900473ffffffffffffffffffffffffffffffffffffffff16905082565b600160028054905010156129d5576040517f08c379a00000000000000000000000000000000000000000000000000000000081526004016129cc90614566565b60405180910390fd5b60008060005b600780549050811015612a65578360078281548110612a23577f4e487b7100000000000000000000000000000000000000000000000000000000600052603260045260246000fd5b9060005260206000209060080201600601541415612a445760019150612a65565b8280612a4f90614972565b9350508080612a5d90614972565b9150506129db565b50600015158115151415612aae576040517f08c379a0000000000000000000000000000000000000000000000000000000008152600401612aa59061467e565b60405180910390fd5b60078281548110612ae8577f4e487b7100000000000000000000000000000000000000000000000000000000600052603260045260246000fd5b906000526020600020906008020160010154600960003373ffffffffffffffffffffffffffffffffffffffff1673ffffffffffffffffffffffffffffffffffffffff16815260200190815260200160002085604051612b47919061427d565b90815260200160405180910390206000828254612b6491906147e4565b925050819055507fb80f814c5698722c4bfbbf15abab5a245f91cdea8a998ffe7c29d0d7ba9acf918460078481548110612bc7577f4e487b7100000000000000000000000000000000000000000000000000000000600052603260045260246000fd5b9060005260206000209060080201600601543360078681548110612c14577f4e487b7100000000000000000000000000000000000000000000000000000000600052603260045260246000fd5b906000526020600020906008020160030160009054906101000a900473ffffffffffffffffffffffffffffffffffffffff1660078781548110612c80577f4e487b7100000000000000000000000000000000000000000000000000000000600052603260045260246000fd5b90600052602060002090600802016001015442604051612ca596959493929190614458565b60405180910390a160076001600780549050612cc1919061483a565b81548110612cf8577f4e487b7100000000000000000000000000000000000000000000000000000000600052603260045260246000fd5b906000526020600020906008020160078381548110612d40577f4e487b7100000000000000000000000000000000000000000000000000000000600052603260045260246000fd5b90600052602060002090600802016000820181600001908054612d6290614940565b612d6d9291906137d1565b50600182015481600101556002820160009054906101000a900473ffffffffffffffffffffffffffffffffffffffff168160020160006101000a81548173ffffffffffffffffffffffffffffffffffffffff021916908373ffffffffffffffffffffffffffffffffffffffff1602179055506003820160009054906101000a900473ffffffffffffffffffffffffffffffffffffffff168160030160006101000a81548173ffffffffffffffffffffffffffffffffffffffff021916908373ffffffffffffffffffffffffffffffffffffffff160217905550600482015481600401556005820160009054906101000a900460ff168160050160006101000a81548160ff02191690831515021790555060068201548160060155600782015481600701559050506007805480612ecc577f4e487b7100000000000000000000000000000000000000000000000000000000600052603160045260246000fd5b600190038181906000526020600020906008020160008082016000612ef1919061385e565b60018201600090556002820160006101000a81549073ffffffffffffffffffffffffffffffffffffffff02191690556003820160006101000a81549073ffffffffffffffffffffffffffffffffffffffff021916905560048201600090556005820160006101000a81549060ff0219169055600682016000905560078201600090555050905550505050565b60086020528160005260406000206020528060005260406000206000915091509054906101000a900460ff1681565b806000806101000a81548173ffffffffffffffffffffffffffffffffffffffff021916908373ffffffffffffffffffffffffffffffffffffffff16021790555050565b60008060009054906101000a900473ffffffffffffffffffffffffffffffffffffffff1690508073ffffffffffffffffffffffffffffffffffffffff166316d390bf84846040518363ffffffff1660e01b81526004016130509291906142c4565b600060405180830381600087803b15801561306a57600080fd5b505af115801561307e573d6000803e3d6000fd5b50505050505050565b6001600782815481106130c3577f4e487b7100000000000000000000000000000000000000000000000000000000600052603260045260246000fd5b906000526020600020906008020160050160006101000a81548160ff02191690831515021790555060078181548110613125577f4e487b7100000000000000000000000000000000000000000000000000000000600052603260045260246000fd5b9060005260206000209060080201600101546009600060078481548110613175577f4e487b7100000000000000000000000000000000000000000000000000000000600052603260045260246000fd5b906000526020600020906008020160020160009054906101000a900473ffffffffffffffffffffffffffffffffffffffff1673ffffffffffffffffffffffffffffffffffffffff1673ffffffffffffffffffffffffffffffffffffffff168152602001908152602001600020836040516131ef919061427d565b9081526020016040518091039020600082825461320c919061483a565b925050819055506007818154811061324d577f4e487b7100000000000000000000000000000000000000000000000000000000600052603260045260246000fd5b906000526020600020906008020160010154600960006007848154811061329d577f4e487b7100000000000000000000000000000000000000000000000000000000600052603260045260246000fd5b906000526020600020906008020160030160009054906101000a900473ffffffffffffffffffffffffffffffffffffffff1673ffffffffffffffffffffffffffffffffffffffff1673ffffffffffffffffffffffffffffffffffffffff16815260200190815260200160002083604051613317919061427d565b9081526020016040518091039020600082825461333491906147e4565b925050819055507fd3af251285060458993a5ebb0d39d9636dad6976562f9df61c5ea778c35d06158260078381548110613397577f4e487b7100000000000000000000000000000000000000000000000000000000600052603260045260246000fd5b90600052602060002090600802016006015433600785815481106133e4577f4e487b7100000000000000000000000000000000000000000000000000000000600052603260045260246000fd5b906000526020600020906008020160030160009054906101000a900473ffffffffffffffffffffffffffffffffffffffff1660078681548110613450577f4e487b7100000000000000000000000000000000000000000000000000000000600052603260045260246000fd5b9060005260206000209060080201600101544260405161347596959493929190614458565b60405180910390a160076001600780549050613491919061483a565b815481106134c8577f4e487b7100000000000000000000000000000000000000000000000000000000600052603260045260246000fd5b906000526020600020906008020160078281548110613510577f4e487b7100000000000000000000000000000000000000000000000000000000600052603260045260246000fd5b9060005260206000209060080201600082018160000190805461353290614940565b61353d9291906137d1565b50600182015481600101556002820160009054906101000a900473ffffffffffffffffffffffffffffffffffffffff168160020160006101000a81548173ffffffffffffffffffffffffffffffffffffffff021916908373ffffffffffffffffffffffffffffffffffffffff1602179055506003820160009054906101000a900473ffffffffffffffffffffffffffffffffffffffff168160030160006101000a81548173ffffffffffffffffffffffffffffffffffffffff021916908373ffffffffffffffffffffffffffffffffffffffff160217905550600482015481600401556005820160009054906101000a900460ff168160050160006101000a81548160ff0219169083151502179055506006820154816006015560078201548160070155905050600780548061369c577f4e487b7100000000000000000000000000000000000000000000000000000000600052603160045260246000fd5b6001900381819060005260206000209060080201600080820160006136c1919061385e565b60018201600090556002820160006101000a81549073ffffffffffffffffffffffffffffffffffffffff02191690556003820160006101000a81549073ffffffffffffffffffffffffffffffffffffffff021916905560048201600090556005820160006101000a81549060ff021916905560068201600090556007820160009055505090555050565b82805461375790614940565b90600052602060002090601f01602090048101928261377957600085556137c0565b82601f1061379257805160ff19168380011785556137c0565b828001600101855582156137c0579182015b828111156137bf5782518255916020019190600101906137a4565b5b5090506137cd919061389e565b5090565b8280546137dd90614940565b90600052602060002090601f0160209004810192826137ff576000855561384d565b82601f10613810578054855561384d565b8280016001018555821561384d57600052602060002091601f016020900482015b8281111561384c578254825591600101919060010190613831565b5b50905061385a919061389e565b5090565b50805461386a90614940565b6000825580601f1061387c575061389b565b601f01602090049060005260206000209081019061389a919061389e565b5b50565b5b808211156138b757600081600090555060010161389f565b5090565b60006138ce6138c98461470a565b6146d9565b9050828152602081018484840111156138e657600080fd5b6138f18482856148fe565b509392505050565b60008135905061390881614a59565b92915050565b60008135905061391d81614a70565b92915050565b60008151905061393281614a87565b92915050565b600082601f83011261394957600080fd5b81356139598482602086016138bb565b91505092915050565b60008135905061397181614a9e565b92915050565b60006020828403121561398957600080fd5b6000613997848285016138f9565b91505092915050565b6000806000606084860312156139b557600080fd5b60006139c3868287016138f9565b93505060206139d4868287016138f9565b92505060406139e5868287016138f9565b9150509250925092565b60008060408385031215613a0257600080fd5b6000613a10858286016138f9565b925050602083013567ffffffffffffffff811115613a2d57600080fd5b613a3985828601613938565b9150509250929050565b60008060408385031215613a5657600080fd5b6000613a64858286016138f9565b9250506020613a7585828601613962565b9150509250929050565b600060208284031215613a9157600080fd5b6000613a9f84828501613923565b91505092915050565b600060208284031215613aba57600080fd5b600082013567ffffffffffffffff811115613ad457600080fd5b613ae084828501613938565b91505092915050565b60008060408385031215613afc57600080fd5b600083013567ffffffffffffffff811115613b1657600080fd5b613b2285828601613938565b9250506020613b33858286016138f9565b9150509250929050565b60008060408385031215613b5057600080fd5b600083013567ffffffffffffffff811115613b6a57600080fd5b613b7685828601613938565b9250506020613b8785828601613962565b9150509250929050565b600080600060608486031215613ba657600080fd5b600084013567ffffffffffffffff811115613bc057600080fd5b613bcc86828701613938565b9350506020613bdd86828701613962565b9250506040613bee8682870161390e565b9150509250925092565b600060208284031215613c0a57600080fd5b6000613c1884828501613962565b91505092915050565b60008060408385031215613c3457600080fd5b6000613c4285828601613962565b925050602083013567ffffffffffffffff811115613c5f57600080fd5b613c6b85828601613938565b9150509250929050565b6000613c818383613cbf565b60208301905092915050565b6000613c9983836141af565b905092915050565b613caa816148c8565b82525050565b613cb981614880565b82525050565b613cc88161486e565b82525050565b613cd78161486e565b82525050565b6000613ce88261475a565b613cf28185614795565b9350613cfd8361473a565b8060005b83811015613d2e578151613d158882613c75565b9750613d208361477b565b925050600181019050613d01565b5085935050505092915050565b6000613d4682614765565b613d5081856147a6565b935083602082028501613d628561474a565b8060005b85811015613d9e5784840389528151613d7f8582613c8d565b9450613d8a83614788565b925060208a01995050600181019050613d66565b50829750879550505050505092915050565b613db981614892565b82525050565b613dc881614892565b82525050565b6000613dd982614770565b613de381856147b7565b9350613df381856020860161490d565b613dfc81614a48565b840191505092915050565b6000613e1282614770565b613e1c81856147c8565b9350613e2c81856020860161490d565b613e3581614a48565b840191505092915050565b6000613e4b82614770565b613e5581856147d9565b9350613e6581856020860161490d565b80840191505092915050565b6000613e7e6021836147c8565b91507f6e65656420746f2068617665206d6f7265207468616e206f6e65207369676e6560008301527f72000000000000000000000000000000000000000000000000000000000000006020830152604082019050919050565b6000613ee46022836147c8565b91507f5472616e73666572204944206e6f7420666f756e6420666f7220617070726f7660008301527f616c0000000000000000000000000000000000000000000000000000000000006020830152604082019050919050565b6000613f4a6031836147c8565b91507f696e73756666696369656e742062616c616e636520746f20637265617465206160008301527f207472616e7366657220726561756573740000000000000000000000000000006020830152604082019050919050565b6000613fb06012836147c8565b91507f416c7265616479207265676973746572656400000000000000000000000000006000830152602082019050919050565b6000613ff06014836147c8565b91507f546f6b656e20646f6573206e6f742065786973740000000000000000000000006000830152602082019050919050565b60006140306031836147c8565b91507f6f6e6c79207468652077616c6c6574206f776e6572732063616e206d616b652060008301527f7472616e736665722072657571657374730000000000000000000000000000006020830152604082019050919050565b60006140966003836147c8565b91507f45544800000000000000000000000000000000000000000000000000000000006000830152602082019050919050565b60006140d66003836147d9565b91507f45544800000000000000000000000000000000000000000000000000000000006000830152600382019050919050565b60006141166022836147c8565b91507f54726e6173666572204944206e6f7420666f756e642063616e63656c6c61746960008301527f6f6e0000000000000000000000000000000000000000000000000000000000006020830152604082019050919050565b600061417c601b836147c8565b91507f7472616e73616374696f6e20616c7261647920617070726f76656400000000006000830152602082019050919050565b60006101008301600083015184820360008601526141cd8282613dce565b91505060208301516141e2602086018261425f565b5060408301516141f56040860182613cbf565b5060608301516142086060860182613cb0565b50608083015161421b608086018261425f565b5060a083015161422e60a0860182613db0565b5060c083015161424160c086018261425f565b5060e083015161425460e086018261425f565b508091505092915050565b614268816148be565b82525050565b614277816148be565b82525050565b60006142898284613e40565b915081905092915050565b600061429f826140c9565b9150819050919050565b60006020820190506142be6000830184613cce565b92915050565b60006040820190506142d96000830185613cce565b6142e66020830184613cce565b9392505050565b60006060820190506143026000830186613cce565b61430f6020830185613cce565b61431c604083018461426e565b949350505050565b60006040820190506143396000830185613cce565b614346602083018461426e565b9392505050565b600060208201905081810360008301526143678184613cdd565b905092915050565b600060208201905081810360008301526143898184613d3b565b905092915050565b60006020820190506143a66000830184613dbf565b92915050565b600060208201905081810360008301526143c68184613e07565b905092915050565b600060408201905081810360008301526143e88185613e07565b90506143f76020830184613cce565b9392505050565b600060a08201905081810360008301526144188188613e07565b90506144276020830187613cce565b614434604083018661426e565b614441606083018561426e565b61444e608083018461426e565b9695505050505050565b600060c08201905081810360008301526144728189613e07565b9050614481602083018861426e565b61448e6040830187613cce565b61449b6060830186613ca1565b6144a8608083018561426e565b6144b560a083018461426e565b979650505050505050565b600060808201905081810360008301526144da8187613e07565b90506144e9602083018661426e565b6144f6604083018561426e565b6145036060830184613cce565b95945050505050565b600060a08201905081810360008301526145268188613e07565b9050614535602083018761426e565b614542604083018661426e565b61454f6060830185613cce565b61455c6080830184613ca1565b9695505050505050565b6000602082019050818103600083015261457f81613e71565b9050919050565b6000602082019050818103600083015261459f81613ed7565b9050919050565b600060208201905081810360008301526145bf81613f3d565b9050919050565b600060208201905081810360008301526145df81613fa3565b9050919050565b600060208201905081810360008301526145ff81613fe3565b9050919050565b6000602082019050818103600083015261461f81614023565b9050919050565b600060a082019050818103600083015261463f81614089565b905061464e6020830187613cce565b61465b604083018661426e565b614668606083018561426e565b614675608083018461426e565b95945050505050565b6000602082019050818103600083015261469781614109565b9050919050565b600060208201905081810360008301526146b78161416f565b9050919050565b60006020820190506146d3600083018461426e565b92915050565b6000604051905081810181811067ffffffffffffffff82111715614700576146ff614a19565b5b8060405250919050565b600067ffffffffffffffff82111561472557614724614a19565b5b601f19601f8301169050602081019050919050565b6000819050602082019050919050565b6000819050602082019050919050565b600081519050919050565b600081519050919050565b600081519050919050565b6000602082019050919050565b6000602082019050919050565b600082825260208201905092915050565b600082825260208201905092915050565b600082825260208201905092915050565b600082825260208201905092915050565b600081905092915050565b60006147ef826148be565b91506147fa836148be565b9250827fffffffffffffffffffffffffffffffffffffffffffffffffffffffffffffffff0382111561482f5761482e6149bb565b5b828201905092915050565b6000614845826148be565b9150614850836148be565b925082821015614863576148626149bb565b5b828203905092915050565b60006148798261489e565b9050919050565b600061488b8261489e565b9050919050565b60008115159050919050565b600073ffffffffffffffffffffffffffffffffffffffff82169050919050565b6000819050919050565b60006148d3826148da565b9050919050565b60006148e5826148ec565b9050919050565b60006148f78261489e565b9050919050565b82818337600083830152505050565b60005b8381101561492b578082015181840152602081019050614910565b8381111561493a576000848401525b50505050565b6000600282049050600182168061495857607f821691505b6020821081141561496c5761496b6149ea565b5b50919050565b600061497d826148be565b91507fffffffffffffffffffffffffffffffffffffffffffffffffffffffffffffffff8214156149b0576149af6149bb565b5b600182019050919050565b7f4e487b7100000000000000000000000000000000000000000000000000000000600052601160045260246000fd5b7f4e487b7100000000000000000000000000000000000000000000000000000000600052602260045260246000fd5b7f4e487b7100000000000000000000000000000000000000000000000000000000600052604160045260246000fd5b6000601f19601f8301169050919050565b614a628161486e565b8114614a6d57600080fd5b50565b614a7981614880565b8114614a8457600080fd5b50565b614a9081614892565b8114614a9b57600080fd5b50565b614aa7816148be565b8114614ab257600080fd5b5056fea2646970667358221220e9e2c0589374eb89c87c7ac7b252b67a92dca5695c269b0851869dc976fd53a664736f6c63430008000033",
  "immutableReferences": {},
  "source": "//SPDX-License-Identifier: MIT\r\npragma solidity 0.8.0;\r\npragma abicoder v2;\r\n\r\nimport \"../node_modules/@openzeppelin/contracts/token/ERC20/IERC20.sol\";\r\n\r\ncontract MultiSigWallet {\r\n\r\n    address MultiSigInstance;\r\n    address mainOwner;\r\n    address[] owners;\r\n\r\n    //conensus limit for approvals\r\n    uint public limit;\r\n    uint256 public depositId = 0;\r\n    uint256 public withdrawalId = 0;\r\n    uint256 public transferId = 0;\r\n\r\n    constructor(address _owner) {\r\n        mainOwner = _owner;\r\n        owners.push(mainOwner);\r\n        limit = owners.length - 1;\r\n        tokenList.push(\"ETH\");\r\n    }\r\n    \r\n    //set up data structures. each trasnfer has diff properties\r\n    //like amount, the reviever, how many approvals it has, the state of the\r\n    //transfer etc\r\n    struct Transfer{\r\n        string ticker;\r\n        uint amount;\r\n        address sender;\r\n        address payable receiver;\r\n        uint approvals;\r\n        bool hasBeenSent;\r\n        uint id;\r\n        uint timeOfCreation;\r\n    }\r\n\r\n    struct Token {\r\n        string ticker;\r\n        address tokenAddress;\r\n    }\r\n    \r\n    \r\n    //here we create instances of our structs so we can keep logs\r\n    Transfer[] transferRequests;\r\n    \r\n    //double mpping which maps an address and the transaction id to an approval boolean\r\n    //false if not approved true if so\r\n    mapping(address => mapping(uint => bool)) public approvals;\r\n    mapping(address => mapping(string => uint)) public balances;\r\n    mapping(string => Token) public tokenMapping;\r\n    \r\n    //modifier which we can lace in function definitions to restrict access of that \r\n    //function to the wallet owners\r\n    modifier onlyOwners(){\r\n        bool owner = false;\r\n        for(uint i=0; i<owners.length;i++){\r\n            if(owners[i] == msg.sender){\r\n                owner = true;\r\n            }\r\n        }\r\n        require(owner == true);\r\n        _;\r\n    }\r\n\r\n    modifier tokenExists(string memory ticker) {\r\n        \r\n        require(tokenMapping[ticker].tokenAddress != address(0), \"Token does not exist\");\r\n         _;\r\n    }\r\n    \r\n    //evets\r\n    event fundsDeposited(string ticker, address from, uint256 id, uint amount, uint256 timeStamp);\r\n    event fundsWithdrawed(string ticker, address from, uint256 id, uint amount, uint256 timeStamp);\r\n    event TransferRequestCreated(string ticker, uint id, uint _amount, address _initiator, address _receiver);\r\n    event ApprovalReceived(string ticker, uint id, uint _approvals, address _approver);\r\n    event TransferApproved(string ticker, uint id);\r\n    // event t(uint id, address sender, address receiver, uint amount, uint timeOfTransfer);\r\n    event transferRequestApproved(string ticker, uint id, address sender, address receiver, uint amount, uint timeStamp);\r\n    event transferRequestCancelled(string ticker, uint id, address sender, address receiver, uint amount, uint timeStamp);\r\n\r\n   \r\n    \r\n    //we will begin with a double mapping that maps an address token ticker or symbol\r\n    // which maps to the balance of that token. We can have balances of many types of\r\n    //tokens /eth so we need a mapping to keep track of this\r\n    mapping(address => mapping(string => uint256)) public ERC20Tokenbalances;\r\n    string[] public tokenList;\r\n\r\n    function setWalletAddress(address _address) private {\r\n        MultiSigInstance = _address;\r\n    }\r\n    \r\n    function callAddOwner(address owner, address wallet) private {\r\n        MultiSigFactory factory = MultiSigFactory(MultiSigInstance);\r\n        factory.addOwner(owner, wallet);\r\n    }\r\n    function addToken(string memory ticker, address tokenAddress) external onlyOwners {\r\n\r\n        //create new token\r\n        tokenMapping[ticker] = Token(ticker, tokenAddress);\r\n        //add the new token to the token list\r\n        tokenList.push(ticker);\r\n    }\r\n    \r\n    //add user function. require owner is not already in the wallet array\r\n    function addUsers(address _owners, address _address, address walletAddress) public onlyOwners\r\n    {\r\n        for (uint user = 0; user < owners.length; user++)\r\n        {\r\n            require(owners[user] != _owners, \"Already registered\");\r\n        }\r\n        require(owners.length <= 5);\r\n        owners.push(_owners);\r\n        \r\n        //from the current array calculate the value of minimum consensus\r\n        limit = owners.length - 1;\r\n        \r\n        setWalletAddress(_address);\r\n        callAddOwner(_owners, walletAddress );\r\n    }\r\n    \r\n    //remove user require the address we pass in is the address were removing\r\n    function removeUser(address _user) public onlyOwners\r\n    {\r\n        uint user_index;\r\n        for(uint user = 0; user < owners.length; user++)\r\n        {\r\n            if (owners[user] == _user)\r\n            {   \r\n                user_index = user;\r\n                require(owners[user] == _user);\r\n            }\r\n        }\r\n        \r\n        owners[user_index] = owners[owners.length - 1];\r\n        owners.pop();\r\n        limit= owners.length - 1;\r\n        //owners;\r\n    }\r\n    \r\n    \r\n    //gets wallet users\r\n    function getUsers() public view returns(address[] memory)\r\n    {\r\n        return owners;\r\n    }\r\n    \r\n    function getApprovalLimit() public view returns (uint)\r\n    {\r\n        return (limit);\r\n    }\r\n    \r\n    \r\n    //deposit function. require deposit amount i sgreater than 0 and withdrawalRequests//the wallet oweners array is greater than 1\r\n    function deposit() public onlyOwners payable {\r\n        \r\n        require(msg.value >= 0);\r\n    \r\n        balances[msg.sender][\"ETH\"] += msg.value;\r\n        emit fundsDeposited(\"ETH\", msg.sender, depositId, msg.value, block.timestamp);\r\n        depositId++;\r\n    }\r\n\r\n    function depositERC20Token(uint amount, string memory ticker) external onlyOwners tokenExists(ticker) returns(bool _success){\r\n\r\n        require(tokenMapping[ticker].tokenAddress != address(0));\r\n    \r\n        IERC20(tokenMapping[ticker].tokenAddress).transferFrom(msg.sender, address(this), amount);\r\n        balances[msg.sender][ticker] += amount;  \r\n        _success = true;\r\n        //emit deposited(msg.sender, address(this), amount, ticker);\r\n        emit fundsDeposited(ticker, msg.sender, depositId, amount, block.timestamp);\r\n        depositId++;\r\n\r\n        return _success;\r\n    }\r\n\r\n    //after transfer is called our balance i < transaction amount thus we cannot withfraw\r\n    //update amount after transfer function.\r\n    function withdraw(uint _amount) public onlyOwners returns (uint)\r\n    {\r\n        require(balances[msg.sender][\"ETH\"] >= _amount);\r\n        \r\n        payable(msg.sender).transfer(_amount);\r\n        balances[msg.sender][\"ETH\"] -= _amount;\r\n\r\n        emit fundsWithdrawed(\"ETH\", msg.sender, withdrawalId, _amount, block.timestamp);\r\n        withdrawalId++;\r\n        \r\n        return balances[msg.sender][\"ETH\"];\r\n        \r\n    }\r\n\r\n    //withdrawal function\r\n    function withdrawERC20Token(uint amount, string memory ticker) external tokenExists(ticker) onlyOwners {\r\n        require(tokenMapping[ticker].tokenAddress != address(0));\r\n        require(balances[msg.sender][ticker] >= amount);\r\n\r\n        balances[msg.sender][ticker] += amount;\r\n        IERC20(tokenMapping[ticker].tokenAddress).transfer(msg.sender, amount);\r\n        emit fundsWithdrawed(ticker, msg.sender, withdrawalId, amount, block.timestamp);\r\n        withdrawalId++;\r\n\r\n    }\r\n\r\n        \r\n    //next we want to make a get balance function\r\n    function getAccountBalance(string memory ticker) public view returns(uint)\r\n    {\r\n        return balances[msg.sender][ticker];\r\n    }\r\n\r\n    //get contratc balance\r\n    function getContractBalance() public view returns(uint)\r\n    {\r\n        return address(this).balance;\r\n    }\r\n    \r\n    \r\n    //next we want to make q function to return the address of the wallet owner\r\n    function getOwner() public view returns(address)\r\n    {\r\n        return msg.sender;\r\n    }\r\n    \r\n    \r\n    //Create an instance of the Transfer struct and add it to the transferRequests array\r\n    function createTransfer(string memory _ticker, uint _amount, address payable _receiver) public onlyOwners {\r\n\r\n        require(balances[msg.sender][_ticker] >= _amount, \"insufficient balance to create a transfer reauest\");\r\n    \r\n        for (uint i = 0; i < owners.length; i++) {\r\n            require(owners[i] != _receiver, \"only the wallet owners can make transfer reuqests\");\r\n        }\r\n        \r\n        balances[msg.sender][_ticker] -= _amount;\r\n        transferRequests.push(Transfer(_ticker, _amount, msg.sender, _receiver, 0, false, transferId, block.timestamp));\r\n        emit TransferRequestCreated(_ticker, transferId, _amount, msg.sender, _receiver);\r\n        transferId++;\r\n        \r\n    }\r\n\r\n\r\n    function cancelTransfer(string memory ticker, uint _id) public {\r\n        require(owners.length >= 1, \"need to have more than one signer\");\r\n        // require(transferRequests[_id].sender == msg.sender, \"only the user who created the transfer can cancel\");\r\n\r\n        uint counter = 0;\r\n        bool hasBeenFound = false;\r\n        for(uint i = 0; i < transferRequests.length; i++) {\r\n           if(transferRequests[i].id == _id) {\r\n               hasBeenFound = true;\r\n               break;\r\n           }\r\n           counter++;\r\n        }\r\n        if(hasBeenFound == false) revert(\"Trnasfer ID not found cancellation\");\r\n\r\n\r\n        balances[msg.sender][ticker] += transferRequests[counter].amount;\r\n        emit transferRequestCancelled(ticker, transferRequests[counter].id, msg.sender, transferRequests[counter].receiver, transferRequests[counter].amount, block.timestamp);\r\n\r\n        transferRequests[counter] = transferRequests[transferRequests.length - 1];\r\n        transferRequests.pop();\r\n\r\n\r\n    }\r\n    \r\n    \r\n    \r\n    \r\n    function Transferapprove(string memory ticker, uint _id) public onlyOwners {\r\n\r\n        uint counter = 0;\r\n        bool hasBeenFound = false;\r\n        for(uint i = 0; i < transferRequests.length; i++) {\r\n           if(transferRequests[i].id == _id) {\r\n               hasBeenFound = true;\r\n               break;\r\n           }\r\n           counter++;\r\n        }\r\n        if(hasBeenFound == false) revert(\"Transfer ID not found for approval\");\r\n\r\n        require(owners.length >= 1, \"need to have more than one signer\");\r\n        require(msg.sender != mainOwner);\r\n        require(approvals[msg.sender][_id] == false, \"transaction alrady approved\");\r\n        require(transferRequests[counter].hasBeenSent == false);\r\n\r\n        approvals[msg.sender][counter] = true;\r\n        transferRequests[counter].approvals++;\r\n        \r\n        emit ApprovalReceived(ticker, counter, transferRequests[counter].approvals, msg.sender);\r\n\r\n        if(transferRequests[counter].approvals == limit) {\r\n\r\n            TransferFunds(ticker, counter);\r\n        }\r\n\r\n    }    \r\n\r\n     //now we need to create a function to actually transfer the funds after the\r\n    //transfer has been recieved\r\n    function TransferFunds(string memory _ticker, uint _id) private {\r\n        \r\n        transferRequests[_id].hasBeenSent = true;\r\n        balances[transferRequests[_id].sender][_ticker] -= transferRequests[_id].amount;\r\n        balances[transferRequests[_id].receiver][_ticker] += transferRequests[_id].amount;\r\n       \r\n        emit transferRequestApproved(_ticker, transferRequests[_id].id, msg.sender, transferRequests[_id].receiver, transferRequests[_id].amount, block.timestamp);\r\n\r\n        transferRequests[_id] = transferRequests[transferRequests.length - 1];\r\n        transferRequests.pop();\r\n        \r\n    }\r\n    \r\n    \r\n    function getApprovalState(uint _id) public view returns(uint)\r\n    {\r\n        return transferRequests[_id].approvals;\r\n    }\r\n    \r\n    \r\n    //Should return all transfer requests\r\n    function getTransferRequests() public view returns (Transfer[] memory){\r\n       \r\n        return transferRequests;\r\n    }\r\n}\r\n\r\n\r\n\r\n\r\n\r\n\r\ncontract MultiSigFactory {\r\n    \r\n     struct UserWallets{\r\n\r\n        address walletAddress;\r\n    }\r\n\r\n    UserWallets[] public wallets;\r\n    MultiSigWallet[] public multisigInstances;\r\n\r\n    mapping(address => UserWallets[]) userWallet;\r\n    event multisigInstanceCreated(uint date, address walletOwner, address multiSigAddress);\r\n   \r\n    function createMultiSig() public {\r\n\r\n        MultiSigWallet newWalletInstance = new MultiSigWallet(msg.sender);\r\n        multisigInstances.push(newWalletInstance);\r\n        \r\n        UserWallets[] storage newWallet = userWallet[msg.sender];\r\n        newWallet.push(UserWallets(address(newWalletInstance)));\r\n        \r\n        emit multisigInstanceCreated(block.timestamp, msg.sender, address(newWalletInstance));\r\n\r\n    }\r\n    \r\n    function getUserWallets() public view returns (UserWallets[] memory wals) {\r\n        return userWallet[msg.sender];\r\n    }\r\n    \r\n    function addOwner(address account, address walletAddres) public {\r\n        \r\n        UserWallets[] storage newWallet = userWallet[account];\r\n        newWallet.push(UserWallets(walletAddres));\r\n      \r\n    }\r\n\r\n    function removeOwner(address account, address walletAddres) public {\r\n        \r\n        UserWallets[] storage newWallet = userWallet[account];\r\n        newWallet.push(UserWallets(walletAddres));\r\n\r\n        uint walletIndex;\r\n        bool hasBeenFound = false;\r\n        for(uint i = 0; i < newWallet.length; i++)\r\n        {\r\n            if (newWallet[i].walletAddress == account)\r\n            {   \r\n                walletIndex = i;\r\n                hasBeenFound = true;\r\n            }\r\n        }\r\n        require(hasBeenFound);\r\n\r\n        newWallet[walletIndex] = newWallet[newWallet.length - 1];\r\n        newWallet.pop();\r\n    }\r\n     \r\n}   ",
  "sourcePath": "C:/Users/evanMcGraneTest/Documents/EthereumProgramming/MutiSigWalletApp/contracts/Multisig.sol",
  "compiler": {
    "name": "solc",
    "version": "0.8.0+commit.c7dfd78e.Emscripten.clang"
  },
  "schemaVersion": "3.3.4",
  "updatedAt": "2021-09-10T13:13:19.968Z",
  "networkType": "ethereum",
  "devdoc": {
    "kind": "dev",
    "methods": {},
    "version": 1
  },
  "userdoc": {
    "kind": "user",
    "methods": {},
    "version": 1
  }
}