{
  "contractName": "MultiSigFactory",
  "abi": [
    {
      "anonymous": false,
      "inputs": [
        {
          "indexed": false,
          "internalType": "uint256",
          "name": "date",
          "type": "uint256"
        },
        {
          "indexed": false,
          "internalType": "address",
          "name": "walletOwner",
          "type": "address"
        },
        {
          "indexed": false,
          "internalType": "address",
          "name": "multiSigAddress",
          "type": "address"
        }
      ],
      "name": "multisigInstanceCreated",
      "type": "event"
    },
    {
      "inputs": [
        {
          "internalType": "uint256",
          "name": "",
          "type": "uint256"
        }
      ],
      "name": "multisigInstances",
      "outputs": [
        {
          "internalType": "contract MultiSigWallet",
          "name": "",
          "type": "address"
        }
      ],
      "stateMutability": "view",
      "type": "function",
      "constant": true
    },
    {
      "inputs": [
        {
          "internalType": "uint256",
          "name": "",
          "type": "uint256"
        }
      ],
      "name": "wallets",
      "outputs": [
        {
          "internalType": "address",
          "name": "walletAddress",
          "type": "address"
        },
        {
          "internalType": "uint256",
          "name": "walletID",
          "type": "uint256"
        }
      ],
      "stateMutability": "view",
      "type": "function",
      "constant": true
    },
    {
      "inputs": [],
      "name": "createMultiSig",
      "outputs": [],
      "stateMutability": "nonpayable",
      "type": "function"
    },
    {
      "inputs": [],
      "name": "getUserWallets",
      "outputs": [
        {
          "components": [
            {
              "internalType": "address",
              "name": "walletAddress",
              "type": "address"
            },
            {
              "internalType": "uint256",
              "name": "walletID",
              "type": "uint256"
            }
          ],
          "internalType": "struct MultiSigFactory.UserWallets[]",
          "name": "wals",
          "type": "tuple[]"
        }
      ],
      "stateMutability": "view",
      "type": "function",
      "constant": true
    },
    {
      "inputs": [
        {
          "internalType": "address",
          "name": "account",
          "type": "address"
        },
        {
          "internalType": "address",
          "name": "walletAddres",
          "type": "address"
        }
      ],
      "name": "addOwner",
      "outputs": [],
      "stateMutability": "nonpayable",
      "type": "function"
    },
    {
      "inputs": [
        {
          "internalType": "address",
          "name": "walletAddres",
          "type": "address"
        }
      ],
      "name": "getWalletID",
      "outputs": [
        {
          "internalType": "uint256",
          "name": "",
          "type": "uint256"
        }
      ],
      "stateMutability": "view",
      "type": "function",
      "constant": true
    },
    {
      "inputs": [
        {
          "internalType": "address",
          "name": "account",
          "type": "address"
        },
        {
          "internalType": "address",
          "name": "walletAddres",
          "type": "address"
        }
      ],
      "name": "removeOwner",
      "outputs": [],
      "stateMutability": "nonpayable",
      "type": "function"
    }
  ],
  "bytecode": "0x60806040526000805534801561001457600080fd5b50615efc806100246000396000f3fe60806040523480156200001157600080fd5b5060043610620000885760003560e01c806368e170a8116200006357806368e170a814620001195780637ad71f72146200013b578063f0f202461462000172578063fbe5ce0a146200017e5762000088565b806316d390bf146200008d57806328442b4d14620000ad5780635c0082bf14620000e3575b600080fd5b620000ab6004803603810190620000a5919062000b22565b6200019e565b005b620000cb6004803603810190620000c5919062000b63565b62000290565b604051620000da919062000d09565b60405180910390f35b620001016004803603810190620000fb919062000af6565b620002d0565b60405162000110919062000d26565b60405180910390f35b62000123620004bf565b60405162000132919062000ce5565b60405180910390f35b62000159600480360381019062000153919062000b63565b620005bd565b6040516200016992919062000cb8565b60405180910390f35b6200017c62000612565b005b6200019c600480360381019062000196919062000b22565b620007f9565b005b6000600360008473ffffffffffffffffffffffffffffffffffffffff1673ffffffffffffffffffffffffffffffffffffffff16815260200190815260200160002090508060405180604001604052808473ffffffffffffffffffffffffffffffffffffffff168152602001600054815250908060018154018082558091505060019003906000526020600020906002020160009091909190915060008201518160000160006101000a81548173ffffffffffffffffffffffffffffffffffffffff021916908373ffffffffffffffffffffffffffffffffffffffff160217905550602082015181600101555050505050565b60028181548110620002a157600080fd5b906000526020600020016000915054906101000a900473ffffffffffffffffffffffffffffffffffffffff1681565b6000806000600360003373ffffffffffffffffffffffffffffffffffffffff1673ffffffffffffffffffffffffffffffffffffffff168152602001908152602001600020805480602002602001604051908101604052809291908181526020016000905b82821015620003c857838290600052602060002090600202016040518060400160405290816000820160009054906101000a900473ffffffffffffffffffffffffffffffffffffffff1673ffffffffffffffffffffffffffffffffffffffff1673ffffffffffffffffffffffffffffffffffffffff1681526020016001820154815250508152602001906001019062000334565b50505050905060005b8151811015620004b4578473ffffffffffffffffffffffffffffffffffffffff168282815181106200042c577f4e487b7100000000000000000000000000000000000000000000000000000000600052603260045260246000fd5b60200260200101516000015173ffffffffffffffffffffffffffffffffffffffff1614156200049e578181815181106200048f577f4e487b7100000000000000000000000000000000000000000000000000000000600052603260045260246000fd5b60200260200101516020015192505b8080620004ab9062000e5a565b915050620003d1565b508192505050919050565b6060600360003373ffffffffffffffffffffffffffffffffffffffff1673ffffffffffffffffffffffffffffffffffffffff168152602001908152602001600020805480602002602001604051908101604052809291908181526020016000905b82821015620005b457838290600052602060002090600202016040518060400160405290816000820160009054906101000a900473ffffffffffffffffffffffffffffffffffffffff1673ffffffffffffffffffffffffffffffffffffffff1673ffffffffffffffffffffffffffffffffffffffff1681526020016001820154815250508152602001906001019062000520565b50505050905090565b60018181548110620005ce57600080fd5b90600052602060002090600202016000915090508060000160009054906101000a900473ffffffffffffffffffffffffffffffffffffffff16908060010154905082565b600033604051620006239062000aba565b6200062f919062000c9b565b604051809103906000f0801580156200064c573d6000803e3d6000fd5b5090506002819080600181540180825580915050600190039060005260206000200160009091909190916101000a81548173ffffffffffffffffffffffffffffffffffffffff021916908373ffffffffffffffffffffffffffffffffffffffff1602179055506000600360003373ffffffffffffffffffffffffffffffffffffffff1673ffffffffffffffffffffffffffffffffffffffff16815260200190815260200160002090508060405180604001604052808473ffffffffffffffffffffffffffffffffffffffff168152602001600054815250908060018154018082558091505060019003906000526020600020906002020160009091909190915060008201518160000160006101000a81548173ffffffffffffffffffffffffffffffffffffffff021916908373ffffffffffffffffffffffffffffffffffffffff1602179055506020820151816001015550507f131a21debd61d4e35432834b9dec2854e4b4b125fb391ffcee71d6ea6b01185f423384604051620007d49392919062000d43565b60405180910390a1600080815480929190620007f09062000e5a565b91905055505050565b6000600360008473ffffffffffffffffffffffffffffffffffffffff1673ffffffffffffffffffffffffffffffffffffffff16815260200190815260200160002090506000806000905060005b838054905081101562000911578473ffffffffffffffffffffffffffffffffffffffff16848281548110620008a4577f4e487b7100000000000000000000000000000000000000000000000000000000600052603260045260246000fd5b906000526020600020906002020160000160009054906101000a900473ffffffffffffffffffffffffffffffffffffffff1673ffffffffffffffffffffffffffffffffffffffff161415620008fb57809250600191505b8080620009089062000e5a565b91505062000846565b50806200091d57600080fd5b826001848054905062000931919062000db9565b8154811062000969577f4e487b7100000000000000000000000000000000000000000000000000000000600052603260045260246000fd5b9060005260206000209060020201838381548110620009b1577f4e487b7100000000000000000000000000000000000000000000000000000000600052603260045260246000fd5b90600052602060002090600202016000820160009054906101000a900473ffffffffffffffffffffffffffffffffffffffff168160000160006101000a81548173ffffffffffffffffffffffffffffffffffffffff021916908373ffffffffffffffffffffffffffffffffffffffff160217905550600182015481600101559050508280548062000a6b577f4e487b7100000000000000000000000000000000000000000000000000000000600052603160045260246000fd5b6001900381819060005260206000209060020201600080820160006101000a81549073ffffffffffffffffffffffffffffffffffffffff02191690556001820160009055505090555050505050565b614fbb8062000f0c83390190565b60008135905062000ad98162000ed7565b92915050565b60008135905062000af08162000ef1565b92915050565b60006020828403121562000b0957600080fd5b600062000b198482850162000ac8565b91505092915050565b6000806040838503121562000b3657600080fd5b600062000b468582860162000ac8565b925050602062000b598582860162000ac8565b9150509250929050565b60006020828403121562000b7657600080fd5b600062000b868482850162000adf565b91505092915050565b600062000b9d838362000c46565b60408301905092915050565b62000bb48162000df4565b82525050565b62000bc58162000df4565b82525050565b600062000bd88262000d90565b62000be4818562000da8565b935062000bf18362000d80565b8060005b8381101562000c2857815162000c0c888262000b8f565b975062000c198362000d9b565b92505060018101905062000bf5565b5085935050505092915050565b62000c408162000e32565b82525050565b60408201600082015162000c5e600085018262000ba9565b50602082015162000c73602085018262000c79565b50505050565b62000c848162000e28565b82525050565b62000c958162000e28565b82525050565b600060208201905062000cb2600083018462000bba565b92915050565b600060408201905062000ccf600083018562000bba565b62000cde602083018462000c8a565b9392505050565b6000602082019050818103600083015262000d01818462000bcb565b905092915050565b600060208201905062000d20600083018462000c35565b92915050565b600060208201905062000d3d600083018462000c8a565b92915050565b600060608201905062000d5a600083018662000c8a565b62000d69602083018562000bba565b62000d78604083018462000bba565b949350505050565b6000819050602082019050919050565b600081519050919050565b6000602082019050919050565b600082825260208201905092915050565b600062000dc68262000e28565b915062000dd38362000e28565b92508282101562000de95762000de862000ea8565b5b828203905092915050565b600062000e018262000e08565b9050919050565b600073ffffffffffffffffffffffffffffffffffffffff82169050919050565b6000819050919050565b600062000e3f8262000e46565b9050919050565b600062000e538262000e08565b9050919050565b600062000e678262000e28565b91507fffffffffffffffffffffffffffffffffffffffffffffffffffffffffffffffff82141562000e9d5762000e9c62000ea8565b5b600182019050919050565b7f4e487b7100000000000000000000000000000000000000000000000000000000600052601160045260246000fd5b62000ee28162000df4565b811462000eee57600080fd5b50565b62000efc8162000e28565b811462000f0857600080fd5b5056fe60806040526000600355600060045560006005553480156200002057600080fd5b5060405162004fbb38038062004fbb833981810160405281019062000046919062000264565b80600160006101000a81548173ffffffffffffffffffffffffffffffffffffffff021916908373ffffffffffffffffffffffffffffffffffffffff1602179055506007600160009054906101000a900473ffffffffffffffffffffffffffffffffffffffff169080600181540180825580915050600190039060005260206000200160009091909190916101000a81548173ffffffffffffffffffffffffffffffffffffffff021916908373ffffffffffffffffffffffffffffffffffffffff160217905550600160078054905062000120919062000290565b600281905550600880600181540180825580915050600190039060005260206000200160006040518060400160405280600381526020017f455448000000000000000000000000000000000000000000000000000000000081525090919091509080519060200190620001959291906200019d565b5050620003b7565b828054620001ab9062000309565b90600052602060002090601f016020900481019282620001cf57600085556200021b565b82601f10620001ea57805160ff19168380011785556200021b565b828001600101855582156200021b579182015b828111156200021a578251825591602001919060010190620001fd565b5b5090506200022a91906200022e565b5090565b5b80821115620002495760008160009055506001016200022f565b5090565b6000815190506200025e816200039d565b92915050565b6000602082840312156200027757600080fd5b600062000287848285016200024d565b91505092915050565b60006200029d82620002ff565b9150620002aa83620002ff565b925082821015620002c057620002bf6200033f565b5b828203905092915050565b6000620002d882620002df565b9050919050565b600073ffffffffffffffffffffffffffffffffffffffff82169050919050565b6000819050919050565b600060028204905060018216806200032257607f821691505b602082108114156200033957620003386200036e565b5b50919050565b7f4e487b7100000000000000000000000000000000000000000000000000000000600052601160045260246000fd5b7f4e487b7100000000000000000000000000000000000000000000000000000000600052602260045260246000fd5b620003a881620002cb565b8114620003b457600080fd5b50565b614bf480620003c76000396000f3fe60806040526004361061013f5760003560e01c80639ead7222116100b6578063c82b4dbb1161006f578063c82b4dbb1461046f578063cad19c40146104ac578063d0e30db0146104d5578063e88ad953146104df578063fbb2e25a1461051d578063ffabc673146105465761013f565b80639ead72221461034b578063a04ef14514610388578063a4d66daf146103b3578063ab17fdc7146103de578063b0b22c2c1461041b578063b80fd822146104445761013f565b8063412ff05511610108578063412ff0551461023d57806352cda148146102665780635f9bb83f14610291578063622a995c146102ba578063808953e1146102e35780639852099c146103205761013f565b8062ce8e3e1461014457806305d01f501461016f578063273cbaa0146101ac5780632e1a7d4d146101d75780633b3e1de814610214575b600080fd5b34801561015057600080fd5b50610159610583565b60405161016691906143db565b60405180910390f35b34801561017b57600080fd5b5061019660048036038101906101919190613981565b610611565b6040516101a3919061476e565b60405180910390f35b3480156101b857600080fd5b506101c161064c565b6040516101ce91906143fd565b60405180910390f35b3480156101e357600080fd5b506101fe60048036038101906101f99190613bcb565b610725565b60405161020b919061476e565b60405180910390f35b34801561022057600080fd5b5061023b60048036038101906102369190613932565b6109d4565b005b34801561024957600080fd5b50610264600480360381019061025f9190613932565b610c45565b005b34801561027257600080fd5b5061027b611010565b604051610288919061476e565b60405180910390f35b34801561029d57600080fd5b506102b860048036038101906102b39190613b64565b611016565b005b3480156102c657600080fd5b506102e160048036038101906102dc9190613bf4565b6114b1565b005b3480156102ef57600080fd5b5061030a60048036038101906103059190613909565b6118b9565b604051610317919061445c565b60405180910390f35b34801561032c57600080fd5b5061033561197f565b604051610342919061476e565b60405180910390f35b34801561035757600080fd5b50610372600480360381019061036d9190613bcb565b611985565b60405161037f919061445c565b60405180910390f35b34801561039457600080fd5b5061039d611a31565b6040516103aa919061441f565b60405180910390f35b3480156103bf57600080fd5b506103c8611bf6565b6040516103d5919061476e565b60405180910390f35b3480156103ea57600080fd5b5061040560048036038101906104009190613bf4565b611bfc565b6040516104129190614441565b60405180910390f35b34801561042757600080fd5b50610442600480360381019061043d9190613abc565b611faa565b005b34801561045057600080fd5b506104596122d0565b604051610466919061476e565b60405180910390f35b34801561047b57600080fd5b5061049660048036038101906104919190613a3a565b6122d6565b6040516104a3919061476e565b60405180910390f35b3480156104b857600080fd5b506104d360048036038101906104ce9190613b10565b61233b565b005b6104dd6127e8565b005b3480156104eb57600080fd5b5061050660048036038101906105019190613a3a565b612993565b60405161051492919061447e565b60405180910390f35b34801561052957600080fd5b50610544600480360381019061053f9190613b10565b612a75565b005b34801561055257600080fd5b5061056d600480360381019061056891906139d5565b612fdc565b60405161057a9190614441565b60405180910390f35b6060600780548060200260200160405190810160405280929190818152602001828054801561060757602002820191906000526020600020905b8160009054906101000a900473ffffffffffffffffffffffffffffffffffffffff1673ffffffffffffffffffffffffffffffffffffffff16815260200190600101908083116105bd575b5050505050905090565b600a60205281600052604060002081805160208101820180518482526020830160208501208183528095505050505050600091509150505481565b60606008805480602002602001604051908101604052809291908181526020016000905b8282101561071c57838290600052602060002001805461068f90614a49565b80601f01602080910402602001604051908101604052809291908181526020018280546106bb90614a49565b80156107085780601f106106dd57610100808354040283529160200191610708565b820191906000526020600020905b8154815290600101906020018083116106eb57829003601f168201915b505050505081526020019060010190610670565b50505050905090565b6000806000905060005b6007805490508110156107ec573373ffffffffffffffffffffffffffffffffffffffff166007828154811061078d577f4e487b7100000000000000000000000000000000000000000000000000000000600052603260045260246000fd5b9060005260206000200160009054906101000a900473ffffffffffffffffffffffffffffffffffffffff1673ffffffffffffffffffffffffffffffffffffffff1614156107d957600191505b80806107e490614a7b565b91505061072f565b5060011515811515146107fe57600080fd5b82600a60003373ffffffffffffffffffffffffffffffffffffffff1673ffffffffffffffffffffffffffffffffffffffff16815260200190815260200160002060405161084a9061433d565b908152602001604051809103902054101561086457600080fd5b3373ffffffffffffffffffffffffffffffffffffffff166108fc849081150290604051600060405180830381858888f193505050501580156108aa573d6000803e3d6000fd5b5082600a60003373ffffffffffffffffffffffffffffffffffffffff1673ffffffffffffffffffffffffffffffffffffffff1681526020019081526020016000206040516108f79061433d565b908152602001604051809103902060008282546109149190614943565b925050819055507f6a647eacc9e98792655e8dba08e3167440b93e02ef76e8e3330fa10a27b4ecbf33600454854260405161095294939291906146b6565b60405180910390a16004600081548092919061096d90614a7b565b9190505550600a60003373ffffffffffffffffffffffffffffffffffffffff1673ffffffffffffffffffffffffffffffffffffffff1681526020019081526020016000206040516109bd9061433d565b908152602001604051809103902054915050919050565b6000805b600780549050811015610a95573373ffffffffffffffffffffffffffffffffffffffff1660078281548110610a36577f4e487b7100000000000000000000000000000000000000000000000000000000600052603260045260246000fd5b9060005260206000200160009054906101000a900473ffffffffffffffffffffffffffffffffffffffff1673ffffffffffffffffffffffffffffffffffffffff161415610a8257600191505b8080610a8d90614a7b565b9150506109d8565b506001151581151514610aa757600080fd5b60005b600780549050811015610b9d578473ffffffffffffffffffffffffffffffffffffffff1660078281548110610b08577f4e487b7100000000000000000000000000000000000000000000000000000000600052603260045260246000fd5b9060005260206000200160009054906101000a900473ffffffffffffffffffffffffffffffffffffffff1673ffffffffffffffffffffffffffffffffffffffff161415610b8a576040517f08c379a0000000000000000000000000000000000000000000000000000000008152600401610b8190614656565b60405180910390fd5b8080610b9590614a7b565b915050610aaa565b5060056007805490501115610bb157600080fd5b6007849080600181540180825580915050600190039060005260206000200160009091909190916101000a81548173ffffffffffffffffffffffffffffffffffffffff021916908373ffffffffffffffffffffffffffffffffffffffff1602179055506001600780549050610c269190614943565b600281905550610c358361300b565b610c3f848361304e565b50505050565b6000805b600780549050811015610d06573373ffffffffffffffffffffffffffffffffffffffff1660078281548110610ca7577f4e487b7100000000000000000000000000000000000000000000000000000000600052603260045260246000fd5b9060005260206000200160009054906101000a900473ffffffffffffffffffffffffffffffffffffffff1673ffffffffffffffffffffffffffffffffffffffff161415610cf357600191505b8080610cfe90614a7b565b915050610c49565b506001151581151514610d1857600080fd5b600080600090505b600780549050811015610e78578573ffffffffffffffffffffffffffffffffffffffff1660078281548110610d7e577f4e487b7100000000000000000000000000000000000000000000000000000000600052603260045260246000fd5b9060005260206000200160009054906101000a900473ffffffffffffffffffffffffffffffffffffffff1673ffffffffffffffffffffffffffffffffffffffff161415610e65578091508573ffffffffffffffffffffffffffffffffffffffff1660078281548110610e19577f4e487b7100000000000000000000000000000000000000000000000000000000600052603260045260246000fd5b9060005260206000200160009054906101000a900473ffffffffffffffffffffffffffffffffffffffff1673ffffffffffffffffffffffffffffffffffffffff1614610e6457600080fd5b5b8080610e7090614a7b565b915050610d20565b5060076001600780549050610e8d9190614943565b81548110610ec4577f4e487b7100000000000000000000000000000000000000000000000000000000600052603260045260246000fd5b9060005260206000200160009054906101000a900473ffffffffffffffffffffffffffffffffffffffff1660078281548110610f29577f4e487b7100000000000000000000000000000000000000000000000000000000600052603260045260246000fd5b9060005260206000200160006101000a81548173ffffffffffffffffffffffffffffffffffffffff021916908373ffffffffffffffffffffffffffffffffffffffff1602179055506007805480610fa9577f4e487b7100000000000000000000000000000000000000000000000000000000600052603160045260246000fd5b6001900381819060005260206000200160006101000a81549073ffffffffffffffffffffffffffffffffffffffff021916905590556001600780549050610ff09190614943565b600281905550610fff8461300b565b61100985846130e6565b5050505050565b60045481565b6000805b6007805490508110156110d7573373ffffffffffffffffffffffffffffffffffffffff1660078281548110611078577f4e487b7100000000000000000000000000000000000000000000000000000000600052603260045260246000fd5b9060005260206000200160009054906101000a900473ffffffffffffffffffffffffffffffffffffffff1673ffffffffffffffffffffffffffffffffffffffff1614156110c457600191505b80806110cf90614a7b565b91505061101a565b5060011515811515146110e957600080fd5b82600a60003373ffffffffffffffffffffffffffffffffffffffff1673ffffffffffffffffffffffffffffffffffffffff168152602001908152602001600020856040516111379190614326565b9081526020016040518091039020541015611187576040517f08c379a000000000000000000000000000000000000000000000000000000000815260040161117e90614636565b60405180910390fd5b60005b60078054905081101561127d578273ffffffffffffffffffffffffffffffffffffffff16600782815481106111e8577f4e487b7100000000000000000000000000000000000000000000000000000000600052603260045260246000fd5b9060005260206000200160009054906101000a900473ffffffffffffffffffffffffffffffffffffffff1673ffffffffffffffffffffffffffffffffffffffff16141561126a576040517f08c379a000000000000000000000000000000000000000000000000000000000815260040161126190614696565b60405180910390fd5b808061127590614a7b565b91505061118a565b5082600a60003373ffffffffffffffffffffffffffffffffffffffff1673ffffffffffffffffffffffffffffffffffffffff168152602001908152602001600020856040516112cc9190614326565b908152602001604051809103902060008282546112e99190614943565b9250508190555060066040518060e001604052808681526020018581526020013373ffffffffffffffffffffffffffffffffffffffff1681526020018473ffffffffffffffffffffffffffffffffffffffff1681526020016000815260200160055481526020014281525090806001815401808255809150506001900390600052602060002090600702016000909190919091506000820151816000019080519060200190611399929190613675565b506020820151816001015560408201518160020160006101000a81548173ffffffffffffffffffffffffffffffffffffffff021916908373ffffffffffffffffffffffffffffffffffffffff16021790555060608201518160030160006101000a81548173ffffffffffffffffffffffffffffffffffffffff021916908373ffffffffffffffffffffffffffffffffffffffff1602179055506080820151816004015560a0820151816005015560c0820151816006015550507ff85258179fd6edacd661ed4d528ac913de6c17c86788c7986958267070e891a48460055485338660405161148b9594939291906145bc565b60405180910390a1600560008154809291906114a690614a7b565b919050555050505050565b80600073ffffffffffffffffffffffffffffffffffffffff16600b826040516114da9190614326565b908152602001604051809103902060010160009054906101000a900473ffffffffffffffffffffffffffffffffffffffff1673ffffffffffffffffffffffffffffffffffffffff161415611563576040517f08c379a000000000000000000000000000000000000000000000000000000000815260040161155a90614676565b60405180910390fd5b6000805b600780549050811015611624573373ffffffffffffffffffffffffffffffffffffffff16600782815481106115c5577f4e487b7100000000000000000000000000000000000000000000000000000000600052603260045260246000fd5b9060005260206000200160009054906101000a900473ffffffffffffffffffffffffffffffffffffffff1673ffffffffffffffffffffffffffffffffffffffff16141561161157600191505b808061161c90614a7b565b915050611567565b50600115158115151461163657600080fd5b600073ffffffffffffffffffffffffffffffffffffffff16600b8460405161165e9190614326565b908152602001604051809103902060010160009054906101000a900473ffffffffffffffffffffffffffffffffffffffff1673ffffffffffffffffffffffffffffffffffffffff1614156116b157600080fd5b83600a60003373ffffffffffffffffffffffffffffffffffffffff1673ffffffffffffffffffffffffffffffffffffffff168152602001908152602001600020846040516116ff9190614326565b908152602001604051809103902054101561171957600080fd5b83600a60003373ffffffffffffffffffffffffffffffffffffffff1673ffffffffffffffffffffffffffffffffffffffff168152602001908152602001600020846040516117679190614326565b9081526020016040518091039020600082825461178491906148ed565b92505081905550600b8360405161179b9190614326565b908152602001604051809103902060010160009054906101000a900473ffffffffffffffffffffffffffffffffffffffff1673ffffffffffffffffffffffffffffffffffffffff1663a9059cbb33866040518363ffffffff1660e01b81526004016118079291906143b2565b602060405180830381600087803b15801561182157600080fd5b505af1158015611835573d6000803e3d6000fd5b505050506040513d601f19601f820116820180604052508101906118599190613a11565b507f6a647eacc9e98792655e8dba08e3167440b93e02ef76e8e3330fa10a27b4ecbf833360045487426040516118939594939291906144ae565b60405180910390a1600460008154809291906118ae90614a7b565b919050555050505050565b6060600073ffffffffffffffffffffffffffffffffffffffff168273ffffffffffffffffffffffffffffffffffffffff1614156118f557600080fd5b8173ffffffffffffffffffffffffffffffffffffffff166395d89b416040518163ffffffff1660e01b815260040160006040518083038186803b15801561193b57600080fd5b505afa15801561194f573d6000803e3d6000fd5b505050506040513d6000823e3d601f19601f820116820180604052508101906119789190613a7b565b9050919050565b60035481565b6008818154811061199557600080fd5b9060005260206000200160009150905080546119b090614a49565b80601f01602080910402602001604051908101604052809291908181526020018280546119dc90614a49565b8015611a295780601f106119fe57610100808354040283529160200191611a29565b820191906000526020600020905b815481529060010190602001808311611a0c57829003601f168201915b505050505081565b60606006805480602002602001604051908101604052809291908181526020016000905b82821015611bed57838290600052602060002090600702016040518060e0016040529081600082018054611a8890614a49565b80601f0160208091040260200160405190810160405280929190818152602001828054611ab490614a49565b8015611b015780601f10611ad657610100808354040283529160200191611b01565b820191906000526020600020905b815481529060010190602001808311611ae457829003601f168201915b50505050508152602001600182015481526020016002820160009054906101000a900473ffffffffffffffffffffffffffffffffffffffff1673ffffffffffffffffffffffffffffffffffffffff1673ffffffffffffffffffffffffffffffffffffffff1681526020016003820160009054906101000a900473ffffffffffffffffffffffffffffffffffffffff1673ffffffffffffffffffffffffffffffffffffffff1673ffffffffffffffffffffffffffffffffffffffff168152602001600482015481526020016005820154815260200160068201548152505081526020019060010190611a55565b50505050905090565b60025481565b6000806000905060005b600780549050811015611cc3573373ffffffffffffffffffffffffffffffffffffffff1660078281548110611c64577f4e487b7100000000000000000000000000000000000000000000000000000000600052603260045260246000fd5b9060005260206000200160009054906101000a900473ffffffffffffffffffffffffffffffffffffffff1673ffffffffffffffffffffffffffffffffffffffff161415611cb057600191505b8080611cbb90614a7b565b915050611c06565b506001151581151514611cd557600080fd5b82600073ffffffffffffffffffffffffffffffffffffffff16600b82604051611cfe9190614326565b908152602001604051809103902060010160009054906101000a900473ffffffffffffffffffffffffffffffffffffffff1673ffffffffffffffffffffffffffffffffffffffff161415611d87576040517f08c379a0000000000000000000000000000000000000000000000000000000008152600401611d7e90614676565b60405180910390fd5b600073ffffffffffffffffffffffffffffffffffffffff16600b85604051611daf9190614326565b908152602001604051809103902060010160009054906101000a900473ffffffffffffffffffffffffffffffffffffffff1673ffffffffffffffffffffffffffffffffffffffff161415611e0257600080fd5b600b84604051611e129190614326565b908152602001604051809103902060010160009054906101000a900473ffffffffffffffffffffffffffffffffffffffff1673ffffffffffffffffffffffffffffffffffffffff166323b872dd3330886040518463ffffffff1660e01b8152600401611e809392919061437b565b602060405180830381600087803b158015611e9a57600080fd5b505af1158015611eae573d6000803e3d6000fd5b505050506040513d601f19601f82011682018060405250810190611ed29190613a11565b5084600a60003373ffffffffffffffffffffffffffffffffffffffff1673ffffffffffffffffffffffffffffffffffffffff16815260200190815260200160002085604051611f219190614326565b90815260200160405180910390206000828254611f3e91906148ed565b92505081905550600192507f41751252894a74bd975de630158c4e47bb25c36d9ce7ad90383d86d391d2be1284336003548842604051611f829594939291906144ae565b60405180910390a160036000815480929190611f9d90614a7b565b9190505550505092915050565b6000805b60078054905081101561206b573373ffffffffffffffffffffffffffffffffffffffff166007828154811061200c577f4e487b7100000000000000000000000000000000000000000000000000000000600052603260045260246000fd5b9060005260206000200160009054906101000a900473ffffffffffffffffffffffffffffffffffffffff1673ffffffffffffffffffffffffffffffffffffffff16141561205857600191505b808061206390614a7b565b915050611fae565b50600115158115151461207d57600080fd5b60005b600880549050811015612142578380519060200120600882815481106120cf577f4e487b7100000000000000000000000000000000000000000000000000000000600052603260045260246000fd5b906000526020600020016040516120e6919061430f565b6040518091039020141561212f576040517f08c379a00000000000000000000000000000000000000000000000000000000081526004016121269061470e565b60405180910390fd5b808061213a90614a7b565b915050612080565b5082805190602001208273ffffffffffffffffffffffffffffffffffffffff166395d89b416040518163ffffffff1660e01b815260040160006040518083038186803b15801561219157600080fd5b505afa1580156121a5573d6000803e3d6000fd5b505050506040513d6000823e3d601f19601f820116820180604052508101906121ce9190613a7b565b80519060200120146121df57600080fd5b60405180604001604052808481526020018373ffffffffffffffffffffffffffffffffffffffff16815250600b8460405161221a9190614326565b90815260200160405180910390206000820151816000019080519060200190612244929190613675565b5060208201518160010160006101000a81548173ffffffffffffffffffffffffffffffffffffffff021916908373ffffffffffffffffffffffffffffffffffffffff1602179055509050506008839080600181540180825580915050600190039060005260206000200160009091909190915090805190602001906122ca929190613675565b50505050565b60055481565b6000600a60003373ffffffffffffffffffffffffffffffffffffffff1673ffffffffffffffffffffffffffffffffffffffff168152602001908152602001600020826040516123259190614326565b9081526020016040518091039020549050919050565b6000805b6007805490508110156123fc573373ffffffffffffffffffffffffffffffffffffffff166007828154811061239d577f4e487b7100000000000000000000000000000000000000000000000000000000600052603260045260246000fd5b9060005260206000200160009054906101000a900473ffffffffffffffffffffffffffffffffffffffff1673ffffffffffffffffffffffffffffffffffffffff1614156123e957600191505b80806123f490614a7b565b91505061233f565b50600115158115151461240e57600080fd5b60008060005b60068054905081101561249e57846006828154811061245c577f4e487b7100000000000000000000000000000000000000000000000000000000600052603260045260246000fd5b906000526020600020906007020160050154141561247d576001915061249e565b828061248890614a7b565b935050808061249690614a7b565b915050612414565b506000151581151514156124e7576040517f08c379a00000000000000000000000000000000000000000000000000000000081526004016124de90614616565b60405180910390fd5b60068281548110612521577f4e487b7100000000000000000000000000000000000000000000000000000000600052603260045260246000fd5b906000526020600020906007020160020160009054906101000a900473ffffffffffffffffffffffffffffffffffffffff1673ffffffffffffffffffffffffffffffffffffffff163373ffffffffffffffffffffffffffffffffffffffff16141561258b57600080fd5b60001515600960003373ffffffffffffffffffffffffffffffffffffffff1673ffffffffffffffffffffffffffffffffffffffff168152602001908152602001600020600086815260200190815260200160002060009054906101000a900460ff1615151461262f576040517f08c379a00000000000000000000000000000000000000000000000000000000081526004016126269061474e565b60405180910390fd5b6001600960003373ffffffffffffffffffffffffffffffffffffffff1673ffffffffffffffffffffffffffffffffffffffff168152602001908152602001600020600084815260200190815260200160002060006101000a81548160ff021916908315150217905550600682815481106126d2577f4e487b7100000000000000000000000000000000000000000000000000000000600052603260045260246000fd5b906000526020600020906007020160040160008154809291906126f490614a7b565b91905055507ffe2c7170bbf30cb5442b472fe32cd4080ecb8caefc95e5157e4737119e8cf068858360068581548110612756577f4e487b7100000000000000000000000000000000000000000000000000000000600052603260045260246000fd5b906000526020600020906007020160040154336040516127799493929190614570565b60405180910390a1600254600683815481106127be577f4e487b7100000000000000000000000000000000000000000000000000000000600052603260045260246000fd5b90600052602060002090600702016004015414156127e1576127e0858361317e565b5b5050505050565b6000805b6007805490508110156128a9573373ffffffffffffffffffffffffffffffffffffffff166007828154811061284a577f4e487b7100000000000000000000000000000000000000000000000000000000600052603260045260246000fd5b9060005260206000200160009054906101000a900473ffffffffffffffffffffffffffffffffffffffff1673ffffffffffffffffffffffffffffffffffffffff16141561289657600191505b80806128a190614a7b565b9150506127ec565b5060011515811515146128bb57600080fd5b60003410156128c957600080fd5b34600a60003373ffffffffffffffffffffffffffffffffffffffff1673ffffffffffffffffffffffffffffffffffffffff1681526020019081526020016000206040516129159061433d565b9081526020016040518091039020600082825461293291906148ed565b925050819055507f41751252894a74bd975de630158c4e47bb25c36d9ce7ad90383d86d391d2be1233600354344260405161297094939291906146b6565b60405180910390a16003600081548092919061298b90614a7b565b919050555050565b600b818051602081018201805184825260208301602085012081835280955050505050506000915090508060000180546129cc90614a49565b80601f01602080910402602001604051908101604052809291908181526020018280546129f890614a49565b8015612a455780601f10612a1a57610100808354040283529160200191612a45565b820191906000526020600020905b815481529060010190602001808311612a2857829003601f168201915b5050505050908060010160009054906101000a900473ffffffffffffffffffffffffffffffffffffffff16905082565b60008060005b600680549050811015612b05578360068281548110612ac3577f4e487b7100000000000000000000000000000000000000000000000000000000600052603260045260246000fd5b9060005260206000209060070201600501541415612ae45760019150612b05565b8280612aef90614a7b565b9350508080612afd90614a7b565b915050612a7b565b50600015158115151415612b4e576040517f08c379a0000000000000000000000000000000000000000000000000000000008152600401612b459061472e565b60405180910390fd5b60068281548110612b88577f4e487b7100000000000000000000000000000000000000000000000000000000600052603260045260246000fd5b906000526020600020906007020160010154600a60003373ffffffffffffffffffffffffffffffffffffffff1673ffffffffffffffffffffffffffffffffffffffff16815260200190815260200160002085604051612be79190614326565b90815260200160405180910390206000828254612c0491906148ed565b925050819055507fb80f814c5698722c4bfbbf15abab5a245f91cdea8a998ffe7c29d0d7ba9acf918460068481548110612c67577f4e487b7100000000000000000000000000000000000000000000000000000000600052603260045260246000fd5b9060005260206000209060070201600501543360068681548110612cb4577f4e487b7100000000000000000000000000000000000000000000000000000000600052603260045260246000fd5b906000526020600020906007020160030160009054906101000a900473ffffffffffffffffffffffffffffffffffffffff1660068781548110612d20577f4e487b7100000000000000000000000000000000000000000000000000000000600052603260045260246000fd5b90600052602060002090600702016001015442604051612d4596959493929190614508565b60405180910390a160066001600680549050612d619190614943565b81548110612d98577f4e487b7100000000000000000000000000000000000000000000000000000000600052603260045260246000fd5b906000526020600020906007020160068381548110612de0577f4e487b7100000000000000000000000000000000000000000000000000000000600052603260045260246000fd5b90600052602060002090600702016000820181600001908054612e0290614a49565b612e0d9291906136fb565b50600182015481600101556002820160009054906101000a900473ffffffffffffffffffffffffffffffffffffffff168160020160006101000a81548173ffffffffffffffffffffffffffffffffffffffff021916908373ffffffffffffffffffffffffffffffffffffffff1602179055506003820160009054906101000a900473ffffffffffffffffffffffffffffffffffffffff168160030160006101000a81548173ffffffffffffffffffffffffffffffffffffffff021916908373ffffffffffffffffffffffffffffffffffffffff1602179055506004820154816004015560058201548160050155600682015481600601559050506006805480612f3f577f4e487b7100000000000000000000000000000000000000000000000000000000600052603160045260246000fd5b600190038181906000526020600020906007020160008082016000612f649190613788565b60018201600090556002820160006101000a81549073ffffffffffffffffffffffffffffffffffffffff02191690556003820160006101000a81549073ffffffffffffffffffffffffffffffffffffffff02191690556004820160009055600582016000905560068201600090555050905550505050565b60096020528160005260406000206020528060005260406000206000915091509054906101000a900460ff1681565b806000806101000a81548173ffffffffffffffffffffffffffffffffffffffff021916908373ffffffffffffffffffffffffffffffffffffffff16021790555050565b60008060009054906101000a900473ffffffffffffffffffffffffffffffffffffffff1690508073ffffffffffffffffffffffffffffffffffffffff166316d390bf84846040518363ffffffff1660e01b81526004016130af929190614352565b600060405180830381600087803b1580156130c957600080fd5b505af11580156130dd573d6000803e3d6000fd5b50505050505050565b60008060009054906101000a900473ffffffffffffffffffffffffffffffffffffffff1690508073ffffffffffffffffffffffffffffffffffffffff1663fbe5ce0a84846040518363ffffffff1660e01b8152600401613147929190614352565b600060405180830381600087803b15801561316157600080fd5b505af1158015613175573d6000803e3d6000fd5b50505050505050565b600681815481106131b8577f4e487b7100000000000000000000000000000000000000000000000000000000600052603260045260246000fd5b906000526020600020906007020160010154600a600060068481548110613208577f4e487b7100000000000000000000000000000000000000000000000000000000600052603260045260246000fd5b906000526020600020906007020160030160009054906101000a900473ffffffffffffffffffffffffffffffffffffffff1673ffffffffffffffffffffffffffffffffffffffff1673ffffffffffffffffffffffffffffffffffffffff168152602001908152602001600020836040516132829190614326565b9081526020016040518091039020600082825461329f91906148ed565b925050819055507fd3af251285060458993a5ebb0d39d9636dad6976562f9df61c5ea778c35d06158260068381548110613302577f4e487b7100000000000000000000000000000000000000000000000000000000600052603260045260246000fd5b906000526020600020906007020160050154336006858154811061334f577f4e487b7100000000000000000000000000000000000000000000000000000000600052603260045260246000fd5b906000526020600020906007020160030160009054906101000a900473ffffffffffffffffffffffffffffffffffffffff16600686815481106133bb577f4e487b7100000000000000000000000000000000000000000000000000000000600052603260045260246000fd5b906000526020600020906007020160010154426040516133e096959493929190614508565b60405180910390a1600660016006805490506133fc9190614943565b81548110613433577f4e487b7100000000000000000000000000000000000000000000000000000000600052603260045260246000fd5b90600052602060002090600702016006828154811061347b577f4e487b7100000000000000000000000000000000000000000000000000000000600052603260045260246000fd5b9060005260206000209060070201600082018160000190805461349d90614a49565b6134a89291906136fb565b50600182015481600101556002820160009054906101000a900473ffffffffffffffffffffffffffffffffffffffff168160020160006101000a81548173ffffffffffffffffffffffffffffffffffffffff021916908373ffffffffffffffffffffffffffffffffffffffff1602179055506003820160009054906101000a900473ffffffffffffffffffffffffffffffffffffffff168160030160006101000a81548173ffffffffffffffffffffffffffffffffffffffff021916908373ffffffffffffffffffffffffffffffffffffffff16021790555060048201548160040155600582015481600501556006820154816006015590505060068054806135da577f4e487b7100000000000000000000000000000000000000000000000000000000600052603160045260246000fd5b6001900381819060005260206000209060070201600080820160006135ff9190613788565b60018201600090556002820160006101000a81549073ffffffffffffffffffffffffffffffffffffffff02191690556003820160006101000a81549073ffffffffffffffffffffffffffffffffffffffff0219169055600482016000905560058201600090556006820160009055505090555050565b82805461368190614a49565b90600052602060002090601f0160209004810192826136a357600085556136ea565b82601f106136bc57805160ff19168380011785556136ea565b828001600101855582156136ea579182015b828111156136e95782518255916020019190600101906136ce565b5b5090506136f791906137c8565b5090565b82805461370790614a49565b90600052602060002090601f0160209004810192826137295760008555613777565b82601f1061373a5780548555613777565b8280016001018555821561377757600052602060002091601f016020900482015b8281111561377657825482559160010191906001019061375b565b5b50905061378491906137c8565b5090565b50805461379490614a49565b6000825580601f106137a657506137c5565b601f0160209004906000526020600020908101906137c491906137c8565b5b50565b5b808211156137e15760008160009055506001016137c9565b5090565b60006137f86137f3846147ba565b614789565b90508281526020810184848401111561381057600080fd5b61381b848285614a07565b509392505050565b6000613836613831846147ba565b614789565b90508281526020810184848401111561384e57600080fd5b613859848285614a16565b509392505050565b60008135905061387081614b62565b92915050565b60008135905061388581614b79565b92915050565b60008151905061389a81614b90565b92915050565b600082601f8301126138b157600080fd5b81356138c18482602086016137e5565b91505092915050565b600082601f8301126138db57600080fd5b81516138eb848260208601613823565b91505092915050565b60008135905061390381614ba7565b92915050565b60006020828403121561391b57600080fd5b600061392984828501613861565b91505092915050565b60008060006060848603121561394757600080fd5b600061395586828701613861565b935050602061396686828701613861565b925050604061397786828701613861565b9150509250925092565b6000806040838503121561399457600080fd5b60006139a285828601613861565b925050602083013567ffffffffffffffff8111156139bf57600080fd5b6139cb858286016138a0565b9150509250929050565b600080604083850312156139e857600080fd5b60006139f685828601613861565b9250506020613a07858286016138f4565b9150509250929050565b600060208284031215613a2357600080fd5b6000613a318482850161388b565b91505092915050565b600060208284031215613a4c57600080fd5b600082013567ffffffffffffffff811115613a6657600080fd5b613a72848285016138a0565b91505092915050565b600060208284031215613a8d57600080fd5b600082015167ffffffffffffffff811115613aa757600080fd5b613ab3848285016138ca565b91505092915050565b60008060408385031215613acf57600080fd5b600083013567ffffffffffffffff811115613ae957600080fd5b613af5858286016138a0565b9250506020613b0685828601613861565b9150509250929050565b60008060408385031215613b2357600080fd5b600083013567ffffffffffffffff811115613b3d57600080fd5b613b49858286016138a0565b9250506020613b5a858286016138f4565b9150509250929050565b600080600060608486031215613b7957600080fd5b600084013567ffffffffffffffff811115613b9357600080fd5b613b9f868287016138a0565b9350506020613bb0868287016138f4565b9250506040613bc186828701613876565b9150509250925092565b600060208284031215613bdd57600080fd5b6000613beb848285016138f4565b91505092915050565b60008060408385031215613c0757600080fd5b6000613c15858286016138f4565b925050602083013567ffffffffffffffff811115613c3257600080fd5b613c3e858286016138a0565b9150509250929050565b6000613c548383613ca6565b60208301905092915050565b6000613c6c8383613e9a565b905092915050565b6000613c808383614255565b905092915050565b613c91816149d1565b82525050565b613ca081614989565b82525050565b613caf81614977565b82525050565b613cbe81614977565b82525050565b6000613ccf8261482f565b613cd98185614882565b9350613ce4836147ea565b8060005b83811015613d15578151613cfc8882613c48565b9750613d078361485b565b925050600181019050613ce8565b5085935050505092915050565b6000613d2d8261483a565b613d378185614893565b935083602082028501613d49856147fa565b8060005b85811015613d855784840389528151613d668582613c60565b9450613d7183614868565b925060208a01995050600181019050613d4d565b50829750879550505050505092915050565b6000613da282614845565b613dac81856148a4565b935083602082028501613dbe8561480a565b8060005b85811015613dfa5784840389528151613ddb8582613c74565b9450613de683614875565b925060208a01995050600181019050613dc2565b50829750879550505050505092915050565b613e158161499b565b82525050565b60008154613e2881614a49565b613e3281866148b5565b94506001821660008114613e4d5760018114613e5e57613e91565b60ff19831686528186019350613e91565b613e678561481a565b60005b83811015613e8957815481890152600182019150602081019050613e6a565b838801955050505b50505092915050565b6000613ea582614850565b613eaf81856148c0565b9350613ebf818560208601614a16565b613ec881614b51565b840191505092915050565b6000613ede82614850565b613ee881856148d1565b9350613ef8818560208601614a16565b613f0181614b51565b840191505092915050565b6000613f1782614850565b613f2181856148e2565b9350613f31818560208601614a16565b80840191505092915050565b6000613f4a6022836148d1565b91507f5472616e73666572204944206e6f7420666f756e6420666f7220617070726f7660008301527f616c0000000000000000000000000000000000000000000000000000000000006020830152604082019050919050565b6000613fb06031836148d1565b91507f696e73756666696369656e742062616c616e636520746f20637265617465206160008301527f207472616e7366657220726561756573740000000000000000000000000000006020830152604082019050919050565b60006140166012836148d1565b91507f416c7265616479207265676973746572656400000000000000000000000000006000830152602082019050919050565b60006140566014836148d1565b91507f546f6b656e20646f6573206e6f742065786973740000000000000000000000006000830152602082019050919050565b60006140966031836148d1565b91507f6f6e6c79207468652077616c6c6574206f776e6572732063616e206d616b652060008301527f7472616e736665722072657571657374730000000000000000000000000000006020830152604082019050919050565b60006140fc6003836148d1565b91507f45544800000000000000000000000000000000000000000000000000000000006000830152602082019050919050565b600061413c6003836148e2565b91507f45544800000000000000000000000000000000000000000000000000000000006000830152600382019050919050565b600061417c6013836148d1565b91507f546f6b656e20616c7265616479206164646564000000000000000000000000006000830152602082019050919050565b60006141bc6022836148d1565b91507f54726e6173666572204944206e6f7420666f756e642063616e63656c6c61746960008301527f6f6e0000000000000000000000000000000000000000000000000000000000006020830152604082019050919050565b6000614222601b836148d1565b91507f7472616e73616374696f6e20616c7261647920617070726f76656400000000006000830152602082019050919050565b600060e08301600083015184820360008601526142728282613e9a565b915050602083015161428760208601826142f1565b50604083015161429a6040860182613ca6565b5060608301516142ad6060860182613c97565b5060808301516142c060808601826142f1565b5060a08301516142d360a08601826142f1565b5060c08301516142e660c08601826142f1565b508091505092915050565b6142fa816149c7565b82525050565b614309816149c7565b82525050565b600061431b8284613e1b565b915081905092915050565b60006143328284613f0c565b915081905092915050565b60006143488261412f565b9150819050919050565b60006040820190506143676000830185613cb5565b6143746020830184613cb5565b9392505050565b60006060820190506143906000830186613cb5565b61439d6020830185613cb5565b6143aa6040830184614300565b949350505050565b60006040820190506143c76000830185613cb5565b6143d46020830184614300565b9392505050565b600060208201905081810360008301526143f58184613cc4565b905092915050565b600060208201905081810360008301526144178184613d22565b905092915050565b600060208201905081810360008301526144398184613d97565b905092915050565b60006020820190506144566000830184613e0c565b92915050565b600060208201905081810360008301526144768184613ed3565b905092915050565b600060408201905081810360008301526144988185613ed3565b90506144a76020830184613cb5565b9392505050565b600060a08201905081810360008301526144c88188613ed3565b90506144d76020830187613cb5565b6144e46040830186614300565b6144f16060830185614300565b6144fe6080830184614300565b9695505050505050565b600060c08201905081810360008301526145228189613ed3565b90506145316020830188614300565b61453e6040830187613cb5565b61454b6060830186613c88565b6145586080830185614300565b61456560a0830184614300565b979650505050505050565b6000608082019050818103600083015261458a8187613ed3565b90506145996020830186614300565b6145a66040830185614300565b6145b36060830184613cb5565b95945050505050565b600060a08201905081810360008301526145d68188613ed3565b90506145e56020830187614300565b6145f26040830186614300565b6145ff6060830185613cb5565b61460c6080830184613c88565b9695505050505050565b6000602082019050818103600083015261462f81613f3d565b9050919050565b6000602082019050818103600083015261464f81613fa3565b9050919050565b6000602082019050818103600083015261466f81614009565b9050919050565b6000602082019050818103600083015261468f81614049565b9050919050565b600060208201905081810360008301526146af81614089565b9050919050565b600060a08201905081810360008301526146cf816140ef565b90506146de6020830187613cb5565b6146eb6040830186614300565b6146f86060830185614300565b6147056080830184614300565b95945050505050565b600060208201905081810360008301526147278161416f565b9050919050565b60006020820190508181036000830152614747816141af565b9050919050565b6000602082019050818103600083015261476781614215565b9050919050565b60006020820190506147836000830184614300565b92915050565b6000604051905081810181811067ffffffffffffffff821117156147b0576147af614b22565b5b8060405250919050565b600067ffffffffffffffff8211156147d5576147d4614b22565b5b601f19601f8301169050602081019050919050565b6000819050602082019050919050565b6000819050602082019050919050565b6000819050602082019050919050565b60008190508160005260206000209050919050565b600081519050919050565b600081519050919050565b600081519050919050565b600081519050919050565b6000602082019050919050565b6000602082019050919050565b6000602082019050919050565b600082825260208201905092915050565b600082825260208201905092915050565b600082825260208201905092915050565b600081905092915050565b600082825260208201905092915050565b600082825260208201905092915050565b600081905092915050565b60006148f8826149c7565b9150614903836149c7565b9250827fffffffffffffffffffffffffffffffffffffffffffffffffffffffffffffffff0382111561493857614937614ac4565b5b828201905092915050565b600061494e826149c7565b9150614959836149c7565b92508282101561496c5761496b614ac4565b5b828203905092915050565b6000614982826149a7565b9050919050565b6000614994826149a7565b9050919050565b60008115159050919050565b600073ffffffffffffffffffffffffffffffffffffffff82169050919050565b6000819050919050565b60006149dc826149e3565b9050919050565b60006149ee826149f5565b9050919050565b6000614a00826149a7565b9050919050565b82818337600083830152505050565b60005b83811015614a34578082015181840152602081019050614a19565b83811115614a43576000848401525b50505050565b60006002820490506001821680614a6157607f821691505b60208210811415614a7557614a74614af3565b5b50919050565b6000614a86826149c7565b91507fffffffffffffffffffffffffffffffffffffffffffffffffffffffffffffffff821415614ab957614ab8614ac4565b5b600182019050919050565b7f4e487b7100000000000000000000000000000000000000000000000000000000600052601160045260246000fd5b7f4e487b7100000000000000000000000000000000000000000000000000000000600052602260045260246000fd5b7f4e487b7100000000000000000000000000000000000000000000000000000000600052604160045260246000fd5b6000601f19601f8301169050919050565b614b6b81614977565b8114614b7657600080fd5b50565b614b8281614989565b8114614b8d57600080fd5b50565b614b998161499b565b8114614ba457600080fd5b50565b614bb0816149c7565b8114614bbb57600080fd5b5056fea2646970667358221220f3c2b96415d0dd4c43b695a4127580b3c6ab9a9569854cfd3a8809f681e129a264736f6c63430008000033a2646970667358221220bc75dd516a3eb2e268b674237b0ea870a95169b594a8c0e61d0e4a9e26b3c80a64736f6c63430008000033",
  "immutableReferences": {},
  "source": "//SPDX-License-Identifier: MIT\r\npragma solidity 0.8.0;\r\npragma abicoder v2;\r\n\r\nimport \"../node_modules/@openzeppelin/contracts/token/ERC20/IERC20.sol\";\r\nimport \"../node_modules/@openzeppelin/contracts/token/ERC20/ERC20.sol\";\r\n\r\n\r\ncontract MultiSigWallet {\r\n\r\n////////////////////////////Global Variables & Mappings///////////////////////////\r\n\r\n    address MultiSigInstance;\r\n    address mainOwner;\r\n    uint public limit;\r\n    uint256 public depositId = 0;\r\n    uint256 public withdrawalId = 0;\r\n    uint256 public transferId = 0;\r\n    Transfer[] transferRequests;\r\n    address[] owners;\r\n    string[] public tokenList;\r\n\r\n    mapping(address => mapping(uint => bool)) public approvals;\r\n    mapping(address => mapping(string => uint)) public balances;\r\n    mapping(string => Token) public tokenMapping;\r\n \r\n\r\n////////////////////////////Constructor///////////////////////////\r\n//used to set the main owner, the approval limit and sets eth as default token\r\n//on the deployment of the contract\r\n\r\n    constructor(address _owner) {\r\n        mainOwner = _owner;\r\n        owners.push(mainOwner);\r\n        limit = owners.length - 1;\r\n        tokenList.push(\"ETH\");\r\n    }\r\n    \r\n\r\n////////////////////////////Data Strructures (Structs)///////////////////////////\r\n//here we have a transfer struct and token struct used to create instances of each\r\n\r\n    struct Transfer{\r\n        string ticker;\r\n        uint amount;\r\n        address sender;\r\n        address payable receiver;\r\n        uint approvals;\r\n        uint id;\r\n        uint timeOfCreation;\r\n    }\r\n\r\n    struct Token {\r\n        string ticker;\r\n        address tokenAddress;\r\n    }\r\n    \r\n    \r\n////////////////////////////Modifiers///////////////////////////\r\n\r\n    modifier onlyOwners(){\r\n        bool owner = false;\r\n        for(uint i=0; i<owners.length;i++){\r\n            if(owners[i] == msg.sender){\r\n                owner = true;\r\n            }\r\n        }\r\n        require(owner == true);\r\n        _;\r\n    }\r\n\r\n    modifier tokenExists(string memory ticker) {\r\n        \r\n        require(tokenMapping[ticker].tokenAddress != address(0), \"Token does not exist\");\r\n         _;\r\n    }\r\n    \r\n\r\n////////////////////////////Events///////////////////////////\r\n\r\n    event fundsDeposited(string ticker, address from, uint256 id, uint amount, uint256 timeStamp);\r\n    event fundsWithdrawed(string ticker, address from, uint256 id, uint amount, uint256 timeStamp);\r\n    event TransferRequestCreated(string ticker, uint id, uint _amount, address _initiator, address _receiver);\r\n    event ApprovalReceived(string ticker, uint id, uint _approvals, address _approver);\r\n    event TransferApproved(string ticker, uint id);\r\n    event transferRequestApproved(string ticker, uint id, address sender, address receiver, uint amount, uint timeStamp);\r\n    event transferRequestCancelled(string ticker, uint id, address sender, address receiver, uint amount, uint timeStamp);\r\n\r\n   \r\n    \r\n    function addToken(string memory ticker, address tokenAddress) external onlyOwners {\r\n\r\n        for(uint i = 0; i < tokenList.length; i++) {\r\n            if(keccak256(bytes(tokenList[i])) == keccak256(bytes(ticker))) {\r\n                revert(\"Token already added\");\r\n            }\r\n        }\r\n        require(keccak256(bytes(ERC20(tokenAddress).symbol())) == keccak256(bytes(ticker)));\r\n        \r\n        tokenMapping[ticker] = Token(ticker, tokenAddress);\r\n        //add the new token to the token list\r\n        tokenList.push(ticker);\r\n    }\r\n    \r\n////////////////////////////Functions for Dynamically Adding and Removing Wallet Owners///////////////////////////\r\n    //add user function. require owner is not already in the wallet array\r\n    function addUsers(address _owners, address _address, address walletAddress) public onlyOwners\r\n    {\r\n        for (uint user = 0; user < owners.length; user++)\r\n        {\r\n            require(owners[user] != _owners, \"Already registered\");\r\n        }\r\n        require(owners.length <= 5);\r\n        owners.push(_owners);\r\n        \r\n        //from the current array calculate the value of minimum consensus\r\n        limit = owners.length - 1;\r\n        \r\n        setWalletAddress(_address);\r\n        callAddOwner(_owners, walletAddress );\r\n    }\r\n    \r\n    //remove user require the address we pass in is the address were removing\r\n    function removeUser(address _user, address _address, address walletAddress) public onlyOwners\r\n    {\r\n        uint user_index;\r\n        for(uint user = 0; user < owners.length; user++)\r\n        {\r\n            if (owners[user] == _user)\r\n            {   \r\n                user_index = user;\r\n                require(owners[user] == _user);\r\n            }\r\n        }\r\n        \r\n        owners[user_index] = owners[owners.length - 1];\r\n        owners.pop();\r\n        limit= owners.length - 1;\r\n        \r\n        setWalletAddress(_address);\r\n        callRemoveOwner(_user, walletAddress );\r\n    }\r\n\r\n//this function is used to set the address of the current logged in wallet instance that the user is using\r\n    function setWalletAddress(address _address) private {\r\n        MultiSigInstance = _address;\r\n    }\r\n\r\n//this function updates the users list of available wallets. This function is used from the multisig fsctory contract   \r\n    function callAddOwner(address owner, address wallet) private {\r\n        MultiSigFactory factory = MultiSigFactory(MultiSigInstance);\r\n        factory.addOwner(owner, wallet);\r\n    }\r\n\r\n//this function updates the users list of available wallets. This function is used from the multisig fsctory contract   \r\n    function callRemoveOwner(address owner, address wallet) private {\r\n\r\n        MultiSigFactory factory = MultiSigFactory(MultiSigInstance);\r\n        factory.removeOwner(owner, wallet);\r\n    }\r\n    \r\n    \r\n    //gets wallet users\r\n    function getUsers() public view returns(address[] memory)\r\n    {\r\n        return owners;\r\n    }\r\n    \r\n   \r\n    \r\n////////////////////////////Functions for deopositing and withdrawing assets to and from the wallet///////////////////////////\r\n    //deposit function. require deposit amount i sgreater than 0 and withdrawalRequests//the wallet oweners array is greater than 1\r\n    function deposit() public onlyOwners payable {\r\n        \r\n        require(msg.value >= 0);\r\n    \r\n        balances[msg.sender][\"ETH\"] += msg.value;\r\n        emit fundsDeposited(\"ETH\", msg.sender, depositId, msg.value, block.timestamp);\r\n        depositId++;\r\n    }\r\n\r\n    function depositERC20Token(uint amount, string memory ticker) external onlyOwners tokenExists(ticker) returns(bool _success){\r\n\r\n        require(tokenMapping[ticker].tokenAddress != address(0));\r\n    \r\n        IERC20(tokenMapping[ticker].tokenAddress).transferFrom(msg.sender, address(this), amount);\r\n        balances[msg.sender][ticker] += amount;  \r\n        _success = true;\r\n        //emit deposited(msg.sender, address(this), amount, ticker);\r\n        emit fundsDeposited(ticker, msg.sender, depositId, amount, block.timestamp);\r\n        depositId++;\r\n\r\n        return _success;\r\n    }\r\n\r\n    //after transfer is called our balance i < transaction amount thus we cannot withfraw\r\n    //update amount after transfer function.\r\n    function withdraw(uint _amount) public onlyOwners returns (uint)\r\n    {\r\n        require(balances[msg.sender][\"ETH\"] >= _amount);\r\n        \r\n        payable(msg.sender).transfer(_amount);\r\n        balances[msg.sender][\"ETH\"] -= _amount;\r\n\r\n        emit fundsWithdrawed(\"ETH\", msg.sender, withdrawalId, _amount, block.timestamp);\r\n        withdrawalId++;\r\n        \r\n        return balances[msg.sender][\"ETH\"];\r\n        \r\n    }\r\n\r\n    //withdrawal function\r\n    function withdrawERC20Token(uint amount, string memory ticker) external tokenExists(ticker) onlyOwners {\r\n        require(tokenMapping[ticker].tokenAddress != address(0));\r\n        require(balances[msg.sender][ticker] >= amount);\r\n\r\n        balances[msg.sender][ticker] += amount;\r\n        IERC20(tokenMapping[ticker].tokenAddress).transfer(msg.sender, amount);\r\n        emit fundsWithdrawed(ticker, msg.sender, withdrawalId, amount, block.timestamp);\r\n        withdrawalId++;\r\n\r\n    }\r\n\r\n        \r\n////////////////////////////Functions for approving, cancelling and executing transfers within the wallet///////////////////////////\r\n\r\n    //Create an instance of the Transfer struct and add it to the transferRequests array\r\n    function createTransfer(string memory _ticker, uint _amount, address payable _receiver) public onlyOwners {\r\n\r\n        require(balances[msg.sender][_ticker] >= _amount, \"insufficient balance to create a transfer reauest\");\r\n    \r\n        for (uint i = 0; i < owners.length; i++) {\r\n            require(owners[i] != _receiver, \"only the wallet owners can make transfer reuqests\");\r\n        }\r\n        \r\n        balances[msg.sender][_ticker] -= _amount;\r\n        transferRequests.push(Transfer(_ticker, _amount, msg.sender, _receiver, 0, transferId, block.timestamp));\r\n        emit TransferRequestCreated(_ticker, transferId, _amount, msg.sender, _receiver);\r\n        transferId++;\r\n        \r\n    }\r\n\r\n\r\n    function cancelTransfer(string memory ticker, uint _id) public {\r\n        // require(transferRequests[_id].sender == msg.sender, \"only the user who created the transfer can cancel\");\r\n\r\n        uint counter = 0;\r\n        bool hasBeenFound = false;\r\n        for(uint i = 0; i < transferRequests.length; i++) {\r\n           if(transferRequests[i].id == _id) {\r\n               hasBeenFound = true;\r\n               break;\r\n           }\r\n           counter++;\r\n        }\r\n        if(hasBeenFound == false) revert(\"Trnasfer ID not found cancellation\");\r\n\r\n\r\n        balances[msg.sender][ticker] += transferRequests[counter].amount;\r\n        emit transferRequestCancelled(ticker, transferRequests[counter].id, msg.sender, transferRequests[counter].receiver, transferRequests[counter].amount, block.timestamp);\r\n\r\n        transferRequests[counter] = transferRequests[transferRequests.length - 1];\r\n        transferRequests.pop();\r\n\r\n\r\n    }\r\n    \r\n    \r\n    \r\n    \r\n    function Transferapprove(string memory ticker, uint _id) public onlyOwners {\r\n\r\n        uint counter = 0;\r\n        bool hasBeenFound = false;\r\n        for(uint i = 0; i < transferRequests.length; i++) {\r\n           if(transferRequests[i].id == _id) {\r\n               hasBeenFound = true;\r\n               break;\r\n           }\r\n           counter++;\r\n        }\r\n        if(hasBeenFound == false) revert(\"Transfer ID not found for approval\");\r\n\r\n        require(msg.sender != transferRequests[counter].sender);\r\n        require(approvals[msg.sender][_id] == false, \"transaction alrady approved\");\r\n\r\n        approvals[msg.sender][counter] = true;\r\n        transferRequests[counter].approvals++;\r\n        \r\n        emit ApprovalReceived(ticker, counter, transferRequests[counter].approvals, msg.sender);\r\n\r\n        if(transferRequests[counter].approvals == limit) {\r\n\r\n            TransferFunds(ticker, counter);\r\n        }\r\n\r\n    }    \r\n\r\n     //now we need to create a function to actually transfer the funds after the\r\n    //transfer has been recieved\r\n    function TransferFunds(string memory _ticker, uint _id) private {\r\n        \r\n        balances[transferRequests[_id].receiver][_ticker] += transferRequests[_id].amount;\r\n       \r\n        emit transferRequestApproved(_ticker, transferRequests[_id].id, msg.sender, transferRequests[_id].receiver, transferRequests[_id].amount, block.timestamp);\r\n\r\n        transferRequests[_id] = transferRequests[transferRequests.length - 1];\r\n        transferRequests.pop();\r\n        \r\n    }\r\n    \r\n////////////////////////////Helper functions and blockhain reading functions///////////////////////////\r\n\r\n    \r\n    //Should return all transfer requests\r\n    function getTransferRequests() public view returns (Transfer[] memory){\r\n       \r\n        return transferRequests;\r\n    }\r\n\r\n    \r\n    //next we want to make a get balance function\r\n    function getAccountBalance(string memory ticker) public view returns(uint)\r\n    {\r\n        return balances[msg.sender][ticker];\r\n    }\r\n    \r\n    function getTokenList() public view returns (string[] memory) {\r\n        \r\n        return tokenList;\r\n    }\r\n    \r\n    function getTicker(address tokenAddress) public view returns (string memory) {\r\n        \r\n        require(tokenAddress != address(0));\r\n        return ERC20(tokenAddress).symbol();\r\n    }\r\n}\r\n\r\n\r\n\r\n\r\n\r\n\r\ncontract MultiSigFactory {\r\n    \r\n     struct UserWallets{\r\n\r\n        address walletAddress;\r\n        uint walletID;\r\n    }\r\n\r\n    uint id = 0;\r\n    UserWallets[] public wallets;\r\n    MultiSigWallet[] public multisigInstances;\r\n\r\n    mapping(address => UserWallets[]) userWallet;\r\n    event multisigInstanceCreated(uint date, address walletOwner, address multiSigAddress);\r\n   \r\n    function createMultiSig() public {\r\n\r\n        MultiSigWallet newWalletInstance = new MultiSigWallet(msg.sender);\r\n        multisigInstances.push(newWalletInstance);\r\n        \r\n        UserWallets[] storage newWallet = userWallet[msg.sender];\r\n        newWallet.push(UserWallets(address(newWalletInstance), id));\r\n        \r\n        emit multisigInstanceCreated(block.timestamp, msg.sender, address(newWalletInstance));\r\n        id++;\r\n    }\r\n    \r\n    function getUserWallets() public view returns (UserWallets[] memory wals) {\r\n        return userWallet[msg.sender];\r\n    }\r\n    \r\n    function addOwner(address account, address walletAddres) public {\r\n        \r\n        UserWallets[] storage newWallet = userWallet[account];\r\n        newWallet.push(UserWallets(walletAddres, id));\r\n      \r\n    }\r\n    \r\n    function getWalletID(address walletAddres) public view returns (uint) {\r\n        \r\n        uint walletId;\r\n        UserWallets[] memory newWallet = userWallet[msg.sender];\r\n        for (uint i = 0; i < newWallet.length; i ++) {\r\n            if (newWallet[i].walletAddress == walletAddres){\r\n                walletId = newWallet[i].walletID;\r\n            }\r\n        }  \r\n        return walletId;\r\n    }\r\n\r\n    function removeOwner(address account, address walletAddres) public {\r\n        \r\n        UserWallets[] storage newWallet = userWallet[account];\r\n       \r\n        uint walletIndex;\r\n        bool hasBeenFound = false;\r\n        for(uint i = 0; i < newWallet.length; i++)\r\n        {\r\n            if (newWallet[i].walletAddress == walletAddres)\r\n            {   \r\n                walletIndex = i;\r\n                hasBeenFound = true;\r\n            }\r\n        }\r\n        require(hasBeenFound);\r\n\r\n        newWallet[walletIndex] = newWallet[newWallet.length - 1];\r\n        newWallet.pop();\r\n    }\r\n     \r\n}   \r\n\r\n\r\n\r\n\r\n\r\n\r\n\r\n\r\n\r\n",
  "sourcePath": "C:/Users/evanMcGraneTest/Documents/EthereumProgramming/MutiSigWalletApp/contracts/Multisig.sol",
  "compiler": {
    "name": "solc",
    "version": "0.8.0+commit.c7dfd78e.Emscripten.clang"
  },
  "schemaVersion": "3.3.4",
  "updatedAt": "2021-09-15T17:11:09.194Z",
  "networkType": "ethereum",
  "devdoc": {
    "kind": "dev",
    "methods": {},
    "version": 1
  },
  "userdoc": {
    "kind": "user",
    "methods": {},
    "version": 1
  }
}