{
  "contractName": "MultiSigWallet",
  "abi": [
    {
      "inputs": [
        {
          "internalType": "address",
          "name": "_owner",
          "type": "address"
        }
      ],
      "stateMutability": "nonpayable",
      "type": "constructor"
    },
    {
      "anonymous": false,
      "inputs": [
        {
          "indexed": false,
          "internalType": "string",
          "name": "ticker",
          "type": "string"
        },
        {
          "indexed": false,
          "internalType": "uint256",
          "name": "id",
          "type": "uint256"
        },
        {
          "indexed": false,
          "internalType": "uint256",
          "name": "_approvals",
          "type": "uint256"
        },
        {
          "indexed": false,
          "internalType": "address",
          "name": "_approver",
          "type": "address"
        }
      ],
      "name": "ApprovalReceived",
      "type": "event"
    },
    {
      "anonymous": false,
      "inputs": [
        {
          "indexed": false,
          "internalType": "string",
          "name": "ticker",
          "type": "string"
        },
        {
          "indexed": false,
          "internalType": "uint256",
          "name": "id",
          "type": "uint256"
        }
      ],
      "name": "TransferApproved",
      "type": "event"
    },
    {
      "anonymous": false,
      "inputs": [
        {
          "indexed": false,
          "internalType": "string",
          "name": "ticker",
          "type": "string"
        },
        {
          "indexed": false,
          "internalType": "uint256",
          "name": "id",
          "type": "uint256"
        },
        {
          "indexed": false,
          "internalType": "uint256",
          "name": "_amount",
          "type": "uint256"
        },
        {
          "indexed": false,
          "internalType": "address",
          "name": "_initiator",
          "type": "address"
        },
        {
          "indexed": false,
          "internalType": "address",
          "name": "_receiver",
          "type": "address"
        }
      ],
      "name": "TransferRequestCreated",
      "type": "event"
    },
    {
      "anonymous": false,
      "inputs": [
        {
          "indexed": false,
          "internalType": "string",
          "name": "ticker",
          "type": "string"
        },
        {
          "indexed": false,
          "internalType": "address",
          "name": "from",
          "type": "address"
        },
        {
          "indexed": false,
          "internalType": "uint256",
          "name": "id",
          "type": "uint256"
        },
        {
          "indexed": false,
          "internalType": "uint256",
          "name": "amount",
          "type": "uint256"
        },
        {
          "indexed": false,
          "internalType": "uint256",
          "name": "timeStamp",
          "type": "uint256"
        }
      ],
      "name": "fundsDeposited",
      "type": "event"
    },
    {
      "anonymous": false,
      "inputs": [
        {
          "indexed": false,
          "internalType": "string",
          "name": "ticker",
          "type": "string"
        },
        {
          "indexed": false,
          "internalType": "address",
          "name": "from",
          "type": "address"
        },
        {
          "indexed": false,
          "internalType": "uint256",
          "name": "id",
          "type": "uint256"
        },
        {
          "indexed": false,
          "internalType": "uint256",
          "name": "amount",
          "type": "uint256"
        },
        {
          "indexed": false,
          "internalType": "uint256",
          "name": "timeStamp",
          "type": "uint256"
        }
      ],
      "name": "fundsWithdrawed",
      "type": "event"
    },
    {
      "anonymous": false,
      "inputs": [
        {
          "indexed": false,
          "internalType": "string",
          "name": "ticker",
          "type": "string"
        },
        {
          "indexed": false,
          "internalType": "uint256",
          "name": "id",
          "type": "uint256"
        },
        {
          "indexed": false,
          "internalType": "address",
          "name": "sender",
          "type": "address"
        },
        {
          "indexed": false,
          "internalType": "address",
          "name": "receiver",
          "type": "address"
        },
        {
          "indexed": false,
          "internalType": "uint256",
          "name": "amount",
          "type": "uint256"
        },
        {
          "indexed": false,
          "internalType": "uint256",
          "name": "timeStamp",
          "type": "uint256"
        }
      ],
      "name": "transferRequestApproved",
      "type": "event"
    },
    {
      "anonymous": false,
      "inputs": [
        {
          "indexed": false,
          "internalType": "string",
          "name": "ticker",
          "type": "string"
        },
        {
          "indexed": false,
          "internalType": "uint256",
          "name": "id",
          "type": "uint256"
        },
        {
          "indexed": false,
          "internalType": "address",
          "name": "sender",
          "type": "address"
        },
        {
          "indexed": false,
          "internalType": "address",
          "name": "receiver",
          "type": "address"
        },
        {
          "indexed": false,
          "internalType": "uint256",
          "name": "amount",
          "type": "uint256"
        },
        {
          "indexed": false,
          "internalType": "uint256",
          "name": "timeStamp",
          "type": "uint256"
        }
      ],
      "name": "transferRequestCancelled",
      "type": "event"
    },
    {
      "inputs": [
        {
          "internalType": "address",
          "name": "",
          "type": "address"
        },
        {
          "internalType": "string",
          "name": "",
          "type": "string"
        }
      ],
      "name": "ERC20Tokenbalances",
      "outputs": [
        {
          "internalType": "uint256",
          "name": "",
          "type": "uint256"
        }
      ],
      "stateMutability": "view",
      "type": "function",
      "constant": true
    },
    {
      "inputs": [
        {
          "internalType": "address",
          "name": "",
          "type": "address"
        },
        {
          "internalType": "uint256",
          "name": "",
          "type": "uint256"
        }
      ],
      "name": "approvals",
      "outputs": [
        {
          "internalType": "bool",
          "name": "",
          "type": "bool"
        }
      ],
      "stateMutability": "view",
      "type": "function",
      "constant": true
    },
    {
      "inputs": [
        {
          "internalType": "address",
          "name": "",
          "type": "address"
        },
        {
          "internalType": "string",
          "name": "",
          "type": "string"
        }
      ],
      "name": "balances",
      "outputs": [
        {
          "internalType": "uint256",
          "name": "",
          "type": "uint256"
        }
      ],
      "stateMutability": "view",
      "type": "function",
      "constant": true
    },
    {
      "inputs": [],
      "name": "depositId",
      "outputs": [
        {
          "internalType": "uint256",
          "name": "",
          "type": "uint256"
        }
      ],
      "stateMutability": "view",
      "type": "function",
      "constant": true
    },
    {
      "inputs": [],
      "name": "limit",
      "outputs": [
        {
          "internalType": "uint256",
          "name": "",
          "type": "uint256"
        }
      ],
      "stateMutability": "view",
      "type": "function",
      "constant": true
    },
    {
      "inputs": [
        {
          "internalType": "uint256",
          "name": "",
          "type": "uint256"
        }
      ],
      "name": "tokenList",
      "outputs": [
        {
          "internalType": "string",
          "name": "",
          "type": "string"
        }
      ],
      "stateMutability": "view",
      "type": "function",
      "constant": true
    },
    {
      "inputs": [
        {
          "internalType": "string",
          "name": "",
          "type": "string"
        }
      ],
      "name": "tokenMapping",
      "outputs": [
        {
          "internalType": "string",
          "name": "ticker",
          "type": "string"
        },
        {
          "internalType": "address",
          "name": "tokenAddress",
          "type": "address"
        }
      ],
      "stateMutability": "view",
      "type": "function",
      "constant": true
    },
    {
      "inputs": [],
      "name": "transferId",
      "outputs": [
        {
          "internalType": "uint256",
          "name": "",
          "type": "uint256"
        }
      ],
      "stateMutability": "view",
      "type": "function",
      "constant": true
    },
    {
      "inputs": [],
      "name": "withdrawalId",
      "outputs": [
        {
          "internalType": "uint256",
          "name": "",
          "type": "uint256"
        }
      ],
      "stateMutability": "view",
      "type": "function",
      "constant": true
    },
    {
      "inputs": [
        {
          "internalType": "string",
          "name": "ticker",
          "type": "string"
        },
        {
          "internalType": "address",
          "name": "tokenAddress",
          "type": "address"
        }
      ],
      "name": "addToken",
      "outputs": [],
      "stateMutability": "nonpayable",
      "type": "function"
    },
    {
      "inputs": [
        {
          "internalType": "address",
          "name": "_owners",
          "type": "address"
        },
        {
          "internalType": "address",
          "name": "_address",
          "type": "address"
        },
        {
          "internalType": "address",
          "name": "walletAddress",
          "type": "address"
        }
      ],
      "name": "addUsers",
      "outputs": [],
      "stateMutability": "nonpayable",
      "type": "function"
    },
    {
      "inputs": [
        {
          "internalType": "address",
          "name": "_user",
          "type": "address"
        },
        {
          "internalType": "address",
          "name": "_address",
          "type": "address"
        },
        {
          "internalType": "address",
          "name": "walletAddress",
          "type": "address"
        }
      ],
      "name": "removeUser",
      "outputs": [],
      "stateMutability": "nonpayable",
      "type": "function"
    },
    {
      "inputs": [],
      "name": "getUsers",
      "outputs": [
        {
          "internalType": "address[]",
          "name": "",
          "type": "address[]"
        }
      ],
      "stateMutability": "view",
      "type": "function",
      "constant": true
    },
    {
      "inputs": [],
      "name": "deposit",
      "outputs": [],
      "stateMutability": "payable",
      "type": "function",
      "payable": true
    },
    {
      "inputs": [
        {
          "internalType": "uint256",
          "name": "amount",
          "type": "uint256"
        },
        {
          "internalType": "string",
          "name": "ticker",
          "type": "string"
        }
      ],
      "name": "depositERC20Token",
      "outputs": [
        {
          "internalType": "bool",
          "name": "_success",
          "type": "bool"
        }
      ],
      "stateMutability": "nonpayable",
      "type": "function"
    },
    {
      "inputs": [
        {
          "internalType": "uint256",
          "name": "_amount",
          "type": "uint256"
        }
      ],
      "name": "withdraw",
      "outputs": [
        {
          "internalType": "uint256",
          "name": "",
          "type": "uint256"
        }
      ],
      "stateMutability": "nonpayable",
      "type": "function"
    },
    {
      "inputs": [
        {
          "internalType": "uint256",
          "name": "amount",
          "type": "uint256"
        },
        {
          "internalType": "string",
          "name": "ticker",
          "type": "string"
        }
      ],
      "name": "withdrawERC20Token",
      "outputs": [],
      "stateMutability": "nonpayable",
      "type": "function"
    },
    {
      "inputs": [
        {
          "internalType": "string",
          "name": "_ticker",
          "type": "string"
        },
        {
          "internalType": "uint256",
          "name": "_amount",
          "type": "uint256"
        },
        {
          "internalType": "address payable",
          "name": "_receiver",
          "type": "address"
        }
      ],
      "name": "createTransfer",
      "outputs": [],
      "stateMutability": "nonpayable",
      "type": "function"
    },
    {
      "inputs": [
        {
          "internalType": "string",
          "name": "ticker",
          "type": "string"
        },
        {
          "internalType": "uint256",
          "name": "_id",
          "type": "uint256"
        }
      ],
      "name": "cancelTransfer",
      "outputs": [],
      "stateMutability": "nonpayable",
      "type": "function"
    },
    {
      "inputs": [
        {
          "internalType": "string",
          "name": "ticker",
          "type": "string"
        },
        {
          "internalType": "uint256",
          "name": "_id",
          "type": "uint256"
        }
      ],
      "name": "Transferapprove",
      "outputs": [],
      "stateMutability": "nonpayable",
      "type": "function"
    },
    {
      "inputs": [],
      "name": "getTransferRequests",
      "outputs": [
        {
          "components": [
            {
              "internalType": "string",
              "name": "ticker",
              "type": "string"
            },
            {
              "internalType": "uint256",
              "name": "amount",
              "type": "uint256"
            },
            {
              "internalType": "address",
              "name": "sender",
              "type": "address"
            },
            {
              "internalType": "address payable",
              "name": "receiver",
              "type": "address"
            },
            {
              "internalType": "uint256",
              "name": "approvals",
              "type": "uint256"
            },
            {
              "internalType": "bool",
              "name": "hasBeenSent",
              "type": "bool"
            },
            {
              "internalType": "uint256",
              "name": "id",
              "type": "uint256"
            },
            {
              "internalType": "uint256",
              "name": "timeOfCreation",
              "type": "uint256"
            }
          ],
          "internalType": "struct MultiSigWallet.Transfer[]",
          "name": "",
          "type": "tuple[]"
        }
      ],
      "stateMutability": "view",
      "type": "function",
      "constant": true
    },
    {
      "inputs": [],
      "name": "getApprovalLimit",
      "outputs": [
        {
          "internalType": "uint256",
          "name": "",
          "type": "uint256"
        }
      ],
      "stateMutability": "view",
      "type": "function",
      "constant": true
    },
    {
      "inputs": [
        {
          "internalType": "string",
          "name": "ticker",
          "type": "string"
        }
      ],
      "name": "getAccountBalance",
      "outputs": [
        {
          "internalType": "uint256",
          "name": "",
          "type": "uint256"
        }
      ],
      "stateMutability": "view",
      "type": "function",
      "constant": true
    },
    {
      "inputs": [],
      "name": "getContractBalance",
      "outputs": [
        {
          "internalType": "uint256",
          "name": "",
          "type": "uint256"
        }
      ],
      "stateMutability": "view",
      "type": "function",
      "constant": true
    },
    {
      "inputs": [],
      "name": "getOwner",
      "outputs": [
        {
          "internalType": "address",
          "name": "",
          "type": "address"
        }
      ],
      "stateMutability": "view",
      "type": "function",
      "constant": true
    }
  ],
  "bytecode": "0x60806040526000600355600060045560006005553480156200002057600080fd5b5060405162004d6138038062004d61833981810160405281019062000046919062000264565b80600160006101000a81548173ffffffffffffffffffffffffffffffffffffffff021916908373ffffffffffffffffffffffffffffffffffffffff1602179055506007600160009054906101000a900473ffffffffffffffffffffffffffffffffffffffff169080600181540180825580915050600190039060005260206000200160009091909190916101000a81548173ffffffffffffffffffffffffffffffffffffffff021916908373ffffffffffffffffffffffffffffffffffffffff160217905550600160078054905062000120919062000290565b600281905550600880600181540180825580915050600190039060005260206000200160006040518060400160405280600381526020017f455448000000000000000000000000000000000000000000000000000000000081525090919091509080519060200190620001959291906200019d565b5050620003b7565b828054620001ab9062000309565b90600052602060002090601f016020900481019282620001cf57600085556200021b565b82601f10620001ea57805160ff19168380011785556200021b565b828001600101855582156200021b579182015b828111156200021a578251825591602001919060010190620001fd565b5b5090506200022a91906200022e565b5090565b5b80821115620002495760008160009055506001016200022f565b5090565b6000815190506200025e816200039d565b92915050565b6000602082840312156200027757600080fd5b600062000287848285016200024d565b91505092915050565b60006200029d82620002ff565b9150620002aa83620002ff565b925082821015620002c057620002bf6200033f565b5b828203905092915050565b6000620002d882620002df565b9050919050565b600073ffffffffffffffffffffffffffffffffffffffff82169050919050565b6000819050919050565b600060028204905060018216806200032257607f821691505b602082108114156200033957620003386200036e565b5b50919050565b7f4e487b7100000000000000000000000000000000000000000000000000000000600052601160045260246000fd5b7f4e487b7100000000000000000000000000000000000000000000000000000000600052602260045260246000fd5b620003a881620002cb565b8114620003b457600080fd5b50565b61499a80620003c76000396000f3fe6080604052600436106101655760003560e01c80639ead7222116100d1578063c48f7e881161008a578063d0e30db011610064578063d0e30db014610551578063e88ad9531461055b578063fbb2e25a14610599578063ffabc673146105c257610165565b8063c48f7e88146104ae578063c82b4dbb146104eb578063cad19c401461052857610165565b80639ead72221461038a578063a04ef145146103c7578063a4d66daf146103f2578063ab17fdc71461041d578063b0b22c2c1461045a578063b80fd8221461048357610165565b80635f9bb83f116101235780635f9bb83f1461028c578063622a995c146102b55780636f9fb98a146102de5780637278a1fa14610309578063893d20e8146103345780639852099c1461035f57610165565b8062ce8e3e1461016a57806305d01f50146101955780632e1a7d4d146101d25780633b3e1de81461020f578063412ff0551461023857806352cda14814610261575b600080fd5b34801561017657600080fd5b5061017f6105ff565b60405161018c91906141fc565b60405180910390f35b3480156101a157600080fd5b506101bc60048036038101906101b7919061389e565b61068d565b6040516101c9919061456d565b60405180910390f35b3480156101de57600080fd5b506101f960048036038101906101f49190613aa7565b6106c8565b604051610206919061456d565b60405180910390f35b34801561021b57600080fd5b506102366004803603810190610231919061384f565b610977565b005b34801561024457600080fd5b5061025f600480360381019061025a919061384f565b610be8565b005b34801561026d57600080fd5b50610276610fb3565b604051610283919061456d565b60405180910390f35b34801561029857600080fd5b506102b360048036038101906102ae9190613a40565b610fb9565b005b3480156102c157600080fd5b506102dc60048036038101906102d79190613ad0565b61147e565b005b3480156102ea57600080fd5b506102f3611886565b604051610300919061456d565b60405180910390f35b34801561031557600080fd5b5061031e61188e565b60405161032b919061456d565b60405180910390f35b34801561034057600080fd5b50610349611898565b6040516103569190614158565b60405180910390f35b34801561036b57600080fd5b506103746118a0565b604051610381919061456d565b60405180910390f35b34801561039657600080fd5b506103b160048036038101906103ac9190613aa7565b6118a6565b6040516103be919061425b565b60405180910390f35b3480156103d357600080fd5b506103dc611952565b6040516103e9919061421e565b60405180910390f35b3480156103fe57600080fd5b50610407611b33565b604051610414919061456d565b60405180910390f35b34801561042957600080fd5b50610444600480360381019061043f9190613ad0565b611b39565b6040516104519190614240565b60405180910390f35b34801561046657600080fd5b50610481600480360381019061047c9190613998565b611ee7565b005b34801561048f57600080fd5b506104986120ab565b6040516104a5919061456d565b60405180910390f35b3480156104ba57600080fd5b506104d560048036038101906104d0919061389e565b6120b1565b6040516104e2919061456d565b60405180910390f35b3480156104f757600080fd5b50610512600480360381019061050d9190613957565b6120ec565b60405161051f919061456d565b60405180910390f35b34801561053457600080fd5b5061054f600480360381019061054a91906139ec565b612151565b005b610559612667565b005b34801561056757600080fd5b50610582600480360381019061057d9190613957565b612812565b60405161059092919061427d565b60405180910390f35b3480156105a557600080fd5b506105c060048036038101906105bb91906139ec565b6128f4565b005b3480156105ce57600080fd5b506105e960048036038101906105e491906138f2565b612ee5565b6040516105f69190614240565b60405180910390f35b6060600780548060200260200160405190810160405280929190818152602001828054801561068357602002820191906000526020600020905b8160009054906101000a900473ffffffffffffffffffffffffffffffffffffffff1673ffffffffffffffffffffffffffffffffffffffff1681526020019060010190808311610639575b5050505050905090565b600a60205281600052604060002081805160208101820180518482526020830160208501208183528095505050505050600091509150505481565b6000806000905060005b60078054905081101561078f573373ffffffffffffffffffffffffffffffffffffffff1660078281548110610730577f4e487b7100000000000000000000000000000000000000000000000000000000600052603260045260246000fd5b9060005260206000200160009054906101000a900473ffffffffffffffffffffffffffffffffffffffff1673ffffffffffffffffffffffffffffffffffffffff16141561077c57600191505b808061078790614821565b9150506106d2565b5060011515811515146107a157600080fd5b82600a60003373ffffffffffffffffffffffffffffffffffffffff1673ffffffffffffffffffffffffffffffffffffffff1681526020019081526020016000206040516107ed90614143565b908152602001604051809103902054101561080757600080fd5b3373ffffffffffffffffffffffffffffffffffffffff166108fc849081150290604051600060405180830381858888f1935050505015801561084d573d6000803e3d6000fd5b5082600a60003373ffffffffffffffffffffffffffffffffffffffff1673ffffffffffffffffffffffffffffffffffffffff16815260200190815260200160002060405161089a90614143565b908152602001604051809103902060008282546108b791906146e9565b925050819055507f6a647eacc9e98792655e8dba08e3167440b93e02ef76e8e3330fa10a27b4ecbf3360045485426040516108f594939291906144d5565b60405180910390a16004600081548092919061091090614821565b9190505550600a60003373ffffffffffffffffffffffffffffffffffffffff1673ffffffffffffffffffffffffffffffffffffffff16815260200190815260200160002060405161096090614143565b908152602001604051809103902054915050919050565b6000805b600780549050811015610a38573373ffffffffffffffffffffffffffffffffffffffff16600782815481106109d9577f4e487b7100000000000000000000000000000000000000000000000000000000600052603260045260246000fd5b9060005260206000200160009054906101000a900473ffffffffffffffffffffffffffffffffffffffff1673ffffffffffffffffffffffffffffffffffffffff161415610a2557600191505b8080610a3090614821565b91505061097b565b506001151581151514610a4a57600080fd5b60005b600780549050811015610b40578473ffffffffffffffffffffffffffffffffffffffff1660078281548110610aab577f4e487b7100000000000000000000000000000000000000000000000000000000600052603260045260246000fd5b9060005260206000200160009054906101000a900473ffffffffffffffffffffffffffffffffffffffff1673ffffffffffffffffffffffffffffffffffffffff161415610b2d576040517f08c379a0000000000000000000000000000000000000000000000000000000008152600401610b2490614475565b60405180910390fd5b8080610b3890614821565b915050610a4d565b5060056007805490501115610b5457600080fd5b6007849080600181540180825580915050600190039060005260206000200160009091909190916101000a81548173ffffffffffffffffffffffffffffffffffffffff021916908373ffffffffffffffffffffffffffffffffffffffff1602179055506001600780549050610bc991906146e9565b600281905550610bd883612f14565b610be28483612f57565b50505050565b6000805b600780549050811015610ca9573373ffffffffffffffffffffffffffffffffffffffff1660078281548110610c4a577f4e487b7100000000000000000000000000000000000000000000000000000000600052603260045260246000fd5b9060005260206000200160009054906101000a900473ffffffffffffffffffffffffffffffffffffffff1673ffffffffffffffffffffffffffffffffffffffff161415610c9657600191505b8080610ca190614821565b915050610bec565b506001151581151514610cbb57600080fd5b600080600090505b600780549050811015610e1b578573ffffffffffffffffffffffffffffffffffffffff1660078281548110610d21577f4e487b7100000000000000000000000000000000000000000000000000000000600052603260045260246000fd5b9060005260206000200160009054906101000a900473ffffffffffffffffffffffffffffffffffffffff1673ffffffffffffffffffffffffffffffffffffffff161415610e08578091508573ffffffffffffffffffffffffffffffffffffffff1660078281548110610dbc577f4e487b7100000000000000000000000000000000000000000000000000000000600052603260045260246000fd5b9060005260206000200160009054906101000a900473ffffffffffffffffffffffffffffffffffffffff1673ffffffffffffffffffffffffffffffffffffffff1614610e0757600080fd5b5b8080610e1390614821565b915050610cc3565b5060076001600780549050610e3091906146e9565b81548110610e67577f4e487b7100000000000000000000000000000000000000000000000000000000600052603260045260246000fd5b9060005260206000200160009054906101000a900473ffffffffffffffffffffffffffffffffffffffff1660078281548110610ecc577f4e487b7100000000000000000000000000000000000000000000000000000000600052603260045260246000fd5b9060005260206000200160006101000a81548173ffffffffffffffffffffffffffffffffffffffff021916908373ffffffffffffffffffffffffffffffffffffffff1602179055506007805480610f4c577f4e487b7100000000000000000000000000000000000000000000000000000000600052603160045260246000fd5b6001900381819060005260206000200160006101000a81549073ffffffffffffffffffffffffffffffffffffffff021916905590556001600780549050610f9391906146e9565b600281905550610fa284612f14565b610fac8584612fef565b5050505050565b60045481565b6000805b60078054905081101561107a573373ffffffffffffffffffffffffffffffffffffffff166007828154811061101b577f4e487b7100000000000000000000000000000000000000000000000000000000600052603260045260246000fd5b9060005260206000200160009054906101000a900473ffffffffffffffffffffffffffffffffffffffff1673ffffffffffffffffffffffffffffffffffffffff16141561106757600191505b808061107290614821565b915050610fbd565b50600115158115151461108c57600080fd5b82600a60003373ffffffffffffffffffffffffffffffffffffffff1673ffffffffffffffffffffffffffffffffffffffff168152602001908152602001600020856040516110da919061412c565b908152602001604051809103902054101561112a576040517f08c379a000000000000000000000000000000000000000000000000000000000815260040161112190614455565b60405180910390fd5b60005b600780549050811015611220578273ffffffffffffffffffffffffffffffffffffffff166007828154811061118b577f4e487b7100000000000000000000000000000000000000000000000000000000600052603260045260246000fd5b9060005260206000200160009054906101000a900473ffffffffffffffffffffffffffffffffffffffff1673ffffffffffffffffffffffffffffffffffffffff16141561120d576040517f08c379a0000000000000000000000000000000000000000000000000000000008152600401611204906144b5565b60405180910390fd5b808061121890614821565b91505061112d565b5082600a60003373ffffffffffffffffffffffffffffffffffffffff1673ffffffffffffffffffffffffffffffffffffffff1681526020019081526020016000208560405161126f919061412c565b9081526020016040518091039020600082825461128c91906146e9565b9250508190555060066040518061010001604052808681526020018581526020013373ffffffffffffffffffffffffffffffffffffffff1681526020018473ffffffffffffffffffffffffffffffffffffffff1681526020016000815260200160001515815260200160055481526020014281525090806001815401808255809150506001900390600052602060002090600802016000909190919091506000820151816000019080519060200190611346929190613623565b506020820151816001015560408201518160020160006101000a81548173ffffffffffffffffffffffffffffffffffffffff021916908373ffffffffffffffffffffffffffffffffffffffff16021790555060608201518160030160006101000a81548173ffffffffffffffffffffffffffffffffffffffff021916908373ffffffffffffffffffffffffffffffffffffffff1602179055506080820151816004015560a08201518160050160006101000a81548160ff02191690831515021790555060c0820151816006015560e0820151816007015550507ff85258179fd6edacd661ed4d528ac913de6c17c86788c7986958267070e891a4846005548533866040516114589594939291906143bb565b60405180910390a16005600081548092919061147390614821565b919050555050505050565b80600073ffffffffffffffffffffffffffffffffffffffff16600b826040516114a7919061412c565b908152602001604051809103902060010160009054906101000a900473ffffffffffffffffffffffffffffffffffffffff1673ffffffffffffffffffffffffffffffffffffffff161415611530576040517f08c379a000000000000000000000000000000000000000000000000000000000815260040161152790614495565b60405180910390fd5b6000805b6007805490508110156115f1573373ffffffffffffffffffffffffffffffffffffffff1660078281548110611592577f4e487b7100000000000000000000000000000000000000000000000000000000600052603260045260246000fd5b9060005260206000200160009054906101000a900473ffffffffffffffffffffffffffffffffffffffff1673ffffffffffffffffffffffffffffffffffffffff1614156115de57600191505b80806115e990614821565b915050611534565b50600115158115151461160357600080fd5b600073ffffffffffffffffffffffffffffffffffffffff16600b8460405161162b919061412c565b908152602001604051809103902060010160009054906101000a900473ffffffffffffffffffffffffffffffffffffffff1673ffffffffffffffffffffffffffffffffffffffff16141561167e57600080fd5b83600a60003373ffffffffffffffffffffffffffffffffffffffff1673ffffffffffffffffffffffffffffffffffffffff168152602001908152602001600020846040516116cc919061412c565b90815260200160405180910390205410156116e657600080fd5b83600a60003373ffffffffffffffffffffffffffffffffffffffff1673ffffffffffffffffffffffffffffffffffffffff16815260200190815260200160002084604051611734919061412c565b908152602001604051809103902060008282546117519190614693565b92505081905550600b83604051611768919061412c565b908152602001604051809103902060010160009054906101000a900473ffffffffffffffffffffffffffffffffffffffff1673ffffffffffffffffffffffffffffffffffffffff1663a9059cbb33866040518363ffffffff1660e01b81526004016117d49291906141d3565b602060405180830381600087803b1580156117ee57600080fd5b505af1158015611802573d6000803e3d6000fd5b505050506040513d601f19601f82011682018060405250810190611826919061392e565b507f6a647eacc9e98792655e8dba08e3167440b93e02ef76e8e3330fa10a27b4ecbf833360045487426040516118609594939291906142ad565b60405180910390a16004600081548092919061187b90614821565b919050555050505050565b600047905090565b6000600254905090565b600033905090565b60035481565b600881815481106118b657600080fd5b9060005260206000200160009150905080546118d1906147ef565b80601f01602080910402602001604051908101604052809291908181526020018280546118fd906147ef565b801561194a5780601f1061191f5761010080835404028352916020019161194a565b820191906000526020600020905b81548152906001019060200180831161192d57829003601f168201915b505050505081565b60606006805480602002602001604051908101604052809291908181526020016000905b82821015611b2a5783829060005260206000209060080201604051806101000160405290816000820180546119aa906147ef565b80601f01602080910402602001604051908101604052809291908181526020018280546119d6906147ef565b8015611a235780601f106119f857610100808354040283529160200191611a23565b820191906000526020600020905b815481529060010190602001808311611a0657829003601f168201915b50505050508152602001600182015481526020016002820160009054906101000a900473ffffffffffffffffffffffffffffffffffffffff1673ffffffffffffffffffffffffffffffffffffffff1673ffffffffffffffffffffffffffffffffffffffff1681526020016003820160009054906101000a900473ffffffffffffffffffffffffffffffffffffffff1673ffffffffffffffffffffffffffffffffffffffff1673ffffffffffffffffffffffffffffffffffffffff168152602001600482015481526020016005820160009054906101000a900460ff161515151581526020016006820154815260200160078201548152505081526020019060010190611976565b50505050905090565b60025481565b6000806000905060005b600780549050811015611c00573373ffffffffffffffffffffffffffffffffffffffff1660078281548110611ba1577f4e487b7100000000000000000000000000000000000000000000000000000000600052603260045260246000fd5b9060005260206000200160009054906101000a900473ffffffffffffffffffffffffffffffffffffffff1673ffffffffffffffffffffffffffffffffffffffff161415611bed57600191505b8080611bf890614821565b915050611b43565b506001151581151514611c1257600080fd5b82600073ffffffffffffffffffffffffffffffffffffffff16600b82604051611c3b919061412c565b908152602001604051809103902060010160009054906101000a900473ffffffffffffffffffffffffffffffffffffffff1673ffffffffffffffffffffffffffffffffffffffff161415611cc4576040517f08c379a0000000000000000000000000000000000000000000000000000000008152600401611cbb90614495565b60405180910390fd5b600073ffffffffffffffffffffffffffffffffffffffff16600b85604051611cec919061412c565b908152602001604051809103902060010160009054906101000a900473ffffffffffffffffffffffffffffffffffffffff1673ffffffffffffffffffffffffffffffffffffffff161415611d3f57600080fd5b600b84604051611d4f919061412c565b908152602001604051809103902060010160009054906101000a900473ffffffffffffffffffffffffffffffffffffffff1673ffffffffffffffffffffffffffffffffffffffff166323b872dd3330886040518463ffffffff1660e01b8152600401611dbd9392919061419c565b602060405180830381600087803b158015611dd757600080fd5b505af1158015611deb573d6000803e3d6000fd5b505050506040513d601f19601f82011682018060405250810190611e0f919061392e565b5084600a60003373ffffffffffffffffffffffffffffffffffffffff1673ffffffffffffffffffffffffffffffffffffffff16815260200190815260200160002085604051611e5e919061412c565b90815260200160405180910390206000828254611e7b9190614693565b92505081905550600192507f41751252894a74bd975de630158c4e47bb25c36d9ce7ad90383d86d391d2be1284336003548842604051611ebf9594939291906142ad565b60405180910390a160036000815480929190611eda90614821565b9190505550505092915050565b6000805b600780549050811015611fa8573373ffffffffffffffffffffffffffffffffffffffff1660078281548110611f49577f4e487b7100000000000000000000000000000000000000000000000000000000600052603260045260246000fd5b9060005260206000200160009054906101000a900473ffffffffffffffffffffffffffffffffffffffff1673ffffffffffffffffffffffffffffffffffffffff161415611f9557600191505b8080611fa090614821565b915050611eeb565b506001151581151514611fba57600080fd5b60405180604001604052808481526020018373ffffffffffffffffffffffffffffffffffffffff16815250600b84604051611ff5919061412c565b9081526020016040518091039020600082015181600001908051906020019061201f929190613623565b5060208201518160010160006101000a81548173ffffffffffffffffffffffffffffffffffffffff021916908373ffffffffffffffffffffffffffffffffffffffff1602179055509050506008839080600181540180825580915050600190039060005260206000200160009091909190915090805190602001906120a5929190613623565b50505050565b60055481565b600c60205281600052604060002081805160208101820180518482526020830160208501208183528095505050505050600091509150505481565b6000600a60003373ffffffffffffffffffffffffffffffffffffffff1673ffffffffffffffffffffffffffffffffffffffff1681526020019081526020016000208260405161213b919061412c565b9081526020016040518091039020549050919050565b6000805b600780549050811015612212573373ffffffffffffffffffffffffffffffffffffffff16600782815481106121b3577f4e487b7100000000000000000000000000000000000000000000000000000000600052603260045260246000fd5b9060005260206000200160009054906101000a900473ffffffffffffffffffffffffffffffffffffffff1673ffffffffffffffffffffffffffffffffffffffff1614156121ff57600191505b808061220a90614821565b915050612155565b50600115158115151461222457600080fd5b60008060005b6006805490508110156122b4578460068281548110612272577f4e487b7100000000000000000000000000000000000000000000000000000000600052603260045260246000fd5b906000526020600020906008020160060154141561229357600191506122b4565b828061229e90614821565b93505080806122ac90614821565b91505061222a565b506000151581151514156122fd576040517f08c379a00000000000000000000000000000000000000000000000000000000081526004016122f490614435565b60405180910390fd5b60068281548110612337577f4e487b7100000000000000000000000000000000000000000000000000000000600052603260045260246000fd5b906000526020600020906008020160020160009054906101000a900473ffffffffffffffffffffffffffffffffffffffff1673ffffffffffffffffffffffffffffffffffffffff163373ffffffffffffffffffffffffffffffffffffffff1614156123a157600080fd5b60001515600960003373ffffffffffffffffffffffffffffffffffffffff1673ffffffffffffffffffffffffffffffffffffffff168152602001908152602001600020600086815260200190815260200160002060009054906101000a900460ff16151514612445576040517f08c379a000000000000000000000000000000000000000000000000000000000815260040161243c9061454d565b60405180910390fd5b6000151560068381548110612483577f4e487b7100000000000000000000000000000000000000000000000000000000600052603260045260246000fd5b906000526020600020906008020160050160009054906101000a900460ff161515146124ae57600080fd5b6001600960003373ffffffffffffffffffffffffffffffffffffffff1673ffffffffffffffffffffffffffffffffffffffff168152602001908152602001600020600084815260200190815260200160002060006101000a81548160ff02191690831515021790555060068281548110612551577f4e487b7100000000000000000000000000000000000000000000000000000000600052603260045260246000fd5b9060005260206000209060080201600401600081548092919061257390614821565b91905055507ffe2c7170bbf30cb5442b472fe32cd4080ecb8caefc95e5157e4737119e8cf0688583600685815481106125d5577f4e487b7100000000000000000000000000000000000000000000000000000000600052603260045260246000fd5b906000526020600020906008020160040154336040516125f8949392919061436f565b60405180910390a16002546006838154811061263d577f4e487b7100000000000000000000000000000000000000000000000000000000600052603260045260246000fd5b90600052602060002090600802016004015414156126605761265f8583613087565b5b5050505050565b6000805b600780549050811015612728573373ffffffffffffffffffffffffffffffffffffffff16600782815481106126c9577f4e487b7100000000000000000000000000000000000000000000000000000000600052603260045260246000fd5b9060005260206000200160009054906101000a900473ffffffffffffffffffffffffffffffffffffffff1673ffffffffffffffffffffffffffffffffffffffff16141561271557600191505b808061272090614821565b91505061266b565b50600115158115151461273a57600080fd5b600034101561274857600080fd5b34600a60003373ffffffffffffffffffffffffffffffffffffffff1673ffffffffffffffffffffffffffffffffffffffff16815260200190815260200160002060405161279490614143565b908152602001604051809103902060008282546127b19190614693565b925050819055507f41751252894a74bd975de630158c4e47bb25c36d9ce7ad90383d86d391d2be123360035434426040516127ef94939291906144d5565b60405180910390a16003600081548092919061280a90614821565b919050555050565b600b8180516020810182018051848252602083016020850120818352809550505050505060009150905080600001805461284b906147ef565b80601f0160208091040260200160405190810160405280929190818152602001828054612877906147ef565b80156128c45780601f10612899576101008083540402835291602001916128c4565b820191906000526020600020905b8154815290600101906020018083116128a757829003601f168201915b5050505050908060010160009054906101000a900473ffffffffffffffffffffffffffffffffffffffff16905082565b6001600780549050101561293d576040517f08c379a000000000000000000000000000000000000000000000000000000000815260040161293490614415565b60405180910390fd5b60008060005b6006805490508110156129cd57836006828154811061298b577f4e487b7100000000000000000000000000000000000000000000000000000000600052603260045260246000fd5b90600052602060002090600802016006015414156129ac57600191506129cd565b82806129b790614821565b93505080806129c590614821565b915050612943565b50600015158115151415612a16576040517f08c379a0000000000000000000000000000000000000000000000000000000008152600401612a0d9061452d565b60405180910390fd5b60068281548110612a50577f4e487b7100000000000000000000000000000000000000000000000000000000600052603260045260246000fd5b906000526020600020906008020160010154600a60003373ffffffffffffffffffffffffffffffffffffffff1673ffffffffffffffffffffffffffffffffffffffff16815260200190815260200160002085604051612aaf919061412c565b90815260200160405180910390206000828254612acc9190614693565b925050819055507fb80f814c5698722c4bfbbf15abab5a245f91cdea8a998ffe7c29d0d7ba9acf918460068481548110612b2f577f4e487b7100000000000000000000000000000000000000000000000000000000600052603260045260246000fd5b9060005260206000209060080201600601543360068681548110612b7c577f4e487b7100000000000000000000000000000000000000000000000000000000600052603260045260246000fd5b906000526020600020906008020160030160009054906101000a900473ffffffffffffffffffffffffffffffffffffffff1660068781548110612be8577f4e487b7100000000000000000000000000000000000000000000000000000000600052603260045260246000fd5b90600052602060002090600802016001015442604051612c0d96959493929190614307565b60405180910390a160066001600680549050612c2991906146e9565b81548110612c60577f4e487b7100000000000000000000000000000000000000000000000000000000600052603260045260246000fd5b906000526020600020906008020160068381548110612ca8577f4e487b7100000000000000000000000000000000000000000000000000000000600052603260045260246000fd5b90600052602060002090600802016000820181600001908054612cca906147ef565b612cd59291906136a9565b50600182015481600101556002820160009054906101000a900473ffffffffffffffffffffffffffffffffffffffff168160020160006101000a81548173ffffffffffffffffffffffffffffffffffffffff021916908373ffffffffffffffffffffffffffffffffffffffff1602179055506003820160009054906101000a900473ffffffffffffffffffffffffffffffffffffffff168160030160006101000a81548173ffffffffffffffffffffffffffffffffffffffff021916908373ffffffffffffffffffffffffffffffffffffffff160217905550600482015481600401556005820160009054906101000a900460ff168160050160006101000a81548160ff02191690831515021790555060068201548160060155600782015481600701559050506006805480612e34577f4e487b7100000000000000000000000000000000000000000000000000000000600052603160045260246000fd5b600190038181906000526020600020906008020160008082016000612e599190613736565b60018201600090556002820160006101000a81549073ffffffffffffffffffffffffffffffffffffffff02191690556003820160006101000a81549073ffffffffffffffffffffffffffffffffffffffff021916905560048201600090556005820160006101000a81549060ff0219169055600682016000905560078201600090555050905550505050565b60096020528160005260406000206020528060005260406000206000915091509054906101000a900460ff1681565b806000806101000a81548173ffffffffffffffffffffffffffffffffffffffff021916908373ffffffffffffffffffffffffffffffffffffffff16021790555050565b60008060009054906101000a900473ffffffffffffffffffffffffffffffffffffffff1690508073ffffffffffffffffffffffffffffffffffffffff166316d390bf84846040518363ffffffff1660e01b8152600401612fb8929190614173565b600060405180830381600087803b158015612fd257600080fd5b505af1158015612fe6573d6000803e3d6000fd5b50505050505050565b60008060009054906101000a900473ffffffffffffffffffffffffffffffffffffffff1690508073ffffffffffffffffffffffffffffffffffffffff1663fbe5ce0a84846040518363ffffffff1660e01b8152600401613050929190614173565b600060405180830381600087803b15801561306a57600080fd5b505af115801561307e573d6000803e3d6000fd5b50505050505050565b6001600682815481106130c3577f4e487b7100000000000000000000000000000000000000000000000000000000600052603260045260246000fd5b906000526020600020906008020160050160006101000a81548160ff02191690831515021790555060068181548110613125577f4e487b7100000000000000000000000000000000000000000000000000000000600052603260045260246000fd5b906000526020600020906008020160010154600a600060068481548110613175577f4e487b7100000000000000000000000000000000000000000000000000000000600052603260045260246000fd5b906000526020600020906008020160030160009054906101000a900473ffffffffffffffffffffffffffffffffffffffff1673ffffffffffffffffffffffffffffffffffffffff1673ffffffffffffffffffffffffffffffffffffffff168152602001908152602001600020836040516131ef919061412c565b9081526020016040518091039020600082825461320c9190614693565b925050819055507fd3af251285060458993a5ebb0d39d9636dad6976562f9df61c5ea778c35d0615826006838154811061326f577f4e487b7100000000000000000000000000000000000000000000000000000000600052603260045260246000fd5b90600052602060002090600802016006015433600685815481106132bc577f4e487b7100000000000000000000000000000000000000000000000000000000600052603260045260246000fd5b906000526020600020906008020160030160009054906101000a900473ffffffffffffffffffffffffffffffffffffffff1660068681548110613328577f4e487b7100000000000000000000000000000000000000000000000000000000600052603260045260246000fd5b9060005260206000209060080201600101544260405161334d96959493929190614307565b60405180910390a16006600160068054905061336991906146e9565b815481106133a0577f4e487b7100000000000000000000000000000000000000000000000000000000600052603260045260246000fd5b9060005260206000209060080201600682815481106133e8577f4e487b7100000000000000000000000000000000000000000000000000000000600052603260045260246000fd5b9060005260206000209060080201600082018160000190805461340a906147ef565b6134159291906136a9565b50600182015481600101556002820160009054906101000a900473ffffffffffffffffffffffffffffffffffffffff168160020160006101000a81548173ffffffffffffffffffffffffffffffffffffffff021916908373ffffffffffffffffffffffffffffffffffffffff1602179055506003820160009054906101000a900473ffffffffffffffffffffffffffffffffffffffff168160030160006101000a81548173ffffffffffffffffffffffffffffffffffffffff021916908373ffffffffffffffffffffffffffffffffffffffff160217905550600482015481600401556005820160009054906101000a900460ff168160050160006101000a81548160ff02191690831515021790555060068201548160060155600782015481600701559050506006805480613574577f4e487b7100000000000000000000000000000000000000000000000000000000600052603160045260246000fd5b6001900381819060005260206000209060080201600080820160006135999190613736565b60018201600090556002820160006101000a81549073ffffffffffffffffffffffffffffffffffffffff02191690556003820160006101000a81549073ffffffffffffffffffffffffffffffffffffffff021916905560048201600090556005820160006101000a81549060ff021916905560068201600090556007820160009055505090555050565b82805461362f906147ef565b90600052602060002090601f0160209004810192826136515760008555613698565b82601f1061366a57805160ff1916838001178555613698565b82800160010185558215613698579182015b8281111561369757825182559160200191906001019061367c565b5b5090506136a59190613776565b5090565b8280546136b5906147ef565b90600052602060002090601f0160209004810192826136d75760008555613725565b82601f106136e85780548555613725565b8280016001018555821561372557600052602060002091601f016020900482015b82811115613724578254825591600101919060010190613709565b5b5090506137329190613776565b5090565b508054613742906147ef565b6000825580601f106137545750613773565b601f0160209004906000526020600020908101906137729190613776565b5b50565b5b8082111561378f576000816000905550600101613777565b5090565b60006137a66137a1846145b9565b614588565b9050828152602081018484840111156137be57600080fd5b6137c98482856147ad565b509392505050565b6000813590506137e081614908565b92915050565b6000813590506137f58161491f565b92915050565b60008151905061380a81614936565b92915050565b600082601f83011261382157600080fd5b8135613831848260208601613793565b91505092915050565b6000813590506138498161494d565b92915050565b60008060006060848603121561386457600080fd5b6000613872868287016137d1565b9350506020613883868287016137d1565b9250506040613894868287016137d1565b9150509250925092565b600080604083850312156138b157600080fd5b60006138bf858286016137d1565b925050602083013567ffffffffffffffff8111156138dc57600080fd5b6138e885828601613810565b9150509250929050565b6000806040838503121561390557600080fd5b6000613913858286016137d1565b92505060206139248582860161383a565b9150509250929050565b60006020828403121561394057600080fd5b600061394e848285016137fb565b91505092915050565b60006020828403121561396957600080fd5b600082013567ffffffffffffffff81111561398357600080fd5b61398f84828501613810565b91505092915050565b600080604083850312156139ab57600080fd5b600083013567ffffffffffffffff8111156139c557600080fd5b6139d185828601613810565b92505060206139e2858286016137d1565b9150509250929050565b600080604083850312156139ff57600080fd5b600083013567ffffffffffffffff811115613a1957600080fd5b613a2585828601613810565b9250506020613a368582860161383a565b9150509250929050565b600080600060608486031215613a5557600080fd5b600084013567ffffffffffffffff811115613a6f57600080fd5b613a7b86828701613810565b9350506020613a8c8682870161383a565b9250506040613a9d868287016137e6565b9150509250925092565b600060208284031215613ab957600080fd5b6000613ac78482850161383a565b91505092915050565b60008060408385031215613ae357600080fd5b6000613af18582860161383a565b925050602083013567ffffffffffffffff811115613b0e57600080fd5b613b1a85828601613810565b9150509250929050565b6000613b308383613b6e565b60208301905092915050565b6000613b48838361405e565b905092915050565b613b5981614777565b82525050565b613b688161472f565b82525050565b613b778161471d565b82525050565b613b868161471d565b82525050565b6000613b9782614609565b613ba18185614644565b9350613bac836145e9565b8060005b83811015613bdd578151613bc48882613b24565b9750613bcf8361462a565b925050600181019050613bb0565b5085935050505092915050565b6000613bf582614614565b613bff8185614655565b935083602082028501613c11856145f9565b8060005b85811015613c4d5784840389528151613c2e8582613b3c565b9450613c3983614637565b925060208a01995050600181019050613c15565b50829750879550505050505092915050565b613c6881614741565b82525050565b613c7781614741565b82525050565b6000613c888261461f565b613c928185614666565b9350613ca28185602086016147bc565b613cab816148f7565b840191505092915050565b6000613cc18261461f565b613ccb8185614677565b9350613cdb8185602086016147bc565b613ce4816148f7565b840191505092915050565b6000613cfa8261461f565b613d048185614688565b9350613d148185602086016147bc565b80840191505092915050565b6000613d2d602183614677565b91507f6e65656420746f2068617665206d6f7265207468616e206f6e65207369676e6560008301527f72000000000000000000000000000000000000000000000000000000000000006020830152604082019050919050565b6000613d93602283614677565b91507f5472616e73666572204944206e6f7420666f756e6420666f7220617070726f7660008301527f616c0000000000000000000000000000000000000000000000000000000000006020830152604082019050919050565b6000613df9603183614677565b91507f696e73756666696369656e742062616c616e636520746f20637265617465206160008301527f207472616e7366657220726561756573740000000000000000000000000000006020830152604082019050919050565b6000613e5f601283614677565b91507f416c7265616479207265676973746572656400000000000000000000000000006000830152602082019050919050565b6000613e9f601483614677565b91507f546f6b656e20646f6573206e6f742065786973740000000000000000000000006000830152602082019050919050565b6000613edf603183614677565b91507f6f6e6c79207468652077616c6c6574206f776e6572732063616e206d616b652060008301527f7472616e736665722072657571657374730000000000000000000000000000006020830152604082019050919050565b6000613f45600383614677565b91507f45544800000000000000000000000000000000000000000000000000000000006000830152602082019050919050565b6000613f85600383614688565b91507f45544800000000000000000000000000000000000000000000000000000000006000830152600382019050919050565b6000613fc5602283614677565b91507f54726e6173666572204944206e6f7420666f756e642063616e63656c6c61746960008301527f6f6e0000000000000000000000000000000000000000000000000000000000006020830152604082019050919050565b600061402b601b83614677565b91507f7472616e73616374696f6e20616c7261647920617070726f76656400000000006000830152602082019050919050565b600061010083016000830151848203600086015261407c8282613c7d565b9150506020830151614091602086018261410e565b5060408301516140a46040860182613b6e565b5060608301516140b76060860182613b5f565b5060808301516140ca608086018261410e565b5060a08301516140dd60a0860182613c5f565b5060c08301516140f060c086018261410e565b5060e083015161410360e086018261410e565b508091505092915050565b6141178161476d565b82525050565b6141268161476d565b82525050565b60006141388284613cef565b915081905092915050565b600061414e82613f78565b9150819050919050565b600060208201905061416d6000830184613b7d565b92915050565b60006040820190506141886000830185613b7d565b6141956020830184613b7d565b9392505050565b60006060820190506141b16000830186613b7d565b6141be6020830185613b7d565b6141cb604083018461411d565b949350505050565b60006040820190506141e86000830185613b7d565b6141f5602083018461411d565b9392505050565b600060208201905081810360008301526142168184613b8c565b905092915050565b600060208201905081810360008301526142388184613bea565b905092915050565b60006020820190506142556000830184613c6e565b92915050565b600060208201905081810360008301526142758184613cb6565b905092915050565b600060408201905081810360008301526142978185613cb6565b90506142a66020830184613b7d565b9392505050565b600060a08201905081810360008301526142c78188613cb6565b90506142d66020830187613b7d565b6142e3604083018661411d565b6142f0606083018561411d565b6142fd608083018461411d565b9695505050505050565b600060c08201905081810360008301526143218189613cb6565b9050614330602083018861411d565b61433d6040830187613b7d565b61434a6060830186613b50565b614357608083018561411d565b61436460a083018461411d565b979650505050505050565b600060808201905081810360008301526143898187613cb6565b9050614398602083018661411d565b6143a5604083018561411d565b6143b26060830184613b7d565b95945050505050565b600060a08201905081810360008301526143d58188613cb6565b90506143e4602083018761411d565b6143f1604083018661411d565b6143fe6060830185613b7d565b61440b6080830184613b50565b9695505050505050565b6000602082019050818103600083015261442e81613d20565b9050919050565b6000602082019050818103600083015261444e81613d86565b9050919050565b6000602082019050818103600083015261446e81613dec565b9050919050565b6000602082019050818103600083015261448e81613e52565b9050919050565b600060208201905081810360008301526144ae81613e92565b9050919050565b600060208201905081810360008301526144ce81613ed2565b9050919050565b600060a08201905081810360008301526144ee81613f38565b90506144fd6020830187613b7d565b61450a604083018661411d565b614517606083018561411d565b614524608083018461411d565b95945050505050565b6000602082019050818103600083015261454681613fb8565b9050919050565b600060208201905081810360008301526145668161401e565b9050919050565b6000602082019050614582600083018461411d565b92915050565b6000604051905081810181811067ffffffffffffffff821117156145af576145ae6148c8565b5b8060405250919050565b600067ffffffffffffffff8211156145d4576145d36148c8565b5b601f19601f8301169050602081019050919050565b6000819050602082019050919050565b6000819050602082019050919050565b600081519050919050565b600081519050919050565b600081519050919050565b6000602082019050919050565b6000602082019050919050565b600082825260208201905092915050565b600082825260208201905092915050565b600082825260208201905092915050565b600082825260208201905092915050565b600081905092915050565b600061469e8261476d565b91506146a98361476d565b9250827fffffffffffffffffffffffffffffffffffffffffffffffffffffffffffffffff038211156146de576146dd61486a565b5b828201905092915050565b60006146f48261476d565b91506146ff8361476d565b9250828210156147125761471161486a565b5b828203905092915050565b60006147288261474d565b9050919050565b600061473a8261474d565b9050919050565b60008115159050919050565b600073ffffffffffffffffffffffffffffffffffffffff82169050919050565b6000819050919050565b600061478282614789565b9050919050565b60006147948261479b565b9050919050565b60006147a68261474d565b9050919050565b82818337600083830152505050565b60005b838110156147da5780820151818401526020810190506147bf565b838111156147e9576000848401525b50505050565b6000600282049050600182168061480757607f821691505b6020821081141561481b5761481a614899565b5b50919050565b600061482c8261476d565b91507fffffffffffffffffffffffffffffffffffffffffffffffffffffffffffffffff82141561485f5761485e61486a565b5b600182019050919050565b7f4e487b7100000000000000000000000000000000000000000000000000000000600052601160045260246000fd5b7f4e487b7100000000000000000000000000000000000000000000000000000000600052602260045260246000fd5b7f4e487b7100000000000000000000000000000000000000000000000000000000600052604160045260246000fd5b6000601f19601f8301169050919050565b6149118161471d565b811461491c57600080fd5b50565b6149288161472f565b811461493357600080fd5b50565b61493f81614741565b811461494a57600080fd5b50565b6149568161476d565b811461496157600080fd5b5056fea264697066735822122074021ebbe2551cb0a44acf42755e930acd767a6063b88d2886f835a25bdbe75364736f6c63430008000033",
  "immutableReferences": {},
  "source": "//SPDX-License-Identifier: MIT\r\npragma solidity 0.8.0;\r\npragma abicoder v2;\r\n\r\nimport \"../node_modules/@openzeppelin/contracts/token/ERC20/IERC20.sol\";\r\n\r\ncontract MultiSigWallet {\r\n\r\n////////////////////////////Global Variables & Mappings///////////////////////////\r\n\r\n    address MultiSigInstance;\r\n    address mainOwner;\r\n    uint public limit;\r\n    uint256 public depositId = 0;\r\n    uint256 public withdrawalId = 0;\r\n    uint256 public transferId = 0;\r\n    Transfer[] transferRequests;\r\n    address[] owners;\r\n     string[] public tokenList;\r\n\r\n    mapping(address => mapping(uint => bool)) public approvals;\r\n    mapping(address => mapping(string => uint)) public balances;\r\n    mapping(string => Token) public tokenMapping;\r\n    mapping(address => mapping(string => uint256)) public ERC20Tokenbalances;\r\n\r\n\r\n\r\n////////////////////////////Constructor///////////////////////////\r\n//used to set the main owner, the approval limit and sets eth as default token\r\n//on the deployment of the contract\r\n\r\n    constructor(address _owner) {\r\n        mainOwner = _owner;\r\n        owners.push(mainOwner);\r\n        limit = owners.length - 1;\r\n        tokenList.push(\"ETH\");\r\n    }\r\n    \r\n\r\n////////////////////////////Data Strructures (Structs)///////////////////////////\r\n//here we have a transfer struct and token struct used to create instances of each\r\n\r\n    struct Transfer{\r\n        string ticker;\r\n        uint amount;\r\n        address sender;\r\n        address payable receiver;\r\n        uint approvals;\r\n        bool hasBeenSent;\r\n        uint id;\r\n        uint timeOfCreation;\r\n    }\r\n\r\n    struct Token {\r\n        string ticker;\r\n        address tokenAddress;\r\n    }\r\n    \r\n    \r\n////////////////////////////Modifiers///////////////////////////\r\n\r\n    modifier onlyOwners(){\r\n        bool owner = false;\r\n        for(uint i=0; i<owners.length;i++){\r\n            if(owners[i] == msg.sender){\r\n                owner = true;\r\n            }\r\n        }\r\n        require(owner == true);\r\n        _;\r\n    }\r\n\r\n    modifier tokenExists(string memory ticker) {\r\n        \r\n        require(tokenMapping[ticker].tokenAddress != address(0), \"Token does not exist\");\r\n         _;\r\n    }\r\n    \r\n\r\n////////////////////////////Events///////////////////////////\r\n\r\n    event fundsDeposited(string ticker, address from, uint256 id, uint amount, uint256 timeStamp);\r\n    event fundsWithdrawed(string ticker, address from, uint256 id, uint amount, uint256 timeStamp);\r\n    event TransferRequestCreated(string ticker, uint id, uint _amount, address _initiator, address _receiver);\r\n    event ApprovalReceived(string ticker, uint id, uint _approvals, address _approver);\r\n    event TransferApproved(string ticker, uint id);\r\n    event transferRequestApproved(string ticker, uint id, address sender, address receiver, uint amount, uint timeStamp);\r\n    event transferRequestCancelled(string ticker, uint id, address sender, address receiver, uint amount, uint timeStamp);\r\n\r\n   \r\n    \r\n    function addToken(string memory ticker, address tokenAddress) external onlyOwners {\r\n\r\n        //create new token\r\n        tokenMapping[ticker] = Token(ticker, tokenAddress);\r\n        //add the new token to the token list\r\n        tokenList.push(ticker);\r\n    }\r\n    \r\n////////////////////////////Functions for Dynamically Adding and Removing Wallet Owners///////////////////////////\r\n    //add user function. require owner is not already in the wallet array\r\n    function addUsers(address _owners, address _address, address walletAddress) public onlyOwners\r\n    {\r\n        for (uint user = 0; user < owners.length; user++)\r\n        {\r\n            require(owners[user] != _owners, \"Already registered\");\r\n        }\r\n        require(owners.length <= 5);\r\n        owners.push(_owners);\r\n        \r\n        //from the current array calculate the value of minimum consensus\r\n        limit = owners.length - 1;\r\n        \r\n        setWalletAddress(_address);\r\n        callAddOwner(_owners, walletAddress );\r\n    }\r\n    \r\n    //remove user require the address we pass in is the address were removing\r\n    function removeUser(address _user, address _address, address walletAddress) public onlyOwners\r\n    {\r\n        uint user_index;\r\n        for(uint user = 0; user < owners.length; user++)\r\n        {\r\n            if (owners[user] == _user)\r\n            {   \r\n                user_index = user;\r\n                require(owners[user] == _user);\r\n            }\r\n        }\r\n        \r\n        owners[user_index] = owners[owners.length - 1];\r\n        owners.pop();\r\n        limit= owners.length - 1;\r\n        \r\n        setWalletAddress(_address);\r\n        callRemoveOwner(_user, walletAddress );\r\n    }\r\n\r\n//this function is used to set the address of the current logged in wallet instance that the user is using\r\n    function setWalletAddress(address _address) private {\r\n        MultiSigInstance = _address;\r\n    }\r\n\r\n//this function updates the users list of available wallets. This function is used from the multisig fsctory contract   \r\n    function callAddOwner(address owner, address wallet) private {\r\n        MultiSigFactory factory = MultiSigFactory(MultiSigInstance);\r\n        factory.addOwner(owner, wallet);\r\n    }\r\n\r\n//this function updates the users list of available wallets. This function is used from the multisig fsctory contract   \r\n    function callRemoveOwner(address owner, address wallet) private {\r\n        MultiSigFactory factory = MultiSigFactory(MultiSigInstance);\r\n        factory.removeOwner(owner, wallet);\r\n    }\r\n    \r\n    \r\n    //gets wallet users\r\n    function getUsers() public view returns(address[] memory)\r\n    {\r\n        return owners;\r\n    }\r\n    \r\n   \r\n    \r\n////////////////////////////Functions for deopositing and withdrawing assets to and from the wallet///////////////////////////\r\n    //deposit function. require deposit amount i sgreater than 0 and withdrawalRequests//the wallet oweners array is greater than 1\r\n    function deposit() public onlyOwners payable {\r\n        \r\n        require(msg.value >= 0);\r\n    \r\n        balances[msg.sender][\"ETH\"] += msg.value;\r\n        emit fundsDeposited(\"ETH\", msg.sender, depositId, msg.value, block.timestamp);\r\n        depositId++;\r\n    }\r\n\r\n    function depositERC20Token(uint amount, string memory ticker) external onlyOwners tokenExists(ticker) returns(bool _success){\r\n\r\n        require(tokenMapping[ticker].tokenAddress != address(0));\r\n    \r\n        IERC20(tokenMapping[ticker].tokenAddress).transferFrom(msg.sender, address(this), amount);\r\n        balances[msg.sender][ticker] += amount;  \r\n        _success = true;\r\n        //emit deposited(msg.sender, address(this), amount, ticker);\r\n        emit fundsDeposited(ticker, msg.sender, depositId, amount, block.timestamp);\r\n        depositId++;\r\n\r\n        return _success;\r\n    }\r\n\r\n    //after transfer is called our balance i < transaction amount thus we cannot withfraw\r\n    //update amount after transfer function.\r\n    function withdraw(uint _amount) public onlyOwners returns (uint)\r\n    {\r\n        require(balances[msg.sender][\"ETH\"] >= _amount);\r\n        \r\n        payable(msg.sender).transfer(_amount);\r\n        balances[msg.sender][\"ETH\"] -= _amount;\r\n\r\n        emit fundsWithdrawed(\"ETH\", msg.sender, withdrawalId, _amount, block.timestamp);\r\n        withdrawalId++;\r\n        \r\n        return balances[msg.sender][\"ETH\"];\r\n        \r\n    }\r\n\r\n    //withdrawal function\r\n    function withdrawERC20Token(uint amount, string memory ticker) external tokenExists(ticker) onlyOwners {\r\n        require(tokenMapping[ticker].tokenAddress != address(0));\r\n        require(balances[msg.sender][ticker] >= amount);\r\n\r\n        balances[msg.sender][ticker] += amount;\r\n        IERC20(tokenMapping[ticker].tokenAddress).transfer(msg.sender, amount);\r\n        emit fundsWithdrawed(ticker, msg.sender, withdrawalId, amount, block.timestamp);\r\n        withdrawalId++;\r\n\r\n    }\r\n\r\n        \r\n////////////////////////////Functions for approving, cancelling and executing transfers within the wallet///////////////////////////\r\n\r\n    //Create an instance of the Transfer struct and add it to the transferRequests array\r\n    function createTransfer(string memory _ticker, uint _amount, address payable _receiver) public onlyOwners {\r\n\r\n        require(balances[msg.sender][_ticker] >= _amount, \"insufficient balance to create a transfer reauest\");\r\n    \r\n        for (uint i = 0; i < owners.length; i++) {\r\n            require(owners[i] != _receiver, \"only the wallet owners can make transfer reuqests\");\r\n        }\r\n        \r\n        balances[msg.sender][_ticker] -= _amount;\r\n        transferRequests.push(Transfer(_ticker, _amount, msg.sender, _receiver, 0, false, transferId, block.timestamp));\r\n        emit TransferRequestCreated(_ticker, transferId, _amount, msg.sender, _receiver);\r\n        transferId++;\r\n        \r\n    }\r\n\r\n\r\n    function cancelTransfer(string memory ticker, uint _id) public {\r\n        require(owners.length >= 1, \"need to have more than one signer\");\r\n        // require(transferRequests[_id].sender == msg.sender, \"only the user who created the transfer can cancel\");\r\n\r\n        uint counter = 0;\r\n        bool hasBeenFound = false;\r\n        for(uint i = 0; i < transferRequests.length; i++) {\r\n           if(transferRequests[i].id == _id) {\r\n               hasBeenFound = true;\r\n               break;\r\n           }\r\n           counter++;\r\n        }\r\n        if(hasBeenFound == false) revert(\"Trnasfer ID not found cancellation\");\r\n\r\n\r\n        balances[msg.sender][ticker] += transferRequests[counter].amount;\r\n        emit transferRequestCancelled(ticker, transferRequests[counter].id, msg.sender, transferRequests[counter].receiver, transferRequests[counter].amount, block.timestamp);\r\n\r\n        transferRequests[counter] = transferRequests[transferRequests.length - 1];\r\n        transferRequests.pop();\r\n\r\n\r\n    }\r\n    \r\n    \r\n    \r\n    \r\n    function Transferapprove(string memory ticker, uint _id) public onlyOwners {\r\n\r\n        uint counter = 0;\r\n        bool hasBeenFound = false;\r\n        for(uint i = 0; i < transferRequests.length; i++) {\r\n           if(transferRequests[i].id == _id) {\r\n               hasBeenFound = true;\r\n               break;\r\n           }\r\n           counter++;\r\n        }\r\n        if(hasBeenFound == false) revert(\"Transfer ID not found for approval\");\r\n\r\n        require(msg.sender != transferRequests[counter].sender);\r\n        require(approvals[msg.sender][_id] == false, \"transaction alrady approved\");\r\n        require(transferRequests[counter].hasBeenSent == false);\r\n\r\n        approvals[msg.sender][counter] = true;\r\n        transferRequests[counter].approvals++;\r\n        \r\n        emit ApprovalReceived(ticker, counter, transferRequests[counter].approvals, msg.sender);\r\n\r\n        if(transferRequests[counter].approvals == limit) {\r\n\r\n            TransferFunds(ticker, counter);\r\n        }\r\n\r\n    }    \r\n\r\n     //now we need to create a function to actually transfer the funds after the\r\n    //transfer has been recieved\r\n    function TransferFunds(string memory _ticker, uint _id) private {\r\n        \r\n        transferRequests[_id].hasBeenSent = true;\r\n        balances[transferRequests[_id].receiver][_ticker] += transferRequests[_id].amount;\r\n       \r\n        emit transferRequestApproved(_ticker, transferRequests[_id].id, msg.sender, transferRequests[_id].receiver, transferRequests[_id].amount, block.timestamp);\r\n\r\n        transferRequests[_id] = transferRequests[transferRequests.length - 1];\r\n        transferRequests.pop();\r\n        \r\n    }\r\n    \r\n////////////////////////////Helper functions and blockhain reading functions///////////////////////////\r\n\r\n   \r\n \r\n    //Should return all transfer requests\r\n    function getTransferRequests() public view returns (Transfer[] memory){\r\n       \r\n        return transferRequests;\r\n    }\r\n\r\n     function getApprovalLimit() public view returns (uint)\r\n    {\r\n        return (limit);\r\n    }\r\n\r\n    //next we want to make a get balance function\r\n    function getAccountBalance(string memory ticker) public view returns(uint)\r\n    {\r\n        return balances[msg.sender][ticker];\r\n    }\r\n\r\n    //get contratc balance\r\n    function getContractBalance() public view returns(uint)\r\n    {\r\n        return address(this).balance;\r\n    }\r\n    \r\n    \r\n    //next we want to make q function to return the address of the wallet owner\r\n    function getOwner() public view returns(address)\r\n    {\r\n        return msg.sender;\r\n    }\r\n}\r\n\r\n\r\n\r\n\r\n\r\n\r\ncontract MultiSigFactory {\r\n    \r\n     struct UserWallets{\r\n\r\n        address walletAddress;\r\n        uint walletID;\r\n    }\r\n\r\n    uint id = 0;\r\n    UserWallets[] public wallets;\r\n    MultiSigWallet[] public multisigInstances;\r\n\r\n    mapping(address => UserWallets[]) userWallet;\r\n    event multisigInstanceCreated(uint date, address walletOwner, address multiSigAddress);\r\n   \r\n    function createMultiSig() public {\r\n\r\n        MultiSigWallet newWalletInstance = new MultiSigWallet(msg.sender);\r\n        multisigInstances.push(newWalletInstance);\r\n        \r\n        UserWallets[] storage newWallet = userWallet[msg.sender];\r\n        newWallet.push(UserWallets(address(newWalletInstance), id));\r\n        \r\n        emit multisigInstanceCreated(block.timestamp, msg.sender, address(newWalletInstance));\r\n        id++;\r\n    }\r\n    \r\n    function getUserWallets() public view returns (UserWallets[] memory wals) {\r\n        return userWallet[msg.sender];\r\n    }\r\n    \r\n    function addOwner(address account, address walletAddres) public {\r\n        \r\n        UserWallets[] storage newWallet = userWallet[account];\r\n        newWallet.push(UserWallets(walletAddres, id));\r\n      \r\n    }\r\n    \r\n    function getWalletID(address walletAddres) public view returns (uint) {\r\n        \r\n        uint walletId;\r\n        UserWallets[] storage newWallet = userWallet[msg.sender];\r\n        for (uint i = 0; i < newWallet.length; i ++) {\r\n            if (newWallet[i].walletAddress == walletAddres){\r\n                walletId = newWallet[i].walletID;\r\n            }\r\n        }\r\n        \r\n        \r\n        return walletId;\r\n    }\r\n\r\n    function removeOwner(address account, address walletAddres) public {\r\n        \r\n        UserWallets[] storage newWallet = userWallet[account];\r\n       \r\n        uint walletIndex;\r\n        bool hasBeenFound = false;\r\n        for(uint i = 0; i < newWallet.length; i++)\r\n        {\r\n            if (newWallet[i].walletAddress == walletAddres)\r\n            {   \r\n                walletIndex = i;\r\n                hasBeenFound = true;\r\n            }\r\n        }\r\n        require(hasBeenFound);\r\n\r\n        newWallet[walletIndex] = newWallet[newWallet.length - 1];\r\n        newWallet.pop();\r\n    }\r\n     \r\n}   \r\n\r\n\r\n\r\n\r\n\r\n\r\n\r\n\r\n\r\n",
  "sourcePath": "C:/Users/evanMcGraneTest/Documents/EthereumProgramming/MutiSigWalletApp/contracts/Multisig.sol",
  "compiler": {
    "name": "solc",
    "version": "0.8.0+commit.c7dfd78e.Emscripten.clang"
  },
  "schemaVersion": "3.3.4",
  "updatedAt": "2021-09-11T18:03:53.312Z",
  "networkType": "ethereum",
  "devdoc": {
    "kind": "dev",
    "methods": {},
    "version": 1
  },
  "userdoc": {
    "kind": "user",
    "methods": {},
    "version": 1
  }
}