{
  "contractName": "MultiSigWallet",
  "abi": [
    {
      "inputs": [],
      "stateMutability": "nonpayable",
      "type": "constructor"
    },
    {
      "anonymous": false,
      "inputs": [
        {
          "indexed": false,
          "internalType": "string",
          "name": "ticker",
          "type": "string"
        },
        {
          "indexed": false,
          "internalType": "uint256",
          "name": "_id",
          "type": "uint256"
        },
        {
          "indexed": false,
          "internalType": "uint256",
          "name": "_approvals",
          "type": "uint256"
        },
        {
          "indexed": false,
          "internalType": "address",
          "name": "_approver",
          "type": "address"
        }
      ],
      "name": "ApprovalReceived",
      "type": "event"
    },
    {
      "anonymous": false,
      "inputs": [
        {
          "indexed": false,
          "internalType": "string",
          "name": "ticker",
          "type": "string"
        },
        {
          "indexed": false,
          "internalType": "uint256",
          "name": "_id",
          "type": "uint256"
        }
      ],
      "name": "TransferApproved",
      "type": "event"
    },
    {
      "anonymous": false,
      "inputs": [
        {
          "indexed": false,
          "internalType": "string",
          "name": "ticker",
          "type": "string"
        },
        {
          "indexed": false,
          "internalType": "uint256",
          "name": "_id",
          "type": "uint256"
        },
        {
          "indexed": false,
          "internalType": "uint256",
          "name": "_amount",
          "type": "uint256"
        },
        {
          "indexed": false,
          "internalType": "address",
          "name": "_initiator",
          "type": "address"
        },
        {
          "indexed": false,
          "internalType": "address",
          "name": "_receiver",
          "type": "address"
        }
      ],
      "name": "TransferRequestCreated",
      "type": "event"
    },
    {
      "anonymous": false,
      "inputs": [
        {
          "indexed": false,
          "internalType": "string",
          "name": "ticker",
          "type": "string"
        },
        {
          "indexed": false,
          "internalType": "address",
          "name": "from",
          "type": "address"
        },
        {
          "indexed": false,
          "internalType": "uint256",
          "name": "id",
          "type": "uint256"
        },
        {
          "indexed": false,
          "internalType": "uint256",
          "name": "amount",
          "type": "uint256"
        },
        {
          "indexed": false,
          "internalType": "uint256",
          "name": "timeStamp",
          "type": "uint256"
        }
      ],
      "name": "fundsDeposited",
      "type": "event"
    },
    {
      "anonymous": false,
      "inputs": [
        {
          "indexed": false,
          "internalType": "string",
          "name": "ticker",
          "type": "string"
        },
        {
          "indexed": false,
          "internalType": "address",
          "name": "from",
          "type": "address"
        },
        {
          "indexed": false,
          "internalType": "uint256",
          "name": "id",
          "type": "uint256"
        },
        {
          "indexed": false,
          "internalType": "uint256",
          "name": "amount",
          "type": "uint256"
        },
        {
          "indexed": false,
          "internalType": "uint256",
          "name": "timeStamp",
          "type": "uint256"
        }
      ],
      "name": "fundsWithdrawed",
      "type": "event"
    },
    {
      "anonymous": false,
      "inputs": [
        {
          "indexed": false,
          "internalType": "string",
          "name": "ticker",
          "type": "string"
        },
        {
          "indexed": false,
          "internalType": "uint256",
          "name": "id",
          "type": "uint256"
        },
        {
          "indexed": false,
          "internalType": "address",
          "name": "sender",
          "type": "address"
        },
        {
          "indexed": false,
          "internalType": "address",
          "name": "receiver",
          "type": "address"
        },
        {
          "indexed": false,
          "internalType": "uint256",
          "name": "amount",
          "type": "uint256"
        },
        {
          "indexed": false,
          "internalType": "uint256",
          "name": "timeStamp",
          "type": "uint256"
        }
      ],
      "name": "transferRequestApproved",
      "type": "event"
    },
    {
      "anonymous": false,
      "inputs": [
        {
          "indexed": false,
          "internalType": "string",
          "name": "ticker",
          "type": "string"
        },
        {
          "indexed": false,
          "internalType": "uint256",
          "name": "id",
          "type": "uint256"
        },
        {
          "indexed": false,
          "internalType": "address",
          "name": "sender",
          "type": "address"
        },
        {
          "indexed": false,
          "internalType": "address",
          "name": "receiver",
          "type": "address"
        },
        {
          "indexed": false,
          "internalType": "uint256",
          "name": "amount",
          "type": "uint256"
        },
        {
          "indexed": false,
          "internalType": "uint256",
          "name": "timeStamp",
          "type": "uint256"
        }
      ],
      "name": "transferRequestCancelled",
      "type": "event"
    },
    {
      "inputs": [
        {
          "internalType": "address",
          "name": "",
          "type": "address"
        },
        {
          "internalType": "string",
          "name": "",
          "type": "string"
        }
      ],
      "name": "ERC20Tokenbalances",
      "outputs": [
        {
          "internalType": "uint256",
          "name": "",
          "type": "uint256"
        }
      ],
      "stateMutability": "view",
      "type": "function",
      "constant": true
    },
    {
      "inputs": [
        {
          "internalType": "address",
          "name": "",
          "type": "address"
        },
        {
          "internalType": "uint256",
          "name": "",
          "type": "uint256"
        }
      ],
      "name": "approvals",
      "outputs": [
        {
          "internalType": "bool",
          "name": "",
          "type": "bool"
        }
      ],
      "stateMutability": "view",
      "type": "function",
      "constant": true
    },
    {
      "inputs": [
        {
          "internalType": "address",
          "name": "",
          "type": "address"
        },
        {
          "internalType": "string",
          "name": "",
          "type": "string"
        }
      ],
      "name": "balances",
      "outputs": [
        {
          "internalType": "uint256",
          "name": "",
          "type": "uint256"
        }
      ],
      "stateMutability": "view",
      "type": "function",
      "constant": true
    },
    {
      "inputs": [],
      "name": "depositId",
      "outputs": [
        {
          "internalType": "uint256",
          "name": "",
          "type": "uint256"
        }
      ],
      "stateMutability": "view",
      "type": "function",
      "constant": true
    },
    {
      "inputs": [],
      "name": "limit",
      "outputs": [
        {
          "internalType": "uint256",
          "name": "",
          "type": "uint256"
        }
      ],
      "stateMutability": "view",
      "type": "function",
      "constant": true
    },
    {
      "inputs": [
        {
          "internalType": "address",
          "name": "",
          "type": "address"
        },
        {
          "internalType": "string",
          "name": "",
          "type": "string"
        }
      ],
      "name": "reservedBalance",
      "outputs": [
        {
          "internalType": "uint256",
          "name": "",
          "type": "uint256"
        }
      ],
      "stateMutability": "view",
      "type": "function",
      "constant": true
    },
    {
      "inputs": [
        {
          "internalType": "uint256",
          "name": "",
          "type": "uint256"
        }
      ],
      "name": "tokenList",
      "outputs": [
        {
          "internalType": "string",
          "name": "",
          "type": "string"
        }
      ],
      "stateMutability": "view",
      "type": "function",
      "constant": true
    },
    {
      "inputs": [
        {
          "internalType": "string",
          "name": "",
          "type": "string"
        }
      ],
      "name": "tokenMapping",
      "outputs": [
        {
          "internalType": "string",
          "name": "ticker",
          "type": "string"
        },
        {
          "internalType": "address",
          "name": "tokenAddress",
          "type": "address"
        }
      ],
      "stateMutability": "view",
      "type": "function",
      "constant": true
    },
    {
      "inputs": [],
      "name": "transferId",
      "outputs": [
        {
          "internalType": "uint256",
          "name": "",
          "type": "uint256"
        }
      ],
      "stateMutability": "view",
      "type": "function",
      "constant": true
    },
    {
      "inputs": [],
      "name": "withdrawalId",
      "outputs": [
        {
          "internalType": "uint256",
          "name": "",
          "type": "uint256"
        }
      ],
      "stateMutability": "view",
      "type": "function",
      "constant": true
    },
    {
      "inputs": [
        {
          "internalType": "string",
          "name": "ticker",
          "type": "string"
        },
        {
          "internalType": "address",
          "name": "tokenAddress",
          "type": "address"
        }
      ],
      "name": "addToken",
      "outputs": [],
      "stateMutability": "nonpayable",
      "type": "function"
    },
    {
      "inputs": [
        {
          "internalType": "address",
          "name": "_owners",
          "type": "address"
        }
      ],
      "name": "addUsers",
      "outputs": [],
      "stateMutability": "nonpayable",
      "type": "function"
    },
    {
      "inputs": [
        {
          "internalType": "address",
          "name": "_user",
          "type": "address"
        }
      ],
      "name": "removeUser",
      "outputs": [],
      "stateMutability": "nonpayable",
      "type": "function"
    },
    {
      "inputs": [],
      "name": "getUsers",
      "outputs": [
        {
          "internalType": "address[]",
          "name": "",
          "type": "address[]"
        }
      ],
      "stateMutability": "view",
      "type": "function",
      "constant": true
    },
    {
      "inputs": [],
      "name": "getApprovalLimit",
      "outputs": [
        {
          "internalType": "uint256",
          "name": "",
          "type": "uint256"
        }
      ],
      "stateMutability": "view",
      "type": "function",
      "constant": true
    },
    {
      "inputs": [],
      "name": "deposit",
      "outputs": [],
      "stateMutability": "payable",
      "type": "function",
      "payable": true
    },
    {
      "inputs": [
        {
          "internalType": "uint256",
          "name": "amount",
          "type": "uint256"
        },
        {
          "internalType": "string",
          "name": "ticker",
          "type": "string"
        }
      ],
      "name": "depositERC20Token",
      "outputs": [
        {
          "internalType": "bool",
          "name": "_success",
          "type": "bool"
        }
      ],
      "stateMutability": "nonpayable",
      "type": "function"
    },
    {
      "inputs": [
        {
          "internalType": "uint256",
          "name": "_amount",
          "type": "uint256"
        }
      ],
      "name": "withdraw",
      "outputs": [
        {
          "internalType": "uint256",
          "name": "",
          "type": "uint256"
        }
      ],
      "stateMutability": "nonpayable",
      "type": "function"
    },
    {
      "inputs": [
        {
          "internalType": "uint256",
          "name": "amount",
          "type": "uint256"
        },
        {
          "internalType": "string",
          "name": "ticker",
          "type": "string"
        }
      ],
      "name": "withdrawERC20Token",
      "outputs": [],
      "stateMutability": "nonpayable",
      "type": "function"
    },
    {
      "inputs": [
        {
          "internalType": "string",
          "name": "ticker",
          "type": "string"
        }
      ],
      "name": "getAccountBalance",
      "outputs": [
        {
          "internalType": "uint256",
          "name": "",
          "type": "uint256"
        }
      ],
      "stateMutability": "view",
      "type": "function",
      "constant": true
    },
    {
      "inputs": [],
      "name": "getContractBalance",
      "outputs": [
        {
          "internalType": "uint256",
          "name": "",
          "type": "uint256"
        }
      ],
      "stateMutability": "view",
      "type": "function",
      "constant": true
    },
    {
      "inputs": [],
      "name": "getOwner",
      "outputs": [
        {
          "internalType": "address",
          "name": "",
          "type": "address"
        }
      ],
      "stateMutability": "view",
      "type": "function",
      "constant": true
    },
    {
      "inputs": [
        {
          "internalType": "string",
          "name": "_ticker",
          "type": "string"
        },
        {
          "internalType": "uint256",
          "name": "_amount",
          "type": "uint256"
        },
        {
          "internalType": "address payable",
          "name": "_receiver",
          "type": "address"
        }
      ],
      "name": "createTransfer",
      "outputs": [],
      "stateMutability": "nonpayable",
      "type": "function"
    },
    {
      "inputs": [
        {
          "internalType": "string",
          "name": "ticker",
          "type": "string"
        },
        {
          "internalType": "uint256",
          "name": "_id",
          "type": "uint256"
        }
      ],
      "name": "cancelTransfer",
      "outputs": [],
      "stateMutability": "nonpayable",
      "type": "function"
    },
    {
      "inputs": [
        {
          "internalType": "string",
          "name": "ticker",
          "type": "string"
        },
        {
          "internalType": "uint256",
          "name": "_id",
          "type": "uint256"
        }
      ],
      "name": "Transferapprove",
      "outputs": [],
      "stateMutability": "nonpayable",
      "type": "function"
    },
    {
      "inputs": [
        {
          "internalType": "uint256",
          "name": "_id",
          "type": "uint256"
        }
      ],
      "name": "getApprovalState",
      "outputs": [
        {
          "internalType": "uint256",
          "name": "",
          "type": "uint256"
        }
      ],
      "stateMutability": "view",
      "type": "function",
      "constant": true
    },
    {
      "inputs": [],
      "name": "getTransferRequests",
      "outputs": [
        {
          "components": [
            {
              "internalType": "string",
              "name": "ticker",
              "type": "string"
            },
            {
              "internalType": "uint256",
              "name": "amount",
              "type": "uint256"
            },
            {
              "internalType": "address",
              "name": "sender",
              "type": "address"
            },
            {
              "internalType": "address payable",
              "name": "receiver",
              "type": "address"
            },
            {
              "internalType": "uint256",
              "name": "approvals",
              "type": "uint256"
            },
            {
              "internalType": "bool",
              "name": "hasBeenSent",
              "type": "bool"
            },
            {
              "internalType": "uint256",
              "name": "id",
              "type": "uint256"
            },
            {
              "internalType": "uint256",
              "name": "timeOfCreation",
              "type": "uint256"
            }
          ],
          "internalType": "struct MultiSigWallet.Transfer[]",
          "name": "",
          "type": "tuple[]"
        }
      ],
      "stateMutability": "view",
      "type": "function",
      "constant": true
    }
  ],
  "bytecode": "0x608060405260006003556000600455600060055534801561001f57600080fd5b50336000806101000a81548173ffffffffffffffffffffffffffffffffffffffff021916908373ffffffffffffffffffffffffffffffffffffffff160217905550600160008054906101000a900473ffffffffffffffffffffffffffffffffffffffff169080600181540180825580915050600190039060005260206000200160009091909190916101000a81548173ffffffffffffffffffffffffffffffffffffffff021916908373ffffffffffffffffffffffffffffffffffffffff160217905550614bce806100f26000396000f3fe60806040526004361061019b5760003560e01c806398575188116100ec578063c48f7e881161008a578063d0e30db011610064578063d0e30db014610601578063e88ad9531461060b578063fbb2e25a14610649578063ffabc673146106725761019b565b8063c48f7e881461055e578063c82b4dbb1461059b578063cad19c40146105d85761019b565b8063a4d66daf116100c6578063a4d66daf146104a2578063ab17fdc7146104cd578063b0b22c2c1461050a578063b80fd822146105335761019b565b806398575188146104115780639ead72221461043a578063a04ef145146104775761019b565b8063622a995c11610159578063766a511111610133578063766a5111146103415780637720cdd81461037e578063893d20e8146103bb5780639852099c146103e65761019b565b8063622a995c146102c25780636f9fb98a146102eb5780637278a1fa146103165761019b565b8062ce8e3e146101a057806304343722146101cb57806305d01f50146101f45780632e1a7d4d1461023157806352cda1481461026e5780635f9bb83f14610299575b600080fd5b3480156101ac57600080fd5b506101b56106af565b6040516101c291906144b0565b60405180910390f35b3480156101d757600080fd5b506101f260048036038101906101ed9190613cea565b61073d565b005b34801561020057600080fd5b5061021b60048036038101906102169190613d13565b610998565b60405161022891906147a1565b60405180910390f35b34801561023d57600080fd5b5061025860048036038101906102539190613f1c565b6109d3565b60405161026591906147a1565b60405180910390f35b34801561027a57600080fd5b50610283610ce8565b60405161029091906147a1565b60405180910390f35b3480156102a557600080fd5b506102c060048036038101906102bb9190613eb5565b610cee565b005b3480156102ce57600080fd5b506102e960048036038101906102e49190613f45565b611242565b005b3480156102f757600080fd5b5061030061169a565b60405161030d91906147a1565b60405180910390f35b34801561032257600080fd5b5061032b6116a2565b60405161033891906147a1565b60405180910390f35b34801561034d57600080fd5b5061036860048036038101906103639190613d13565b6116ac565b60405161037591906147a1565b60405180910390f35b34801561038a57600080fd5b506103a560048036038101906103a09190613f1c565b6116e7565b6040516103b291906147a1565b60405180910390f35b3480156103c757600080fd5b506103d061173c565b6040516103dd9190614435565b60405180910390f35b3480156103f257600080fd5b506103fb611744565b60405161040891906147a1565b60405180910390f35b34801561041d57600080fd5b5061043860048036038101906104339190613cea565b61174a565b005b34801561044657600080fd5b50610461600480360381019061045c9190613f1c565b611ae6565b60405161046e919061450f565b60405180910390f35b34801561048357600080fd5b5061048c611b92565b60405161049991906144d2565b60405180910390f35b3480156104ae57600080fd5b506104b7611d73565b6040516104c491906147a1565b60405180910390f35b3480156104d957600080fd5b506104f460048036038101906104ef9190613f45565b611d79565b60405161050191906144f4565b60405180910390f35b34801561051657600080fd5b50610531600480360381019061052c9190613e0d565b61217d565b005b34801561053f57600080fd5b50610548612341565b60405161055591906147a1565b60405180910390f35b34801561056a57600080fd5b5061058560048036038101906105809190613d13565b612347565b60405161059291906147a1565b60405180910390f35b3480156105a757600080fd5b506105c260048036038101906105bd9190613dcc565b612382565b6040516105cf91906147a1565b60405180910390f35b3480156105e457600080fd5b506105ff60048036038101906105fa9190613e61565b6123e7565b005b6106096128c4565b005b34801561061757600080fd5b50610632600480360381019061062d9190613dcc565b612adf565b604051610640929190614531565b60405180910390f35b34801561065557600080fd5b50610670600480360381019061066b9190613e61565b612bc1565b005b34801561067e57600080fd5b5061069960048036038101906106949190613d67565b61317b565b6040516106a691906144f4565b60405180910390f35b6060600180548060200260200160405190810160405280929190818152602001828054801561073357602002820191906000526020600020905b8160009054906101000a900473ffffffffffffffffffffffffffffffffffffffff1673ffffffffffffffffffffffffffffffffffffffff16815260200190600101908083116106e9575b5050505050905090565b6000805b6001805490508110156107fe573373ffffffffffffffffffffffffffffffffffffffff166001828154811061079f577f4e487b7100000000000000000000000000000000000000000000000000000000600052603260045260246000fd5b9060005260206000200160009054906101000a900473ffffffffffffffffffffffffffffffffffffffff1673ffffffffffffffffffffffffffffffffffffffff1614156107eb57600191505b80806107f690614a55565b915050610741565b50600115158115151461081057600080fd5b60005b600180549050811015610906578273ffffffffffffffffffffffffffffffffffffffff1660018281548110610871577f4e487b7100000000000000000000000000000000000000000000000000000000600052603260045260246000fd5b9060005260206000200160009054906101000a900473ffffffffffffffffffffffffffffffffffffffff1673ffffffffffffffffffffffffffffffffffffffff1614156108f3576040517f08c379a00000000000000000000000000000000000000000000000000000000081526004016108ea906146e9565b60405180910390fd5b80806108fe90614a55565b915050610813565b506004600180549050111561091a57600080fd5b6001829080600181540180825580915050600190039060005260206000200160009091909190916101000a81548173ffffffffffffffffffffffffffffffffffffffff021916908373ffffffffffffffffffffffffffffffffffffffff1602179055506001808054905061098e919061491d565b6002819055505050565b600860205281600052604060002081805160208101820180518482526020830160208501208183528095505050505050600091509150505481565b6000806000905060005b600180549050811015610a9a573373ffffffffffffffffffffffffffffffffffffffff1660018281548110610a3b577f4e487b7100000000000000000000000000000000000000000000000000000000600052603260045260246000fd5b9060005260206000200160009054906101000a900473ffffffffffffffffffffffffffffffffffffffff1673ffffffffffffffffffffffffffffffffffffffff161415610a8757600191505b8080610a9290614a55565b9150506109dd565b506001151581151514610aac57600080fd5b82600960003373ffffffffffffffffffffffffffffffffffffffff1673ffffffffffffffffffffffffffffffffffffffff168152602001908152602001600020604051610af890614420565b9081526020016040518091039020541015610b1257600080fd5b82600860003373ffffffffffffffffffffffffffffffffffffffff1673ffffffffffffffffffffffffffffffffffffffff168152602001908152602001600020604051610b5e90614420565b9081526020016040518091039020541015610b7857600080fd5b3373ffffffffffffffffffffffffffffffffffffffff166108fc849081150290604051600060405180830381858888f19350505050158015610bbe573d6000803e3d6000fd5b5082600860003373ffffffffffffffffffffffffffffffffffffffff1673ffffffffffffffffffffffffffffffffffffffff168152602001908152602001600020604051610c0b90614420565b90815260200160405180910390206000828254610c28919061491d565b925050819055507f6a647eacc9e98792655e8dba08e3167440b93e02ef76e8e3330fa10a27b4ecbf336004548542604051610c669493929190614729565b60405180910390a160046000815480929190610c8190614a55565b9190505550600860003373ffffffffffffffffffffffffffffffffffffffff1673ffffffffffffffffffffffffffffffffffffffff168152602001908152602001600020604051610cd190614420565b908152602001604051809103902054915050919050565b60045481565b82600073ffffffffffffffffffffffffffffffffffffffff16600a82604051610d179190614409565b908152602001604051809103902060010160009054906101000a900473ffffffffffffffffffffffffffffffffffffffff1673ffffffffffffffffffffffffffffffffffffffff161415610da0576040517f08c379a0000000000000000000000000000000000000000000000000000000008152600401610d9790614709565b60405180910390fd5b6000805b600180549050811015610e61573373ffffffffffffffffffffffffffffffffffffffff1660018281548110610e02577f4e487b7100000000000000000000000000000000000000000000000000000000600052603260045260246000fd5b9060005260206000200160009054906101000a900473ffffffffffffffffffffffffffffffffffffffff1673ffffffffffffffffffffffffffffffffffffffff161415610e4e57600191505b8080610e5990614a55565b915050610da4565b506001151581151514610e7357600080fd5b83600860003373ffffffffffffffffffffffffffffffffffffffff1673ffffffffffffffffffffffffffffffffffffffff16815260200190815260200160002086604051610ec19190614409565b9081526020016040518091039020541015610edb57600080fd5b600180805490501015610f23576040517f08c379a0000000000000000000000000000000000000000000000000000000008152600401610f1a906146c9565b60405180910390fd5b83600960003373ffffffffffffffffffffffffffffffffffffffff1673ffffffffffffffffffffffffffffffffffffffff16815260200190815260200160002086604051610f719190614409565b90815260200160405180910390206000828254610f8e919061491d565b9250508190555060005b600180549050811015611055578373ffffffffffffffffffffffffffffffffffffffff1660018281548110610ff6577f4e487b7100000000000000000000000000000000000000000000000000000000600052603260045260246000fd5b9060005260206000200160009054906101000a900473ffffffffffffffffffffffffffffffffffffffff1673ffffffffffffffffffffffffffffffffffffffff16141561104257600080fd5b808061104d90614a55565b915050610f98565b507ff85258179fd6edacd661ed4d528ac913de6c17c86788c7986958267070e891a48560055486338760405161108f95949392919061466f565b60405180910390a160066040518061010001604052808781526020018681526020013373ffffffffffffffffffffffffffffffffffffffff1681526020018573ffffffffffffffffffffffffffffffffffffffff168152602001600081526020016000151581526020016005548152602001428152509080600181540180825580915050600190039060005260206000209060080201600090919091909150600082015181600001908051906020019061114a929190613abe565b506020820151816001015560408201518160020160006101000a81548173ffffffffffffffffffffffffffffffffffffffff021916908373ffffffffffffffffffffffffffffffffffffffff16021790555060608201518160030160006101000a81548173ffffffffffffffffffffffffffffffffffffffff021916908373ffffffffffffffffffffffffffffffffffffffff1602179055506080820151816004015560a08201518160050160006101000a81548160ff02191690831515021790555060c0820151816006015560e0820151816007015550506005600081548092919061123690614a55565b91905055505050505050565b80600073ffffffffffffffffffffffffffffffffffffffff16600a8260405161126b9190614409565b908152602001604051809103902060010160009054906101000a900473ffffffffffffffffffffffffffffffffffffffff1673ffffffffffffffffffffffffffffffffffffffff1614156112f4576040517f08c379a00000000000000000000000000000000000000000000000000000000081526004016112eb90614709565b60405180910390fd5b6000805b6001805490508110156113b5573373ffffffffffffffffffffffffffffffffffffffff1660018281548110611356577f4e487b7100000000000000000000000000000000000000000000000000000000600052603260045260246000fd5b9060005260206000200160009054906101000a900473ffffffffffffffffffffffffffffffffffffffff1673ffffffffffffffffffffffffffffffffffffffff1614156113a257600191505b80806113ad90614a55565b9150506112f8565b5060011515811515146113c757600080fd5b600073ffffffffffffffffffffffffffffffffffffffff16600a846040516113ef9190614409565b908152602001604051809103902060010160009054906101000a900473ffffffffffffffffffffffffffffffffffffffff1673ffffffffffffffffffffffffffffffffffffffff16141561144257600080fd5b83600860003373ffffffffffffffffffffffffffffffffffffffff1673ffffffffffffffffffffffffffffffffffffffff168152602001908152602001600020846040516114909190614409565b90815260200160405180910390205410156114aa57600080fd5b83600960003373ffffffffffffffffffffffffffffffffffffffff1673ffffffffffffffffffffffffffffffffffffffff168152602001908152602001600020846040516114f89190614409565b908152602001604051809103902054101561151257600080fd5b83600860003373ffffffffffffffffffffffffffffffffffffffff1673ffffffffffffffffffffffffffffffffffffffff168152602001908152602001600020846040516115609190614409565b9081526020016040518091039020600082825461157d91906148c7565b92505081905550600a836040516115949190614409565b908152602001604051809103902060010160009054906101000a900473ffffffffffffffffffffffffffffffffffffffff1673ffffffffffffffffffffffffffffffffffffffff1663a9059cbb33866040518363ffffffff1660e01b8152600401611600929190614487565b602060405180830381600087803b15801561161a57600080fd5b505af115801561162e573d6000803e3d6000fd5b505050506040513d601f19601f820116820180604052508101906116529190613da3565b507f6a647eacc9e98792655e8dba08e3167440b93e02ef76e8e3330fa10a27b4ecbf8333600454874260405161168c959493929190614561565b60405180910390a150505050565b600047905090565b6000600254905090565b600960205281600052604060002081805160208101820180518482526020830160208501208183528095505050505050600091509150505481565b600060068281548110611723577f4e487b7100000000000000000000000000000000000000000000000000000000600052603260045260246000fd5b9060005260206000209060080201600401549050919050565b600033905090565b60035481565b6000805b60018054905081101561180b573373ffffffffffffffffffffffffffffffffffffffff16600182815481106117ac577f4e487b7100000000000000000000000000000000000000000000000000000000600052603260045260246000fd5b9060005260206000200160009054906101000a900473ffffffffffffffffffffffffffffffffffffffff1673ffffffffffffffffffffffffffffffffffffffff1614156117f857600191505b808061180390614a55565b91505061174e565b50600115158115151461181d57600080fd5b600080600090505b60018054905081101561197d578373ffffffffffffffffffffffffffffffffffffffff1660018281548110611883577f4e487b7100000000000000000000000000000000000000000000000000000000600052603260045260246000fd5b9060005260206000200160009054906101000a900473ffffffffffffffffffffffffffffffffffffffff1673ffffffffffffffffffffffffffffffffffffffff16141561196a578091508373ffffffffffffffffffffffffffffffffffffffff166001828154811061191e577f4e487b7100000000000000000000000000000000000000000000000000000000600052603260045260246000fd5b9060005260206000200160009054906101000a900473ffffffffffffffffffffffffffffffffffffffff1673ffffffffffffffffffffffffffffffffffffffff161461196957600080fd5b5b808061197590614a55565b915050611825565b506001808080549050611990919061491d565b815481106119c7577f4e487b7100000000000000000000000000000000000000000000000000000000600052603260045260246000fd5b9060005260206000200160009054906101000a900473ffffffffffffffffffffffffffffffffffffffff1660018281548110611a2c577f4e487b7100000000000000000000000000000000000000000000000000000000600052603260045260246000fd5b9060005260206000200160006101000a81548173ffffffffffffffffffffffffffffffffffffffff021916908373ffffffffffffffffffffffffffffffffffffffff1602179055506001805480611aac577f4e487b7100000000000000000000000000000000000000000000000000000000600052603160045260246000fd5b6001900381819060005260206000200160006101000a81549073ffffffffffffffffffffffffffffffffffffffff02191690559055505050565b600c8181548110611af657600080fd5b906000526020600020016000915090508054611b1190614a23565b80601f0160208091040260200160405190810160405280929190818152602001828054611b3d90614a23565b8015611b8a5780601f10611b5f57610100808354040283529160200191611b8a565b820191906000526020600020905b815481529060010190602001808311611b6d57829003601f168201915b505050505081565b60606006805480602002602001604051908101604052809291908181526020016000905b82821015611d6a578382906000526020600020906008020160405180610100016040529081600082018054611bea90614a23565b80601f0160208091040260200160405190810160405280929190818152602001828054611c1690614a23565b8015611c635780601f10611c3857610100808354040283529160200191611c63565b820191906000526020600020905b815481529060010190602001808311611c4657829003601f168201915b50505050508152602001600182015481526020016002820160009054906101000a900473ffffffffffffffffffffffffffffffffffffffff1673ffffffffffffffffffffffffffffffffffffffff1673ffffffffffffffffffffffffffffffffffffffff1681526020016003820160009054906101000a900473ffffffffffffffffffffffffffffffffffffffff1673ffffffffffffffffffffffffffffffffffffffff1673ffffffffffffffffffffffffffffffffffffffff168152602001600482015481526020016005820160009054906101000a900460ff161515151581526020016006820154815260200160078201548152505081526020019060010190611bb6565b50505050905090565b60025481565b600081600073ffffffffffffffffffffffffffffffffffffffff16600a82604051611da49190614409565b908152602001604051809103902060010160009054906101000a900473ffffffffffffffffffffffffffffffffffffffff1673ffffffffffffffffffffffffffffffffffffffff161415611e2d576040517f08c379a0000000000000000000000000000000000000000000000000000000008152600401611e2490614709565b60405180910390fd5b6000805b600180549050811015611eee573373ffffffffffffffffffffffffffffffffffffffff1660018281548110611e8f577f4e487b7100000000000000000000000000000000000000000000000000000000600052603260045260246000fd5b9060005260206000200160009054906101000a900473ffffffffffffffffffffffffffffffffffffffff1673ffffffffffffffffffffffffffffffffffffffff161415611edb57600191505b8080611ee690614a55565b915050611e31565b506001151581151514611f0057600080fd5b600073ffffffffffffffffffffffffffffffffffffffff16600a85604051611f289190614409565b908152602001604051809103902060010160009054906101000a900473ffffffffffffffffffffffffffffffffffffffff1673ffffffffffffffffffffffffffffffffffffffff161415611f7b57600080fd5b600a84604051611f8b9190614409565b908152602001604051809103902060010160009054906101000a900473ffffffffffffffffffffffffffffffffffffffff1673ffffffffffffffffffffffffffffffffffffffff166323b872dd3330886040518463ffffffff1660e01b8152600401611ff993929190614450565b602060405180830381600087803b15801561201357600080fd5b505af1158015612027573d6000803e3d6000fd5b505050506040513d601f19601f8201168201806040525081019061204b9190613da3565b5084600860003373ffffffffffffffffffffffffffffffffffffffff1673ffffffffffffffffffffffffffffffffffffffff1681526020019081526020016000208560405161209a9190614409565b908152602001604051809103902060008282546120b791906148c7565b9250508190555084600960003373ffffffffffffffffffffffffffffffffffffffff1673ffffffffffffffffffffffffffffffffffffffff1681526020019081526020016000208560405161210c9190614409565b9081526020016040518091039020600082825461212991906148c7565b92505081905550600192507f41751252894a74bd975de630158c4e47bb25c36d9ce7ad90383d86d391d2be128433600354884260405161216d959493929190614561565b60405180910390a1505092915050565b6000805b60018054905081101561223e573373ffffffffffffffffffffffffffffffffffffffff16600182815481106121df577f4e487b7100000000000000000000000000000000000000000000000000000000600052603260045260246000fd5b9060005260206000200160009054906101000a900473ffffffffffffffffffffffffffffffffffffffff1673ffffffffffffffffffffffffffffffffffffffff16141561222b57600191505b808061223690614a55565b915050612181565b50600115158115151461225057600080fd5b60405180604001604052808481526020018373ffffffffffffffffffffffffffffffffffffffff16815250600a8460405161228b9190614409565b908152602001604051809103902060008201518160000190805190602001906122b5929190613abe565b5060208201518160010160006101000a81548173ffffffffffffffffffffffffffffffffffffffff021916908373ffffffffffffffffffffffffffffffffffffffff160217905550905050600c8390806001815401808255809150506001900390600052602060002001600090919091909150908051906020019061233b929190613abe565b50505050565b60055481565b600b60205281600052604060002081805160208101820180518482526020830160208501208183528095505050505050600091509150505481565b6000600860003373ffffffffffffffffffffffffffffffffffffffff1673ffffffffffffffffffffffffffffffffffffffff168152602001908152602001600020826040516123d19190614409565b9081526020016040518091039020549050919050565b6000805b6001805490508110156124a8573373ffffffffffffffffffffffffffffffffffffffff1660018281548110612449577f4e487b7100000000000000000000000000000000000000000000000000000000600052603260045260246000fd5b9060005260206000200160009054906101000a900473ffffffffffffffffffffffffffffffffffffffff1673ffffffffffffffffffffffffffffffffffffffff16141561249557600191505b80806124a090614a55565b9150506123eb565b5060011515811515146124ba57600080fd5b60008060005b60068054905081101561254a578460068281548110612508577f4e487b7100000000000000000000000000000000000000000000000000000000600052603260045260246000fd5b9060005260206000209060080201600601541415612529576001915061254a565b828061253490614a55565b935050808061254290614a55565b9150506124c0565b5060001515811515141561255d57600080fd5b6001808054905010156125a5576040517f08c379a000000000000000000000000000000000000000000000000000000000815260040161259c906146c9565b60405180910390fd5b60008054906101000a900473ffffffffffffffffffffffffffffffffffffffff1673ffffffffffffffffffffffffffffffffffffffff163373ffffffffffffffffffffffffffffffffffffffff1614156125fe57600080fd5b60001515600760003373ffffffffffffffffffffffffffffffffffffffff1673ffffffffffffffffffffffffffffffffffffffff168152602001908152602001600020600086815260200190815260200160002060009054906101000a900460ff161515146126a2576040517f08c379a000000000000000000000000000000000000000000000000000000000815260040161269990614781565b60405180910390fd5b60001515600683815481106126e0577f4e487b7100000000000000000000000000000000000000000000000000000000600052603260045260246000fd5b906000526020600020906008020160050160009054906101000a900460ff1615151461270b57600080fd5b6001600760003373ffffffffffffffffffffffffffffffffffffffff1673ffffffffffffffffffffffffffffffffffffffff168152602001908152602001600020600084815260200190815260200160002060006101000a81548160ff021916908315150217905550600682815481106127ae577f4e487b7100000000000000000000000000000000000000000000000000000000600052603260045260246000fd5b906000526020600020906008020160040160008154809291906127d090614a55565b91905055507ffe2c7170bbf30cb5442b472fe32cd4080ecb8caefc95e5157e4737119e8cf068858360068581548110612832577f4e487b7100000000000000000000000000000000000000000000000000000000600052603260045260246000fd5b906000526020600020906008020160040154336040516128559493929190614623565b60405180910390a16002546006838154811061289a577f4e487b7100000000000000000000000000000000000000000000000000000000600052603260045260246000fd5b90600052602060002090600802016004015414156128bd576128bc85836131aa565b5b5050505050565b6000805b600180549050811015612985573373ffffffffffffffffffffffffffffffffffffffff1660018281548110612926577f4e487b7100000000000000000000000000000000000000000000000000000000600052603260045260246000fd5b9060005260206000200160009054906101000a900473ffffffffffffffffffffffffffffffffffffffff1673ffffffffffffffffffffffffffffffffffffffff16141561297257600191505b808061297d90614a55565b9150506128c8565b50600115158115151461299757600080fd5b60003410156129a557600080fd5b34600860003373ffffffffffffffffffffffffffffffffffffffff1673ffffffffffffffffffffffffffffffffffffffff1681526020019081526020016000206040516129f190614420565b90815260200160405180910390206000828254612a0e91906148c7565b9250508190555034600960003373ffffffffffffffffffffffffffffffffffffffff1673ffffffffffffffffffffffffffffffffffffffff168152602001908152602001600020604051612a6190614420565b90815260200160405180910390206000828254612a7e91906148c7565b925050819055507f41751252894a74bd975de630158c4e47bb25c36d9ce7ad90383d86d391d2be12336003543442604051612abc9493929190614729565b60405180910390a160036000815480929190612ad790614a55565b919050555050565b600a81805160208101820180518482526020830160208501208183528095505050505050600091509050806000018054612b1890614a23565b80601f0160208091040260200160405190810160405280929190818152602001828054612b4490614a23565b8015612b915780601f10612b6657610100808354040283529160200191612b91565b820191906000526020600020905b815481529060010190602001808311612b7457829003601f168201915b5050505050908060010160009054906101000a900473ffffffffffffffffffffffffffffffffffffffff16905082565b600180805490501015612c09576040517f08c379a0000000000000000000000000000000000000000000000000000000008152600401612c00906146c9565b60405180910390fd5b60008060005b600680549050811015612c99578360068281548110612c57577f4e487b7100000000000000000000000000000000000000000000000000000000600052603260045260246000fd5b9060005260206000209060080201600601541415612c785760019150612c99565b8280612c8390614a55565b9350508080612c9190614a55565b915050612c0f565b50600015158115151415612cac57600080fd5b60068281548110612ce6577f4e487b7100000000000000000000000000000000000000000000000000000000600052603260045260246000fd5b906000526020600020906008020160010154600960003373ffffffffffffffffffffffffffffffffffffffff1673ffffffffffffffffffffffffffffffffffffffff16815260200190815260200160002085604051612d459190614409565b90815260200160405180910390206000828254612d6291906148c7565b925050819055507fb80f814c5698722c4bfbbf15abab5a245f91cdea8a998ffe7c29d0d7ba9acf918460068481548110612dc5577f4e487b7100000000000000000000000000000000000000000000000000000000600052603260045260246000fd5b9060005260206000209060080201600601543360068681548110612e12577f4e487b7100000000000000000000000000000000000000000000000000000000600052603260045260246000fd5b906000526020600020906008020160030160009054906101000a900473ffffffffffffffffffffffffffffffffffffffff1660068781548110612e7e577f4e487b7100000000000000000000000000000000000000000000000000000000600052603260045260246000fd5b90600052602060002090600802016001015442604051612ea3969594939291906145bb565b60405180910390a160066001600680549050612ebf919061491d565b81548110612ef6577f4e487b7100000000000000000000000000000000000000000000000000000000600052603260045260246000fd5b906000526020600020906008020160068381548110612f3e577f4e487b7100000000000000000000000000000000000000000000000000000000600052603260045260246000fd5b90600052602060002090600802016000820181600001908054612f6090614a23565b612f6b929190613b44565b50600182015481600101556002820160009054906101000a900473ffffffffffffffffffffffffffffffffffffffff168160020160006101000a81548173ffffffffffffffffffffffffffffffffffffffff021916908373ffffffffffffffffffffffffffffffffffffffff1602179055506003820160009054906101000a900473ffffffffffffffffffffffffffffffffffffffff168160030160006101000a81548173ffffffffffffffffffffffffffffffffffffffff021916908373ffffffffffffffffffffffffffffffffffffffff160217905550600482015481600401556005820160009054906101000a900460ff168160050160006101000a81548160ff021916908315150217905550600682015481600601556007820154816007015590505060068054806130ca577f4e487b7100000000000000000000000000000000000000000000000000000000600052603160045260246000fd5b6001900381819060005260206000209060080201600080820160006130ef9190613bd1565b60018201600090556002820160006101000a81549073ffffffffffffffffffffffffffffffffffffffff02191690556003820160006101000a81549073ffffffffffffffffffffffffffffffffffffffff021916905560048201600090556005820160006101000a81549060ff0219169055600682016000905560078201600090555050905550505050565b60076020528160005260406000206020528060005260406000206000915091509054906101000a900460ff1681565b6001600682815481106131e6577f4e487b7100000000000000000000000000000000000000000000000000000000600052603260045260246000fd5b906000526020600020906008020160050160006101000a81548160ff02191690831515021790555060068181548110613248577f4e487b7100000000000000000000000000000000000000000000000000000000600052603260045260246000fd5b9060005260206000209060080201600101546008600060068481548110613298577f4e487b7100000000000000000000000000000000000000000000000000000000600052603260045260246000fd5b906000526020600020906008020160020160009054906101000a900473ffffffffffffffffffffffffffffffffffffffff1673ffffffffffffffffffffffffffffffffffffffff1673ffffffffffffffffffffffffffffffffffffffff168152602001908152602001600020836040516133129190614409565b9081526020016040518091039020600082825461332f919061491d565b9250508190555060068181548110613370577f4e487b7100000000000000000000000000000000000000000000000000000000600052603260045260246000fd5b90600052602060002090600802016001015460086000600684815481106133c0577f4e487b7100000000000000000000000000000000000000000000000000000000600052603260045260246000fd5b906000526020600020906008020160030160009054906101000a900473ffffffffffffffffffffffffffffffffffffffff1673ffffffffffffffffffffffffffffffffffffffff1673ffffffffffffffffffffffffffffffffffffffff1681526020019081526020016000208360405161343a9190614409565b9081526020016040518091039020600082825461345791906148c7565b9250508190555060068181548110613498577f4e487b7100000000000000000000000000000000000000000000000000000000600052603260045260246000fd5b90600052602060002090600802016001015460096000600684815481106134e8577f4e487b7100000000000000000000000000000000000000000000000000000000600052603260045260246000fd5b906000526020600020906008020160020160009054906101000a900473ffffffffffffffffffffffffffffffffffffffff1673ffffffffffffffffffffffffffffffffffffffff1673ffffffffffffffffffffffffffffffffffffffff168152602001908152602001600020836040516135629190614409565b9081526020016040518091039020600082825461357f919061491d565b92505081905550600681815481106135c0577f4e487b7100000000000000000000000000000000000000000000000000000000600052603260045260246000fd5b9060005260206000209060080201600101546009600060068481548110613610577f4e487b7100000000000000000000000000000000000000000000000000000000600052603260045260246000fd5b906000526020600020906008020160030160009054906101000a900473ffffffffffffffffffffffffffffffffffffffff1673ffffffffffffffffffffffffffffffffffffffff1673ffffffffffffffffffffffffffffffffffffffff1681526020019081526020016000208360405161368a9190614409565b908152602001604051809103902060008282546136a791906148c7565b925050819055507fd3af251285060458993a5ebb0d39d9636dad6976562f9df61c5ea778c35d0615826006838154811061370a577f4e487b7100000000000000000000000000000000000000000000000000000000600052603260045260246000fd5b9060005260206000209060080201600601543360068581548110613757577f4e487b7100000000000000000000000000000000000000000000000000000000600052603260045260246000fd5b906000526020600020906008020160030160009054906101000a900473ffffffffffffffffffffffffffffffffffffffff16600686815481106137c3577f4e487b7100000000000000000000000000000000000000000000000000000000600052603260045260246000fd5b906000526020600020906008020160010154426040516137e8969594939291906145bb565b60405180910390a160066001600680549050613804919061491d565b8154811061383b577f4e487b7100000000000000000000000000000000000000000000000000000000600052603260045260246000fd5b906000526020600020906008020160068281548110613883577f4e487b7100000000000000000000000000000000000000000000000000000000600052603260045260246000fd5b906000526020600020906008020160008201816000019080546138a590614a23565b6138b0929190613b44565b50600182015481600101556002820160009054906101000a900473ffffffffffffffffffffffffffffffffffffffff168160020160006101000a81548173ffffffffffffffffffffffffffffffffffffffff021916908373ffffffffffffffffffffffffffffffffffffffff1602179055506003820160009054906101000a900473ffffffffffffffffffffffffffffffffffffffff168160030160006101000a81548173ffffffffffffffffffffffffffffffffffffffff021916908373ffffffffffffffffffffffffffffffffffffffff160217905550600482015481600401556005820160009054906101000a900460ff168160050160006101000a81548160ff02191690831515021790555060068201548160060155600782015481600701559050506006805480613a0f577f4e487b7100000000000000000000000000000000000000000000000000000000600052603160045260246000fd5b600190038181906000526020600020906008020160008082016000613a349190613bd1565b60018201600090556002820160006101000a81549073ffffffffffffffffffffffffffffffffffffffff02191690556003820160006101000a81549073ffffffffffffffffffffffffffffffffffffffff021916905560048201600090556005820160006101000a81549060ff021916905560068201600090556007820160009055505090555050565b828054613aca90614a23565b90600052602060002090601f016020900481019282613aec5760008555613b33565b82601f10613b0557805160ff1916838001178555613b33565b82800160010185558215613b33579182015b82811115613b32578251825591602001919060010190613b17565b5b509050613b409190613c11565b5090565b828054613b5090614a23565b90600052602060002090601f016020900481019282613b725760008555613bc0565b82601f10613b835780548555613bc0565b82800160010185558215613bc057600052602060002091601f016020900482015b82811115613bbf578254825591600101919060010190613ba4565b5b509050613bcd9190613c11565b5090565b508054613bdd90614a23565b6000825580601f10613bef5750613c0e565b601f016020900490600052602060002090810190613c0d9190613c11565b5b50565b5b80821115613c2a576000816000905550600101613c12565b5090565b6000613c41613c3c846147ed565b6147bc565b905082815260208101848484011115613c5957600080fd5b613c648482856149e1565b509392505050565b600081359050613c7b81614b3c565b92915050565b600081359050613c9081614b53565b92915050565b600081519050613ca581614b6a565b92915050565b600082601f830112613cbc57600080fd5b8135613ccc848260208601613c2e565b91505092915050565b600081359050613ce481614b81565b92915050565b600060208284031215613cfc57600080fd5b6000613d0a84828501613c6c565b91505092915050565b60008060408385031215613d2657600080fd5b6000613d3485828601613c6c565b925050602083013567ffffffffffffffff811115613d5157600080fd5b613d5d85828601613cab565b9150509250929050565b60008060408385031215613d7a57600080fd5b6000613d8885828601613c6c565b9250506020613d9985828601613cd5565b9150509250929050565b600060208284031215613db557600080fd5b6000613dc384828501613c96565b91505092915050565b600060208284031215613dde57600080fd5b600082013567ffffffffffffffff811115613df857600080fd5b613e0484828501613cab565b91505092915050565b60008060408385031215613e2057600080fd5b600083013567ffffffffffffffff811115613e3a57600080fd5b613e4685828601613cab565b9250506020613e5785828601613c6c565b9150509250929050565b60008060408385031215613e7457600080fd5b600083013567ffffffffffffffff811115613e8e57600080fd5b613e9a85828601613cab565b9250506020613eab85828601613cd5565b9150509250929050565b600080600060608486031215613eca57600080fd5b600084013567ffffffffffffffff811115613ee457600080fd5b613ef086828701613cab565b9350506020613f0186828701613cd5565b9250506040613f1286828701613c81565b9150509250925092565b600060208284031215613f2e57600080fd5b6000613f3c84828501613cd5565b91505092915050565b60008060408385031215613f5857600080fd5b6000613f6685828601613cd5565b925050602083013567ffffffffffffffff811115613f8357600080fd5b613f8f85828601613cab565b9150509250929050565b6000613fa58383613fe3565b60208301905092915050565b6000613fbd838361433b565b905092915050565b613fce816149ab565b82525050565b613fdd81614963565b82525050565b613fec81614951565b82525050565b613ffb81614951565b82525050565b600061400c8261483d565b6140168185614878565b93506140218361481d565b8060005b838110156140525781516140398882613f99565b97506140448361485e565b925050600181019050614025565b5085935050505092915050565b600061406a82614848565b6140748185614889565b9350836020820285016140868561482d565b8060005b858110156140c257848403895281516140a38582613fb1565b94506140ae8361486b565b925060208a0199505060018101905061408a565b50829750879550505050505092915050565b6140dd81614975565b82525050565b6140ec81614975565b82525050565b60006140fd82614853565b614107818561489a565b93506141178185602086016149f0565b61412081614b2b565b840191505092915050565b600061413682614853565b61414081856148ab565b93506141508185602086016149f0565b61415981614b2b565b840191505092915050565b600061416f82614853565b61417981856148bc565b93506141898185602086016149f0565b80840191505092915050565b60006141a26021836148ab565b91507f6e65656420746f2068617665206d6f7265207468616e206f6e65207369676e6560008301527f72000000000000000000000000000000000000000000000000000000000000006020830152604082019050919050565b60006142086012836148ab565b91507f416c7265616479207265676973746572656400000000000000000000000000006000830152602082019050919050565b60006142486014836148ab565b91507f546f6b656e20646f6573206e6f742065786973740000000000000000000000006000830152602082019050919050565b60006142886003836148ab565b91507f45544800000000000000000000000000000000000000000000000000000000006000830152602082019050919050565b60006142c86003836148bc565b91507f45544800000000000000000000000000000000000000000000000000000000006000830152600382019050919050565b6000614308601b836148ab565b91507f7472616e73616374696f6e20616c7261647920617070726f76656400000000006000830152602082019050919050565b600061010083016000830151848203600086015261435982826140f2565b915050602083015161436e60208601826143eb565b5060408301516143816040860182613fe3565b5060608301516143946060860182613fd4565b5060808301516143a760808601826143eb565b5060a08301516143ba60a08601826140d4565b5060c08301516143cd60c08601826143eb565b5060e08301516143e060e08601826143eb565b508091505092915050565b6143f4816149a1565b82525050565b614403816149a1565b82525050565b60006144158284614164565b915081905092915050565b600061442b826142bb565b9150819050919050565b600060208201905061444a6000830184613ff2565b92915050565b60006060820190506144656000830186613ff2565b6144726020830185613ff2565b61447f60408301846143fa565b949350505050565b600060408201905061449c6000830185613ff2565b6144a960208301846143fa565b9392505050565b600060208201905081810360008301526144ca8184614001565b905092915050565b600060208201905081810360008301526144ec818461405f565b905092915050565b600060208201905061450960008301846140e3565b92915050565b60006020820190508181036000830152614529818461412b565b905092915050565b6000604082019050818103600083015261454b818561412b565b905061455a6020830184613ff2565b9392505050565b600060a082019050818103600083015261457b818861412b565b905061458a6020830187613ff2565b61459760408301866143fa565b6145a460608301856143fa565b6145b160808301846143fa565b9695505050505050565b600060c08201905081810360008301526145d5818961412b565b90506145e460208301886143fa565b6145f16040830187613ff2565b6145fe6060830186613fc5565b61460b60808301856143fa565b61461860a08301846143fa565b979650505050505050565b6000608082019050818103600083015261463d818761412b565b905061464c60208301866143fa565b61465960408301856143fa565b6146666060830184613ff2565b95945050505050565b600060a0820190508181036000830152614689818861412b565b905061469860208301876143fa565b6146a560408301866143fa565b6146b26060830185613ff2565b6146bf6080830184613fc5565b9695505050505050565b600060208201905081810360008301526146e281614195565b9050919050565b60006020820190508181036000830152614702816141fb565b9050919050565b600060208201905081810360008301526147228161423b565b9050919050565b600060a08201905081810360008301526147428161427b565b90506147516020830187613ff2565b61475e60408301866143fa565b61476b60608301856143fa565b61477860808301846143fa565b95945050505050565b6000602082019050818103600083015261479a816142fb565b9050919050565b60006020820190506147b660008301846143fa565b92915050565b6000604051905081810181811067ffffffffffffffff821117156147e3576147e2614afc565b5b8060405250919050565b600067ffffffffffffffff82111561480857614807614afc565b5b601f19601f8301169050602081019050919050565b6000819050602082019050919050565b6000819050602082019050919050565b600081519050919050565b600081519050919050565b600081519050919050565b6000602082019050919050565b6000602082019050919050565b600082825260208201905092915050565b600082825260208201905092915050565b600082825260208201905092915050565b600082825260208201905092915050565b600081905092915050565b60006148d2826149a1565b91506148dd836149a1565b9250827fffffffffffffffffffffffffffffffffffffffffffffffffffffffffffffffff0382111561491257614911614a9e565b5b828201905092915050565b6000614928826149a1565b9150614933836149a1565b92508282101561494657614945614a9e565b5b828203905092915050565b600061495c82614981565b9050919050565b600061496e82614981565b9050919050565b60008115159050919050565b600073ffffffffffffffffffffffffffffffffffffffff82169050919050565b6000819050919050565b60006149b6826149bd565b9050919050565b60006149c8826149cf565b9050919050565b60006149da82614981565b9050919050565b82818337600083830152505050565b60005b83811015614a0e5780820151818401526020810190506149f3565b83811115614a1d576000848401525b50505050565b60006002820490506001821680614a3b57607f821691505b60208210811415614a4f57614a4e614acd565b5b50919050565b6000614a60826149a1565b91507fffffffffffffffffffffffffffffffffffffffffffffffffffffffffffffffff821415614a9357614a92614a9e565b5b600182019050919050565b7f4e487b7100000000000000000000000000000000000000000000000000000000600052601160045260246000fd5b7f4e487b7100000000000000000000000000000000000000000000000000000000600052602260045260246000fd5b7f4e487b7100000000000000000000000000000000000000000000000000000000600052604160045260246000fd5b6000601f19601f8301169050919050565b614b4581614951565b8114614b5057600080fd5b50565b614b5c81614963565b8114614b6757600080fd5b50565b614b7381614975565b8114614b7e57600080fd5b50565b614b8a816149a1565b8114614b9557600080fd5b5056fea26469706673582212202b65f4a47cb13d674b576a0efc14126f61a184049d73b5765f5b9af35833034064736f6c63430008000033",
  "immutableReferences": {},
  "source": "//SPDX-License-Identifier: MIT\r\npragma solidity 0.8.0;\r\npragma abicoder v2;\r\n\r\nimport \"../node_modules/@openzeppelin/contracts/token/ERC20/IERC20.sol\";\r\n\r\ncontract MultiSigWallet {\r\n\r\n    //address array to store owners\r\n    address mainOwner;\r\n    address[] owners;\r\n    //conensus limit for approvals\r\n    uint public limit;\r\n    uint256 public depositId = 0;\r\n    uint256 public withdrawalId = 0;\r\n    uint256 public transferId = 0;\r\n\r\n    constructor() {\r\n        mainOwner = msg.sender;\r\n        owners.push(mainOwner);\r\n    }\r\n    \r\n    //set up data structures. each trasnfer has diff properties\r\n    //like amount, the reviever, how many approvals it has, the state of the\r\n    //transfer etc\r\n    struct Transfer{\r\n        string ticker;\r\n        uint amount;\r\n        address sender;\r\n        address payable receiver;\r\n        uint approvals;\r\n        bool hasBeenSent;\r\n        uint id;\r\n        uint timeOfCreation;\r\n    }\r\n\r\n    struct Token {\r\n        string ticker;\r\n        address tokenAddress;\r\n    }\r\n    \r\n    \r\n    \r\n    //here we create instances of our structs so we can keep logs\r\n    Transfer[] transferRequests;\r\n    \r\n    \r\n    \r\n    //double mpping which maps an address and the transaction id to an approval boolean\r\n    //false if not approved true if so\r\n    mapping(address => mapping(uint => bool)) public approvals;\r\n    //balance mapping which maps user address ot their account balance\r\n    mapping(address => mapping(string => uint)) public balances;\r\n    mapping(address => mapping(string => uint)) public reservedBalance;\r\n    mapping(string => Token) public tokenMapping;\r\n    \r\n    //modifier which we can lace in function definitions to restrict access of that \r\n    //function to the wallet owners\r\n    modifier onlyOwners(){\r\n        bool owner = false;\r\n        for(uint i=0; i<owners.length;i++){\r\n            if(owners[i] == msg.sender){\r\n                owner = true;\r\n            }\r\n        }\r\n        require(owner == true);\r\n        _;\r\n    }\r\n\r\n    modifier tokenExists(string memory ticker) {\r\n        require(tokenMapping[ticker].tokenAddress != address(0), \"Token does not exist\");\r\n        _;\r\n    }\r\n    \r\n    //evets\r\n    event fundsDeposited(string ticker, address from, uint256 id, uint amount, uint256 timeStamp);\r\n    event fundsWithdrawed(string ticker, address from, uint256 id, uint amount, uint256 timeStamp);\r\n    event TransferRequestCreated(string ticker, uint _id, uint _amount, address _initiator, address _receiver);\r\n    event ApprovalReceived(string ticker, uint _id, uint _approvals, address _approver);\r\n    event TransferApproved(string ticker, uint _id);\r\n    // event t(uint id, address sender, address receiver, uint amount, uint timeOfTransfer);\r\n    event transferRequestApproved(string ticker, uint id, address sender, address receiver, uint amount, uint timeStamp);\r\n    event transferRequestCancelled(string ticker, uint id, address sender, address receiver, uint amount, uint timeStamp);\r\n\r\n   \r\n    \r\n    //we will begin with a double mapping that maps an address token ticker or symbol\r\n    // which maps to the balance of that token. We can have balances of many types of\r\n    //tokens /eth so we need a mapping to keep track of this\r\n    mapping(address => mapping(string => uint256)) public ERC20Tokenbalances;\r\n    string[] public tokenList;\r\n\r\n    \r\n    function addToken(string memory ticker, address tokenAddress) external onlyOwners {\r\n\r\n        //create new token\r\n        tokenMapping[ticker] = Token(ticker, tokenAddress);\r\n        //add the new token to the token list\r\n        tokenList.push(ticker);\r\n    }\r\n    \r\n    //add user function. require owner is not already in the wallet array\r\n    function addUsers(address _owners) public onlyOwners\r\n    {\r\n        for (uint user = 0; user < owners.length; user++)\r\n        {\r\n            require(owners[user] != _owners, \"Already registered\");\r\n        }\r\n        require(owners.length <= 4);\r\n        owners.push(_owners);\r\n        \r\n        //from the current array calculate the value of minimum consensus\r\n        limit = owners.length - 1;\r\n    }\r\n    \r\n    //remove user require the address we pass in is the address were removing\r\n    function removeUser(address _user) public onlyOwners\r\n    {\r\n        uint user_index;\r\n        for(uint user = 0; user < owners.length; user++)\r\n        {\r\n            if (owners[user] == _user)\r\n            {   \r\n                user_index = user;\r\n                require(owners[user] == _user);\r\n            }\r\n        }\r\n        \r\n        owners[user_index] = owners[owners.length - 1];\r\n        owners.pop();\r\n        //owners;\r\n    }\r\n    \r\n    \r\n    //gets wallet users\r\n    function getUsers() public view returns(address[] memory)\r\n    {\r\n        return owners;\r\n    }\r\n    \r\n    function getApprovalLimit() public view returns (uint)\r\n    {\r\n        return (limit);\r\n    }\r\n    \r\n    \r\n    //deposit function. require deposit amount i sgreater than 0 and withdrawalRequests//the wallet oweners array is greater than 1\r\n    function deposit() public onlyOwners payable\r\n    {\r\n        require(msg.value >= 0);\r\n        // require(owners.length > 1, \"need to have more than one signer\");\r\n    \r\n        balances[msg.sender][\"ETH\"] += msg.value;\r\n        reservedBalance[msg.sender][\"ETH\"] += msg.value;\r\n        emit fundsDeposited(\"ETH\", msg.sender, depositId, msg.value, block.timestamp);\r\n        depositId++;\r\n    }\r\n\r\n    function depositERC20Token(uint amount, string memory ticker) external tokenExists(ticker) onlyOwners returns(bool _success){\r\n        require(tokenMapping[ticker].tokenAddress != address(0));\r\n        IERC20(tokenMapping[ticker].tokenAddress).transferFrom(msg.sender, address(this), amount);\r\n        balances[msg.sender][ticker] += amount;  \r\n        reservedBalance[msg.sender][ticker] += amount;\r\n        _success = true;\r\n        //emit deposited(msg.sender, address(this), amount, ticker);\r\n        emit fundsDeposited(ticker, msg.sender, depositId, amount, block.timestamp);\r\n\r\n        return _success;\r\n    }\r\n\r\n    //after transfer is called our balance i < transaction amount thus we cannot withfraw\r\n    //update amount after transfer function.\r\n    function withdraw(uint _amount) public onlyOwners returns (uint)\r\n    {\r\n        require(reservedBalance[msg.sender][\"ETH\"] >= _amount);\r\n        require(balances[msg.sender][\"ETH\"] >= _amount);\r\n        \r\n        payable(msg.sender).transfer(_amount);\r\n        balances[msg.sender][\"ETH\"] -= _amount;\r\n\r\n        emit fundsWithdrawed(\"ETH\", msg.sender, withdrawalId, _amount, block.timestamp);\r\n        withdrawalId++;\r\n        \r\n        return balances[msg.sender][\"ETH\"];\r\n        \r\n    }\r\n\r\n    //withdrawal function\r\n    function withdrawERC20Token(uint amount, string memory ticker) external tokenExists(ticker) onlyOwners {\r\n        require(tokenMapping[ticker].tokenAddress != address(0));\r\n        require(balances[msg.sender][ticker] >= amount);\r\n        require(reservedBalance[msg.sender][ticker] >= amount);\r\n        balances[msg.sender][ticker] += amount;\r\n        IERC20(tokenMapping[ticker].tokenAddress).transfer(msg.sender, amount);\r\n        emit fundsWithdrawed(ticker, msg.sender, withdrawalId, amount, block.timestamp);\r\n\r\n\r\n    }\r\n\r\n        \r\n    //next we want to make a get balance function\r\n    function getAccountBalance(string memory ticker) public view returns(uint)\r\n    {\r\n        return balances[msg.sender][ticker];\r\n    }\r\n\r\n    //get contratc balance\r\n    function getContractBalance() public view returns(uint)\r\n    {\r\n        return address(this).balance;\r\n    }\r\n    \r\n    \r\n    //next we want to make q function to return the address of the wallet owner\r\n    function getOwner() public view returns(address)\r\n    {\r\n        return msg.sender;\r\n    }\r\n    \r\n    \r\n    //Create an instance of the Transfer struct and add it to the transferRequests array\r\n    function createTransfer(string memory _ticker, uint _amount, address payable _receiver) public tokenExists(_ticker) onlyOwners {\r\n        require(balances[msg.sender][_ticker] >= _amount);\r\n        require(owners.length >= 1, \"need to have more than one signer\");\r\n        //require(msg.sender != _receiver);\r\n        reservedBalance[msg.sender][_ticker] -= _amount;\r\n\r\n        for (uint i = 0; i < owners.length; i++)\r\n        {\r\n            require(owners[i] != _receiver);\r\n        //   if  (owners[i] == _receiver)\r\n        //   {\r\n        //       revert();\r\n        //   }\r\n        }\r\n        emit TransferRequestCreated(_ticker, transferId, _amount, msg.sender, _receiver);\r\n        transferRequests.push(\r\n            Transfer(_ticker, _amount, msg.sender, _receiver, 0, false, transferId, block.timestamp)\r\n        );\r\n        transferId++;\r\n        \r\n    }\r\n\r\n\r\n    function cancelTransfer(string memory ticker, uint _id) public {\r\n        require(owners.length >= 1, \"need to have more than one signer\");\r\n        // require(transferRequests[_id].sender == msg.sender, \"only the user who created the transfer can cancel\");\r\n\r\n        uint counter = 0;\r\n        bool hasBeenFound = false;\r\n        for(uint i = 0; i < transferRequests.length; i++) {\r\n           if(transferRequests[i].id == _id) {\r\n               hasBeenFound = true;\r\n               break;\r\n           }\r\n           counter++;\r\n        }\r\n        if(hasBeenFound == false) revert();\r\n\r\n        reservedBalance[msg.sender][ticker] += transferRequests[counter].amount;\r\n        emit transferRequestCancelled(ticker, transferRequests[counter].id, msg.sender, transferRequests[counter].receiver, transferRequests[counter].amount, block.timestamp);\r\n\r\n        transferRequests[counter] = transferRequests[transferRequests.length - 1];\r\n        transferRequests.pop();\r\n\r\n\r\n    }\r\n    \r\n    \r\n    \r\n    \r\n    function Transferapprove(string memory ticker, uint _id) public onlyOwners {\r\n\r\n        uint counter = 0;\r\n        bool hasBeenFound = false;\r\n        for(uint i = 0; i < transferRequests.length; i++) {\r\n           if(transferRequests[i].id == _id) {\r\n               hasBeenFound = true;\r\n               break;\r\n           }\r\n           counter++;\r\n        }\r\n        if(hasBeenFound == false) revert();\r\n\r\n        require(owners.length >= 1, \"need to have more than one signer\");\r\n        require(msg.sender != mainOwner);\r\n        require(approvals[msg.sender][_id] == false, \"transaction alrady approved\");\r\n        require(transferRequests[counter].hasBeenSent == false);\r\n\r\n        approvals[msg.sender][counter] = true;\r\n        transferRequests[counter].approvals++;\r\n        \r\n        emit ApprovalReceived(ticker, counter, transferRequests[counter].approvals, msg.sender);\r\n\r\n        if(transferRequests[counter].approvals == limit) {\r\n\r\n            // emit transferRequestApproved(_id, msg.sender, transferRequests[_id].receiver, transferRequests[_id].amount, block.timestamp);\r\n            TransferFunds(ticker, counter);\r\n        }\r\n\r\n        \r\n        \r\n    }    \r\n\r\n     //now we need to create a function to actually transfer the funds after the\r\n    //transfer has been recieved\r\n    function TransferFunds(string memory _ticker, uint _id) private\r\n    {\r\n        // require(owners.length >= 1, \"need to have more than one signer\");\r\n        // require(transferRequests[_id].approvals == limit);\r\n        \r\n       \r\n        transferRequests[_id].hasBeenSent = true;\r\n        balances[transferRequests[_id].sender][_ticker] -= transferRequests[_id].amount;\r\n        balances[transferRequests[_id].receiver][_ticker] += transferRequests[_id].amount;\r\n        reservedBalance[transferRequests[_id].sender][_ticker] -= transferRequests[_id].amount;\r\n        reservedBalance[transferRequests[_id].receiver][_ticker] += transferRequests[_id].amount;\r\n        \r\n        emit transferRequestApproved(_ticker, transferRequests[_id].id, msg.sender, transferRequests[_id].receiver, transferRequests[_id].amount, block.timestamp);\r\n\r\n        transferRequests[_id] = transferRequests[transferRequests.length - 1];\r\n        transferRequests.pop();\r\n        \r\n        // return balance[transferRequests[_id].sender];\r\n    }\r\n    \r\n    \r\n    function getApprovalState(uint _id) public view returns(uint)\r\n    {\r\n        return transferRequests[_id].approvals;\r\n    }\r\n    \r\n    \r\n    //Should return all transfer requests\r\n    function getTransferRequests() public view returns (Transfer[] memory){\r\n       \r\n        return transferRequests;\r\n    }\r\n}",
  "sourcePath": "C:/Users/evanMcGraneTest/Documents/EthereumProgramming/MutiSigWalletApp/contracts/Multisig.sol",
  "compiler": {
    "name": "solc",
    "version": "0.8.0+commit.c7dfd78e.Emscripten.clang"
  },
  "schemaVersion": "3.3.4",
  "updatedAt": "2021-08-25T21:05:24.664Z",
  "networkType": "ethereum",
  "devdoc": {
    "kind": "dev",
    "methods": {},
    "version": 1
  },
  "userdoc": {
    "kind": "user",
    "methods": {},
    "version": 1
  }
}