{
  "contractName": "MultiSigWallet",
  "abi": [
    {
      "inputs": [],
      "stateMutability": "nonpayable",
      "type": "constructor"
    },
    {
      "anonymous": false,
      "inputs": [
        {
          "indexed": false,
          "internalType": "uint256",
          "name": "_id",
          "type": "uint256"
        },
        {
          "indexed": false,
          "internalType": "uint256",
          "name": "_approvals",
          "type": "uint256"
        },
        {
          "indexed": false,
          "internalType": "address",
          "name": "_approver",
          "type": "address"
        }
      ],
      "name": "ApprovalReceived",
      "type": "event"
    },
    {
      "anonymous": false,
      "inputs": [
        {
          "indexed": false,
          "internalType": "uint256",
          "name": "_id",
          "type": "uint256"
        }
      ],
      "name": "TransferApproved",
      "type": "event"
    },
    {
      "anonymous": false,
      "inputs": [
        {
          "indexed": false,
          "internalType": "uint256",
          "name": "_id",
          "type": "uint256"
        },
        {
          "indexed": false,
          "internalType": "uint256",
          "name": "_amount",
          "type": "uint256"
        },
        {
          "indexed": false,
          "internalType": "address",
          "name": "_initiator",
          "type": "address"
        },
        {
          "indexed": false,
          "internalType": "address",
          "name": "_receiver",
          "type": "address"
        }
      ],
      "name": "TransferRequestCreated",
      "type": "event"
    },
    {
      "anonymous": false,
      "inputs": [
        {
          "indexed": false,
          "internalType": "address",
          "name": "to",
          "type": "address"
        },
        {
          "indexed": false,
          "internalType": "uint256",
          "name": "id",
          "type": "uint256"
        },
        {
          "indexed": false,
          "internalType": "uint256",
          "name": "amount",
          "type": "uint256"
        },
        {
          "indexed": false,
          "internalType": "uint256",
          "name": "timeOfDeposit",
          "type": "uint256"
        }
      ],
      "name": "fundsDeposited",
      "type": "event"
    },
    {
      "inputs": [],
      "name": "depositId",
      "outputs": [
        {
          "internalType": "uint256",
          "name": "",
          "type": "uint256"
        }
      ],
      "stateMutability": "view",
      "type": "function",
      "constant": true
    },
    {
      "inputs": [],
      "name": "limit",
      "outputs": [
        {
          "internalType": "uint256",
          "name": "",
          "type": "uint256"
        }
      ],
      "stateMutability": "view",
      "type": "function",
      "constant": true
    },
    {
      "inputs": [
        {
          "internalType": "address",
          "name": "_owners",
          "type": "address"
        }
      ],
      "name": "addUsers",
      "outputs": [],
      "stateMutability": "nonpayable",
      "type": "function"
    },
    {
      "inputs": [
        {
          "internalType": "address",
          "name": "_user",
          "type": "address"
        }
      ],
      "name": "removeUser",
      "outputs": [],
      "stateMutability": "nonpayable",
      "type": "function"
    },
    {
      "inputs": [],
      "name": "getUsers",
      "outputs": [
        {
          "internalType": "address[]",
          "name": "",
          "type": "address[]"
        }
      ],
      "stateMutability": "view",
      "type": "function",
      "constant": true
    },
    {
      "inputs": [],
      "name": "getApprovalLimit",
      "outputs": [
        {
          "internalType": "uint256",
          "name": "",
          "type": "uint256"
        }
      ],
      "stateMutability": "view",
      "type": "function",
      "constant": true
    },
    {
      "inputs": [],
      "name": "deposit",
      "outputs": [],
      "stateMutability": "payable",
      "type": "function",
      "payable": true
    },
    {
      "inputs": [],
      "name": "getAccountBalance",
      "outputs": [
        {
          "internalType": "uint256",
          "name": "",
          "type": "uint256"
        }
      ],
      "stateMutability": "view",
      "type": "function",
      "constant": true
    },
    {
      "inputs": [],
      "name": "getContractBalance",
      "outputs": [
        {
          "internalType": "uint256",
          "name": "",
          "type": "uint256"
        }
      ],
      "stateMutability": "view",
      "type": "function",
      "constant": true
    },
    {
      "inputs": [],
      "name": "getOwner",
      "outputs": [
        {
          "internalType": "address",
          "name": "",
          "type": "address"
        }
      ],
      "stateMutability": "view",
      "type": "function",
      "constant": true
    },
    {
      "inputs": [
        {
          "internalType": "uint256",
          "name": "_amount",
          "type": "uint256"
        },
        {
          "internalType": "address payable",
          "name": "_receiver",
          "type": "address"
        }
      ],
      "name": "createTransfer",
      "outputs": [],
      "stateMutability": "nonpayable",
      "type": "function"
    },
    {
      "inputs": [
        {
          "internalType": "uint256",
          "name": "_id",
          "type": "uint256"
        }
      ],
      "name": "Transferapprove",
      "outputs": [],
      "stateMutability": "nonpayable",
      "type": "function"
    },
    {
      "inputs": [
        {
          "internalType": "uint256",
          "name": "_id",
          "type": "uint256"
        }
      ],
      "name": "TransferFunds",
      "outputs": [
        {
          "internalType": "uint256",
          "name": "",
          "type": "uint256"
        }
      ],
      "stateMutability": "nonpayable",
      "type": "function"
    },
    {
      "inputs": [
        {
          "internalType": "uint256",
          "name": "_amount",
          "type": "uint256"
        }
      ],
      "name": "withdraw",
      "outputs": [
        {
          "internalType": "uint256",
          "name": "",
          "type": "uint256"
        }
      ],
      "stateMutability": "nonpayable",
      "type": "function"
    },
    {
      "inputs": [
        {
          "internalType": "uint256",
          "name": "_id",
          "type": "uint256"
        }
      ],
      "name": "getApprovalState",
      "outputs": [
        {
          "internalType": "uint256",
          "name": "",
          "type": "uint256"
        }
      ],
      "stateMutability": "view",
      "type": "function",
      "constant": true
    },
    {
      "inputs": [],
      "name": "getTransferRequests",
      "outputs": [
        {
          "components": [
            {
              "internalType": "uint256",
              "name": "amount",
              "type": "uint256"
            },
            {
              "internalType": "address payable",
              "name": "receiver",
              "type": "address"
            },
            {
              "internalType": "uint256",
              "name": "approvals",
              "type": "uint256"
            },
            {
              "internalType": "bool",
              "name": "hasBeenSent",
              "type": "bool"
            },
            {
              "internalType": "uint256",
              "name": "id",
              "type": "uint256"
            }
          ],
          "internalType": "struct MultiSigWallet.Transfer[]",
          "name": "",
          "type": "tuple[]"
        }
      ],
      "stateMutability": "view",
      "type": "function",
      "constant": true
    }
  ],
  "bytecode": "0x6080604052600060035534801561001557600080fd5b50336000806101000a81548173ffffffffffffffffffffffffffffffffffffffff021916908373ffffffffffffffffffffffffffffffffffffffff160217905550600160008054906101000a900473ffffffffffffffffffffffffffffffffffffffff169080600181540180825580915050600190039060005260206000200160009091909190916101000a81548173ffffffffffffffffffffffffffffffffffffffff021916908373ffffffffffffffffffffffffffffffffffffffff160217905550611e88806100e86000396000f3fe6080604052600436106100f25760003560e01c80637720cdd81161008a5780639857518811610059578063985751881461032b578063a04ef14514610354578063a4d66daf1461037f578063d0e30db0146103aa576100f2565b80637720cdd81461026f5780637d5539c4146102ac578063893d20e8146102d55780639852099c14610300576100f2565b80634c12fa47116100c65780634c12fa47146101c55780636896fabf146101ee5780636f9fb98a146102195780637278a1fa14610244576100f2565b8062ce8e3e146100f757806304343722146101225780630cf6303c1461014b5780632e1a7d4d14610188575b600080fd5b34801561010357600080fd5b5061010c6103b4565b6040516101199190611abd565b60405180910390f35b34801561012e57600080fd5b506101496004803603810190610144919061172c565b610442565b005b34801561015757600080fd5b50610172600480360381019061016d9190611755565b6105c9565b60405161017f9190611b61565b60405180910390f35b34801561019457600080fd5b506101af60048036038101906101aa9190611755565b610919565b6040516101bc9190611b61565b60405180910390f35b3480156101d157600080fd5b506101ec60048036038101906101e7919061177e565b610b23565b005b3480156101fa57600080fd5b50610203610e3d565b6040516102109190611b61565b60405180910390f35b34801561022557600080fd5b5061022e610e84565b60405161023b9190611b61565b60405180910390f35b34801561025057600080fd5b50610259610e8c565b6040516102669190611b61565b60405180910390f35b34801561027b57600080fd5b5061029660048036038101906102919190611755565b610e96565b6040516102a39190611b61565b60405180910390f35b3480156102b857600080fd5b506102d360048036038101906102ce9190611755565b610eeb565b005b3480156102e157600080fd5b506102ea611266565b6040516102f79190611a5d565b60405180910390f35b34801561030c57600080fd5b5061031561126e565b6040516103229190611b61565b60405180910390f35b34801561033757600080fd5b50610352600480360381019061034d919061172c565b611274565b005b34801561036057600080fd5b5061036961153c565b6040516103769190611adf565b60405180910390f35b34801561038b57600080fd5b5061039461162a565b6040516103a19190611b61565b60405180910390f35b6103b2611630565b005b6060600180548060200260200160405190810160405280929190818152602001828054801561043857602002820191906000526020600020905b8160009054906101000a900473ffffffffffffffffffffffffffffffffffffffff1673ffffffffffffffffffffffffffffffffffffffff16815260200190600101908083116103ee575b5050505050905090565b60005b600180549050811015610538578173ffffffffffffffffffffffffffffffffffffffff16600182815481106104a3577f4e487b7100000000000000000000000000000000000000000000000000000000600052603260045260246000fd5b9060005260206000200160009054906101000a900473ffffffffffffffffffffffffffffffffffffffff1673ffffffffffffffffffffffffffffffffffffffff161415610525576040517f08c379a000000000000000000000000000000000000000000000000000000000815260040161051c90611b21565b60405180910390fd5b808061053090611d95565b915050610445565b506004600180549050111561054c57600080fd5b6001819080600181540180825580915050600190039060005260206000200160009091909190916101000a81548173ffffffffffffffffffffffffffffffffffffffff021916908373ffffffffffffffffffffffffffffffffffffffff160217905550600180805490506105c09190611cd1565b60028190555050565b60006001808054905011610612576040517f08c379a000000000000000000000000000000000000000000000000000000000815260040161060990611b01565b60405180910390fd5b6002546004838154811061064f577f4e487b7100000000000000000000000000000000000000000000000000000000600052603260045260246000fd5b906000526020600020906005020160020154101561066c57600080fd5b600254600483815481106106a9577f4e487b7100000000000000000000000000000000000000000000000000000000600052603260045260246000fd5b906000526020600020906005020160020154106108d2576001600483815481106106fc577f4e487b7100000000000000000000000000000000000000000000000000000000600052603260045260246000fd5b906000526020600020906005020160030160006101000a81548160ff0219169083151502179055506004828154811061075e577f4e487b7100000000000000000000000000000000000000000000000000000000600052603260045260246000fd5b906000526020600020906005020160000154600760003373ffffffffffffffffffffffffffffffffffffffff1673ffffffffffffffffffffffffffffffffffffffff16815260200190815260200160002060008282546107be9190611cd1565b92505081905550600482815481106107ff577f4e487b7100000000000000000000000000000000000000000000000000000000600052603260045260246000fd5b906000526020600020906005020160000154600760006004858154811061084f577f4e487b7100000000000000000000000000000000000000000000000000000000600052603260045260246000fd5b906000526020600020906005020160010160009054906101000a900473ffffffffffffffffffffffffffffffffffffffff1673ffffffffffffffffffffffffffffffffffffffff1673ffffffffffffffffffffffffffffffffffffffff16815260200190815260200160002060008282546108ca9190611c7b565b925050819055505b600760003373ffffffffffffffffffffffffffffffffffffffff1673ffffffffffffffffffffffffffffffffffffffff168152602001908152602001600020549050919050565b6000806000905060005b6001805490508110156109e0573373ffffffffffffffffffffffffffffffffffffffff1660018281548110610981577f4e487b7100000000000000000000000000000000000000000000000000000000600052603260045260246000fd5b9060005260206000200160009054906101000a900473ffffffffffffffffffffffffffffffffffffffff1673ffffffffffffffffffffffffffffffffffffffff1614156109cd57600191505b80806109d890611d95565b915050610923565b5060011515811515146109f257600080fd5b82600760003373ffffffffffffffffffffffffffffffffffffffff1673ffffffffffffffffffffffffffffffffffffffff168152602001908152602001600020541015610a3e57600080fd5b3373ffffffffffffffffffffffffffffffffffffffff166108fc849081150290604051600060405180830381858888f19350505050158015610a84573d6000803e3d6000fd5b5082600760003373ffffffffffffffffffffffffffffffffffffffff1673ffffffffffffffffffffffffffffffffffffffff1681526020019081526020016000206000828254610ad49190611cd1565b92505081905550600760003373ffffffffffffffffffffffffffffffffffffffff1673ffffffffffffffffffffffffffffffffffffffff16815260200190815260200160002054915050919050565b6000805b600180549050811015610be4573373ffffffffffffffffffffffffffffffffffffffff1660018281548110610b85577f4e487b7100000000000000000000000000000000000000000000000000000000600052603260045260246000fd5b9060005260206000200160009054906101000a900473ffffffffffffffffffffffffffffffffffffffff1673ffffffffffffffffffffffffffffffffffffffff161415610bd157600191505b8080610bdc90611d95565b915050610b27565b506001151581151514610bf657600080fd5b6001808054905011610c3d576040517f08c379a0000000000000000000000000000000000000000000000000000000008152600401610c3490611b01565b60405180910390fd5b60005b600180549050811015610cfd578273ffffffffffffffffffffffffffffffffffffffff1660018281548110610c9e577f4e487b7100000000000000000000000000000000000000000000000000000000600052603260045260246000fd5b9060005260206000200160009054906101000a900473ffffffffffffffffffffffffffffffffffffffff1673ffffffffffffffffffffffffffffffffffffffff161415610cea57600080fd5b8080610cf590611d95565b915050610c40565b507f099c4ec4ecfc26f7c8b27aeee5443f92120fa2c4e91ba6020369ae71a4d44278600480549050843385604051610d389493929190611bb3565b60405180910390a160046040518060a001604052808581526020018473ffffffffffffffffffffffffffffffffffffffff1681526020016000815260200160001515815260200160048054905081525090806001815401808255809150506001900390600052602060002090600502016000909190919091506000820151816000015560208201518160010160006101000a81548173ffffffffffffffffffffffffffffffffffffffff021916908373ffffffffffffffffffffffffffffffffffffffff1602179055506040820151816002015560608201518160030160006101000a81548160ff021916908315150217905550608082015181600401555050505050565b6000600760003373ffffffffffffffffffffffffffffffffffffffff1673ffffffffffffffffffffffffffffffffffffffff16815260200190815260200160002054905090565b600047905090565b6000600254905090565b600060048281548110610ed2577f4e487b7100000000000000000000000000000000000000000000000000000000600052603260045260246000fd5b9060005260206000209060050201600201549050919050565b6000805b600180549050811015610fac573373ffffffffffffffffffffffffffffffffffffffff1660018281548110610f4d577f4e487b7100000000000000000000000000000000000000000000000000000000600052603260045260246000fd5b9060005260206000200160009054906101000a900473ffffffffffffffffffffffffffffffffffffffff1673ffffffffffffffffffffffffffffffffffffffff161415610f9957600191505b8080610fa490611d95565b915050610eef565b506001151581151514610fbe57600080fd5b6001808054905011611005576040517f08c379a0000000000000000000000000000000000000000000000000000000008152600401610ffc90611b01565b60405180910390fd5b60001515600660003373ffffffffffffffffffffffffffffffffffffffff1673ffffffffffffffffffffffffffffffffffffffff168152602001908152602001600020600084815260200190815260200160002060009054906101000a900460ff161515146110a9576040517f08c379a00000000000000000000000000000000000000000000000000000000081526004016110a090611b41565b60405180910390fd5b60001515600483815481106110e7577f4e487b7100000000000000000000000000000000000000000000000000000000600052603260045260246000fd5b906000526020600020906005020160030160009054906101000a900460ff1615151461111257600080fd5b6001600660003373ffffffffffffffffffffffffffffffffffffffff1673ffffffffffffffffffffffffffffffffffffffff168152602001908152602001600020600084815260200190815260200160002060006101000a81548160ff021916908315150217905550600482815481106111b5577f4e487b7100000000000000000000000000000000000000000000000000000000600052603260045260246000fd5b906000526020600020906005020160020160008154809291906111d790611d95565b91905055507ffec9d12d15ee8c8b836a58347cb0d4980db38411bcd0b83662cee48fb20b6dee8260048481548110611238577f4e487b7100000000000000000000000000000000000000000000000000000000600052603260045260246000fd5b9060005260206000209060050201600201543360405161125a93929190611b7c565b60405180910390a15050565b600033905090565b60035481565b600080600090505b6001805490508110156113d4578273ffffffffffffffffffffffffffffffffffffffff16600182815481106112da577f4e487b7100000000000000000000000000000000000000000000000000000000600052603260045260246000fd5b9060005260206000200160009054906101000a900473ffffffffffffffffffffffffffffffffffffffff1673ffffffffffffffffffffffffffffffffffffffff1614156113c1578091508273ffffffffffffffffffffffffffffffffffffffff1660018281548110611375577f4e487b7100000000000000000000000000000000000000000000000000000000600052603260045260246000fd5b9060005260206000200160009054906101000a900473ffffffffffffffffffffffffffffffffffffffff1673ffffffffffffffffffffffffffffffffffffffff16146113c057600080fd5b5b80806113cc90611d95565b91505061127c565b5060018080805490506113e79190611cd1565b8154811061141e577f4e487b7100000000000000000000000000000000000000000000000000000000600052603260045260246000fd5b9060005260206000200160009054906101000a900473ffffffffffffffffffffffffffffffffffffffff1660018281548110611483577f4e487b7100000000000000000000000000000000000000000000000000000000600052603260045260246000fd5b9060005260206000200160006101000a81548173ffffffffffffffffffffffffffffffffffffffff021916908373ffffffffffffffffffffffffffffffffffffffff1602179055506001805480611503577f4e487b7100000000000000000000000000000000000000000000000000000000600052603160045260246000fd5b6001900381819060005260206000200160006101000a81549073ffffffffffffffffffffffffffffffffffffffff021916905590555050565b60606004805480602002602001604051908101604052809291908181526020016000905b8282101561162157838290600052602060002090600502016040518060a0016040529081600082015481526020016001820160009054906101000a900473ffffffffffffffffffffffffffffffffffffffff1673ffffffffffffffffffffffffffffffffffffffff1673ffffffffffffffffffffffffffffffffffffffff168152602001600282015481526020016003820160009054906101000a900460ff1615151515815260200160048201548152505081526020019060010190611560565b50505050905090565b60025481565b600034101561163e57600080fd5b34600760003373ffffffffffffffffffffffffffffffffffffffff1673ffffffffffffffffffffffffffffffffffffffff168152602001908152602001600020600082825461168d9190611c7b565b925050819055507f2e0c7c0c884d7be5e05e90478e8e5e8e89b7fccac8131a5107aa200f79203f253360035434426040516116cb9493929190611a78565b60405180910390a1600360008154809291906116e690611d95565b9190505550565b6000813590506116fc81611e0d565b92915050565b60008135905061171181611e24565b92915050565b60008135905061172681611e3b565b92915050565b60006020828403121561173e57600080fd5b600061174c848285016116ed565b91505092915050565b60006020828403121561176757600080fd5b600061177584828501611717565b91505092915050565b6000806040838503121561179157600080fd5b600061179f85828601611717565b92505060206117b085828601611702565b9150509250929050565b60006117c68383611808565b60208301905092915050565b60006117de83836119d7565b60a08301905092915050565b6117f381611d5f565b82525050565b61180281611d17565b82525050565b61181181611d05565b82525050565b61182081611d05565b82525050565b600061183182611c18565b61183b8185611c48565b935061184683611bf8565b8060005b8381101561187757815161185e88826117ba565b975061186983611c2e565b92505060018101905061184a565b5085935050505092915050565b600061188f82611c23565b6118998185611c59565b93506118a483611c08565b8060005b838110156118d55781516118bc88826117d2565b97506118c783611c3b565b9250506001810190506118a8565b5085935050505092915050565b6118eb81611d29565b82525050565b60006118fe602183611c6a565b91507f6e65656420746f2068617665206d6f7265207468616e206f6e65207369676e6560008301527f72000000000000000000000000000000000000000000000000000000000000006020830152604082019050919050565b6000611964601283611c6a565b91507f416c7265616479207265676973746572656400000000000000000000000000006000830152602082019050919050565b60006119a4601b83611c6a565b91507f7472616e73616374696f6e20616c7261647920617070726f76656400000000006000830152602082019050919050565b60a0820160008201516119ed6000850182611a3f565b506020820151611a0060208501826117f9565b506040820151611a136040850182611a3f565b506060820151611a2660608501826118e2565b506080820151611a396080850182611a3f565b50505050565b611a4881611d55565b82525050565b611a5781611d55565b82525050565b6000602082019050611a726000830184611817565b92915050565b6000608082019050611a8d6000830187611817565b611a9a6020830186611a4e565b611aa76040830185611a4e565b611ab46060830184611a4e565b95945050505050565b60006020820190508181036000830152611ad78184611826565b905092915050565b60006020820190508181036000830152611af98184611884565b905092915050565b60006020820190508181036000830152611b1a816118f1565b9050919050565b60006020820190508181036000830152611b3a81611957565b9050919050565b60006020820190508181036000830152611b5a81611997565b9050919050565b6000602082019050611b766000830184611a4e565b92915050565b6000606082019050611b916000830186611a4e565b611b9e6020830185611a4e565b611bab6040830184611817565b949350505050565b6000608082019050611bc86000830187611a4e565b611bd56020830186611a4e565b611be26040830185611817565b611bef60608301846117ea565b95945050505050565b6000819050602082019050919050565b6000819050602082019050919050565b600081519050919050565b600081519050919050565b6000602082019050919050565b6000602082019050919050565b600082825260208201905092915050565b600082825260208201905092915050565b600082825260208201905092915050565b6000611c8682611d55565b9150611c9183611d55565b9250827fffffffffffffffffffffffffffffffffffffffffffffffffffffffffffffffff03821115611cc657611cc5611dde565b5b828201905092915050565b6000611cdc82611d55565b9150611ce783611d55565b925082821015611cfa57611cf9611dde565b5b828203905092915050565b6000611d1082611d35565b9050919050565b6000611d2282611d35565b9050919050565b60008115159050919050565b600073ffffffffffffffffffffffffffffffffffffffff82169050919050565b6000819050919050565b6000611d6a82611d71565b9050919050565b6000611d7c82611d83565b9050919050565b6000611d8e82611d35565b9050919050565b6000611da082611d55565b91507fffffffffffffffffffffffffffffffffffffffffffffffffffffffffffffffff821415611dd357611dd2611dde565b5b600182019050919050565b7f4e487b7100000000000000000000000000000000000000000000000000000000600052601160045260246000fd5b611e1681611d05565b8114611e2157600080fd5b50565b611e2d81611d17565b8114611e3857600080fd5b50565b611e4481611d55565b8114611e4f57600080fd5b5056fea264697066735822122038cd68851b352dab7fae3d8e58918f0d7e5ed80a466c378d55b3b851bd712e4a64736f6c63430008000033",
  "immutableReferences": {},
  "source": "//SPDX-License-Identifier: MIT\r\npragma solidity 0.8.0;\r\n\r\n//we need this for the get transferRequests() function\r\n//abicode allows us to print structs\r\npragma abicoder v2;\r\n\r\n\r\ncontract MultiSigWallet {\r\n\r\n    //address array to store owners\r\n    address mainOwner;\r\n    address[] owners;\r\n    //conensus limit for approvals\r\n    uint public limit;\r\n    uint256 public depositId = 0;\r\n\r\n    constructor() {\r\n        mainOwner = msg.sender;\r\n        owners.push(mainOwner);\r\n    }\r\n    \r\n    //set up data structures. each trasnfer has diff properties\r\n    //like amount, the reviever, how many approvals it has, the state of the\r\n    //transfer etc\r\n    struct Transfer{\r\n        uint amount;\r\n        address payable receiver;\r\n        uint approvals;\r\n        bool hasBeenSent;\r\n        uint id;\r\n    }\r\n    \r\n    //same for withdrawals\r\n    struct Withdraw{\r\n        uint amount;\r\n        address payable receiver;\r\n        uint approvals;\r\n        bool hasBeenSent;\r\n        uint id;\r\n    }\r\n    \r\n    \r\n    //here we create instances of our structs so we can keep logs\r\n    Transfer[] transferRequests;\r\n    Withdraw[] withdrawalRequests;\r\n    \r\n    //double mpping which maps an address and the transaction id to an approval boolean\r\n    //false if not approved true if so\r\n    mapping(address => mapping(uint => bool)) approvals;\r\n    //balance mapping which maps user address ot their account balance\r\n    mapping(address => uint)balance;\r\n    \r\n    //modifier which we can lace in function definitions to restrict access of that \r\n    //function to the wallet owners\r\n    modifier onlyOwners(){\r\n        bool owner = false;\r\n        for(uint i=0; i<owners.length;i++){\r\n            if(owners[i] == msg.sender){\r\n                owner = true;\r\n            }\r\n        }\r\n        require(owner == true);\r\n        _;\r\n    }\r\n    \r\n    //evets\r\n    event fundsDeposited(address to, uint256 id, uint amount, uint256 timeOfDeposit);\r\n    event TransferRequestCreated(uint _id, uint _amount, address _initiator, address _receiver);\r\n    event ApprovalReceived(uint _id, uint _approvals, address _approver);\r\n    event TransferApproved(uint _id);\r\n    \r\n    \r\n    //add user function. require owner is not already in the wallet array\r\n    function addUsers(address _owners) public\r\n    {\r\n        for (uint user = 0; user < owners.length; user++)\r\n        {\r\n            require(owners[user] != _owners, \"Already registered\");\r\n        }\r\n        require(owners.length <= 4);\r\n        owners.push(_owners);\r\n        \r\n        //from the current array calculate the value of minimum consensus\r\n        limit = owners.length - 1;\r\n    }\r\n    \r\n    //remove user require the address we pass in is the address were removing\r\n    function removeUser(address _user) public\r\n    {\r\n        uint user_index;\r\n        for(uint user = 0; user < owners.length; user++)\r\n        {\r\n            if (owners[user] == _user)\r\n            {   \r\n                user_index = user;\r\n                require(owners[user] == _user);\r\n            }\r\n        }\r\n        \r\n        owners[user_index] = owners[owners.length - 1];\r\n        owners.pop();\r\n        //owners;\r\n    }\r\n    \r\n    \r\n    //gets wallet users\r\n    function getUsers() public view returns(address[] memory)\r\n    {\r\n        return owners;\r\n    }\r\n    \r\n    function getApprovalLimit() public view returns (uint)\r\n    {\r\n        return (limit);\r\n    }\r\n    \r\n    \r\n    \r\n    //deposit function. require deposit amount i sgreater than 0 and withdrawalRequests//the wallet oweners array is greater than 1\r\n    function deposit() public payable\r\n    {\r\n        require(msg.value >= 0);\r\n        // require(owners.length > 1, \"need to have more than one signer\");\r\n    \r\n        balance[msg.sender] += msg.value;\r\n        emit fundsDeposited(msg.sender, depositId, msg.value, block.timestamp);\r\n        depositId++;\r\n    }\r\n    \r\n    \r\n    //next we want to make a get balance function\r\n    function getAccountBalance() public view returns(uint)\r\n    {\r\n        return balance[msg.sender];\r\n    }\r\n    \r\n    //get contratc balance\r\n    function getContractBalance() public view returns(uint)\r\n    {\r\n        return address(this).balance;\r\n    }\r\n    \r\n    \r\n    //next we want to make q function to return the address of the wallet owner\r\n    function getOwner() public view returns(address)\r\n    {\r\n        return msg.sender;\r\n    }\r\n    \r\n    \r\n    //Create an instance of the Transfer struct and add it to the transferRequests array\r\n    function createTransfer(uint _amount, address payable _receiver) public onlyOwners {\r\n        require(owners.length > 1, \"need to have more than one signer\");\r\n        //require(msg.sender != _receiver);\r\n        for (uint i = 0; i < owners.length; i++)\r\n        {\r\n            require(owners[i] != _receiver);\r\n        //   if  (owners[i] == _receiver)\r\n        //   {\r\n        //       revert();\r\n        //   }\r\n        }\r\n        emit TransferRequestCreated(transferRequests.length, _amount, msg.sender, _receiver);\r\n        transferRequests.push(\r\n            Transfer(_amount, _receiver, 0, false, transferRequests.length)\r\n        );\r\n        \r\n    }\r\n    \r\n    \r\n    \r\n    \r\n    \r\n    function Transferapprove(uint _id) public onlyOwners {\r\n        require(owners.length > 1, \"need to have more than one signer\");\r\n        require(approvals[msg.sender][_id] == false, \"transaction alrady approved\");\r\n        require(transferRequests[_id].hasBeenSent == false);\r\n        \r\n        // if ( transferRequests[_id].approvals => limit){\r\n        //     approvals[msg.sender][_id] = true;\r\n        // }\r\n        approvals[msg.sender][_id] = true;\r\n        transferRequests[_id].approvals++;\r\n        \r\n        emit ApprovalReceived(_id, transferRequests[_id].approvals, msg.sender);\r\n    \r\n        \r\n    }\r\n    \r\n    \r\n    \r\n    \r\n     //now we need to create a function to actually transfer the funds after the\r\n    //transfer has been recieved\r\n    function TransferFunds(uint _id) public returns(uint)\r\n    {\r\n        require(owners.length > 1, \"need to have more than one signer\");\r\n        require(transferRequests[_id].approvals >= limit);\r\n        \r\n        if(transferRequests[_id].approvals >= limit)\r\n        {\r\n            transferRequests[_id].hasBeenSent = true;\r\n            balance[msg.sender] -= transferRequests[_id].amount;\r\n            balance[transferRequests[_id].receiver] += transferRequests[_id].amount;\r\n            \r\n        }\r\n        return balance[msg.sender];\r\n    }\r\n    \r\n    //after transfer is called our balance i < transaction amount thus we cannot withfraw\r\n    //update amount after transfer function.\r\n    function withdraw(uint _amount) public onlyOwners returns (uint)\r\n    {\r\n       \r\n        require(balance[msg.sender] >= _amount);\r\n        \r\n        payable(msg.sender).transfer(_amount);\r\n        balance[msg.sender] -= _amount;\r\n        \r\n        return balance[msg.sender];\r\n        \r\n    }\r\n    \r\n    \r\n    function getApprovalState(uint _id) public view returns(uint)\r\n    {\r\n        return transferRequests[_id].approvals;\r\n    }\r\n    \r\n    \r\n    //Should return all transfer requests\r\n    function getTransferRequests() public view returns (Transfer[] memory){\r\n       \r\n        return transferRequests;\r\n    }\r\n}",
  "sourcePath": "C:/Users/evanMcGraneTest/Documents/EthereumProgramming/MutiSigWalletApp/contracts/Multisig.sol",
  "compiler": {
    "name": "solc",
    "version": "0.8.0+commit.c7dfd78e.Emscripten.clang"
  },
  "schemaVersion": "3.3.4",
  "updatedAt": "2021-08-12T15:05:44.346Z",
  "networkType": "ethereum",
  "devdoc": {
    "kind": "dev",
    "methods": {},
    "version": 1
  },
  "userdoc": {
    "kind": "user",
    "methods": {},
    "version": 1
  }
}